{
	"contracts/ChampionCollaborator.sol": {
		"ChampionCollaborator": {
			"abi": [
				{
					"anonymous": false,
					"inputs": [
						{
							"indexed": true,
							"internalType": "address",
							"name": "previousOwner",
							"type": "address"
						},
						{
							"indexed": true,
							"internalType": "address",
							"name": "newOwner",
							"type": "address"
						}
					],
					"name": "OwnershipTransferred",
					"type": "event"
				},
				{
					"stateMutability": "payable",
					"type": "fallback"
				},
				{
					"inputs": [],
					"name": "__initialize",
					"outputs": [],
					"stateMutability": "nonpayable",
					"type": "function"
				},
				{
					"inputs": [
						{
							"internalType": "address",
							"name": "account",
							"type": "address"
						},
						{
							"internalType": "uint256",
							"name": "percentage",
							"type": "uint256"
						}
					],
					"name": "addCollaborator",
					"outputs": [],
					"stateMutability": "nonpayable",
					"type": "function"
				},
				{
					"inputs": [
						{
							"internalType": "address",
							"name": "account",
							"type": "address"
						}
					],
					"name": "delCollaborator",
					"outputs": [],
					"stateMutability": "nonpayable",
					"type": "function"
				},
				{
					"inputs": [
						{
							"internalType": "address",
							"name": "account",
							"type": "address"
						}
					],
					"name": "getCollaborator",
					"outputs": [
						{
							"components": [
								{
									"internalType": "uint256",
									"name": "percentage",
									"type": "uint256"
								},
								{
									"internalType": "bool",
									"name": "active",
									"type": "bool"
								}
							],
							"internalType": "struct ChampionCollaborator.Collaborator",
							"name": "",
							"type": "tuple"
						}
					],
					"stateMutability": "view",
					"type": "function"
				},
				{
					"inputs": [],
					"name": "getCollaborator",
					"outputs": [
						{
							"components": [
								{
									"internalType": "uint256",
									"name": "percentage",
									"type": "uint256"
								},
								{
									"internalType": "bool",
									"name": "active",
									"type": "bool"
								}
							],
							"internalType": "struct ChampionCollaborator.Collaborator",
							"name": "",
							"type": "tuple"
						}
					],
					"stateMutability": "view",
					"type": "function"
				},
				{
					"inputs": [],
					"name": "owner",
					"outputs": [
						{
							"internalType": "address",
							"name": "",
							"type": "address"
						}
					],
					"stateMutability": "view",
					"type": "function"
				},
				{
					"inputs": [],
					"name": "recharge",
					"outputs": [],
					"stateMutability": "payable",
					"type": "function"
				},
				{
					"inputs": [],
					"name": "renounceOwnership",
					"outputs": [],
					"stateMutability": "nonpayable",
					"type": "function"
				},
				{
					"inputs": [
						{
							"internalType": "address",
							"name": "account",
							"type": "address"
						},
						{
							"internalType": "uint256",
							"name": "percentage",
							"type": "uint256"
						}
					],
					"name": "setCollaborator",
					"outputs": [],
					"stateMutability": "nonpayable",
					"type": "function"
				},
				{
					"inputs": [],
					"name": "totalPercentage",
					"outputs": [
						{
							"internalType": "uint256",
							"name": "",
							"type": "uint256"
						}
					],
					"stateMutability": "view",
					"type": "function"
				},
				{
					"inputs": [
						{
							"internalType": "address",
							"name": "newOwner",
							"type": "address"
						}
					],
					"name": "transferOwnership",
					"outputs": [],
					"stateMutability": "nonpayable",
					"type": "function"
				},
				{
					"inputs": [],
					"name": "withdraw",
					"outputs": [],
					"stateMutability": "nonpayable",
					"type": "function"
				},
				{
					"stateMutability": "payable",
					"type": "receive"
				}
			],
			"devdoc": {
				"kind": "dev",
				"methods": {
					"owner()": {
						"details": "Returns the address of the current owner."
					},
					"renounceOwnership()": {
						"details": "Leaves the contract without owner. It will not be possible to call `onlyOwner` functions anymore. Can only be called by the current owner. NOTE: Renouncing ownership will leave the contract without an owner, thereby removing any functionality that is only available to the owner."
					},
					"transferOwnership(address)": {
						"details": "Transfers ownership of the contract to a new account (`newOwner`). Can only be called by the current owner."
					}
				},
				"version": 1
			},
			"evm": {
				"assembly": "    /* \"contracts/ChampionCollaborator.sol\":160:3069  contract ChampionCollaborator is OwnableUpgradeable {\r... */\n  mstore(0x40, 0x80)\n  callvalue\n  dup1\n  iszero\n  tag_1\n  jumpi\n  0x00\n  dup1\n  revert\ntag_1:\n  pop\n  dataSize(sub_0)\n  dup1\n  dataOffset(sub_0)\n  0x00\n  codecopy\n  0x00\n  return\nstop\n\nsub_0: assembly {\n        /* \"contracts/ChampionCollaborator.sol\":160:3069  contract ChampionCollaborator is OwnableUpgradeable {\r... */\n      mstore(0x40, 0x80)\n      jumpi(tag_1, lt(calldatasize, 0x04))\n      shr(0xe0, calldataload(0x00))\n      dup1\n      0xd44a0e61\n      gt\n      tag_15\n      jumpi\n      dup1\n      0xd44a0e61\n      eq\n      tag_9\n      jumpi\n      dup1\n      0xdd9a5837\n      eq\n      tag_10\n      jumpi\n      dup1\n      0xe975e3ab\n      eq\n      tag_11\n      jumpi\n      dup1\n      0xece123e4\n      eq\n      tag_12\n      jumpi\n      dup1\n      0xf2fde38b\n      eq\n      tag_13\n      jumpi\n      dup1\n      0xf80ce32b\n      eq\n      tag_14\n      jumpi\n      jump(tag_2)\n    tag_15:\n      dup1\n      0x3ccfd60b\n      eq\n      tag_3\n      jumpi\n      dup1\n      0x4cddae28\n      eq\n      tag_4\n      jumpi\n      dup1\n      0x54a33f0e\n      eq\n      tag_5\n      jumpi\n      dup1\n      0x715018a6\n      eq\n      tag_6\n      jumpi\n      dup1\n      0x8da5cb5b\n      eq\n      tag_7\n      jumpi\n      dup1\n      0xb116bbf5\n      eq\n      tag_8\n      jumpi\n      jump(tag_2)\n    tag_1:\n      jumpi(tag_2, calldatasize)\n      stop\n    tag_2:\n      stop\n        /* \"contracts/ChampionCollaborator.sol\":2464:3011  function withdraw() external onlyOwner {\r... */\n    tag_3:\n      callvalue\n      dup1\n      iszero\n      tag_20\n      jumpi\n      0x00\n      dup1\n      revert\n    tag_20:\n      pop\n      tag_21\n      tag_22\n      jump\t// in\n    tag_21:\n      stop\n        /* \"contracts/ChampionCollaborator.sol\":3019:3066  function recharge() external payable {\r... */\n    tag_4:\n      tag_23\n      tag_24\n      jump\t// in\n    tag_23:\n      stop\n        /* \"contracts/ChampionCollaborator.sol\":1279:1748  function addCollaborator(address account, uint percentage) public onlyOwner {\r... */\n    tag_5:\n      callvalue\n      dup1\n      iszero\n      tag_25\n      jumpi\n      0x00\n      dup1\n      revert\n    tag_25:\n      pop\n      tag_26\n      0x04\n      dup1\n      calldatasize\n      sub\n      dup2\n      add\n      swap1\n      tag_27\n      swap2\n      swap1\n      tag_28\n      jump\t// in\n    tag_27:\n      tag_29\n      jump\t// in\n    tag_26:\n      stop\n        /* \"@openzeppelin/contracts-upgradeable/access/OwnableUpgradeable.sol\":1908:2009  function renounceOwnership() public virtual onlyOwner {... */\n    tag_6:\n      callvalue\n      dup1\n      iszero\n      tag_30\n      jumpi\n      0x00\n      dup1\n      revert\n    tag_30:\n      pop\n      tag_31\n      tag_32\n      jump\t// in\n    tag_31:\n      stop\n        /* \"@openzeppelin/contracts-upgradeable/access/OwnableUpgradeable.sol\":1276:1361  function owner() public view virtual returns (address) {... */\n    tag_7:\n      callvalue\n      dup1\n      iszero\n      tag_33\n      jumpi\n      0x00\n      dup1\n      revert\n    tag_33:\n      pop\n      tag_34\n      tag_35\n      jump\t// in\n    tag_34:\n      mload(0x40)\n      tag_36\n      swap2\n      swap1\n      tag_37\n      jump\t// in\n    tag_36:\n      mload(0x40)\n      dup1\n      swap2\n      sub\n      swap1\n      return\n        /* \"contracts/ChampionCollaborator.sol\":752:895  function getCollaborator(address account) public view onlyOwner returns(Collaborator memory) {\r... */\n    tag_8:\n      callvalue\n      dup1\n      iszero\n      tag_38\n      jumpi\n      0x00\n      dup1\n      revert\n    tag_38:\n      pop\n      tag_39\n      0x04\n      dup1\n      calldatasize\n      sub\n      dup2\n      add\n      swap1\n      tag_40\n      swap2\n      swap1\n      tag_41\n      jump\t// in\n    tag_40:\n      tag_42\n      jump\t// in\n    tag_39:\n      mload(0x40)\n      tag_43\n      swap2\n      swap1\n      tag_44\n      jump\t// in\n    tag_43:\n      mload(0x40)\n      dup1\n      swap2\n      sub\n      swap1\n      return\n        /* \"contracts/ChampionCollaborator.sol\":903:1271  function totalPercentage() public view returns(uint) {\r... */\n    tag_9:\n      callvalue\n      dup1\n      iszero\n      tag_45\n      jumpi\n      0x00\n      dup1\n      revert\n    tag_45:\n      pop\n      tag_46\n      tag_47\n      jump\t// in\n    tag_46:\n      mload(0x40)\n      tag_48\n      swap2\n      swap1\n      tag_49\n      jump\t// in\n    tag_48:\n      mload(0x40)\n      dup1\n      swap2\n      sub\n      swap1\n      return\n        /* \"contracts/ChampionCollaborator.sol\":1756:2166  function setCollaborator(address account, uint percentage) public onlyOwner {\r... */\n    tag_10:\n      callvalue\n      dup1\n      iszero\n      tag_50\n      jumpi\n      0x00\n      dup1\n      revert\n    tag_50:\n      pop\n      tag_51\n      0x04\n      dup1\n      calldatasize\n      sub\n      dup2\n      add\n      swap1\n      tag_52\n      swap2\n      swap1\n      tag_28\n      jump\t// in\n    tag_52:\n      tag_53\n      jump\t// in\n    tag_51:\n      stop\n        /* \"contracts/ChampionCollaborator.sol\":621:744  function getCollaborator() public view returns(Collaborator memory) {\r... */\n    tag_11:\n      callvalue\n      dup1\n      iszero\n      tag_54\n      jumpi\n      0x00\n      dup1\n      revert\n    tag_54:\n      pop\n      tag_55\n      tag_56\n      jump\t// in\n    tag_55:\n      mload(0x40)\n      tag_57\n      swap2\n      swap1\n      tag_44\n      jump\t// in\n    tag_57:\n      mload(0x40)\n      dup1\n      swap2\n      sub\n      swap1\n      return\n        /* \"contracts/ChampionCollaborator.sol\":2174:2456  function delCollaborator(address account) public onlyOwner {\r... */\n    tag_12:\n      callvalue\n      dup1\n      iszero\n      tag_58\n      jumpi\n      0x00\n      dup1\n      revert\n    tag_58:\n      pop\n      tag_59\n      0x04\n      dup1\n      calldatasize\n      sub\n      dup2\n      add\n      swap1\n      tag_60\n      swap2\n      swap1\n      tag_41\n      jump\t// in\n    tag_60:\n      tag_61\n      jump\t// in\n    tag_59:\n      stop\n        /* \"@openzeppelin/contracts-upgradeable/access/OwnableUpgradeable.sol\":2158:2356  function transferOwnership(address newOwner) public virtual onlyOwner {... */\n    tag_13:\n      callvalue\n      dup1\n      iszero\n      tag_62\n      jumpi\n      0x00\n      dup1\n      revert\n    tag_62:\n      pop\n      tag_63\n      0x04\n      dup1\n      calldatasize\n      sub\n      dup2\n      add\n      swap1\n      tag_64\n      swap2\n      swap1\n      tag_41\n      jump\t// in\n    tag_64:\n      tag_65\n      jump\t// in\n    tag_63:\n      stop\n        /* \"contracts/ChampionCollaborator.sol\":533:613  function __initialize() external initializer {\r... */\n    tag_14:\n      callvalue\n      dup1\n      iszero\n      tag_66\n      jumpi\n      0x00\n      dup1\n      revert\n    tag_66:\n      pop\n      tag_67\n      tag_68\n      jump\t// in\n    tag_67:\n      stop\n        /* \"contracts/ChampionCollaborator.sol\":2464:3011  function withdraw() external onlyOwner {\r... */\n    tag_22:\n        /* \"@openzeppelin/contracts-upgradeable/access/OwnableUpgradeable.sol\":1499:1511  _msgSender() */\n      tag_70\n        /* \"@openzeppelin/contracts-upgradeable/access/OwnableUpgradeable.sol\":1499:1509  _msgSender */\n      tag_71\n        /* \"@openzeppelin/contracts-upgradeable/access/OwnableUpgradeable.sol\":1499:1511  _msgSender() */\n      jump\t// in\n    tag_70:\n        /* \"@openzeppelin/contracts-upgradeable/access/OwnableUpgradeable.sol\":1488:1511  owner() == _msgSender() */\n      0xffffffffffffffffffffffffffffffffffffffff\n      and\n        /* \"@openzeppelin/contracts-upgradeable/access/OwnableUpgradeable.sol\":1488:1495  owner() */\n      tag_72\n        /* \"@openzeppelin/contracts-upgradeable/access/OwnableUpgradeable.sol\":1488:1493  owner */\n      tag_35\n        /* \"@openzeppelin/contracts-upgradeable/access/OwnableUpgradeable.sol\":1488:1495  owner() */\n      jump\t// in\n    tag_72:\n        /* \"@openzeppelin/contracts-upgradeable/access/OwnableUpgradeable.sol\":1488:1511  owner() == _msgSender() */\n      0xffffffffffffffffffffffffffffffffffffffff\n      and\n      eq\n        /* \"@openzeppelin/contracts-upgradeable/access/OwnableUpgradeable.sol\":1480:1548  require(owner() == _msgSender(), \"Ownable: caller is not the owner\") */\n      tag_73\n      jumpi\n      mload(0x40)\n      0x08c379a000000000000000000000000000000000000000000000000000000000\n      dup2\n      mstore\n      0x04\n      add\n      tag_74\n      swap1\n      tag_75\n      jump\t// in\n    tag_74:\n      mload(0x40)\n      dup1\n      swap2\n      sub\n      swap1\n      revert\n    tag_73:\n        /* \"contracts/ChampionCollaborator.sol\":2514:2529  uint256 balance */\n      0x00\n        /* \"contracts/ChampionCollaborator.sol\":2532:2553  address(this).balance */\n      selfbalance\n        /* \"contracts/ChampionCollaborator.sol\":2514:2553  uint256 balance = address(this).balance */\n      swap1\n      pop\n        /* \"contracts/ChampionCollaborator.sol\":2582:2583  0 */\n      0x00\n        /* \"contracts/ChampionCollaborator.sol\":2572:2579  balance */\n      dup2\n        /* \"contracts/ChampionCollaborator.sol\":2572:2583  balance > 0 */\n      gt\n        /* \"contracts/ChampionCollaborator.sol\":2564:2610  require(balance > 0, \"no balance to withdraw\") */\n      tag_77\n      jumpi\n      mload(0x40)\n      0x08c379a000000000000000000000000000000000000000000000000000000000\n      dup2\n      mstore\n      0x04\n      add\n      tag_78\n      swap1\n      tag_79\n      jump\t// in\n    tag_78:\n      mload(0x40)\n      dup1\n      swap2\n      sub\n      swap1\n      revert\n    tag_77:\n        /* \"contracts/ChampionCollaborator.sol\":2626:2632  uint i */\n      0x00\n        /* \"contracts/ChampionCollaborator.sol\":2621:3004  for (uint i = 0; i < allCollaborators.length; i++) {\r... */\n    tag_80:\n        /* \"contracts/ChampionCollaborator.sol\":2642:2658  allCollaborators */\n      0x65\n        /* \"contracts/ChampionCollaborator.sol\":2642:2665  allCollaborators.length */\n      dup1\n      sload\n      swap1\n      pop\n        /* \"contracts/ChampionCollaborator.sol\":2638:2639  i */\n      dup2\n        /* \"contracts/ChampionCollaborator.sol\":2638:2665  i < allCollaborators.length */\n      lt\n        /* \"contracts/ChampionCollaborator.sol\":2621:3004  for (uint i = 0; i < allCollaborators.length; i++) {\r... */\n      iszero\n      tag_81\n      jumpi\n        /* \"contracts/ChampionCollaborator.sol\":2687:2719  Collaborator memory collaborator */\n      0x00\n        /* \"contracts/ChampionCollaborator.sol\":2722:2737  CollaboratorMap */\n      0x66\n        /* \"contracts/ChampionCollaborator.sol\":2722:2758  CollaboratorMap[allCollaborators[i]] */\n      0x00\n        /* \"contracts/ChampionCollaborator.sol\":2738:2754  allCollaborators */\n      0x65\n        /* \"contracts/ChampionCollaborator.sol\":2755:2756  i */\n      dup5\n        /* \"contracts/ChampionCollaborator.sol\":2738:2757  allCollaborators[i] */\n      dup2\n      sload\n      dup2\n      lt\n      tag_83\n      jumpi\n      tag_84\n      tag_85\n      jump\t// in\n    tag_84:\n    tag_83:\n      swap1\n      0x00\n      mstore\n      keccak256(0x00, 0x20)\n      add\n      0x00\n      swap1\n      sload\n      swap1\n      0x0100\n      exp\n      swap1\n      div\n      0xffffffffffffffffffffffffffffffffffffffff\n      and\n        /* \"contracts/ChampionCollaborator.sol\":2722:2758  CollaboratorMap[allCollaborators[i]] */\n      0xffffffffffffffffffffffffffffffffffffffff\n      and\n      0xffffffffffffffffffffffffffffffffffffffff\n      and\n      dup2\n      mstore\n      0x20\n      add\n      swap1\n      dup2\n      mstore\n      0x20\n      add\n      0x00\n      keccak256\n        /* \"contracts/ChampionCollaborator.sol\":2687:2758  Collaborator memory collaborator = CollaboratorMap[allCollaborators[i]] */\n      mload(0x40)\n      dup1\n      0x40\n      add\n      0x40\n      mstore\n      swap1\n      dup2\n      0x00\n      dup3\n      add\n      sload\n      dup2\n      mstore\n      0x20\n      add\n      0x01\n      dup3\n      add\n      0x00\n      swap1\n      sload\n      swap1\n      0x0100\n      exp\n      swap1\n      div\n      0xff\n      and\n      iszero\n      iszero\n      iszero\n      iszero\n      dup2\n      mstore\n      pop\n      pop\n      swap1\n      pop\n        /* \"contracts/ChampionCollaborator.sol\":2777:2789  collaborator */\n      dup1\n        /* \"contracts/ChampionCollaborator.sol\":2777:2796  collaborator.active */\n      0x20\n      add\n      mload\n        /* \"contracts/ChampionCollaborator.sol\":2773:2993  if (collaborator.active) {\r... */\n      iszero\n      tag_87\n      jumpi\n        /* \"contracts/ChampionCollaborator.sol\":2818:2827  bool sent */\n      0x00\n        /* \"contracts/ChampionCollaborator.sol\":2840:2856  allCollaborators */\n      0x65\n        /* \"contracts/ChampionCollaborator.sol\":2857:2858  i */\n      dup4\n        /* \"contracts/ChampionCollaborator.sol\":2840:2859  allCollaborators[i] */\n      dup2\n      sload\n      dup2\n      lt\n      tag_88\n      jumpi\n      tag_89\n      tag_85\n      jump\t// in\n    tag_89:\n    tag_88:\n      swap1\n      0x00\n      mstore\n      keccak256(0x00, 0x20)\n      add\n      0x00\n      swap1\n      sload\n      swap1\n      0x0100\n      exp\n      swap1\n      div\n      0xffffffffffffffffffffffffffffffffffffffff\n      and\n        /* \"contracts/ChampionCollaborator.sol\":2832:2865  payable(allCollaborators[i]).call */\n      0xffffffffffffffffffffffffffffffffffffffff\n      and\n        /* \"contracts/ChampionCollaborator.sol\":2911:2916  10000 */\n      0x2710\n        /* \"contracts/ChampionCollaborator.sol\":2884:2896  collaborator */\n      dup4\n        /* \"contracts/ChampionCollaborator.sol\":2884:2907  collaborator.percentage */\n      0x00\n      add\n      mload\n        /* \"contracts/ChampionCollaborator.sol\":2874:2881  balance */\n      dup7\n        /* \"contracts/ChampionCollaborator.sol\":2874:2907  balance * collaborator.percentage */\n      tag_91\n      swap2\n      swap1\n      tag_92\n      jump\t// in\n    tag_91:\n        /* \"contracts/ChampionCollaborator.sol\":2873:2916  (balance * collaborator.percentage) / 10000 */\n      tag_93\n      swap2\n      swap1\n      tag_94\n      jump\t// in\n    tag_93:\n        /* \"contracts/ChampionCollaborator.sol\":2832:2921  payable(allCollaborators[i]).call{value: (balance * collaborator.percentage) / 10000}(\"\") */\n      mload(0x40)\n      tag_95\n      swap1\n      tag_96\n      jump\t// in\n    tag_95:\n      0x00\n      mload(0x40)\n      dup1\n      dup4\n      sub\n      dup2\n      dup6\n      dup8\n      gas\n      call\n      swap3\n      pop\n      pop\n      pop\n      returndatasize\n      dup1\n      0x00\n      dup2\n      eq\n      tag_99\n      jumpi\n      mload(0x40)\n      swap2\n      pop\n      and(add(returndatasize, 0x3f), not(0x1f))\n      dup3\n      add\n      0x40\n      mstore\n      returndatasize\n      dup3\n      mstore\n      returndatasize\n      0x00\n      0x20\n      dup5\n      add\n      returndatacopy\n      jump(tag_98)\n    tag_99:\n      0x60\n      swap2\n      pop\n    tag_98:\n      pop\n        /* \"contracts/ChampionCollaborator.sol\":2817:2921  (bool sent,) = payable(allCollaborators[i]).call{value: (balance * collaborator.percentage) / 10000}(\"\") */\n      pop\n      swap1\n      pop\n        /* \"contracts/ChampionCollaborator.sol\":2948:2952  sent */\n      dup1\n        /* \"contracts/ChampionCollaborator.sol\":2940:2977  require(sent, \"Failed to send Ether\") */\n      tag_100\n      jumpi\n      mload(0x40)\n      0x08c379a000000000000000000000000000000000000000000000000000000000\n      dup2\n      mstore\n      0x04\n      add\n      tag_101\n      swap1\n      tag_102\n      jump\t// in\n    tag_101:\n      mload(0x40)\n      dup1\n      swap2\n      sub\n      swap1\n      revert\n    tag_100:\n        /* \"contracts/ChampionCollaborator.sol\":2798:2993  {\r... */\n      pop\n        /* \"contracts/ChampionCollaborator.sol\":2773:2993  if (collaborator.active) {\r... */\n    tag_87:\n        /* \"contracts/ChampionCollaborator.sol\":2672:3004  {\r... */\n      pop\n        /* \"contracts/ChampionCollaborator.sol\":2667:2670  i++ */\n      dup1\n      dup1\n      tag_103\n      swap1\n      tag_104\n      jump\t// in\n    tag_103:\n      swap2\n      pop\n      pop\n        /* \"contracts/ChampionCollaborator.sol\":2621:3004  for (uint i = 0; i < allCollaborators.length; i++) {\r... */\n      jump(tag_80)\n    tag_81:\n      pop\n        /* \"contracts/ChampionCollaborator.sol\":2503:3011  {\r... */\n      pop\n        /* \"contracts/ChampionCollaborator.sol\":2464:3011  function withdraw() external onlyOwner {\r... */\n      jump\t// out\n        /* \"contracts/ChampionCollaborator.sol\":3019:3066  function recharge() external payable {\r... */\n    tag_24:\n      jump\t// out\n        /* \"contracts/ChampionCollaborator.sol\":1279:1748  function addCollaborator(address account, uint percentage) public onlyOwner {\r... */\n    tag_29:\n        /* \"@openzeppelin/contracts-upgradeable/access/OwnableUpgradeable.sol\":1499:1511  _msgSender() */\n      tag_107\n        /* \"@openzeppelin/contracts-upgradeable/access/OwnableUpgradeable.sol\":1499:1509  _msgSender */\n      tag_71\n        /* \"@openzeppelin/contracts-upgradeable/access/OwnableUpgradeable.sol\":1499:1511  _msgSender() */\n      jump\t// in\n    tag_107:\n        /* \"@openzeppelin/contracts-upgradeable/access/OwnableUpgradeable.sol\":1488:1511  owner() == _msgSender() */\n      0xffffffffffffffffffffffffffffffffffffffff\n      and\n        /* \"@openzeppelin/contracts-upgradeable/access/OwnableUpgradeable.sol\":1488:1495  owner() */\n      tag_108\n        /* \"@openzeppelin/contracts-upgradeable/access/OwnableUpgradeable.sol\":1488:1493  owner */\n      tag_35\n        /* \"@openzeppelin/contracts-upgradeable/access/OwnableUpgradeable.sol\":1488:1495  owner() */\n      jump\t// in\n    tag_108:\n        /* \"@openzeppelin/contracts-upgradeable/access/OwnableUpgradeable.sol\":1488:1511  owner() == _msgSender() */\n      0xffffffffffffffffffffffffffffffffffffffff\n      and\n      eq\n        /* \"@openzeppelin/contracts-upgradeable/access/OwnableUpgradeable.sol\":1480:1548  require(owner() == _msgSender(), \"Ownable: caller is not the owner\") */\n      tag_109\n      jumpi\n      mload(0x40)\n      0x08c379a000000000000000000000000000000000000000000000000000000000\n      dup2\n      mstore\n      0x04\n      add\n      tag_110\n      swap1\n      tag_75\n      jump\t// in\n    tag_110:\n      mload(0x40)\n      dup1\n      swap2\n      sub\n      swap1\n      revert\n    tag_109:\n        /* \"contracts/ChampionCollaborator.sol\":1393:1394  0 */\n      0x00\n        /* \"contracts/ChampionCollaborator.sol\":1374:1395  account != address(0) */\n      0xffffffffffffffffffffffffffffffffffffffff\n      and\n        /* \"contracts/ChampionCollaborator.sol\":1374:1381  account */\n      dup3\n        /* \"contracts/ChampionCollaborator.sol\":1374:1395  account != address(0) */\n      0xffffffffffffffffffffffffffffffffffffffff\n      and\n      eq\n      iszero\n        /* \"contracts/ChampionCollaborator.sol\":1366:1439  require(account != address(0), \"Collaborator cannot be an empty address\") */\n      tag_112\n      jumpi\n      mload(0x40)\n      0x08c379a000000000000000000000000000000000000000000000000000000000\n      dup2\n      mstore\n      0x04\n      add\n      tag_113\n      swap1\n      tag_114\n      jump\t// in\n    tag_113:\n      mload(0x40)\n      dup1\n      swap2\n      sub\n      swap1\n      revert\n    tag_112:\n        /* \"contracts/ChampionCollaborator.sol\":1459:1474  CollaboratorMap */\n      0x66\n        /* \"contracts/ChampionCollaborator.sol\":1459:1483  CollaboratorMap[account] */\n      0x00\n        /* \"contracts/ChampionCollaborator.sol\":1475:1482  account */\n      dup4\n        /* \"contracts/ChampionCollaborator.sol\":1459:1483  CollaboratorMap[account] */\n      0xffffffffffffffffffffffffffffffffffffffff\n      and\n      0xffffffffffffffffffffffffffffffffffffffff\n      and\n      dup2\n      mstore\n      0x20\n      add\n      swap1\n      dup2\n      mstore\n      0x20\n      add\n      0x00\n      keccak256\n        /* \"contracts/ChampionCollaborator.sol\":1459:1490  CollaboratorMap[account].active */\n      0x01\n      add\n      0x00\n      swap1\n      sload\n      swap1\n      0x0100\n      exp\n      swap1\n      div\n      0xff\n      and\n        /* \"contracts/ChampionCollaborator.sol\":1458:1490  !CollaboratorMap[account].active */\n      iszero\n        /* \"contracts/ChampionCollaborator.sol\":1450:1522  require(!CollaboratorMap[account].active, \"Collaborator already exists\") */\n      tag_115\n      jumpi\n      mload(0x40)\n      0x08c379a000000000000000000000000000000000000000000000000000000000\n      dup2\n      mstore\n      0x04\n      add\n      tag_116\n      swap1\n      tag_117\n      jump\t// in\n    tag_116:\n      mload(0x40)\n      dup1\n      swap2\n      sub\n      swap1\n      revert\n    tag_115:\n        /* \"contracts/ChampionCollaborator.sol\":1577:1582  10000 */\n      0x2710\n        /* \"contracts/ChampionCollaborator.sol\":1562:1572  percentage */\n      dup2\n        /* \"contracts/ChampionCollaborator.sol\":1542:1559  totalPercentage() */\n      tag_118\n        /* \"contracts/ChampionCollaborator.sol\":1542:1557  totalPercentage */\n      tag_47\n        /* \"contracts/ChampionCollaborator.sol\":1542:1559  totalPercentage() */\n      jump\t// in\n    tag_118:\n        /* \"contracts/ChampionCollaborator.sol\":1542:1572  totalPercentage() + percentage */\n      tag_119\n      swap2\n      swap1\n      tag_120\n      jump\t// in\n    tag_119:\n        /* \"contracts/ChampionCollaborator.sol\":1541:1582  (totalPercentage() + percentage) <= 10000 */\n      gt\n      iszero\n        /* \"contracts/ChampionCollaborator.sol\":1533:1629  require((totalPercentage() + percentage) <= 10000, \"totalPercentage will be greater than 10000\") */\n      tag_121\n      jumpi\n      mload(0x40)\n      0x08c379a000000000000000000000000000000000000000000000000000000000\n      dup2\n      mstore\n      0x04\n      add\n      tag_122\n      swap1\n      tag_123\n      jump\t// in\n    tag_122:\n      mload(0x40)\n      dup1\n      swap2\n      sub\n      swap1\n      revert\n    tag_121:\n        /* \"contracts/ChampionCollaborator.sol\":1669:1699  Collaborator(percentage, true) */\n      mload(0x40)\n      dup1\n      0x40\n      add\n      0x40\n      mstore\n      dup1\n        /* \"contracts/ChampionCollaborator.sol\":1682:1692  percentage */\n      dup3\n        /* \"contracts/ChampionCollaborator.sol\":1669:1699  Collaborator(percentage, true) */\n      dup2\n      mstore\n      0x20\n      add\n        /* \"contracts/ChampionCollaborator.sol\":1694:1698  true */\n      0x01\n        /* \"contracts/ChampionCollaborator.sol\":1669:1699  Collaborator(percentage, true) */\n      iszero\n      iszero\n      dup2\n      mstore\n      pop\n        /* \"contracts/ChampionCollaborator.sol\":1642:1657  CollaboratorMap */\n      0x66\n        /* \"contracts/ChampionCollaborator.sol\":1642:1666  CollaboratorMap[account] */\n      0x00\n        /* \"contracts/ChampionCollaborator.sol\":1658:1665  account */\n      dup5\n        /* \"contracts/ChampionCollaborator.sol\":1642:1666  CollaboratorMap[account] */\n      0xffffffffffffffffffffffffffffffffffffffff\n      and\n      0xffffffffffffffffffffffffffffffffffffffff\n      and\n      dup2\n      mstore\n      0x20\n      add\n      swap1\n      dup2\n      mstore\n      0x20\n      add\n      0x00\n      keccak256\n        /* \"contracts/ChampionCollaborator.sol\":1642:1699  CollaboratorMap[account] = Collaborator(percentage, true) */\n      0x00\n      dup3\n      add\n      mload\n      dup2\n      0x00\n      add\n      sstore\n      0x20\n      dup3\n      add\n      mload\n      dup2\n      0x01\n      add\n      exp(0x0100, 0x00)\n      dup2\n      sload\n      dup2\n      0xff\n      mul\n      not\n      and\n      swap1\n      dup4\n      iszero\n      iszero\n      mul\n      or\n      swap1\n      sstore\n      pop\n      swap1\n      pop\n      pop\n        /* \"contracts/ChampionCollaborator.sol\":1710:1726  allCollaborators */\n      0x65\n        /* \"contracts/ChampionCollaborator.sol\":1732:1739  account */\n      dup3\n        /* \"contracts/ChampionCollaborator.sol\":1710:1740  allCollaborators.push(account) */\n      swap1\n      dup1\n      0x01\n      dup2\n      sload\n      add\n      dup1\n      dup3\n      sstore\n      dup1\n      swap2\n      pop\n      pop\n      0x01\n      swap1\n      sub\n      swap1\n      0x00\n      mstore\n      keccak256(0x00, 0x20)\n      add\n      0x00\n      swap1\n      swap2\n      swap1\n      swap2\n      swap1\n      swap2\n      0x0100\n      exp\n      dup2\n      sload\n      dup2\n      0xffffffffffffffffffffffffffffffffffffffff\n      mul\n      not\n      and\n      swap1\n      dup4\n      0xffffffffffffffffffffffffffffffffffffffff\n      and\n      mul\n      or\n      swap1\n      sstore\n      pop\n        /* \"contracts/ChampionCollaborator.sol\":1279:1748  function addCollaborator(address account, uint percentage) public onlyOwner {\r... */\n      pop\n      pop\n      jump\t// out\n        /* \"@openzeppelin/contracts-upgradeable/access/OwnableUpgradeable.sol\":1908:2009  function renounceOwnership() public virtual onlyOwner {... */\n    tag_32:\n        /* \"@openzeppelin/contracts-upgradeable/access/OwnableUpgradeable.sol\":1499:1511  _msgSender() */\n      tag_126\n        /* \"@openzeppelin/contracts-upgradeable/access/OwnableUpgradeable.sol\":1499:1509  _msgSender */\n      tag_71\n        /* \"@openzeppelin/contracts-upgradeable/access/OwnableUpgradeable.sol\":1499:1511  _msgSender() */\n      jump\t// in\n    tag_126:\n        /* \"@openzeppelin/contracts-upgradeable/access/OwnableUpgradeable.sol\":1488:1511  owner() == _msgSender() */\n      0xffffffffffffffffffffffffffffffffffffffff\n      and\n        /* \"@openzeppelin/contracts-upgradeable/access/OwnableUpgradeable.sol\":1488:1495  owner() */\n      tag_127\n        /* \"@openzeppelin/contracts-upgradeable/access/OwnableUpgradeable.sol\":1488:1493  owner */\n      tag_35\n        /* \"@openzeppelin/contracts-upgradeable/access/OwnableUpgradeable.sol\":1488:1495  owner() */\n      jump\t// in\n    tag_127:\n        /* \"@openzeppelin/contracts-upgradeable/access/OwnableUpgradeable.sol\":1488:1511  owner() == _msgSender() */\n      0xffffffffffffffffffffffffffffffffffffffff\n      and\n      eq\n        /* \"@openzeppelin/contracts-upgradeable/access/OwnableUpgradeable.sol\":1480:1548  require(owner() == _msgSender(), \"Ownable: caller is not the owner\") */\n      tag_128\n      jumpi\n      mload(0x40)\n      0x08c379a000000000000000000000000000000000000000000000000000000000\n      dup2\n      mstore\n      0x04\n      add\n      tag_129\n      swap1\n      tag_75\n      jump\t// in\n    tag_129:\n      mload(0x40)\n      dup1\n      swap2\n      sub\n      swap1\n      revert\n    tag_128:\n        /* \"@openzeppelin/contracts-upgradeable/access/OwnableUpgradeable.sol\":1972:2002  _transferOwnership(address(0)) */\n      tag_131\n        /* \"@openzeppelin/contracts-upgradeable/access/OwnableUpgradeable.sol\":1999:2000  0 */\n      0x00\n        /* \"@openzeppelin/contracts-upgradeable/access/OwnableUpgradeable.sol\":1972:1990  _transferOwnership */\n      tag_132\n        /* \"@openzeppelin/contracts-upgradeable/access/OwnableUpgradeable.sol\":1972:2002  _transferOwnership(address(0)) */\n      jump\t// in\n    tag_131:\n        /* \"@openzeppelin/contracts-upgradeable/access/OwnableUpgradeable.sol\":1908:2009  function renounceOwnership() public virtual onlyOwner {... */\n      jump\t// out\n        /* \"@openzeppelin/contracts-upgradeable/access/OwnableUpgradeable.sol\":1276:1361  function owner() public view virtual returns (address) {... */\n    tag_35:\n        /* \"@openzeppelin/contracts-upgradeable/access/OwnableUpgradeable.sol\":1322:1329  address */\n      0x00\n        /* \"@openzeppelin/contracts-upgradeable/access/OwnableUpgradeable.sol\":1348:1354  _owner */\n      0x33\n      0x00\n      swap1\n      sload\n      swap1\n      0x0100\n      exp\n      swap1\n      div\n      0xffffffffffffffffffffffffffffffffffffffff\n      and\n        /* \"@openzeppelin/contracts-upgradeable/access/OwnableUpgradeable.sol\":1341:1354  return _owner */\n      swap1\n      pop\n        /* \"@openzeppelin/contracts-upgradeable/access/OwnableUpgradeable.sol\":1276:1361  function owner() public view virtual returns (address) {... */\n      swap1\n      jump\t// out\n        /* \"contracts/ChampionCollaborator.sol\":752:895  function getCollaborator(address account) public view onlyOwner returns(Collaborator memory) {\r... */\n    tag_42:\n        /* \"contracts/ChampionCollaborator.sol\":824:843  Collaborator memory */\n      tag_134\n      tag_135\n      jump\t// in\n    tag_134:\n        /* \"@openzeppelin/contracts-upgradeable/access/OwnableUpgradeable.sol\":1499:1511  _msgSender() */\n      tag_137\n        /* \"@openzeppelin/contracts-upgradeable/access/OwnableUpgradeable.sol\":1499:1509  _msgSender */\n      tag_71\n        /* \"@openzeppelin/contracts-upgradeable/access/OwnableUpgradeable.sol\":1499:1511  _msgSender() */\n      jump\t// in\n    tag_137:\n        /* \"@openzeppelin/contracts-upgradeable/access/OwnableUpgradeable.sol\":1488:1511  owner() == _msgSender() */\n      0xffffffffffffffffffffffffffffffffffffffff\n      and\n        /* \"@openzeppelin/contracts-upgradeable/access/OwnableUpgradeable.sol\":1488:1495  owner() */\n      tag_138\n        /* \"@openzeppelin/contracts-upgradeable/access/OwnableUpgradeable.sol\":1488:1493  owner */\n      tag_35\n        /* \"@openzeppelin/contracts-upgradeable/access/OwnableUpgradeable.sol\":1488:1495  owner() */\n      jump\t// in\n    tag_138:\n        /* \"@openzeppelin/contracts-upgradeable/access/OwnableUpgradeable.sol\":1488:1511  owner() == _msgSender() */\n      0xffffffffffffffffffffffffffffffffffffffff\n      and\n      eq\n        /* \"@openzeppelin/contracts-upgradeable/access/OwnableUpgradeable.sol\":1480:1548  require(owner() == _msgSender(), \"Ownable: caller is not the owner\") */\n      tag_139\n      jumpi\n      mload(0x40)\n      0x08c379a000000000000000000000000000000000000000000000000000000000\n      dup2\n      mstore\n      0x04\n      add\n      tag_140\n      swap1\n      tag_75\n      jump\t// in\n    tag_140:\n      mload(0x40)\n      dup1\n      swap2\n      sub\n      swap1\n      revert\n    tag_139:\n        /* \"contracts/ChampionCollaborator.sol\":863:878  CollaboratorMap */\n      0x66\n        /* \"contracts/ChampionCollaborator.sol\":863:887  CollaboratorMap[account] */\n      0x00\n        /* \"contracts/ChampionCollaborator.sol\":879:886  account */\n      dup4\n        /* \"contracts/ChampionCollaborator.sol\":863:887  CollaboratorMap[account] */\n      0xffffffffffffffffffffffffffffffffffffffff\n      and\n      0xffffffffffffffffffffffffffffffffffffffff\n      and\n      dup2\n      mstore\n      0x20\n      add\n      swap1\n      dup2\n      mstore\n      0x20\n      add\n      0x00\n      keccak256\n        /* \"contracts/ChampionCollaborator.sol\":856:887  return CollaboratorMap[account] */\n      mload(0x40)\n      dup1\n      0x40\n      add\n      0x40\n      mstore\n      swap1\n      dup2\n      0x00\n      dup3\n      add\n      sload\n      dup2\n      mstore\n      0x20\n      add\n      0x01\n      dup3\n      add\n      0x00\n      swap1\n      sload\n      swap1\n      0x0100\n      exp\n      swap1\n      div\n      0xff\n      and\n      iszero\n      iszero\n      iszero\n      iszero\n      dup2\n      mstore\n      pop\n      pop\n      swap1\n      pop\n        /* \"contracts/ChampionCollaborator.sol\":752:895  function getCollaborator(address account) public view onlyOwner returns(Collaborator memory) {\r... */\n      swap2\n      swap1\n      pop\n      jump\t// out\n        /* \"contracts/ChampionCollaborator.sol\":903:1271  function totalPercentage() public view returns(uint) {\r... */\n    tag_47:\n        /* \"contracts/ChampionCollaborator.sol\":950:954  uint */\n      0x00\n        /* \"contracts/ChampionCollaborator.sol\":967:975  uint sum */\n      dup1\n        /* \"contracts/ChampionCollaborator.sol\":978:979  0 */\n      0x00\n        /* \"contracts/ChampionCollaborator.sol\":967:979  uint sum = 0 */\n      swap1\n      pop\n        /* \"contracts/ChampionCollaborator.sol\":995:1001  uint i */\n      0x00\n        /* \"contracts/ChampionCollaborator.sol\":990:1243  for (uint i = 0; i < allCollaborators.length; i++) {\r... */\n    tag_143:\n        /* \"contracts/ChampionCollaborator.sol\":1011:1027  allCollaborators */\n      0x65\n        /* \"contracts/ChampionCollaborator.sol\":1011:1034  allCollaborators.length */\n      dup1\n      sload\n      swap1\n      pop\n        /* \"contracts/ChampionCollaborator.sol\":1007:1008  i */\n      dup2\n        /* \"contracts/ChampionCollaborator.sol\":1007:1034  i < allCollaborators.length */\n      lt\n        /* \"contracts/ChampionCollaborator.sol\":990:1243  for (uint i = 0; i < allCollaborators.length; i++) {\r... */\n      iszero\n      tag_144\n      jumpi\n        /* \"contracts/ChampionCollaborator.sol\":1056:1088  Collaborator memory collaborator */\n      0x00\n        /* \"contracts/ChampionCollaborator.sol\":1091:1106  CollaboratorMap */\n      0x66\n        /* \"contracts/ChampionCollaborator.sol\":1091:1127  CollaboratorMap[allCollaborators[i]] */\n      0x00\n        /* \"contracts/ChampionCollaborator.sol\":1107:1123  allCollaborators */\n      0x65\n        /* \"contracts/ChampionCollaborator.sol\":1124:1125  i */\n      dup5\n        /* \"contracts/ChampionCollaborator.sol\":1107:1126  allCollaborators[i] */\n      dup2\n      sload\n      dup2\n      lt\n      tag_146\n      jumpi\n      tag_147\n      tag_85\n      jump\t// in\n    tag_147:\n    tag_146:\n      swap1\n      0x00\n      mstore\n      keccak256(0x00, 0x20)\n      add\n      0x00\n      swap1\n      sload\n      swap1\n      0x0100\n      exp\n      swap1\n      div\n      0xffffffffffffffffffffffffffffffffffffffff\n      and\n        /* \"contracts/ChampionCollaborator.sol\":1091:1127  CollaboratorMap[allCollaborators[i]] */\n      0xffffffffffffffffffffffffffffffffffffffff\n      and\n      0xffffffffffffffffffffffffffffffffffffffff\n      and\n      dup2\n      mstore\n      0x20\n      add\n      swap1\n      dup2\n      mstore\n      0x20\n      add\n      0x00\n      keccak256\n        /* \"contracts/ChampionCollaborator.sol\":1056:1127  Collaborator memory collaborator = CollaboratorMap[allCollaborators[i]] */\n      mload(0x40)\n      dup1\n      0x40\n      add\n      0x40\n      mstore\n      swap1\n      dup2\n      0x00\n      dup3\n      add\n      sload\n      dup2\n      mstore\n      0x20\n      add\n      0x01\n      dup3\n      add\n      0x00\n      swap1\n      sload\n      swap1\n      0x0100\n      exp\n      swap1\n      div\n      0xff\n      and\n      iszero\n      iszero\n      iszero\n      iszero\n      dup2\n      mstore\n      pop\n      pop\n      swap1\n      pop\n        /* \"contracts/ChampionCollaborator.sol\":1146:1158  collaborator */\n      dup1\n        /* \"contracts/ChampionCollaborator.sol\":1146:1165  collaborator.active */\n      0x20\n      add\n      mload\n        /* \"contracts/ChampionCollaborator.sol\":1142:1232  if (collaborator.active) {\r... */\n      iszero\n      tag_149\n      jumpi\n        /* \"contracts/ChampionCollaborator.sol\":1193:1205  collaborator */\n      dup1\n        /* \"contracts/ChampionCollaborator.sol\":1193:1216  collaborator.percentage */\n      0x00\n      add\n      mload\n        /* \"contracts/ChampionCollaborator.sol\":1186:1216  sum += collaborator.percentage */\n      dup4\n      tag_150\n      swap2\n      swap1\n      tag_120\n      jump\t// in\n    tag_150:\n      swap3\n      pop\n        /* \"contracts/ChampionCollaborator.sol\":1142:1232  if (collaborator.active) {\r... */\n    tag_149:\n        /* \"contracts/ChampionCollaborator.sol\":1041:1243  {\r... */\n      pop\n        /* \"contracts/ChampionCollaborator.sol\":1036:1039  i++ */\n      dup1\n      dup1\n      tag_151\n      swap1\n      tag_104\n      jump\t// in\n    tag_151:\n      swap2\n      pop\n      pop\n        /* \"contracts/ChampionCollaborator.sol\":990:1243  for (uint i = 0; i < allCollaborators.length; i++) {\r... */\n      jump(tag_143)\n    tag_144:\n      pop\n        /* \"contracts/ChampionCollaborator.sol\":1260:1263  sum */\n      dup1\n        /* \"contracts/ChampionCollaborator.sol\":1253:1263  return sum */\n      swap2\n      pop\n      pop\n        /* \"contracts/ChampionCollaborator.sol\":903:1271  function totalPercentage() public view returns(uint) {\r... */\n      swap1\n      jump\t// out\n        /* \"contracts/ChampionCollaborator.sol\":1756:2166  function setCollaborator(address account, uint percentage) public onlyOwner {\r... */\n    tag_53:\n        /* \"@openzeppelin/contracts-upgradeable/access/OwnableUpgradeable.sol\":1499:1511  _msgSender() */\n      tag_153\n        /* \"@openzeppelin/contracts-upgradeable/access/OwnableUpgradeable.sol\":1499:1509  _msgSender */\n      tag_71\n        /* \"@openzeppelin/contracts-upgradeable/access/OwnableUpgradeable.sol\":1499:1511  _msgSender() */\n      jump\t// in\n    tag_153:\n        /* \"@openzeppelin/contracts-upgradeable/access/OwnableUpgradeable.sol\":1488:1511  owner() == _msgSender() */\n      0xffffffffffffffffffffffffffffffffffffffff\n      and\n        /* \"@openzeppelin/contracts-upgradeable/access/OwnableUpgradeable.sol\":1488:1495  owner() */\n      tag_154\n        /* \"@openzeppelin/contracts-upgradeable/access/OwnableUpgradeable.sol\":1488:1493  owner */\n      tag_35\n        /* \"@openzeppelin/contracts-upgradeable/access/OwnableUpgradeable.sol\":1488:1495  owner() */\n      jump\t// in\n    tag_154:\n        /* \"@openzeppelin/contracts-upgradeable/access/OwnableUpgradeable.sol\":1488:1511  owner() == _msgSender() */\n      0xffffffffffffffffffffffffffffffffffffffff\n      and\n      eq\n        /* \"@openzeppelin/contracts-upgradeable/access/OwnableUpgradeable.sol\":1480:1548  require(owner() == _msgSender(), \"Ownable: caller is not the owner\") */\n      tag_155\n      jumpi\n      mload(0x40)\n      0x08c379a000000000000000000000000000000000000000000000000000000000\n      dup2\n      mstore\n      0x04\n      add\n      tag_156\n      swap1\n      tag_75\n      jump\t// in\n    tag_156:\n      mload(0x40)\n      dup1\n      swap2\n      sub\n      swap1\n      revert\n    tag_155:\n        /* \"contracts/ChampionCollaborator.sol\":1870:1871  0 */\n      0x00\n        /* \"contracts/ChampionCollaborator.sol\":1851:1872  account != address(0) */\n      0xffffffffffffffffffffffffffffffffffffffff\n      and\n        /* \"contracts/ChampionCollaborator.sol\":1851:1858  account */\n      dup3\n        /* \"contracts/ChampionCollaborator.sol\":1851:1872  account != address(0) */\n      0xffffffffffffffffffffffffffffffffffffffff\n      and\n      eq\n      iszero\n        /* \"contracts/ChampionCollaborator.sol\":1843:1916  require(account != address(0), \"Collaborator cannot be an empty address\") */\n      tag_158\n      jumpi\n      mload(0x40)\n      0x08c379a000000000000000000000000000000000000000000000000000000000\n      dup2\n      mstore\n      0x04\n      add\n      tag_159\n      swap1\n      tag_114\n      jump\t// in\n    tag_159:\n      mload(0x40)\n      dup1\n      swap2\n      sub\n      swap1\n      revert\n    tag_158:\n        /* \"contracts/ChampionCollaborator.sol\":1935:1950  CollaboratorMap */\n      0x66\n        /* \"contracts/ChampionCollaborator.sol\":1935:1959  CollaboratorMap[account] */\n      0x00\n        /* \"contracts/ChampionCollaborator.sol\":1951:1958  account */\n      dup4\n        /* \"contracts/ChampionCollaborator.sol\":1935:1959  CollaboratorMap[account] */\n      0xffffffffffffffffffffffffffffffffffffffff\n      and\n      0xffffffffffffffffffffffffffffffffffffffff\n      and\n      dup2\n      mstore\n      0x20\n      add\n      swap1\n      dup2\n      mstore\n      0x20\n      add\n      0x00\n      keccak256\n        /* \"contracts/ChampionCollaborator.sol\":1935:1966  CollaboratorMap[account].active */\n      0x01\n      add\n      0x00\n      swap1\n      sload\n      swap1\n      0x0100\n      exp\n      swap1\n      div\n      0xff\n      and\n        /* \"contracts/ChampionCollaborator.sol\":1927:1997  require(CollaboratorMap[account].active, \"Collaborator is not exists\") */\n      tag_160\n      jumpi\n      mload(0x40)\n      0x08c379a000000000000000000000000000000000000000000000000000000000\n      dup2\n      mstore\n      0x04\n      add\n      tag_161\n      swap1\n      tag_162\n      jump\t// in\n    tag_161:\n      mload(0x40)\n      dup1\n      swap2\n      sub\n      swap1\n      revert\n    tag_160:\n        /* \"contracts/ChampionCollaborator.sol\":2056:2066  percentage */\n      dup1\n        /* \"contracts/ChampionCollaborator.sol\":2018:2033  CollaboratorMap */\n      0x66\n        /* \"contracts/ChampionCollaborator.sol\":2018:2042  CollaboratorMap[account] */\n      0x00\n        /* \"contracts/ChampionCollaborator.sol\":2034:2041  account */\n      dup5\n        /* \"contracts/ChampionCollaborator.sol\":2018:2042  CollaboratorMap[account] */\n      0xffffffffffffffffffffffffffffffffffffffff\n      and\n      0xffffffffffffffffffffffffffffffffffffffff\n      and\n      dup2\n      mstore\n      0x20\n      add\n      swap1\n      dup2\n      mstore\n      0x20\n      add\n      0x00\n      keccak256\n        /* \"contracts/ChampionCollaborator.sol\":2018:2053  CollaboratorMap[account].percentage */\n      0x00\n      add\n        /* \"contracts/ChampionCollaborator.sol\":2018:2066  CollaboratorMap[account].percentage = percentage */\n      dup2\n      swap1\n      sstore\n      pop\n        /* \"contracts/ChampionCollaborator.sol\":2106:2111  10000 */\n      0x2710\n        /* \"contracts/ChampionCollaborator.sol\":2085:2102  totalPercentage() */\n      tag_163\n        /* \"contracts/ChampionCollaborator.sol\":2085:2100  totalPercentage */\n      tag_47\n        /* \"contracts/ChampionCollaborator.sol\":2085:2102  totalPercentage() */\n      jump\t// in\n    tag_163:\n        /* \"contracts/ChampionCollaborator.sol\":2085:2111  totalPercentage() <= 10000 */\n      gt\n      iszero\n        /* \"contracts/ChampionCollaborator.sol\":2077:2158  require(totalPercentage() <= 10000, \"totalPercentage will be greater than 10000\") */\n      tag_164\n      jumpi\n      mload(0x40)\n      0x08c379a000000000000000000000000000000000000000000000000000000000\n      dup2\n      mstore\n      0x04\n      add\n      tag_165\n      swap1\n      tag_123\n      jump\t// in\n    tag_165:\n      mload(0x40)\n      dup1\n      swap2\n      sub\n      swap1\n      revert\n    tag_164:\n        /* \"contracts/ChampionCollaborator.sol\":1756:2166  function setCollaborator(address account, uint percentage) public onlyOwner {\r... */\n      pop\n      pop\n      jump\t// out\n        /* \"contracts/ChampionCollaborator.sol\":621:744  function getCollaborator() public view returns(Collaborator memory) {\r... */\n    tag_56:\n        /* \"contracts/ChampionCollaborator.sol\":668:687  Collaborator memory */\n      tag_166\n      tag_135\n      jump\t// in\n    tag_166:\n        /* \"contracts/ChampionCollaborator.sol\":707:722  CollaboratorMap */\n      0x66\n        /* \"contracts/ChampionCollaborator.sol\":707:736  CollaboratorMap[_msgSender()] */\n      0x00\n        /* \"contracts/ChampionCollaborator.sol\":723:735  _msgSender() */\n      tag_168\n        /* \"contracts/ChampionCollaborator.sol\":723:733  _msgSender */\n      tag_71\n        /* \"contracts/ChampionCollaborator.sol\":723:735  _msgSender() */\n      jump\t// in\n    tag_168:\n        /* \"contracts/ChampionCollaborator.sol\":707:736  CollaboratorMap[_msgSender()] */\n      0xffffffffffffffffffffffffffffffffffffffff\n      and\n      0xffffffffffffffffffffffffffffffffffffffff\n      and\n      dup2\n      mstore\n      0x20\n      add\n      swap1\n      dup2\n      mstore\n      0x20\n      add\n      0x00\n      keccak256\n        /* \"contracts/ChampionCollaborator.sol\":700:736  return CollaboratorMap[_msgSender()] */\n      mload(0x40)\n      dup1\n      0x40\n      add\n      0x40\n      mstore\n      swap1\n      dup2\n      0x00\n      dup3\n      add\n      sload\n      dup2\n      mstore\n      0x20\n      add\n      0x01\n      dup3\n      add\n      0x00\n      swap1\n      sload\n      swap1\n      0x0100\n      exp\n      swap1\n      div\n      0xff\n      and\n      iszero\n      iszero\n      iszero\n      iszero\n      dup2\n      mstore\n      pop\n      pop\n      swap1\n      pop\n        /* \"contracts/ChampionCollaborator.sol\":621:744  function getCollaborator() public view returns(Collaborator memory) {\r... */\n      swap1\n      jump\t// out\n        /* \"contracts/ChampionCollaborator.sol\":2174:2456  function delCollaborator(address account) public onlyOwner {\r... */\n    tag_61:\n        /* \"@openzeppelin/contracts-upgradeable/access/OwnableUpgradeable.sol\":1499:1511  _msgSender() */\n      tag_170\n        /* \"@openzeppelin/contracts-upgradeable/access/OwnableUpgradeable.sol\":1499:1509  _msgSender */\n      tag_71\n        /* \"@openzeppelin/contracts-upgradeable/access/OwnableUpgradeable.sol\":1499:1511  _msgSender() */\n      jump\t// in\n    tag_170:\n        /* \"@openzeppelin/contracts-upgradeable/access/OwnableUpgradeable.sol\":1488:1511  owner() == _msgSender() */\n      0xffffffffffffffffffffffffffffffffffffffff\n      and\n        /* \"@openzeppelin/contracts-upgradeable/access/OwnableUpgradeable.sol\":1488:1495  owner() */\n      tag_171\n        /* \"@openzeppelin/contracts-upgradeable/access/OwnableUpgradeable.sol\":1488:1493  owner */\n      tag_35\n        /* \"@openzeppelin/contracts-upgradeable/access/OwnableUpgradeable.sol\":1488:1495  owner() */\n      jump\t// in\n    tag_171:\n        /* \"@openzeppelin/contracts-upgradeable/access/OwnableUpgradeable.sol\":1488:1511  owner() == _msgSender() */\n      0xffffffffffffffffffffffffffffffffffffffff\n      and\n      eq\n        /* \"@openzeppelin/contracts-upgradeable/access/OwnableUpgradeable.sol\":1480:1548  require(owner() == _msgSender(), \"Ownable: caller is not the owner\") */\n      tag_172\n      jumpi\n      mload(0x40)\n      0x08c379a000000000000000000000000000000000000000000000000000000000\n      dup2\n      mstore\n      0x04\n      add\n      tag_173\n      swap1\n      tag_75\n      jump\t// in\n    tag_173:\n      mload(0x40)\n      dup1\n      swap2\n      sub\n      swap1\n      revert\n    tag_172:\n        /* \"contracts/ChampionCollaborator.sol\":2271:2272  0 */\n      0x00\n        /* \"contracts/ChampionCollaborator.sol\":2252:2273  account != address(0) */\n      0xffffffffffffffffffffffffffffffffffffffff\n      and\n        /* \"contracts/ChampionCollaborator.sol\":2252:2259  account */\n      dup2\n        /* \"contracts/ChampionCollaborator.sol\":2252:2273  account != address(0) */\n      0xffffffffffffffffffffffffffffffffffffffff\n      and\n      eq\n      iszero\n        /* \"contracts/ChampionCollaborator.sol\":2244:2317  require(account != address(0), \"Collaborator cannot be an empty address\") */\n      tag_175\n      jumpi\n      mload(0x40)\n      0x08c379a000000000000000000000000000000000000000000000000000000000\n      dup2\n      mstore\n      0x04\n      add\n      tag_176\n      swap1\n      tag_114\n      jump\t// in\n    tag_176:\n      mload(0x40)\n      dup1\n      swap2\n      sub\n      swap1\n      revert\n    tag_175:\n        /* \"contracts/ChampionCollaborator.sol\":2336:2351  CollaboratorMap */\n      0x66\n        /* \"contracts/ChampionCollaborator.sol\":2336:2360  CollaboratorMap[account] */\n      0x00\n        /* \"contracts/ChampionCollaborator.sol\":2352:2359  account */\n      dup3\n        /* \"contracts/ChampionCollaborator.sol\":2336:2360  CollaboratorMap[account] */\n      0xffffffffffffffffffffffffffffffffffffffff\n      and\n      0xffffffffffffffffffffffffffffffffffffffff\n      and\n      dup2\n      mstore\n      0x20\n      add\n      swap1\n      dup2\n      mstore\n      0x20\n      add\n      0x00\n      keccak256\n        /* \"contracts/ChampionCollaborator.sol\":2336:2367  CollaboratorMap[account].active */\n      0x01\n      add\n      0x00\n      swap1\n      sload\n      swap1\n      0x0100\n      exp\n      swap1\n      div\n      0xff\n      and\n        /* \"contracts/ChampionCollaborator.sol\":2328:2398  require(CollaboratorMap[account].active, \"Collaborator is not exists\") */\n      tag_177\n      jumpi\n      mload(0x40)\n      0x08c379a000000000000000000000000000000000000000000000000000000000\n      dup2\n      mstore\n      0x04\n      add\n      tag_178\n      swap1\n      tag_162\n      jump\t// in\n    tag_178:\n      mload(0x40)\n      dup1\n      swap2\n      sub\n      swap1\n      revert\n    tag_177:\n        /* \"contracts/ChampionCollaborator.sol\":2443:2448  false */\n      0x00\n        /* \"contracts/ChampionCollaborator.sol\":2409:2424  CollaboratorMap */\n      0x66\n        /* \"contracts/ChampionCollaborator.sol\":2409:2433  CollaboratorMap[account] */\n      0x00\n        /* \"contracts/ChampionCollaborator.sol\":2425:2432  account */\n      dup4\n        /* \"contracts/ChampionCollaborator.sol\":2409:2433  CollaboratorMap[account] */\n      0xffffffffffffffffffffffffffffffffffffffff\n      and\n      0xffffffffffffffffffffffffffffffffffffffff\n      and\n      dup2\n      mstore\n      0x20\n      add\n      swap1\n      dup2\n      mstore\n      0x20\n      add\n      0x00\n      keccak256\n        /* \"contracts/ChampionCollaborator.sol\":2409:2440  CollaboratorMap[account].active */\n      0x01\n      add\n      0x00\n        /* \"contracts/ChampionCollaborator.sol\":2409:2448  CollaboratorMap[account].active = false */\n      0x0100\n      exp\n      dup2\n      sload\n      dup2\n      0xff\n      mul\n      not\n      and\n      swap1\n      dup4\n      iszero\n      iszero\n      mul\n      or\n      swap1\n      sstore\n      pop\n        /* \"contracts/ChampionCollaborator.sol\":2174:2456  function delCollaborator(address account) public onlyOwner {\r... */\n      pop\n      jump\t// out\n        /* \"@openzeppelin/contracts-upgradeable/access/OwnableUpgradeable.sol\":2158:2356  function transferOwnership(address newOwner) public virtual onlyOwner {... */\n    tag_65:\n        /* \"@openzeppelin/contracts-upgradeable/access/OwnableUpgradeable.sol\":1499:1511  _msgSender() */\n      tag_180\n        /* \"@openzeppelin/contracts-upgradeable/access/OwnableUpgradeable.sol\":1499:1509  _msgSender */\n      tag_71\n        /* \"@openzeppelin/contracts-upgradeable/access/OwnableUpgradeable.sol\":1499:1511  _msgSender() */\n      jump\t// in\n    tag_180:\n        /* \"@openzeppelin/contracts-upgradeable/access/OwnableUpgradeable.sol\":1488:1511  owner() == _msgSender() */\n      0xffffffffffffffffffffffffffffffffffffffff\n      and\n        /* \"@openzeppelin/contracts-upgradeable/access/OwnableUpgradeable.sol\":1488:1495  owner() */\n      tag_181\n        /* \"@openzeppelin/contracts-upgradeable/access/OwnableUpgradeable.sol\":1488:1493  owner */\n      tag_35\n        /* \"@openzeppelin/contracts-upgradeable/access/OwnableUpgradeable.sol\":1488:1495  owner() */\n      jump\t// in\n    tag_181:\n        /* \"@openzeppelin/contracts-upgradeable/access/OwnableUpgradeable.sol\":1488:1511  owner() == _msgSender() */\n      0xffffffffffffffffffffffffffffffffffffffff\n      and\n      eq\n        /* \"@openzeppelin/contracts-upgradeable/access/OwnableUpgradeable.sol\":1480:1548  require(owner() == _msgSender(), \"Ownable: caller is not the owner\") */\n      tag_182\n      jumpi\n      mload(0x40)\n      0x08c379a000000000000000000000000000000000000000000000000000000000\n      dup2\n      mstore\n      0x04\n      add\n      tag_183\n      swap1\n      tag_75\n      jump\t// in\n    tag_183:\n      mload(0x40)\n      dup1\n      swap2\n      sub\n      swap1\n      revert\n    tag_182:\n        /* \"@openzeppelin/contracts-upgradeable/access/OwnableUpgradeable.sol\":2266:2267  0 */\n      0x00\n        /* \"@openzeppelin/contracts-upgradeable/access/OwnableUpgradeable.sol\":2246:2268  newOwner != address(0) */\n      0xffffffffffffffffffffffffffffffffffffffff\n      and\n        /* \"@openzeppelin/contracts-upgradeable/access/OwnableUpgradeable.sol\":2246:2254  newOwner */\n      dup2\n        /* \"@openzeppelin/contracts-upgradeable/access/OwnableUpgradeable.sol\":2246:2268  newOwner != address(0) */\n      0xffffffffffffffffffffffffffffffffffffffff\n      and\n      eq\n      iszero\n        /* \"@openzeppelin/contracts-upgradeable/access/OwnableUpgradeable.sol\":2238:2311  require(newOwner != address(0), \"Ownable: new owner is the zero address\") */\n      tag_185\n      jumpi\n      mload(0x40)\n      0x08c379a000000000000000000000000000000000000000000000000000000000\n      dup2\n      mstore\n      0x04\n      add\n      tag_186\n      swap1\n      tag_187\n      jump\t// in\n    tag_186:\n      mload(0x40)\n      dup1\n      swap2\n      sub\n      swap1\n      revert\n    tag_185:\n        /* \"@openzeppelin/contracts-upgradeable/access/OwnableUpgradeable.sol\":2321:2349  _transferOwnership(newOwner) */\n      tag_188\n        /* \"@openzeppelin/contracts-upgradeable/access/OwnableUpgradeable.sol\":2340:2348  newOwner */\n      dup2\n        /* \"@openzeppelin/contracts-upgradeable/access/OwnableUpgradeable.sol\":2321:2339  _transferOwnership */\n      tag_132\n        /* \"@openzeppelin/contracts-upgradeable/access/OwnableUpgradeable.sol\":2321:2349  _transferOwnership(newOwner) */\n      jump\t// in\n    tag_188:\n        /* \"@openzeppelin/contracts-upgradeable/access/OwnableUpgradeable.sol\":2158:2356  function transferOwnership(address newOwner) public virtual onlyOwner {... */\n      pop\n      jump\t// out\n        /* \"contracts/ChampionCollaborator.sol\":533:613  function __initialize() external initializer {\r... */\n    tag_68:\n        /* \"@openzeppelin/contracts-upgradeable/proxy/utils/Initializable.sol\":2369:2382  _initializing */\n      0x00\n      0x01\n      swap1\n      sload\n      swap1\n      0x0100\n      exp\n      swap1\n      div\n      0xff\n      and\n        /* \"@openzeppelin/contracts-upgradeable/proxy/utils/Initializable.sol\":2369:2417  _initializing ? _isConstructor() : !_initialized */\n      tag_190\n      jumpi\n        /* \"@openzeppelin/contracts-upgradeable/proxy/utils/Initializable.sol\":2405:2417  _initialized */\n      0x00\n      dup1\n      sload\n      swap1\n      0x0100\n      exp\n      swap1\n      div\n      0xff\n      and\n        /* \"@openzeppelin/contracts-upgradeable/proxy/utils/Initializable.sol\":2404:2417  !_initialized */\n      iszero\n        /* \"@openzeppelin/contracts-upgradeable/proxy/utils/Initializable.sol\":2369:2417  _initializing ? _isConstructor() : !_initialized */\n      jump(tag_191)\n    tag_190:\n        /* \"@openzeppelin/contracts-upgradeable/proxy/utils/Initializable.sol\":2385:2401  _isConstructor() */\n      tag_192\n        /* \"@openzeppelin/contracts-upgradeable/proxy/utils/Initializable.sol\":2385:2399  _isConstructor */\n      tag_193\n        /* \"@openzeppelin/contracts-upgradeable/proxy/utils/Initializable.sol\":2385:2401  _isConstructor() */\n      jump\t// in\n    tag_192:\n        /* \"@openzeppelin/contracts-upgradeable/proxy/utils/Initializable.sol\":2369:2417  _initializing ? _isConstructor() : !_initialized */\n    tag_191:\n        /* \"@openzeppelin/contracts-upgradeable/proxy/utils/Initializable.sol\":2361:2468  require(_initializing ? _isConstructor() : !_initialized, \"Initializable: contract is already initialized\") */\n      tag_194\n      jumpi\n      mload(0x40)\n      0x08c379a000000000000000000000000000000000000000000000000000000000\n      dup2\n      mstore\n      0x04\n      add\n      tag_195\n      swap1\n      tag_196\n      jump\t// in\n    tag_195:\n      mload(0x40)\n      dup1\n      swap2\n      sub\n      swap1\n      revert\n    tag_194:\n        /* \"@openzeppelin/contracts-upgradeable/proxy/utils/Initializable.sol\":2479:2498  bool isTopLevelCall */\n      0x00\n        /* \"@openzeppelin/contracts-upgradeable/proxy/utils/Initializable.sol\":2502:2515  _initializing */\n      dup1\n      0x01\n      swap1\n      sload\n      swap1\n      0x0100\n      exp\n      swap1\n      div\n      0xff\n      and\n        /* \"@openzeppelin/contracts-upgradeable/proxy/utils/Initializable.sol\":2501:2515  !_initializing */\n      iszero\n        /* \"@openzeppelin/contracts-upgradeable/proxy/utils/Initializable.sol\":2479:2515  bool isTopLevelCall = !_initializing */\n      swap1\n      pop\n        /* \"@openzeppelin/contracts-upgradeable/proxy/utils/Initializable.sol\":2529:2543  isTopLevelCall */\n      dup1\n        /* \"@openzeppelin/contracts-upgradeable/proxy/utils/Initializable.sol\":2525:2623  if (isTopLevelCall) {... */\n      iszero\n      tag_197\n      jumpi\n        /* \"@openzeppelin/contracts-upgradeable/proxy/utils/Initializable.sol\":2575:2579  true */\n      0x01\n        /* \"@openzeppelin/contracts-upgradeable/proxy/utils/Initializable.sol\":2559:2572  _initializing */\n      0x00\n      0x01\n        /* \"@openzeppelin/contracts-upgradeable/proxy/utils/Initializable.sol\":2559:2579  _initializing = true */\n      0x0100\n      exp\n      dup2\n      sload\n      dup2\n      0xff\n      mul\n      not\n      and\n      swap1\n      dup4\n      iszero\n      iszero\n      mul\n      or\n      swap1\n      sstore\n      pop\n        /* \"@openzeppelin/contracts-upgradeable/proxy/utils/Initializable.sol\":2608:2612  true */\n      0x01\n        /* \"@openzeppelin/contracts-upgradeable/proxy/utils/Initializable.sol\":2593:2605  _initialized */\n      0x00\n      dup1\n        /* \"@openzeppelin/contracts-upgradeable/proxy/utils/Initializable.sol\":2593:2612  _initialized = true */\n      0x0100\n      exp\n      dup2\n      sload\n      dup2\n      0xff\n      mul\n      not\n      and\n      swap1\n      dup4\n      iszero\n      iszero\n      mul\n      or\n      swap1\n      sstore\n      pop\n        /* \"@openzeppelin/contracts-upgradeable/proxy/utils/Initializable.sol\":2525:2623  if (isTopLevelCall) {... */\n    tag_197:\n        /* \"contracts/ChampionCollaborator.sol\":589:605  __Ownable_init() */\n      tag_199\n        /* \"contracts/ChampionCollaborator.sol\":589:603  __Ownable_init */\n      tag_200\n        /* \"contracts/ChampionCollaborator.sol\":589:605  __Ownable_init() */\n      jump\t// in\n    tag_199:\n        /* \"@openzeppelin/contracts-upgradeable/proxy/utils/Initializable.sol\":2649:2663  isTopLevelCall */\n      dup1\n        /* \"@openzeppelin/contracts-upgradeable/proxy/utils/Initializable.sol\":2645:2711  if (isTopLevelCall) {... */\n      iszero\n      tag_201\n      jumpi\n        /* \"@openzeppelin/contracts-upgradeable/proxy/utils/Initializable.sol\":2695:2700  false */\n      0x00\n        /* \"@openzeppelin/contracts-upgradeable/proxy/utils/Initializable.sol\":2679:2692  _initializing */\n      dup1\n      0x01\n        /* \"@openzeppelin/contracts-upgradeable/proxy/utils/Initializable.sol\":2679:2700  _initializing = false */\n      0x0100\n      exp\n      dup2\n      sload\n      dup2\n      0xff\n      mul\n      not\n      and\n      swap1\n      dup4\n      iszero\n      iszero\n      mul\n      or\n      swap1\n      sstore\n      pop\n        /* \"@openzeppelin/contracts-upgradeable/proxy/utils/Initializable.sol\":2645:2711  if (isTopLevelCall) {... */\n    tag_201:\n        /* \"@openzeppelin/contracts-upgradeable/proxy/utils/Initializable.sol\":2080:2717  {... */\n      pop\n        /* \"contracts/ChampionCollaborator.sol\":533:613  function __initialize() external initializer {\r... */\n      jump\t// out\n        /* \"@openzeppelin/contracts-upgradeable/utils/ContextUpgradeable.sol\":850:946  function _msgSender() internal view virtual returns (address) {... */\n    tag_71:\n        /* \"@openzeppelin/contracts-upgradeable/utils/ContextUpgradeable.sol\":903:910  address */\n      0x00\n        /* \"@openzeppelin/contracts-upgradeable/utils/ContextUpgradeable.sol\":929:939  msg.sender */\n      caller\n        /* \"@openzeppelin/contracts-upgradeable/utils/ContextUpgradeable.sol\":922:939  return msg.sender */\n      swap1\n      pop\n        /* \"@openzeppelin/contracts-upgradeable/utils/ContextUpgradeable.sol\":850:946  function _msgSender() internal view virtual returns (address) {... */\n      swap1\n      jump\t// out\n        /* \"@openzeppelin/contracts-upgradeable/access/OwnableUpgradeable.sol\":2510:2697  function _transferOwnership(address newOwner) internal virtual {... */\n    tag_132:\n        /* \"@openzeppelin/contracts-upgradeable/access/OwnableUpgradeable.sol\":2583:2599  address oldOwner */\n      0x00\n        /* \"@openzeppelin/contracts-upgradeable/access/OwnableUpgradeable.sol\":2602:2608  _owner */\n      0x33\n      0x00\n      swap1\n      sload\n      swap1\n      0x0100\n      exp\n      swap1\n      div\n      0xffffffffffffffffffffffffffffffffffffffff\n      and\n        /* \"@openzeppelin/contracts-upgradeable/access/OwnableUpgradeable.sol\":2583:2608  address oldOwner = _owner */\n      swap1\n      pop\n        /* \"@openzeppelin/contracts-upgradeable/access/OwnableUpgradeable.sol\":2627:2635  newOwner */\n      dup2\n        /* \"@openzeppelin/contracts-upgradeable/access/OwnableUpgradeable.sol\":2618:2624  _owner */\n      0x33\n      0x00\n        /* \"@openzeppelin/contracts-upgradeable/access/OwnableUpgradeable.sol\":2618:2635  _owner = newOwner */\n      0x0100\n      exp\n      dup2\n      sload\n      dup2\n      0xffffffffffffffffffffffffffffffffffffffff\n      mul\n      not\n      and\n      swap1\n      dup4\n      0xffffffffffffffffffffffffffffffffffffffff\n      and\n      mul\n      or\n      swap1\n      sstore\n      pop\n        /* \"@openzeppelin/contracts-upgradeable/access/OwnableUpgradeable.sol\":2681:2689  newOwner */\n      dup2\n        /* \"@openzeppelin/contracts-upgradeable/access/OwnableUpgradeable.sol\":2650:2690  OwnershipTransferred(oldOwner, newOwner) */\n      0xffffffffffffffffffffffffffffffffffffffff\n      and\n        /* \"@openzeppelin/contracts-upgradeable/access/OwnableUpgradeable.sol\":2671:2679  oldOwner */\n      dup2\n        /* \"@openzeppelin/contracts-upgradeable/access/OwnableUpgradeable.sol\":2650:2690  OwnershipTransferred(oldOwner, newOwner) */\n      0xffffffffffffffffffffffffffffffffffffffff\n      and\n      0x8be0079c531659141344cd1fd0a4f28419497f9722a3daafe3b4186f6b6457e0\n      mload(0x40)\n      mload(0x40)\n      dup1\n      swap2\n      sub\n      swap1\n      log3\n        /* \"@openzeppelin/contracts-upgradeable/access/OwnableUpgradeable.sol\":2573:2697  {... */\n      pop\n        /* \"@openzeppelin/contracts-upgradeable/access/OwnableUpgradeable.sol\":2510:2697  function _transferOwnership(address newOwner) internal virtual {... */\n      pop\n      jump\t// out\n        /* \"@openzeppelin/contracts-upgradeable/proxy/utils/Initializable.sol\":3037:3160  function _isConstructor() private view returns (bool) {... */\n    tag_193:\n        /* \"@openzeppelin/contracts-upgradeable/proxy/utils/Initializable.sol\":3085:3089  bool */\n      0x00\n        /* \"@openzeppelin/contracts-upgradeable/proxy/utils/Initializable.sol\":3109:3153  AddressUpgradeable.isContract(address(this)) */\n      tag_205\n        /* \"@openzeppelin/contracts-upgradeable/proxy/utils/Initializable.sol\":3147:3151  this */\n      address\n        /* \"@openzeppelin/contracts-upgradeable/proxy/utils/Initializable.sol\":3109:3138  AddressUpgradeable.isContract */\n      tag_206\n        /* \"@openzeppelin/contracts-upgradeable/proxy/utils/Initializable.sol\":3109:3153  AddressUpgradeable.isContract(address(this)) */\n      jump\t// in\n    tag_205:\n        /* \"@openzeppelin/contracts-upgradeable/proxy/utils/Initializable.sol\":3108:3153  !AddressUpgradeable.isContract(address(this)) */\n      iszero\n        /* \"@openzeppelin/contracts-upgradeable/proxy/utils/Initializable.sol\":3101:3153  return !AddressUpgradeable.isContract(address(this)) */\n      swap1\n      pop\n        /* \"@openzeppelin/contracts-upgradeable/proxy/utils/Initializable.sol\":3037:3160  function _isConstructor() private view returns (bool) {... */\n      swap1\n      jump\t// out\n        /* \"@openzeppelin/contracts-upgradeable/access/OwnableUpgradeable.sol\":988:1083  function __Ownable_init() internal onlyInitializing {... */\n    tag_200:\n        /* \"@openzeppelin/contracts-upgradeable/proxy/utils/Initializable.sol\":2952:2965  _initializing */\n      0x00\n      0x01\n      swap1\n      sload\n      swap1\n      0x0100\n      exp\n      swap1\n      div\n      0xff\n      and\n        /* \"@openzeppelin/contracts-upgradeable/proxy/utils/Initializable.sol\":2944:3013  require(_initializing, \"Initializable: contract is not initializing\") */\n      tag_208\n      jumpi\n      mload(0x40)\n      0x08c379a000000000000000000000000000000000000000000000000000000000\n      dup2\n      mstore\n      0x04\n      add\n      tag_209\n      swap1\n      tag_210\n      jump\t// in\n    tag_209:\n      mload(0x40)\n      dup1\n      swap2\n      sub\n      swap1\n      revert\n    tag_208:\n        /* \"@openzeppelin/contracts-upgradeable/access/OwnableUpgradeable.sol\":1050:1076  __Ownable_init_unchained() */\n      tag_212\n        /* \"@openzeppelin/contracts-upgradeable/access/OwnableUpgradeable.sol\":1050:1074  __Ownable_init_unchained */\n      tag_213\n        /* \"@openzeppelin/contracts-upgradeable/access/OwnableUpgradeable.sol\":1050:1076  __Ownable_init_unchained() */\n      jump\t// in\n    tag_212:\n        /* \"@openzeppelin/contracts-upgradeable/access/OwnableUpgradeable.sol\":988:1083  function __Ownable_init() internal onlyInitializing {... */\n      jump\t// out\n        /* \"@openzeppelin/contracts-upgradeable/utils/AddressUpgradeable.sol\":1186:1506  function isContract(address account) internal view returns (bool) {... */\n    tag_206:\n        /* \"@openzeppelin/contracts-upgradeable/utils/AddressUpgradeable.sol\":1246:1250  bool */\n      0x00\n        /* \"@openzeppelin/contracts-upgradeable/utils/AddressUpgradeable.sol\":1498:1499  0 */\n      dup1\n        /* \"@openzeppelin/contracts-upgradeable/utils/AddressUpgradeable.sol\":1476:1483  account */\n      dup3\n        /* \"@openzeppelin/contracts-upgradeable/utils/AddressUpgradeable.sol\":1476:1495  account.code.length */\n      0xffffffffffffffffffffffffffffffffffffffff\n      and\n      extcodesize\n        /* \"@openzeppelin/contracts-upgradeable/utils/AddressUpgradeable.sol\":1476:1499  account.code.length > 0 */\n      gt\n        /* \"@openzeppelin/contracts-upgradeable/utils/AddressUpgradeable.sol\":1469:1499  return account.code.length > 0 */\n      swap1\n      pop\n        /* \"@openzeppelin/contracts-upgradeable/utils/AddressUpgradeable.sol\":1186:1506  function isContract(address account) internal view returns (bool) {... */\n      swap2\n      swap1\n      pop\n      jump\t// out\n        /* \"@openzeppelin/contracts-upgradeable/access/OwnableUpgradeable.sol\":1089:1200  function __Ownable_init_unchained() internal onlyInitializing {... */\n    tag_213:\n        /* \"@openzeppelin/contracts-upgradeable/proxy/utils/Initializable.sol\":2952:2965  _initializing */\n      0x00\n      0x01\n      swap1\n      sload\n      swap1\n      0x0100\n      exp\n      swap1\n      div\n      0xff\n      and\n        /* \"@openzeppelin/contracts-upgradeable/proxy/utils/Initializable.sol\":2944:3013  require(_initializing, \"Initializable: contract is not initializing\") */\n      tag_216\n      jumpi\n      mload(0x40)\n      0x08c379a000000000000000000000000000000000000000000000000000000000\n      dup2\n      mstore\n      0x04\n      add\n      tag_217\n      swap1\n      tag_210\n      jump\t// in\n    tag_217:\n      mload(0x40)\n      dup1\n      swap2\n      sub\n      swap1\n      revert\n    tag_216:\n        /* \"@openzeppelin/contracts-upgradeable/access/OwnableUpgradeable.sol\":1161:1193  _transferOwnership(_msgSender()) */\n      tag_219\n        /* \"@openzeppelin/contracts-upgradeable/access/OwnableUpgradeable.sol\":1180:1192  _msgSender() */\n      tag_220\n        /* \"@openzeppelin/contracts-upgradeable/access/OwnableUpgradeable.sol\":1180:1190  _msgSender */\n      tag_71\n        /* \"@openzeppelin/contracts-upgradeable/access/OwnableUpgradeable.sol\":1180:1192  _msgSender() */\n      jump\t// in\n    tag_220:\n        /* \"@openzeppelin/contracts-upgradeable/access/OwnableUpgradeable.sol\":1161:1179  _transferOwnership */\n      tag_132\n        /* \"@openzeppelin/contracts-upgradeable/access/OwnableUpgradeable.sol\":1161:1193  _transferOwnership(_msgSender()) */\n      jump\t// in\n    tag_219:\n        /* \"@openzeppelin/contracts-upgradeable/access/OwnableUpgradeable.sol\":1089:1200  function __Ownable_init_unchained() internal onlyInitializing {... */\n      jump\t// out\n    tag_135:\n      mload(0x40)\n      dup1\n      0x40\n      add\n      0x40\n      mstore\n      dup1\n      0x00\n      dup2\n      mstore\n      0x20\n      add\n      iszero(iszero(0x00))\n      dup2\n      mstore\n      pop\n      swap1\n      jump\t// out\n        /* \"#utility.yul\":7:146   */\n    tag_222:\n        /* \"#utility.yul\":53:58   */\n      0x00\n        /* \"#utility.yul\":91:97   */\n      dup2\n        /* \"#utility.yul\":78:98   */\n      calldataload\n        /* \"#utility.yul\":69:98   */\n      swap1\n      pop\n        /* \"#utility.yul\":107:140   */\n      tag_224\n        /* \"#utility.yul\":134:139   */\n      dup2\n        /* \"#utility.yul\":107:140   */\n      tag_225\n      jump\t// in\n    tag_224:\n        /* \"#utility.yul\":7:146   */\n      swap3\n      swap2\n      pop\n      pop\n      jump\t// out\n        /* \"#utility.yul\":152:291   */\n    tag_226:\n        /* \"#utility.yul\":198:203   */\n      0x00\n        /* \"#utility.yul\":236:242   */\n      dup2\n        /* \"#utility.yul\":223:243   */\n      calldataload\n        /* \"#utility.yul\":214:243   */\n      swap1\n      pop\n        /* \"#utility.yul\":252:285   */\n      tag_228\n        /* \"#utility.yul\":279:284   */\n      dup2\n        /* \"#utility.yul\":252:285   */\n      tag_229\n      jump\t// in\n    tag_228:\n        /* \"#utility.yul\":152:291   */\n      swap3\n      swap2\n      pop\n      pop\n      jump\t// out\n        /* \"#utility.yul\":297:626   */\n    tag_41:\n        /* \"#utility.yul\":356:362   */\n      0x00\n        /* \"#utility.yul\":405:407   */\n      0x20\n        /* \"#utility.yul\":393:402   */\n      dup3\n        /* \"#utility.yul\":384:391   */\n      dup5\n        /* \"#utility.yul\":380:403   */\n      sub\n        /* \"#utility.yul\":376:408   */\n      slt\n        /* \"#utility.yul\":373:492   */\n      iszero\n      tag_231\n      jumpi\n        /* \"#utility.yul\":411:490   */\n      tag_232\n      tag_233\n      jump\t// in\n    tag_232:\n        /* \"#utility.yul\":373:492   */\n    tag_231:\n        /* \"#utility.yul\":531:532   */\n      0x00\n        /* \"#utility.yul\":556:609   */\n      tag_234\n        /* \"#utility.yul\":601:608   */\n      dup5\n        /* \"#utility.yul\":592:598   */\n      dup3\n        /* \"#utility.yul\":581:590   */\n      dup6\n        /* \"#utility.yul\":577:599   */\n      add\n        /* \"#utility.yul\":556:609   */\n      tag_222\n      jump\t// in\n    tag_234:\n        /* \"#utility.yul\":546:609   */\n      swap2\n      pop\n        /* \"#utility.yul\":502:619   */\n      pop\n        /* \"#utility.yul\":297:626   */\n      swap3\n      swap2\n      pop\n      pop\n      jump\t// out\n        /* \"#utility.yul\":632:1106   */\n    tag_28:\n        /* \"#utility.yul\":700:706   */\n      0x00\n        /* \"#utility.yul\":708:714   */\n      dup1\n        /* \"#utility.yul\":757:759   */\n      0x40\n        /* \"#utility.yul\":745:754   */\n      dup4\n        /* \"#utility.yul\":736:743   */\n      dup6\n        /* \"#utility.yul\":732:755   */\n      sub\n        /* \"#utility.yul\":728:760   */\n      slt\n        /* \"#utility.yul\":725:844   */\n      iszero\n      tag_236\n      jumpi\n        /* \"#utility.yul\":763:842   */\n      tag_237\n      tag_233\n      jump\t// in\n    tag_237:\n        /* \"#utility.yul\":725:844   */\n    tag_236:\n        /* \"#utility.yul\":883:884   */\n      0x00\n        /* \"#utility.yul\":908:961   */\n      tag_238\n        /* \"#utility.yul\":953:960   */\n      dup6\n        /* \"#utility.yul\":944:950   */\n      dup3\n        /* \"#utility.yul\":933:942   */\n      dup7\n        /* \"#utility.yul\":929:951   */\n      add\n        /* \"#utility.yul\":908:961   */\n      tag_222\n      jump\t// in\n    tag_238:\n        /* \"#utility.yul\":898:961   */\n      swap3\n      pop\n        /* \"#utility.yul\":854:971   */\n      pop\n        /* \"#utility.yul\":1010:1012   */\n      0x20\n        /* \"#utility.yul\":1036:1089   */\n      tag_239\n        /* \"#utility.yul\":1081:1088   */\n      dup6\n        /* \"#utility.yul\":1072:1078   */\n      dup3\n        /* \"#utility.yul\":1061:1070   */\n      dup7\n        /* \"#utility.yul\":1057:1079   */\n      add\n        /* \"#utility.yul\":1036:1089   */\n      tag_226\n      jump\t// in\n    tag_239:\n        /* \"#utility.yul\":1026:1089   */\n      swap2\n      pop\n        /* \"#utility.yul\":981:1099   */\n      pop\n        /* \"#utility.yul\":632:1106   */\n      swap3\n      pop\n      swap3\n      swap1\n      pop\n      jump\t// out\n        /* \"#utility.yul\":1112:1230   */\n    tag_240:\n        /* \"#utility.yul\":1199:1223   */\n      tag_242\n        /* \"#utility.yul\":1217:1222   */\n      dup2\n        /* \"#utility.yul\":1199:1223   */\n      tag_243\n      jump\t// in\n    tag_242:\n        /* \"#utility.yul\":1194:1197   */\n      dup3\n        /* \"#utility.yul\":1187:1224   */\n      mstore\n        /* \"#utility.yul\":1112:1230   */\n      pop\n      pop\n      jump\t// out\n        /* \"#utility.yul\":1236:1335   */\n    tag_244:\n        /* \"#utility.yul\":1307:1328   */\n      tag_246\n        /* \"#utility.yul\":1322:1327   */\n      dup2\n        /* \"#utility.yul\":1307:1328   */\n      tag_247\n      jump\t// in\n    tag_246:\n        /* \"#utility.yul\":1302:1305   */\n      dup3\n        /* \"#utility.yul\":1295:1329   */\n      mstore\n        /* \"#utility.yul\":1236:1335   */\n      pop\n      pop\n      jump\t// out\n        /* \"#utility.yul\":1341:1707   */\n    tag_248:\n        /* \"#utility.yul\":1483:1486   */\n      0x00\n        /* \"#utility.yul\":1504:1571   */\n      tag_250\n        /* \"#utility.yul\":1568:1570   */\n      0x26\n        /* \"#utility.yul\":1563:1566   */\n      dup4\n        /* \"#utility.yul\":1504:1571   */\n      tag_251\n      jump\t// in\n    tag_250:\n        /* \"#utility.yul\":1497:1571   */\n      swap2\n      pop\n        /* \"#utility.yul\":1580:1673   */\n      tag_252\n        /* \"#utility.yul\":1669:1672   */\n      dup3\n        /* \"#utility.yul\":1580:1673   */\n      tag_253\n      jump\t// in\n    tag_252:\n        /* \"#utility.yul\":1698:1700   */\n      0x40\n        /* \"#utility.yul\":1693:1696   */\n      dup3\n        /* \"#utility.yul\":1689:1701   */\n      add\n        /* \"#utility.yul\":1682:1701   */\n      swap1\n      pop\n        /* \"#utility.yul\":1341:1707   */\n      swap2\n      swap1\n      pop\n      jump\t// out\n        /* \"#utility.yul\":1713:2079   */\n    tag_254:\n        /* \"#utility.yul\":1855:1858   */\n      0x00\n        /* \"#utility.yul\":1876:1943   */\n      tag_256\n        /* \"#utility.yul\":1940:1942   */\n      0x16\n        /* \"#utility.yul\":1935:1938   */\n      dup4\n        /* \"#utility.yul\":1876:1943   */\n      tag_251\n      jump\t// in\n    tag_256:\n        /* \"#utility.yul\":1869:1943   */\n      swap2\n      pop\n        /* \"#utility.yul\":1952:2045   */\n      tag_257\n        /* \"#utility.yul\":2041:2044   */\n      dup3\n        /* \"#utility.yul\":1952:2045   */\n      tag_258\n      jump\t// in\n    tag_257:\n        /* \"#utility.yul\":2070:2072   */\n      0x20\n        /* \"#utility.yul\":2065:2068   */\n      dup3\n        /* \"#utility.yul\":2061:2073   */\n      add\n        /* \"#utility.yul\":2054:2073   */\n      swap1\n      pop\n        /* \"#utility.yul\":1713:2079   */\n      swap2\n      swap1\n      pop\n      jump\t// out\n        /* \"#utility.yul\":2085:2451   */\n    tag_259:\n        /* \"#utility.yul\":2227:2230   */\n      0x00\n        /* \"#utility.yul\":2248:2315   */\n      tag_261\n        /* \"#utility.yul\":2312:2314   */\n      0x14\n        /* \"#utility.yul\":2307:2310   */\n      dup4\n        /* \"#utility.yul\":2248:2315   */\n      tag_251\n      jump\t// in\n    tag_261:\n        /* \"#utility.yul\":2241:2315   */\n      swap2\n      pop\n        /* \"#utility.yul\":2324:2417   */\n      tag_262\n        /* \"#utility.yul\":2413:2416   */\n      dup3\n        /* \"#utility.yul\":2324:2417   */\n      tag_263\n      jump\t// in\n    tag_262:\n        /* \"#utility.yul\":2442:2444   */\n      0x20\n        /* \"#utility.yul\":2437:2440   */\n      dup3\n        /* \"#utility.yul\":2433:2445   */\n      add\n        /* \"#utility.yul\":2426:2445   */\n      swap1\n      pop\n        /* \"#utility.yul\":2085:2451   */\n      swap2\n      swap1\n      pop\n      jump\t// out\n        /* \"#utility.yul\":2457:2823   */\n    tag_264:\n        /* \"#utility.yul\":2599:2602   */\n      0x00\n        /* \"#utility.yul\":2620:2687   */\n      tag_266\n        /* \"#utility.yul\":2684:2686   */\n      0x2a\n        /* \"#utility.yul\":2679:2682   */\n      dup4\n        /* \"#utility.yul\":2620:2687   */\n      tag_251\n      jump\t// in\n    tag_266:\n        /* \"#utility.yul\":2613:2687   */\n      swap2\n      pop\n        /* \"#utility.yul\":2696:2789   */\n      tag_267\n        /* \"#utility.yul\":2785:2788   */\n      dup3\n        /* \"#utility.yul\":2696:2789   */\n      tag_268\n      jump\t// in\n    tag_267:\n        /* \"#utility.yul\":2814:2816   */\n      0x40\n        /* \"#utility.yul\":2809:2812   */\n      dup3\n        /* \"#utility.yul\":2805:2817   */\n      add\n        /* \"#utility.yul\":2798:2817   */\n      swap1\n      pop\n        /* \"#utility.yul\":2457:2823   */\n      swap2\n      swap1\n      pop\n      jump\t// out\n        /* \"#utility.yul\":2829:3195   */\n    tag_269:\n        /* \"#utility.yul\":2971:2974   */\n      0x00\n        /* \"#utility.yul\":2992:3059   */\n      tag_271\n        /* \"#utility.yul\":3056:3058   */\n      0x1b\n        /* \"#utility.yul\":3051:3054   */\n      dup4\n        /* \"#utility.yul\":2992:3059   */\n      tag_251\n      jump\t// in\n    tag_271:\n        /* \"#utility.yul\":2985:3059   */\n      swap2\n      pop\n        /* \"#utility.yul\":3068:3161   */\n      tag_272\n        /* \"#utility.yul\":3157:3160   */\n      dup3\n        /* \"#utility.yul\":3068:3161   */\n      tag_273\n      jump\t// in\n    tag_272:\n        /* \"#utility.yul\":3186:3188   */\n      0x20\n        /* \"#utility.yul\":3181:3184   */\n      dup3\n        /* \"#utility.yul\":3177:3189   */\n      add\n        /* \"#utility.yul\":3170:3189   */\n      swap1\n      pop\n        /* \"#utility.yul\":2829:3195   */\n      swap2\n      swap1\n      pop\n      jump\t// out\n        /* \"#utility.yul\":3201:3567   */\n    tag_274:\n        /* \"#utility.yul\":3343:3346   */\n      0x00\n        /* \"#utility.yul\":3364:3431   */\n      tag_276\n        /* \"#utility.yul\":3428:3430   */\n      0x2e\n        /* \"#utility.yul\":3423:3426   */\n      dup4\n        /* \"#utility.yul\":3364:3431   */\n      tag_251\n      jump\t// in\n    tag_276:\n        /* \"#utility.yul\":3357:3431   */\n      swap2\n      pop\n        /* \"#utility.yul\":3440:3533   */\n      tag_277\n        /* \"#utility.yul\":3529:3532   */\n      dup3\n        /* \"#utility.yul\":3440:3533   */\n      tag_278\n      jump\t// in\n    tag_277:\n        /* \"#utility.yul\":3558:3560   */\n      0x40\n        /* \"#utility.yul\":3553:3556   */\n      dup3\n        /* \"#utility.yul\":3549:3561   */\n      add\n        /* \"#utility.yul\":3542:3561   */\n      swap1\n      pop\n        /* \"#utility.yul\":3201:3567   */\n      swap2\n      swap1\n      pop\n      jump\t// out\n        /* \"#utility.yul\":3573:3939   */\n    tag_279:\n        /* \"#utility.yul\":3715:3718   */\n      0x00\n        /* \"#utility.yul\":3736:3803   */\n      tag_281\n        /* \"#utility.yul\":3800:3802   */\n      0x27\n        /* \"#utility.yul\":3795:3798   */\n      dup4\n        /* \"#utility.yul\":3736:3803   */\n      tag_251\n      jump\t// in\n    tag_281:\n        /* \"#utility.yul\":3729:3803   */\n      swap2\n      pop\n        /* \"#utility.yul\":3812:3905   */\n      tag_282\n        /* \"#utility.yul\":3901:3904   */\n      dup3\n        /* \"#utility.yul\":3812:3905   */\n      tag_283\n      jump\t// in\n    tag_282:\n        /* \"#utility.yul\":3930:3932   */\n      0x40\n        /* \"#utility.yul\":3925:3928   */\n      dup3\n        /* \"#utility.yul\":3921:3933   */\n      add\n        /* \"#utility.yul\":3914:3933   */\n      swap1\n      pop\n        /* \"#utility.yul\":3573:3939   */\n      swap2\n      swap1\n      pop\n      jump\t// out\n        /* \"#utility.yul\":3945:4311   */\n    tag_284:\n        /* \"#utility.yul\":4087:4090   */\n      0x00\n        /* \"#utility.yul\":4108:4175   */\n      tag_286\n        /* \"#utility.yul\":4172:4174   */\n      0x20\n        /* \"#utility.yul\":4167:4170   */\n      dup4\n        /* \"#utility.yul\":4108:4175   */\n      tag_251\n      jump\t// in\n    tag_286:\n        /* \"#utility.yul\":4101:4175   */\n      swap2\n      pop\n        /* \"#utility.yul\":4184:4277   */\n      tag_287\n        /* \"#utility.yul\":4273:4276   */\n      dup3\n        /* \"#utility.yul\":4184:4277   */\n      tag_288\n      jump\t// in\n    tag_287:\n        /* \"#utility.yul\":4302:4304   */\n      0x20\n        /* \"#utility.yul\":4297:4300   */\n      dup3\n        /* \"#utility.yul\":4293:4305   */\n      add\n        /* \"#utility.yul\":4286:4305   */\n      swap1\n      pop\n        /* \"#utility.yul\":3945:4311   */\n      swap2\n      swap1\n      pop\n      jump\t// out\n        /* \"#utility.yul\":4317:4715   */\n    tag_289:\n        /* \"#utility.yul\":4476:4479   */\n      0x00\n        /* \"#utility.yul\":4497:4580   */\n      tag_291\n        /* \"#utility.yul\":4578:4579   */\n      0x00\n        /* \"#utility.yul\":4573:4576   */\n      dup4\n        /* \"#utility.yul\":4497:4580   */\n      tag_292\n      jump\t// in\n    tag_291:\n        /* \"#utility.yul\":4490:4580   */\n      swap2\n      pop\n        /* \"#utility.yul\":4589:4682   */\n      tag_293\n        /* \"#utility.yul\":4678:4681   */\n      dup3\n        /* \"#utility.yul\":4589:4682   */\n      tag_294\n      jump\t// in\n    tag_293:\n        /* \"#utility.yul\":4707:4708   */\n      0x00\n        /* \"#utility.yul\":4702:4705   */\n      dup3\n        /* \"#utility.yul\":4698:4709   */\n      add\n        /* \"#utility.yul\":4691:4709   */\n      swap1\n      pop\n        /* \"#utility.yul\":4317:4715   */\n      swap2\n      swap1\n      pop\n      jump\t// out\n        /* \"#utility.yul\":4721:5087   */\n    tag_295:\n        /* \"#utility.yul\":4863:4866   */\n      0x00\n        /* \"#utility.yul\":4884:4951   */\n      tag_297\n        /* \"#utility.yul\":4948:4950   */\n      0x1a\n        /* \"#utility.yul\":4943:4946   */\n      dup4\n        /* \"#utility.yul\":4884:4951   */\n      tag_251\n      jump\t// in\n    tag_297:\n        /* \"#utility.yul\":4877:4951   */\n      swap2\n      pop\n        /* \"#utility.yul\":4960:5053   */\n      tag_298\n        /* \"#utility.yul\":5049:5052   */\n      dup3\n        /* \"#utility.yul\":4960:5053   */\n      tag_299\n      jump\t// in\n    tag_298:\n        /* \"#utility.yul\":5078:5080   */\n      0x20\n        /* \"#utility.yul\":5073:5076   */\n      dup3\n        /* \"#utility.yul\":5069:5081   */\n      add\n        /* \"#utility.yul\":5062:5081   */\n      swap1\n      pop\n        /* \"#utility.yul\":4721:5087   */\n      swap2\n      swap1\n      pop\n      jump\t// out\n        /* \"#utility.yul\":5093:5459   */\n    tag_300:\n        /* \"#utility.yul\":5235:5238   */\n      0x00\n        /* \"#utility.yul\":5256:5323   */\n      tag_302\n        /* \"#utility.yul\":5320:5322   */\n      0x2b\n        /* \"#utility.yul\":5315:5318   */\n      dup4\n        /* \"#utility.yul\":5256:5323   */\n      tag_251\n      jump\t// in\n    tag_302:\n        /* \"#utility.yul\":5249:5323   */\n      swap2\n      pop\n        /* \"#utility.yul\":5332:5425   */\n      tag_303\n        /* \"#utility.yul\":5421:5424   */\n      dup3\n        /* \"#utility.yul\":5332:5425   */\n      tag_304\n      jump\t// in\n    tag_303:\n        /* \"#utility.yul\":5450:5452   */\n      0x40\n        /* \"#utility.yul\":5445:5448   */\n      dup3\n        /* \"#utility.yul\":5441:5453   */\n      add\n        /* \"#utility.yul\":5434:5453   */\n      swap1\n      pop\n        /* \"#utility.yul\":5093:5459   */\n      swap2\n      swap1\n      pop\n      jump\t// out\n        /* \"#utility.yul\":5557:6074   */\n    tag_305:\n        /* \"#utility.yul\":5712:5716   */\n      0x40\n        /* \"#utility.yul\":5707:5710   */\n      dup3\n        /* \"#utility.yul\":5703:5717   */\n      add\n        /* \"#utility.yul\":5805:5809   */\n      0x00\n        /* \"#utility.yul\":5798:5803   */\n      dup3\n        /* \"#utility.yul\":5794:5810   */\n      add\n        /* \"#utility.yul\":5788:5811   */\n      mload\n        /* \"#utility.yul\":5824:5887   */\n      tag_307\n        /* \"#utility.yul\":5881:5885   */\n      0x00\n        /* \"#utility.yul\":5876:5879   */\n      dup6\n        /* \"#utility.yul\":5872:5886   */\n      add\n        /* \"#utility.yul\":5858:5870   */\n      dup3\n        /* \"#utility.yul\":5824:5887   */\n      tag_308\n      jump\t// in\n    tag_307:\n        /* \"#utility.yul\":5727:5897   */\n      pop\n        /* \"#utility.yul\":5981:5985   */\n      0x20\n        /* \"#utility.yul\":5974:5979   */\n      dup3\n        /* \"#utility.yul\":5970:5986   */\n      add\n        /* \"#utility.yul\":5964:5987   */\n      mload\n        /* \"#utility.yul\":6000:6057   */\n      tag_309\n        /* \"#utility.yul\":6051:6055   */\n      0x20\n        /* \"#utility.yul\":6046:6049   */\n      dup6\n        /* \"#utility.yul\":6042:6056   */\n      add\n        /* \"#utility.yul\":6028:6040   */\n      dup3\n        /* \"#utility.yul\":6000:6057   */\n      tag_244\n      jump\t// in\n    tag_309:\n        /* \"#utility.yul\":5907:6067   */\n      pop\n        /* \"#utility.yul\":5681:6074   */\n      pop\n        /* \"#utility.yul\":5557:6074   */\n      pop\n      pop\n      jump\t// out\n        /* \"#utility.yul\":6080:6188   */\n    tag_308:\n        /* \"#utility.yul\":6157:6181   */\n      tag_311\n        /* \"#utility.yul\":6175:6180   */\n      dup2\n        /* \"#utility.yul\":6157:6181   */\n      tag_312\n      jump\t// in\n    tag_311:\n        /* \"#utility.yul\":6152:6155   */\n      dup3\n        /* \"#utility.yul\":6145:6182   */\n      mstore\n        /* \"#utility.yul\":6080:6188   */\n      pop\n      pop\n      jump\t// out\n        /* \"#utility.yul\":6194:6312   */\n    tag_313:\n        /* \"#utility.yul\":6281:6305   */\n      tag_315\n        /* \"#utility.yul\":6299:6304   */\n      dup2\n        /* \"#utility.yul\":6281:6305   */\n      tag_312\n      jump\t// in\n    tag_315:\n        /* \"#utility.yul\":6276:6279   */\n      dup3\n        /* \"#utility.yul\":6269:6306   */\n      mstore\n        /* \"#utility.yul\":6194:6312   */\n      pop\n      pop\n      jump\t// out\n        /* \"#utility.yul\":6318:6697   */\n    tag_96:\n        /* \"#utility.yul\":6502:6505   */\n      0x00\n        /* \"#utility.yul\":6524:6671   */\n      tag_317\n        /* \"#utility.yul\":6667:6670   */\n      dup3\n        /* \"#utility.yul\":6524:6671   */\n      tag_289\n      jump\t// in\n    tag_317:\n        /* \"#utility.yul\":6517:6671   */\n      swap2\n      pop\n        /* \"#utility.yul\":6688:6691   */\n      dup2\n        /* \"#utility.yul\":6681:6691   */\n      swap1\n      pop\n        /* \"#utility.yul\":6318:6697   */\n      swap2\n      swap1\n      pop\n      jump\t// out\n        /* \"#utility.yul\":6703:6925   */\n    tag_37:\n        /* \"#utility.yul\":6796:6800   */\n      0x00\n        /* \"#utility.yul\":6834:6836   */\n      0x20\n        /* \"#utility.yul\":6823:6832   */\n      dup3\n        /* \"#utility.yul\":6819:6837   */\n      add\n        /* \"#utility.yul\":6811:6837   */\n      swap1\n      pop\n        /* \"#utility.yul\":6847:6918   */\n      tag_319\n        /* \"#utility.yul\":6915:6916   */\n      0x00\n        /* \"#utility.yul\":6904:6913   */\n      dup4\n        /* \"#utility.yul\":6900:6917   */\n      add\n        /* \"#utility.yul\":6891:6897   */\n      dup5\n        /* \"#utility.yul\":6847:6918   */\n      tag_240\n      jump\t// in\n    tag_319:\n        /* \"#utility.yul\":6703:6925   */\n      swap3\n      swap2\n      pop\n      pop\n      jump\t// out\n        /* \"#utility.yul\":6931:7350   */\n    tag_187:\n        /* \"#utility.yul\":7097:7101   */\n      0x00\n        /* \"#utility.yul\":7135:7137   */\n      0x20\n        /* \"#utility.yul\":7124:7133   */\n      dup3\n        /* \"#utility.yul\":7120:7138   */\n      add\n        /* \"#utility.yul\":7112:7138   */\n      swap1\n      pop\n        /* \"#utility.yul\":7184:7193   */\n      dup2\n        /* \"#utility.yul\":7178:7182   */\n      dup2\n        /* \"#utility.yul\":7174:7194   */\n      sub\n        /* \"#utility.yul\":7170:7171   */\n      0x00\n        /* \"#utility.yul\":7159:7168   */\n      dup4\n        /* \"#utility.yul\":7155:7172   */\n      add\n        /* \"#utility.yul\":7148:7195   */\n      mstore\n        /* \"#utility.yul\":7212:7343   */\n      tag_321\n        /* \"#utility.yul\":7338:7342   */\n      dup2\n        /* \"#utility.yul\":7212:7343   */\n      tag_248\n      jump\t// in\n    tag_321:\n        /* \"#utility.yul\":7204:7343   */\n      swap1\n      pop\n        /* \"#utility.yul\":6931:7350   */\n      swap2\n      swap1\n      pop\n      jump\t// out\n        /* \"#utility.yul\":7356:7775   */\n    tag_79:\n        /* \"#utility.yul\":7522:7526   */\n      0x00\n        /* \"#utility.yul\":7560:7562   */\n      0x20\n        /* \"#utility.yul\":7549:7558   */\n      dup3\n        /* \"#utility.yul\":7545:7563   */\n      add\n        /* \"#utility.yul\":7537:7563   */\n      swap1\n      pop\n        /* \"#utility.yul\":7609:7618   */\n      dup2\n        /* \"#utility.yul\":7603:7607   */\n      dup2\n        /* \"#utility.yul\":7599:7619   */\n      sub\n        /* \"#utility.yul\":7595:7596   */\n      0x00\n        /* \"#utility.yul\":7584:7593   */\n      dup4\n        /* \"#utility.yul\":7580:7597   */\n      add\n        /* \"#utility.yul\":7573:7620   */\n      mstore\n        /* \"#utility.yul\":7637:7768   */\n      tag_323\n        /* \"#utility.yul\":7763:7767   */\n      dup2\n        /* \"#utility.yul\":7637:7768   */\n      tag_254\n      jump\t// in\n    tag_323:\n        /* \"#utility.yul\":7629:7768   */\n      swap1\n      pop\n        /* \"#utility.yul\":7356:7775   */\n      swap2\n      swap1\n      pop\n      jump\t// out\n        /* \"#utility.yul\":7781:8200   */\n    tag_102:\n        /* \"#utility.yul\":7947:7951   */\n      0x00\n        /* \"#utility.yul\":7985:7987   */\n      0x20\n        /* \"#utility.yul\":7974:7983   */\n      dup3\n        /* \"#utility.yul\":7970:7988   */\n      add\n        /* \"#utility.yul\":7962:7988   */\n      swap1\n      pop\n        /* \"#utility.yul\":8034:8043   */\n      dup2\n        /* \"#utility.yul\":8028:8032   */\n      dup2\n        /* \"#utility.yul\":8024:8044   */\n      sub\n        /* \"#utility.yul\":8020:8021   */\n      0x00\n        /* \"#utility.yul\":8009:8018   */\n      dup4\n        /* \"#utility.yul\":8005:8022   */\n      add\n        /* \"#utility.yul\":7998:8045   */\n      mstore\n        /* \"#utility.yul\":8062:8193   */\n      tag_325\n        /* \"#utility.yul\":8188:8192   */\n      dup2\n        /* \"#utility.yul\":8062:8193   */\n      tag_259\n      jump\t// in\n    tag_325:\n        /* \"#utility.yul\":8054:8193   */\n      swap1\n      pop\n        /* \"#utility.yul\":7781:8200   */\n      swap2\n      swap1\n      pop\n      jump\t// out\n        /* \"#utility.yul\":8206:8625   */\n    tag_123:\n        /* \"#utility.yul\":8372:8376   */\n      0x00\n        /* \"#utility.yul\":8410:8412   */\n      0x20\n        /* \"#utility.yul\":8399:8408   */\n      dup3\n        /* \"#utility.yul\":8395:8413   */\n      add\n        /* \"#utility.yul\":8387:8413   */\n      swap1\n      pop\n        /* \"#utility.yul\":8459:8468   */\n      dup2\n        /* \"#utility.yul\":8453:8457   */\n      dup2\n        /* \"#utility.yul\":8449:8469   */\n      sub\n        /* \"#utility.yul\":8445:8446   */\n      0x00\n        /* \"#utility.yul\":8434:8443   */\n      dup4\n        /* \"#utility.yul\":8430:8447   */\n      add\n        /* \"#utility.yul\":8423:8470   */\n      mstore\n        /* \"#utility.yul\":8487:8618   */\n      tag_327\n        /* \"#utility.yul\":8613:8617   */\n      dup2\n        /* \"#utility.yul\":8487:8618   */\n      tag_264\n      jump\t// in\n    tag_327:\n        /* \"#utility.yul\":8479:8618   */\n      swap1\n      pop\n        /* \"#utility.yul\":8206:8625   */\n      swap2\n      swap1\n      pop\n      jump\t// out\n        /* \"#utility.yul\":8631:9050   */\n    tag_117:\n        /* \"#utility.yul\":8797:8801   */\n      0x00\n        /* \"#utility.yul\":8835:8837   */\n      0x20\n        /* \"#utility.yul\":8824:8833   */\n      dup3\n        /* \"#utility.yul\":8820:8838   */\n      add\n        /* \"#utility.yul\":8812:8838   */\n      swap1\n      pop\n        /* \"#utility.yul\":8884:8893   */\n      dup2\n        /* \"#utility.yul\":8878:8882   */\n      dup2\n        /* \"#utility.yul\":8874:8894   */\n      sub\n        /* \"#utility.yul\":8870:8871   */\n      0x00\n        /* \"#utility.yul\":8859:8868   */\n      dup4\n        /* \"#utility.yul\":8855:8872   */\n      add\n        /* \"#utility.yul\":8848:8895   */\n      mstore\n        /* \"#utility.yul\":8912:9043   */\n      tag_329\n        /* \"#utility.yul\":9038:9042   */\n      dup2\n        /* \"#utility.yul\":8912:9043   */\n      tag_269\n      jump\t// in\n    tag_329:\n        /* \"#utility.yul\":8904:9043   */\n      swap1\n      pop\n        /* \"#utility.yul\":8631:9050   */\n      swap2\n      swap1\n      pop\n      jump\t// out\n        /* \"#utility.yul\":9056:9475   */\n    tag_196:\n        /* \"#utility.yul\":9222:9226   */\n      0x00\n        /* \"#utility.yul\":9260:9262   */\n      0x20\n        /* \"#utility.yul\":9249:9258   */\n      dup3\n        /* \"#utility.yul\":9245:9263   */\n      add\n        /* \"#utility.yul\":9237:9263   */\n      swap1\n      pop\n        /* \"#utility.yul\":9309:9318   */\n      dup2\n        /* \"#utility.yul\":9303:9307   */\n      dup2\n        /* \"#utility.yul\":9299:9319   */\n      sub\n        /* \"#utility.yul\":9295:9296   */\n      0x00\n        /* \"#utility.yul\":9284:9293   */\n      dup4\n        /* \"#utility.yul\":9280:9297   */\n      add\n        /* \"#utility.yul\":9273:9320   */\n      mstore\n        /* \"#utility.yul\":9337:9468   */\n      tag_331\n        /* \"#utility.yul\":9463:9467   */\n      dup2\n        /* \"#utility.yul\":9337:9468   */\n      tag_274\n      jump\t// in\n    tag_331:\n        /* \"#utility.yul\":9329:9468   */\n      swap1\n      pop\n        /* \"#utility.yul\":9056:9475   */\n      swap2\n      swap1\n      pop\n      jump\t// out\n        /* \"#utility.yul\":9481:9900   */\n    tag_114:\n        /* \"#utility.yul\":9647:9651   */\n      0x00\n        /* \"#utility.yul\":9685:9687   */\n      0x20\n        /* \"#utility.yul\":9674:9683   */\n      dup3\n        /* \"#utility.yul\":9670:9688   */\n      add\n        /* \"#utility.yul\":9662:9688   */\n      swap1\n      pop\n        /* \"#utility.yul\":9734:9743   */\n      dup2\n        /* \"#utility.yul\":9728:9732   */\n      dup2\n        /* \"#utility.yul\":9724:9744   */\n      sub\n        /* \"#utility.yul\":9720:9721   */\n      0x00\n        /* \"#utility.yul\":9709:9718   */\n      dup4\n        /* \"#utility.yul\":9705:9722   */\n      add\n        /* \"#utility.yul\":9698:9745   */\n      mstore\n        /* \"#utility.yul\":9762:9893   */\n      tag_333\n        /* \"#utility.yul\":9888:9892   */\n      dup2\n        /* \"#utility.yul\":9762:9893   */\n      tag_279\n      jump\t// in\n    tag_333:\n        /* \"#utility.yul\":9754:9893   */\n      swap1\n      pop\n        /* \"#utility.yul\":9481:9900   */\n      swap2\n      swap1\n      pop\n      jump\t// out\n        /* \"#utility.yul\":9906:10325   */\n    tag_75:\n        /* \"#utility.yul\":10072:10076   */\n      0x00\n        /* \"#utility.yul\":10110:10112   */\n      0x20\n        /* \"#utility.yul\":10099:10108   */\n      dup3\n        /* \"#utility.yul\":10095:10113   */\n      add\n        /* \"#utility.yul\":10087:10113   */\n      swap1\n      pop\n        /* \"#utility.yul\":10159:10168   */\n      dup2\n        /* \"#utility.yul\":10153:10157   */\n      dup2\n        /* \"#utility.yul\":10149:10169   */\n      sub\n        /* \"#utility.yul\":10145:10146   */\n      0x00\n        /* \"#utility.yul\":10134:10143   */\n      dup4\n        /* \"#utility.yul\":10130:10147   */\n      add\n        /* \"#utility.yul\":10123:10170   */\n      mstore\n        /* \"#utility.yul\":10187:10318   */\n      tag_335\n        /* \"#utility.yul\":10313:10317   */\n      dup2\n        /* \"#utility.yul\":10187:10318   */\n      tag_284\n      jump\t// in\n    tag_335:\n        /* \"#utility.yul\":10179:10318   */\n      swap1\n      pop\n        /* \"#utility.yul\":9906:10325   */\n      swap2\n      swap1\n      pop\n      jump\t// out\n        /* \"#utility.yul\":10331:10750   */\n    tag_162:\n        /* \"#utility.yul\":10497:10501   */\n      0x00\n        /* \"#utility.yul\":10535:10537   */\n      0x20\n        /* \"#utility.yul\":10524:10533   */\n      dup3\n        /* \"#utility.yul\":10520:10538   */\n      add\n        /* \"#utility.yul\":10512:10538   */\n      swap1\n      pop\n        /* \"#utility.yul\":10584:10593   */\n      dup2\n        /* \"#utility.yul\":10578:10582   */\n      dup2\n        /* \"#utility.yul\":10574:10594   */\n      sub\n        /* \"#utility.yul\":10570:10571   */\n      0x00\n        /* \"#utility.yul\":10559:10568   */\n      dup4\n        /* \"#utility.yul\":10555:10572   */\n      add\n        /* \"#utility.yul\":10548:10595   */\n      mstore\n        /* \"#utility.yul\":10612:10743   */\n      tag_337\n        /* \"#utility.yul\":10738:10742   */\n      dup2\n        /* \"#utility.yul\":10612:10743   */\n      tag_295\n      jump\t// in\n    tag_337:\n        /* \"#utility.yul\":10604:10743   */\n      swap1\n      pop\n        /* \"#utility.yul\":10331:10750   */\n      swap2\n      swap1\n      pop\n      jump\t// out\n        /* \"#utility.yul\":10756:11175   */\n    tag_210:\n        /* \"#utility.yul\":10922:10926   */\n      0x00\n        /* \"#utility.yul\":10960:10962   */\n      0x20\n        /* \"#utility.yul\":10949:10958   */\n      dup3\n        /* \"#utility.yul\":10945:10963   */\n      add\n        /* \"#utility.yul\":10937:10963   */\n      swap1\n      pop\n        /* \"#utility.yul\":11009:11018   */\n      dup2\n        /* \"#utility.yul\":11003:11007   */\n      dup2\n        /* \"#utility.yul\":10999:11019   */\n      sub\n        /* \"#utility.yul\":10995:10996   */\n      0x00\n        /* \"#utility.yul\":10984:10993   */\n      dup4\n        /* \"#utility.yul\":10980:10997   */\n      add\n        /* \"#utility.yul\":10973:11020   */\n      mstore\n        /* \"#utility.yul\":11037:11168   */\n      tag_339\n        /* \"#utility.yul\":11163:11167   */\n      dup2\n        /* \"#utility.yul\":11037:11168   */\n      tag_300\n      jump\t// in\n    tag_339:\n        /* \"#utility.yul\":11029:11168   */\n      swap1\n      pop\n        /* \"#utility.yul\":10756:11175   */\n      swap2\n      swap1\n      pop\n      jump\t// out\n        /* \"#utility.yul\":11181:11519   */\n    tag_44:\n        /* \"#utility.yul\":11332:11336   */\n      0x00\n        /* \"#utility.yul\":11370:11372   */\n      0x40\n        /* \"#utility.yul\":11359:11368   */\n      dup3\n        /* \"#utility.yul\":11355:11373   */\n      add\n        /* \"#utility.yul\":11347:11373   */\n      swap1\n      pop\n        /* \"#utility.yul\":11383:11512   */\n      tag_341\n        /* \"#utility.yul\":11509:11510   */\n      0x00\n        /* \"#utility.yul\":11498:11507   */\n      dup4\n        /* \"#utility.yul\":11494:11511   */\n      add\n        /* \"#utility.yul\":11485:11491   */\n      dup5\n        /* \"#utility.yul\":11383:11512   */\n      tag_305\n      jump\t// in\n    tag_341:\n        /* \"#utility.yul\":11181:11519   */\n      swap3\n      swap2\n      pop\n      pop\n      jump\t// out\n        /* \"#utility.yul\":11525:11747   */\n    tag_49:\n        /* \"#utility.yul\":11618:11622   */\n      0x00\n        /* \"#utility.yul\":11656:11658   */\n      0x20\n        /* \"#utility.yul\":11645:11654   */\n      dup3\n        /* \"#utility.yul\":11641:11659   */\n      add\n        /* \"#utility.yul\":11633:11659   */\n      swap1\n      pop\n        /* \"#utility.yul\":11669:11740   */\n      tag_343\n        /* \"#utility.yul\":11737:11738   */\n      0x00\n        /* \"#utility.yul\":11726:11735   */\n      dup4\n        /* \"#utility.yul\":11722:11739   */\n      add\n        /* \"#utility.yul\":11713:11719   */\n      dup5\n        /* \"#utility.yul\":11669:11740   */\n      tag_313\n      jump\t// in\n    tag_343:\n        /* \"#utility.yul\":11525:11747   */\n      swap3\n      swap2\n      pop\n      pop\n      jump\t// out\n        /* \"#utility.yul\":11834:11981   */\n    tag_292:\n        /* \"#utility.yul\":11935:11946   */\n      0x00\n        /* \"#utility.yul\":11972:11975   */\n      dup2\n        /* \"#utility.yul\":11957:11975   */\n      swap1\n      pop\n        /* \"#utility.yul\":11834:11981   */\n      swap3\n      swap2\n      pop\n      pop\n      jump\t// out\n        /* \"#utility.yul\":11987:12156   */\n    tag_251:\n        /* \"#utility.yul\":12071:12082   */\n      0x00\n        /* \"#utility.yul\":12105:12111   */\n      dup3\n        /* \"#utility.yul\":12100:12103   */\n      dup3\n        /* \"#utility.yul\":12093:12112   */\n      mstore\n        /* \"#utility.yul\":12145:12149   */\n      0x20\n        /* \"#utility.yul\":12140:12143   */\n      dup3\n        /* \"#utility.yul\":12136:12150   */\n      add\n        /* \"#utility.yul\":12121:12150   */\n      swap1\n      pop\n        /* \"#utility.yul\":11987:12156   */\n      swap3\n      swap2\n      pop\n      pop\n      jump\t// out\n        /* \"#utility.yul\":12162:12467   */\n    tag_120:\n        /* \"#utility.yul\":12202:12205   */\n      0x00\n        /* \"#utility.yul\":12221:12241   */\n      tag_349\n        /* \"#utility.yul\":12239:12240   */\n      dup3\n        /* \"#utility.yul\":12221:12241   */\n      tag_312\n      jump\t// in\n    tag_349:\n        /* \"#utility.yul\":12216:12241   */\n      swap2\n      pop\n        /* \"#utility.yul\":12255:12275   */\n      tag_350\n        /* \"#utility.yul\":12273:12274   */\n      dup4\n        /* \"#utility.yul\":12255:12275   */\n      tag_312\n      jump\t// in\n    tag_350:\n        /* \"#utility.yul\":12250:12275   */\n      swap3\n      pop\n        /* \"#utility.yul\":12409:12410   */\n      dup3\n        /* \"#utility.yul\":12341:12407   */\n      0xffffffffffffffffffffffffffffffffffffffffffffffffffffffffffffffff\n        /* \"#utility.yul\":12337:12411   */\n      sub\n        /* \"#utility.yul\":12334:12335   */\n      dup3\n        /* \"#utility.yul\":12331:12412   */\n      gt\n        /* \"#utility.yul\":12328:12435   */\n      iszero\n      tag_351\n      jumpi\n        /* \"#utility.yul\":12415:12433   */\n      tag_352\n      tag_353\n      jump\t// in\n    tag_352:\n        /* \"#utility.yul\":12328:12435   */\n    tag_351:\n        /* \"#utility.yul\":12459:12460   */\n      dup3\n        /* \"#utility.yul\":12456:12457   */\n      dup3\n        /* \"#utility.yul\":12452:12461   */\n      add\n        /* \"#utility.yul\":12445:12461   */\n      swap1\n      pop\n        /* \"#utility.yul\":12162:12467   */\n      swap3\n      swap2\n      pop\n      pop\n      jump\t// out\n        /* \"#utility.yul\":12473:12658   */\n    tag_94:\n        /* \"#utility.yul\":12513:12514   */\n      0x00\n        /* \"#utility.yul\":12530:12550   */\n      tag_355\n        /* \"#utility.yul\":12548:12549   */\n      dup3\n        /* \"#utility.yul\":12530:12550   */\n      tag_312\n      jump\t// in\n    tag_355:\n        /* \"#utility.yul\":12525:12550   */\n      swap2\n      pop\n        /* \"#utility.yul\":12564:12584   */\n      tag_356\n        /* \"#utility.yul\":12582:12583   */\n      dup4\n        /* \"#utility.yul\":12564:12584   */\n      tag_312\n      jump\t// in\n    tag_356:\n        /* \"#utility.yul\":12559:12584   */\n      swap3\n      pop\n        /* \"#utility.yul\":12603:12604   */\n      dup3\n        /* \"#utility.yul\":12593:12628   */\n      tag_357\n      jumpi\n        /* \"#utility.yul\":12608:12626   */\n      tag_358\n      tag_359\n      jump\t// in\n    tag_358:\n        /* \"#utility.yul\":12593:12628   */\n    tag_357:\n        /* \"#utility.yul\":12650:12651   */\n      dup3\n        /* \"#utility.yul\":12647:12648   */\n      dup3\n        /* \"#utility.yul\":12643:12652   */\n      div\n        /* \"#utility.yul\":12638:12652   */\n      swap1\n      pop\n        /* \"#utility.yul\":12473:12658   */\n      swap3\n      swap2\n      pop\n      pop\n      jump\t// out\n        /* \"#utility.yul\":12664:13012   */\n    tag_92:\n        /* \"#utility.yul\":12704:12711   */\n      0x00\n        /* \"#utility.yul\":12727:12747   */\n      tag_361\n        /* \"#utility.yul\":12745:12746   */\n      dup3\n        /* \"#utility.yul\":12727:12747   */\n      tag_312\n      jump\t// in\n    tag_361:\n        /* \"#utility.yul\":12722:12747   */\n      swap2\n      pop\n        /* \"#utility.yul\":12761:12781   */\n      tag_362\n        /* \"#utility.yul\":12779:12780   */\n      dup4\n        /* \"#utility.yul\":12761:12781   */\n      tag_312\n      jump\t// in\n    tag_362:\n        /* \"#utility.yul\":12756:12781   */\n      swap3\n      pop\n        /* \"#utility.yul\":12949:12950   */\n      dup2\n        /* \"#utility.yul\":12881:12947   */\n      0xffffffffffffffffffffffffffffffffffffffffffffffffffffffffffffffff\n        /* \"#utility.yul\":12877:12951   */\n      div\n        /* \"#utility.yul\":12874:12875   */\n      dup4\n        /* \"#utility.yul\":12871:12952   */\n      gt\n        /* \"#utility.yul\":12866:12867   */\n      dup3\n        /* \"#utility.yul\":12859:12868   */\n      iszero\n        /* \"#utility.yul\":12852:12869   */\n      iszero\n        /* \"#utility.yul\":12848:12953   */\n      and\n        /* \"#utility.yul\":12845:12976   */\n      iszero\n      tag_363\n      jumpi\n        /* \"#utility.yul\":12956:12974   */\n      tag_364\n      tag_353\n      jump\t// in\n    tag_364:\n        /* \"#utility.yul\":12845:12976   */\n    tag_363:\n        /* \"#utility.yul\":13004:13005   */\n      dup3\n        /* \"#utility.yul\":13001:13002   */\n      dup3\n        /* \"#utility.yul\":12997:13006   */\n      mul\n        /* \"#utility.yul\":12986:13006   */\n      swap1\n      pop\n        /* \"#utility.yul\":12664:13012   */\n      swap3\n      swap2\n      pop\n      pop\n      jump\t// out\n        /* \"#utility.yul\":13018:13114   */\n    tag_243:\n        /* \"#utility.yul\":13055:13062   */\n      0x00\n        /* \"#utility.yul\":13084:13108   */\n      tag_366\n        /* \"#utility.yul\":13102:13107   */\n      dup3\n        /* \"#utility.yul\":13084:13108   */\n      tag_367\n      jump\t// in\n    tag_366:\n        /* \"#utility.yul\":13073:13108   */\n      swap1\n      pop\n        /* \"#utility.yul\":13018:13114   */\n      swap2\n      swap1\n      pop\n      jump\t// out\n        /* \"#utility.yul\":13120:13210   */\n    tag_247:\n        /* \"#utility.yul\":13154:13161   */\n      0x00\n        /* \"#utility.yul\":13197:13202   */\n      dup2\n        /* \"#utility.yul\":13190:13203   */\n      iszero\n        /* \"#utility.yul\":13183:13204   */\n      iszero\n        /* \"#utility.yul\":13172:13204   */\n      swap1\n      pop\n        /* \"#utility.yul\":13120:13210   */\n      swap2\n      swap1\n      pop\n      jump\t// out\n        /* \"#utility.yul\":13216:13342   */\n    tag_367:\n        /* \"#utility.yul\":13253:13260   */\n      0x00\n        /* \"#utility.yul\":13293:13335   */\n      0xffffffffffffffffffffffffffffffffffffffff\n        /* \"#utility.yul\":13286:13291   */\n      dup3\n        /* \"#utility.yul\":13282:13336   */\n      and\n        /* \"#utility.yul\":13271:13336   */\n      swap1\n      pop\n        /* \"#utility.yul\":13216:13342   */\n      swap2\n      swap1\n      pop\n      jump\t// out\n        /* \"#utility.yul\":13348:13425   */\n    tag_312:\n        /* \"#utility.yul\":13385:13392   */\n      0x00\n        /* \"#utility.yul\":13414:13419   */\n      dup2\n        /* \"#utility.yul\":13403:13419   */\n      swap1\n      pop\n        /* \"#utility.yul\":13348:13425   */\n      swap2\n      swap1\n      pop\n      jump\t// out\n        /* \"#utility.yul\":13431:13664   */\n    tag_104:\n        /* \"#utility.yul\":13470:13473   */\n      0x00\n        /* \"#utility.yul\":13493:13517   */\n      tag_372\n        /* \"#utility.yul\":13511:13516   */\n      dup3\n        /* \"#utility.yul\":13493:13517   */\n      tag_312\n      jump\t// in\n    tag_372:\n        /* \"#utility.yul\":13484:13517   */\n      swap2\n      pop\n        /* \"#utility.yul\":13539:13605   */\n      0xffffffffffffffffffffffffffffffffffffffffffffffffffffffffffffffff\n        /* \"#utility.yul\":13532:13537   */\n      dup3\n        /* \"#utility.yul\":13529:13606   */\n      eq\n        /* \"#utility.yul\":13526:13629   */\n      iszero\n      tag_373\n      jumpi\n        /* \"#utility.yul\":13609:13627   */\n      tag_374\n      tag_353\n      jump\t// in\n    tag_374:\n        /* \"#utility.yul\":13526:13629   */\n    tag_373:\n        /* \"#utility.yul\":13656:13657   */\n      0x01\n        /* \"#utility.yul\":13649:13654   */\n      dup3\n        /* \"#utility.yul\":13645:13658   */\n      add\n        /* \"#utility.yul\":13638:13658   */\n      swap1\n      pop\n        /* \"#utility.yul\":13431:13664   */\n      swap2\n      swap1\n      pop\n      jump\t// out\n        /* \"#utility.yul\":13670:13850   */\n    tag_353:\n        /* \"#utility.yul\":13718:13795   */\n      0x4e487b7100000000000000000000000000000000000000000000000000000000\n        /* \"#utility.yul\":13715:13716   */\n      0x00\n        /* \"#utility.yul\":13708:13796   */\n      mstore\n        /* \"#utility.yul\":13815:13819   */\n      0x11\n        /* \"#utility.yul\":13812:13813   */\n      0x04\n        /* \"#utility.yul\":13805:13820   */\n      mstore\n        /* \"#utility.yul\":13839:13843   */\n      0x24\n        /* \"#utility.yul\":13836:13837   */\n      0x00\n        /* \"#utility.yul\":13829:13844   */\n      revert\n        /* \"#utility.yul\":13856:14036   */\n    tag_359:\n        /* \"#utility.yul\":13904:13981   */\n      0x4e487b7100000000000000000000000000000000000000000000000000000000\n        /* \"#utility.yul\":13901:13902   */\n      0x00\n        /* \"#utility.yul\":13894:13982   */\n      mstore\n        /* \"#utility.yul\":14001:14005   */\n      0x12\n        /* \"#utility.yul\":13998:13999   */\n      0x04\n        /* \"#utility.yul\":13991:14006   */\n      mstore\n        /* \"#utility.yul\":14025:14029   */\n      0x24\n        /* \"#utility.yul\":14022:14023   */\n      0x00\n        /* \"#utility.yul\":14015:14030   */\n      revert\n        /* \"#utility.yul\":14042:14222   */\n    tag_85:\n        /* \"#utility.yul\":14090:14167   */\n      0x4e487b7100000000000000000000000000000000000000000000000000000000\n        /* \"#utility.yul\":14087:14088   */\n      0x00\n        /* \"#utility.yul\":14080:14168   */\n      mstore\n        /* \"#utility.yul\":14187:14191   */\n      0x32\n        /* \"#utility.yul\":14184:14185   */\n      0x04\n        /* \"#utility.yul\":14177:14192   */\n      mstore\n        /* \"#utility.yul\":14211:14215   */\n      0x24\n        /* \"#utility.yul\":14208:14209   */\n      0x00\n        /* \"#utility.yul\":14201:14216   */\n      revert\n        /* \"#utility.yul\":14351:14468   */\n    tag_233:\n        /* \"#utility.yul\":14460:14461   */\n      0x00\n        /* \"#utility.yul\":14457:14458   */\n      dup1\n        /* \"#utility.yul\":14450:14462   */\n      revert\n        /* \"#utility.yul\":14474:14699   */\n    tag_253:\n        /* \"#utility.yul\":14614:14648   */\n      0x4f776e61626c653a206e6577206f776e657220697320746865207a65726f2061\n        /* \"#utility.yul\":14610:14611   */\n      0x00\n        /* \"#utility.yul\":14602:14608   */\n      dup3\n        /* \"#utility.yul\":14598:14612   */\n      add\n        /* \"#utility.yul\":14591:14649   */\n      mstore\n        /* \"#utility.yul\":14683:14691   */\n      0x6464726573730000000000000000000000000000000000000000000000000000\n        /* \"#utility.yul\":14678:14680   */\n      0x20\n        /* \"#utility.yul\":14670:14676   */\n      dup3\n        /* \"#utility.yul\":14666:14681   */\n      add\n        /* \"#utility.yul\":14659:14692   */\n      mstore\n        /* \"#utility.yul\":14474:14699   */\n      pop\n      jump\t// out\n        /* \"#utility.yul\":14705:14877   */\n    tag_258:\n        /* \"#utility.yul\":14845:14869   */\n      0x6e6f2062616c616e636520746f20776974686472617700000000000000000000\n        /* \"#utility.yul\":14841:14842   */\n      0x00\n        /* \"#utility.yul\":14833:14839   */\n      dup3\n        /* \"#utility.yul\":14829:14843   */\n      add\n        /* \"#utility.yul\":14822:14870   */\n      mstore\n        /* \"#utility.yul\":14705:14877   */\n      pop\n      jump\t// out\n        /* \"#utility.yul\":14883:15053   */\n    tag_263:\n        /* \"#utility.yul\":15023:15045   */\n      0x4661696c656420746f2073656e64204574686572000000000000000000000000\n        /* \"#utility.yul\":15019:15020   */\n      0x00\n        /* \"#utility.yul\":15011:15017   */\n      dup3\n        /* \"#utility.yul\":15007:15021   */\n      add\n        /* \"#utility.yul\":15000:15046   */\n      mstore\n        /* \"#utility.yul\":14883:15053   */\n      pop\n      jump\t// out\n        /* \"#utility.yul\":15059:15288   */\n    tag_268:\n        /* \"#utility.yul\":15199:15233   */\n      0x746f74616c50657263656e746167652077696c6c206265206772656174657220\n        /* \"#utility.yul\":15195:15196   */\n      0x00\n        /* \"#utility.yul\":15187:15193   */\n      dup3\n        /* \"#utility.yul\":15183:15197   */\n      add\n        /* \"#utility.yul\":15176:15234   */\n      mstore\n        /* \"#utility.yul\":15268:15280   */\n      0x7468616e20313030303000000000000000000000000000000000000000000000\n        /* \"#utility.yul\":15263:15265   */\n      0x20\n        /* \"#utility.yul\":15255:15261   */\n      dup3\n        /* \"#utility.yul\":15251:15266   */\n      add\n        /* \"#utility.yul\":15244:15281   */\n      mstore\n        /* \"#utility.yul\":15059:15288   */\n      pop\n      jump\t// out\n        /* \"#utility.yul\":15294:15471   */\n    tag_273:\n        /* \"#utility.yul\":15434:15463   */\n      0x436f6c6c61626f7261746f7220616c7265616479206578697374730000000000\n        /* \"#utility.yul\":15430:15431   */\n      0x00\n        /* \"#utility.yul\":15422:15428   */\n      dup3\n        /* \"#utility.yul\":15418:15432   */\n      add\n        /* \"#utility.yul\":15411:15464   */\n      mstore\n        /* \"#utility.yul\":15294:15471   */\n      pop\n      jump\t// out\n        /* \"#utility.yul\":15477:15710   */\n    tag_278:\n        /* \"#utility.yul\":15617:15651   */\n      0x496e697469616c697a61626c653a20636f6e747261637420697320616c726561\n        /* \"#utility.yul\":15613:15614   */\n      0x00\n        /* \"#utility.yul\":15605:15611   */\n      dup3\n        /* \"#utility.yul\":15601:15615   */\n      add\n        /* \"#utility.yul\":15594:15652   */\n      mstore\n        /* \"#utility.yul\":15686:15702   */\n      0x647920696e697469616c697a6564000000000000000000000000000000000000\n        /* \"#utility.yul\":15681:15683   */\n      0x20\n        /* \"#utility.yul\":15673:15679   */\n      dup3\n        /* \"#utility.yul\":15669:15684   */\n      add\n        /* \"#utility.yul\":15662:15703   */\n      mstore\n        /* \"#utility.yul\":15477:15710   */\n      pop\n      jump\t// out\n        /* \"#utility.yul\":15716:15942   */\n    tag_283:\n        /* \"#utility.yul\":15856:15890   */\n      0x436f6c6c61626f7261746f722063616e6e6f7420626520616e20656d70747920\n        /* \"#utility.yul\":15852:15853   */\n      0x00\n        /* \"#utility.yul\":15844:15850   */\n      dup3\n        /* \"#utility.yul\":15840:15854   */\n      add\n        /* \"#utility.yul\":15833:15891   */\n      mstore\n        /* \"#utility.yul\":15925:15934   */\n      0x6164647265737300000000000000000000000000000000000000000000000000\n        /* \"#utility.yul\":15920:15922   */\n      0x20\n        /* \"#utility.yul\":15912:15918   */\n      dup3\n        /* \"#utility.yul\":15908:15923   */\n      add\n        /* \"#utility.yul\":15901:15935   */\n      mstore\n        /* \"#utility.yul\":15716:15942   */\n      pop\n      jump\t// out\n        /* \"#utility.yul\":15948:16130   */\n    tag_288:\n        /* \"#utility.yul\":16088:16122   */\n      0x4f776e61626c653a2063616c6c6572206973206e6f7420746865206f776e6572\n        /* \"#utility.yul\":16084:16085   */\n      0x00\n        /* \"#utility.yul\":16076:16082   */\n      dup3\n        /* \"#utility.yul\":16072:16086   */\n      add\n        /* \"#utility.yul\":16065:16123   */\n      mstore\n        /* \"#utility.yul\":15948:16130   */\n      pop\n      jump\t// out\n        /* \"#utility.yul\":16136:16250   */\n    tag_294:\n      pop\n      jump\t// out\n        /* \"#utility.yul\":16256:16432   */\n    tag_299:\n        /* \"#utility.yul\":16396:16424   */\n      0x436f6c6c61626f7261746f72206973206e6f7420657869737473000000000000\n        /* \"#utility.yul\":16392:16393   */\n      0x00\n        /* \"#utility.yul\":16384:16390   */\n      dup3\n        /* \"#utility.yul\":16380:16394   */\n      add\n        /* \"#utility.yul\":16373:16425   */\n      mstore\n        /* \"#utility.yul\":16256:16432   */\n      pop\n      jump\t// out\n        /* \"#utility.yul\":16438:16668   */\n    tag_304:\n        /* \"#utility.yul\":16578:16612   */\n      0x496e697469616c697a61626c653a20636f6e7472616374206973206e6f742069\n        /* \"#utility.yul\":16574:16575   */\n      0x00\n        /* \"#utility.yul\":16566:16572   */\n      dup3\n        /* \"#utility.yul\":16562:16576   */\n      add\n        /* \"#utility.yul\":16555:16613   */\n      mstore\n        /* \"#utility.yul\":16647:16660   */\n      0x6e697469616c697a696e67000000000000000000000000000000000000000000\n        /* \"#utility.yul\":16642:16644   */\n      0x20\n        /* \"#utility.yul\":16634:16640   */\n      dup3\n        /* \"#utility.yul\":16630:16645   */\n      add\n        /* \"#utility.yul\":16623:16661   */\n      mstore\n        /* \"#utility.yul\":16438:16668   */\n      pop\n      jump\t// out\n        /* \"#utility.yul\":16674:16796   */\n    tag_225:\n        /* \"#utility.yul\":16747:16771   */\n      tag_393\n        /* \"#utility.yul\":16765:16770   */\n      dup2\n        /* \"#utility.yul\":16747:16771   */\n      tag_243\n      jump\t// in\n    tag_393:\n        /* \"#utility.yul\":16740:16745   */\n      dup2\n        /* \"#utility.yul\":16737:16772   */\n      eq\n        /* \"#utility.yul\":16727:16790   */\n      tag_394\n      jumpi\n        /* \"#utility.yul\":16786:16787   */\n      0x00\n        /* \"#utility.yul\":16783:16784   */\n      dup1\n        /* \"#utility.yul\":16776:16788   */\n      revert\n        /* \"#utility.yul\":16727:16790   */\n    tag_394:\n        /* \"#utility.yul\":16674:16796   */\n      pop\n      jump\t// out\n        /* \"#utility.yul\":16802:16924   */\n    tag_229:\n        /* \"#utility.yul\":16875:16899   */\n      tag_396\n        /* \"#utility.yul\":16893:16898   */\n      dup2\n        /* \"#utility.yul\":16875:16899   */\n      tag_312\n      jump\t// in\n    tag_396:\n        /* \"#utility.yul\":16868:16873   */\n      dup2\n        /* \"#utility.yul\":16865:16900   */\n      eq\n        /* \"#utility.yul\":16855:16918   */\n      tag_397\n      jumpi\n        /* \"#utility.yul\":16914:16915   */\n      0x00\n        /* \"#utility.yul\":16911:16912   */\n      dup1\n        /* \"#utility.yul\":16904:16916   */\n      revert\n        /* \"#utility.yul\":16855:16918   */\n    tag_397:\n        /* \"#utility.yul\":16802:16924   */\n      pop\n      jump\t// out\n\n    auxdata: 0xa26469706673582212200c6aa58b739e4c0e5e8438c2ca4ad40bb1b944e11ccdb99693a0a09f716f93d164736f6c63430008070033\n}\n",
				"bytecode": {
					"linkReferences": {},
					"object": "608060405234801561001057600080fd5b50611bb3806100206000396000f3fe6080604052600436106100ab5760003560e01c8063d44a0e6111610064578063d44a0e611461017d578063dd9a5837146101a8578063e975e3ab146101d1578063ece123e4146101fc578063f2fde38b14610225578063f80ce32b1461024e576100b2565b80633ccfd60b146100b45780634cddae28146100cb57806354a33f0e146100d5578063715018a6146100fe5780638da5cb5b14610115578063b116bbf514610140576100b2565b366100b257005b005b3480156100c057600080fd5b506100c9610265565b005b6100d3610514565b005b3480156100e157600080fd5b506100fc60048036038101906100f79190611302565b610516565b005b34801561010a57600080fd5b506101136107d4565b005b34801561012157600080fd5b5061012a61085c565b6040516101379190611543565b60405180910390f35b34801561014c57600080fd5b50610167600480360381019061016291906112d5565b610886565b604051610174919061169e565b60405180910390f35b34801561018957600080fd5b50610192610980565b60405161019f91906116b9565b60405180910390f35b3480156101b457600080fd5b506101cf60048036038101906101ca9190611302565b610a81565b005b3480156101dd57600080fd5b506101e6610c93565b6040516101f3919061169e565b60405180910390f35b34801561020857600080fd5b50610223600480360381019061021e91906112d5565b610d16565b005b34801561023157600080fd5b5061024c600480360381019061024791906112d5565b610eef565b005b34801561025a57600080fd5b50610263610fe7565b005b61026d6110d3565b73ffffffffffffffffffffffffffffffffffffffff1661028b61085c565b73ffffffffffffffffffffffffffffffffffffffff16146102e1576040517f08c379a00000000000000000000000000000000000000000000000000000000081526004016102d89061163e565b60405180910390fd5b600047905060008111610329576040517f08c379a00000000000000000000000000000000000000000000000000000000081526004016103209061157e565b60405180910390fd5b60005b6065805490508110156105105760006066600060658481548110610353576103526118c0565b5b9060005260206000200160009054906101000a900473ffffffffffffffffffffffffffffffffffffffff1673ffffffffffffffffffffffffffffffffffffffff1673ffffffffffffffffffffffffffffffffffffffff168152602001908152602001600020604051806040016040529081600082015481526020016001820160009054906101000a900460ff16151515158152505090508060200151156104fc5760006065838154811061040a576104096118c0565b5b9060005260206000200160009054906101000a900473ffffffffffffffffffffffffffffffffffffffff1673ffffffffffffffffffffffffffffffffffffffff1661271083600001518661045e9190611777565b6104689190611746565b6040516104749061152e565b60006040518083038185875af1925050503d80600081146104b1576040519150601f19603f3d011682016040523d82523d6000602084013e6104b6565b606091505b50509050806104fa576040517f08c379a00000000000000000000000000000000000000000000000000000000081526004016104f19061159e565b60405180910390fd5b505b50808061050890611819565b91505061032c565b5050565b565b61051e6110d3565b73ffffffffffffffffffffffffffffffffffffffff1661053c61085c565b73ffffffffffffffffffffffffffffffffffffffff1614610592576040517f08c379a00000000000000000000000000000000000000000000000000000000081526004016105899061163e565b60405180910390fd5b600073ffffffffffffffffffffffffffffffffffffffff168273ffffffffffffffffffffffffffffffffffffffff161415610602576040517f08c379a00000000000000000000000000000000000000000000000000000000081526004016105f99061161e565b60405180910390fd5b606660008373ffffffffffffffffffffffffffffffffffffffff1673ffffffffffffffffffffffffffffffffffffffff16815260200190815260200160002060010160009054906101000a900460ff1615610692576040517f08c379a0000000000000000000000000000000000000000000000000000000008152600401610689906115de565b60405180910390fd5b6127108161069e610980565b6106a891906116f0565b11156106e9576040517f08c379a00000000000000000000000000000000000000000000000000000000081526004016106e0906115be565b60405180910390fd5b604051806040016040528082815260200160011515815250606660008473ffffffffffffffffffffffffffffffffffffffff1673ffffffffffffffffffffffffffffffffffffffff1681526020019081526020016000206000820151816000015560208201518160010160006101000a81548160ff0219169083151502179055509050506065829080600181540180825580915050600190039060005260206000200160009091909190916101000a81548173ffffffffffffffffffffffffffffffffffffffff021916908373ffffffffffffffffffffffffffffffffffffffff1602179055505050565b6107dc6110d3565b73ffffffffffffffffffffffffffffffffffffffff166107fa61085c565b73ffffffffffffffffffffffffffffffffffffffff1614610850576040517f08c379a00000000000000000000000000000000000000000000000000000000081526004016108479061163e565b60405180910390fd5b61085a60006110db565b565b6000603360009054906101000a900473ffffffffffffffffffffffffffffffffffffffff16905090565b61088e61128f565b6108966110d3565b73ffffffffffffffffffffffffffffffffffffffff166108b461085c565b73ffffffffffffffffffffffffffffffffffffffff161461090a576040517f08c379a00000000000000000000000000000000000000000000000000000000081526004016109019061163e565b60405180910390fd5b606660008373ffffffffffffffffffffffffffffffffffffffff1673ffffffffffffffffffffffffffffffffffffffff168152602001908152602001600020604051806040016040529081600082015481526020016001820160009054906101000a900460ff1615151515815250509050919050565b6000806000905060005b606580549050811015610a7957600060666000606584815481106109b1576109b06118c0565b5b9060005260206000200160009054906101000a900473ffffffffffffffffffffffffffffffffffffffff1673ffffffffffffffffffffffffffffffffffffffff1673ffffffffffffffffffffffffffffffffffffffff168152602001908152602001600020604051806040016040529081600082015481526020016001820160009054906101000a900460ff1615151515815250509050806020015115610a6557806000015183610a6291906116f0565b92505b508080610a7190611819565b91505061098a565b508091505090565b610a896110d3565b73ffffffffffffffffffffffffffffffffffffffff16610aa761085c565b73ffffffffffffffffffffffffffffffffffffffff1614610afd576040517f08c379a0000000000000000000000000000000000000000000000000000000008152600401610af49061163e565b60405180910390fd5b600073ffffffffffffffffffffffffffffffffffffffff168273ffffffffffffffffffffffffffffffffffffffff161415610b6d576040517f08c379a0000000000000000000000000000000000000000000000000000000008152600401610b649061161e565b60405180910390fd5b606660008373ffffffffffffffffffffffffffffffffffffffff1673ffffffffffffffffffffffffffffffffffffffff16815260200190815260200160002060010160009054906101000a900460ff16610bfc576040517f08c379a0000000000000000000000000000000000000000000000000000000008152600401610bf39061165e565b60405180910390fd5b80606660008473ffffffffffffffffffffffffffffffffffffffff1673ffffffffffffffffffffffffffffffffffffffff16815260200190815260200160002060000181905550612710610c4e610980565b1115610c8f576040517f08c379a0000000000000000000000000000000000000000000000000000000008152600401610c86906115be565b60405180910390fd5b5050565b610c9b61128f565b60666000610ca76110d3565b73ffffffffffffffffffffffffffffffffffffffff1673ffffffffffffffffffffffffffffffffffffffff168152602001908152602001600020604051806040016040529081600082015481526020016001820160009054906101000a900460ff161515151581525050905090565b610d1e6110d3565b73ffffffffffffffffffffffffffffffffffffffff16610d3c61085c565b73ffffffffffffffffffffffffffffffffffffffff1614610d92576040517f08c379a0000000000000000000000000000000000000000000000000000000008152600401610d899061163e565b60405180910390fd5b600073ffffffffffffffffffffffffffffffffffffffff168173ffffffffffffffffffffffffffffffffffffffff161415610e02576040517f08c379a0000000000000000000000000000000000000000000000000000000008152600401610df99061161e565b60405180910390fd5b606660008273ffffffffffffffffffffffffffffffffffffffff1673ffffffffffffffffffffffffffffffffffffffff16815260200190815260200160002060010160009054906101000a900460ff16610e91576040517f08c379a0000000000000000000000000000000000000000000000000000000008152600401610e889061165e565b60405180910390fd5b6000606660008373ffffffffffffffffffffffffffffffffffffffff1673ffffffffffffffffffffffffffffffffffffffff16815260200190815260200160002060010160006101000a81548160ff02191690831515021790555050565b610ef76110d3565b73ffffffffffffffffffffffffffffffffffffffff16610f1561085c565b73ffffffffffffffffffffffffffffffffffffffff1614610f6b576040517f08c379a0000000000000000000000000000000000000000000000000000000008152600401610f629061163e565b60405180910390fd5b600073ffffffffffffffffffffffffffffffffffffffff168173ffffffffffffffffffffffffffffffffffffffff161415610fdb576040517f08c379a0000000000000000000000000000000000000000000000000000000008152600401610fd29061155e565b60405180910390fd5b610fe4816110db565b50565b600060019054906101000a900460ff1661100f5760008054906101000a900460ff1615611018565b6110176111a1565b5b611057576040517f08c379a000000000000000000000000000000000000000000000000000000000815260040161104e906115fe565b60405180910390fd5b60008060019054906101000a900460ff1615905080156110a7576001600060016101000a81548160ff02191690831515021790555060016000806101000a81548160ff0219169083151502179055505b6110af6111b2565b80156110d05760008060016101000a81548160ff0219169083151502179055505b50565b600033905090565b6000603360009054906101000a900473ffffffffffffffffffffffffffffffffffffffff16905081603360006101000a81548173ffffffffffffffffffffffffffffffffffffffff021916908373ffffffffffffffffffffffffffffffffffffffff1602179055508173ffffffffffffffffffffffffffffffffffffffff168173ffffffffffffffffffffffffffffffffffffffff167f8be0079c531659141344cd1fd0a4f28419497f9722a3daafe3b4186f6b6457e060405160405180910390a35050565b60006111ac3061120b565b15905090565b600060019054906101000a900460ff16611201576040517f08c379a00000000000000000000000000000000000000000000000000000000081526004016111f89061167e565b60405180910390fd5b61120961122e565b565b6000808273ffffffffffffffffffffffffffffffffffffffff163b119050919050565b600060019054906101000a900460ff1661127d576040517f08c379a00000000000000000000000000000000000000000000000000000000081526004016112749061167e565b60405180910390fd5b61128d6112886110d3565b6110db565b565b6040518060400160405280600081526020016000151581525090565b6000813590506112ba81611b4f565b92915050565b6000813590506112cf81611b66565b92915050565b6000602082840312156112eb576112ea6118ef565b5b60006112f9848285016112ab565b91505092915050565b60008060408385031215611319576113186118ef565b5b6000611327858286016112ab565b9250506020611338858286016112c0565b9150509250929050565b61134b816117d1565b82525050565b61135a816117e3565b82525050565b600061136d6026836116df565b9150611378826118f4565b604082019050919050565b60006113906016836116df565b915061139b82611943565b602082019050919050565b60006113b36014836116df565b91506113be8261196c565b602082019050919050565b60006113d6602a836116df565b91506113e182611995565b604082019050919050565b60006113f9601b836116df565b9150611404826119e4565b602082019050919050565b600061141c602e836116df565b915061142782611a0d565b604082019050919050565b600061143f6027836116df565b915061144a82611a5c565b604082019050919050565b60006114626020836116df565b915061146d82611aab565b602082019050919050565b60006114856000836116d4565b915061149082611ad4565b600082019050919050565b60006114a8601a836116df565b91506114b382611ad7565b602082019050919050565b60006114cb602b836116df565b91506114d682611b00565b604082019050919050565b6040820160008201516114f76000850182611510565b50602082015161150a6020850182611351565b50505050565b6115198161180f565b82525050565b6115288161180f565b82525050565b600061153982611478565b9150819050919050565b60006020820190506115586000830184611342565b92915050565b6000602082019050818103600083015261157781611360565b9050919050565b6000602082019050818103600083015261159781611383565b9050919050565b600060208201905081810360008301526115b7816113a6565b9050919050565b600060208201905081810360008301526115d7816113c9565b9050919050565b600060208201905081810360008301526115f7816113ec565b9050919050565b600060208201905081810360008301526116178161140f565b9050919050565b6000602082019050818103600083015261163781611432565b9050919050565b6000602082019050818103600083015261165781611455565b9050919050565b600060208201905081810360008301526116778161149b565b9050919050565b60006020820190508181036000830152611697816114be565b9050919050565b60006040820190506116b360008301846114e1565b92915050565b60006020820190506116ce600083018461151f565b92915050565b600081905092915050565b600082825260208201905092915050565b60006116fb8261180f565b91506117068361180f565b9250827fffffffffffffffffffffffffffffffffffffffffffffffffffffffffffffffff0382111561173b5761173a611862565b5b828201905092915050565b60006117518261180f565b915061175c8361180f565b92508261176c5761176b611891565b5b828204905092915050565b60006117828261180f565b915061178d8361180f565b9250817fffffffffffffffffffffffffffffffffffffffffffffffffffffffffffffffff04831182151516156117c6576117c5611862565b5b828202905092915050565b60006117dc826117ef565b9050919050565b60008115159050919050565b600073ffffffffffffffffffffffffffffffffffffffff82169050919050565b6000819050919050565b60006118248261180f565b91507fffffffffffffffffffffffffffffffffffffffffffffffffffffffffffffffff82141561185757611856611862565b5b600182019050919050565b7f4e487b7100000000000000000000000000000000000000000000000000000000600052601160045260246000fd5b7f4e487b7100000000000000000000000000000000000000000000000000000000600052601260045260246000fd5b7f4e487b7100000000000000000000000000000000000000000000000000000000600052603260045260246000fd5b600080fd5b7f4f776e61626c653a206e6577206f776e657220697320746865207a65726f206160008201527f6464726573730000000000000000000000000000000000000000000000000000602082015250565b7f6e6f2062616c616e636520746f20776974686472617700000000000000000000600082015250565b7f4661696c656420746f2073656e64204574686572000000000000000000000000600082015250565b7f746f74616c50657263656e746167652077696c6c20626520677265617465722060008201527f7468616e20313030303000000000000000000000000000000000000000000000602082015250565b7f436f6c6c61626f7261746f7220616c7265616479206578697374730000000000600082015250565b7f496e697469616c697a61626c653a20636f6e747261637420697320616c72656160008201527f647920696e697469616c697a6564000000000000000000000000000000000000602082015250565b7f436f6c6c61626f7261746f722063616e6e6f7420626520616e20656d7074792060008201527f6164647265737300000000000000000000000000000000000000000000000000602082015250565b7f4f776e61626c653a2063616c6c6572206973206e6f7420746865206f776e6572600082015250565b50565b7f436f6c6c61626f7261746f72206973206e6f7420657869737473000000000000600082015250565b7f496e697469616c697a61626c653a20636f6e7472616374206973206e6f74206960008201527f6e697469616c697a696e67000000000000000000000000000000000000000000602082015250565b611b58816117d1565b8114611b6357600080fd5b50565b611b6f8161180f565b8114611b7a57600080fd5b5056fea26469706673582212200c6aa58b739e4c0e5e8438c2ca4ad40bb1b944e11ccdb99693a0a09f716f93d164736f6c63430008070033",
					"opcodes": "PUSH1 0x80 PUSH1 0x40 MSTORE CALLVALUE DUP1 ISZERO PUSH2 0x10 JUMPI PUSH1 0x0 DUP1 REVERT JUMPDEST POP PUSH2 0x1BB3 DUP1 PUSH2 0x20 PUSH1 0x0 CODECOPY PUSH1 0x0 RETURN INVALID PUSH1 0x80 PUSH1 0x40 MSTORE PUSH1 0x4 CALLDATASIZE LT PUSH2 0xAB JUMPI PUSH1 0x0 CALLDATALOAD PUSH1 0xE0 SHR DUP1 PUSH4 0xD44A0E61 GT PUSH2 0x64 JUMPI DUP1 PUSH4 0xD44A0E61 EQ PUSH2 0x17D JUMPI DUP1 PUSH4 0xDD9A5837 EQ PUSH2 0x1A8 JUMPI DUP1 PUSH4 0xE975E3AB EQ PUSH2 0x1D1 JUMPI DUP1 PUSH4 0xECE123E4 EQ PUSH2 0x1FC JUMPI DUP1 PUSH4 0xF2FDE38B EQ PUSH2 0x225 JUMPI DUP1 PUSH4 0xF80CE32B EQ PUSH2 0x24E JUMPI PUSH2 0xB2 JUMP JUMPDEST DUP1 PUSH4 0x3CCFD60B EQ PUSH2 0xB4 JUMPI DUP1 PUSH4 0x4CDDAE28 EQ PUSH2 0xCB JUMPI DUP1 PUSH4 0x54A33F0E EQ PUSH2 0xD5 JUMPI DUP1 PUSH4 0x715018A6 EQ PUSH2 0xFE JUMPI DUP1 PUSH4 0x8DA5CB5B EQ PUSH2 0x115 JUMPI DUP1 PUSH4 0xB116BBF5 EQ PUSH2 0x140 JUMPI PUSH2 0xB2 JUMP JUMPDEST CALLDATASIZE PUSH2 0xB2 JUMPI STOP JUMPDEST STOP JUMPDEST CALLVALUE DUP1 ISZERO PUSH2 0xC0 JUMPI PUSH1 0x0 DUP1 REVERT JUMPDEST POP PUSH2 0xC9 PUSH2 0x265 JUMP JUMPDEST STOP JUMPDEST PUSH2 0xD3 PUSH2 0x514 JUMP JUMPDEST STOP JUMPDEST CALLVALUE DUP1 ISZERO PUSH2 0xE1 JUMPI PUSH1 0x0 DUP1 REVERT JUMPDEST POP PUSH2 0xFC PUSH1 0x4 DUP1 CALLDATASIZE SUB DUP2 ADD SWAP1 PUSH2 0xF7 SWAP2 SWAP1 PUSH2 0x1302 JUMP JUMPDEST PUSH2 0x516 JUMP JUMPDEST STOP JUMPDEST CALLVALUE DUP1 ISZERO PUSH2 0x10A JUMPI PUSH1 0x0 DUP1 REVERT JUMPDEST POP PUSH2 0x113 PUSH2 0x7D4 JUMP JUMPDEST STOP JUMPDEST CALLVALUE DUP1 ISZERO PUSH2 0x121 JUMPI PUSH1 0x0 DUP1 REVERT JUMPDEST POP PUSH2 0x12A PUSH2 0x85C JUMP JUMPDEST PUSH1 0x40 MLOAD PUSH2 0x137 SWAP2 SWAP1 PUSH2 0x1543 JUMP JUMPDEST PUSH1 0x40 MLOAD DUP1 SWAP2 SUB SWAP1 RETURN JUMPDEST CALLVALUE DUP1 ISZERO PUSH2 0x14C JUMPI PUSH1 0x0 DUP1 REVERT JUMPDEST POP PUSH2 0x167 PUSH1 0x4 DUP1 CALLDATASIZE SUB DUP2 ADD SWAP1 PUSH2 0x162 SWAP2 SWAP1 PUSH2 0x12D5 JUMP JUMPDEST PUSH2 0x886 JUMP JUMPDEST PUSH1 0x40 MLOAD PUSH2 0x174 SWAP2 SWAP1 PUSH2 0x169E JUMP JUMPDEST PUSH1 0x40 MLOAD DUP1 SWAP2 SUB SWAP1 RETURN JUMPDEST CALLVALUE DUP1 ISZERO PUSH2 0x189 JUMPI PUSH1 0x0 DUP1 REVERT JUMPDEST POP PUSH2 0x192 PUSH2 0x980 JUMP JUMPDEST PUSH1 0x40 MLOAD PUSH2 0x19F SWAP2 SWAP1 PUSH2 0x16B9 JUMP JUMPDEST PUSH1 0x40 MLOAD DUP1 SWAP2 SUB SWAP1 RETURN JUMPDEST CALLVALUE DUP1 ISZERO PUSH2 0x1B4 JUMPI PUSH1 0x0 DUP1 REVERT JUMPDEST POP PUSH2 0x1CF PUSH1 0x4 DUP1 CALLDATASIZE SUB DUP2 ADD SWAP1 PUSH2 0x1CA SWAP2 SWAP1 PUSH2 0x1302 JUMP JUMPDEST PUSH2 0xA81 JUMP JUMPDEST STOP JUMPDEST CALLVALUE DUP1 ISZERO PUSH2 0x1DD JUMPI PUSH1 0x0 DUP1 REVERT JUMPDEST POP PUSH2 0x1E6 PUSH2 0xC93 JUMP JUMPDEST PUSH1 0x40 MLOAD PUSH2 0x1F3 SWAP2 SWAP1 PUSH2 0x169E JUMP JUMPDEST PUSH1 0x40 MLOAD DUP1 SWAP2 SUB SWAP1 RETURN JUMPDEST CALLVALUE DUP1 ISZERO PUSH2 0x208 JUMPI PUSH1 0x0 DUP1 REVERT JUMPDEST POP PUSH2 0x223 PUSH1 0x4 DUP1 CALLDATASIZE SUB DUP2 ADD SWAP1 PUSH2 0x21E SWAP2 SWAP1 PUSH2 0x12D5 JUMP JUMPDEST PUSH2 0xD16 JUMP JUMPDEST STOP JUMPDEST CALLVALUE DUP1 ISZERO PUSH2 0x231 JUMPI PUSH1 0x0 DUP1 REVERT JUMPDEST POP PUSH2 0x24C PUSH1 0x4 DUP1 CALLDATASIZE SUB DUP2 ADD SWAP1 PUSH2 0x247 SWAP2 SWAP1 PUSH2 0x12D5 JUMP JUMPDEST PUSH2 0xEEF JUMP JUMPDEST STOP JUMPDEST CALLVALUE DUP1 ISZERO PUSH2 0x25A JUMPI PUSH1 0x0 DUP1 REVERT JUMPDEST POP PUSH2 0x263 PUSH2 0xFE7 JUMP JUMPDEST STOP JUMPDEST PUSH2 0x26D PUSH2 0x10D3 JUMP JUMPDEST PUSH20 0xFFFFFFFFFFFFFFFFFFFFFFFFFFFFFFFFFFFFFFFF AND PUSH2 0x28B PUSH2 0x85C JUMP JUMPDEST PUSH20 0xFFFFFFFFFFFFFFFFFFFFFFFFFFFFFFFFFFFFFFFF AND EQ PUSH2 0x2E1 JUMPI PUSH1 0x40 MLOAD PUSH32 0x8C379A000000000000000000000000000000000000000000000000000000000 DUP2 MSTORE PUSH1 0x4 ADD PUSH2 0x2D8 SWAP1 PUSH2 0x163E JUMP JUMPDEST PUSH1 0x40 MLOAD DUP1 SWAP2 SUB SWAP1 REVERT JUMPDEST PUSH1 0x0 SELFBALANCE SWAP1 POP PUSH1 0x0 DUP2 GT PUSH2 0x329 JUMPI PUSH1 0x40 MLOAD PUSH32 0x8C379A000000000000000000000000000000000000000000000000000000000 DUP2 MSTORE PUSH1 0x4 ADD PUSH2 0x320 SWAP1 PUSH2 0x157E JUMP JUMPDEST PUSH1 0x40 MLOAD DUP1 SWAP2 SUB SWAP1 REVERT JUMPDEST PUSH1 0x0 JUMPDEST PUSH1 0x65 DUP1 SLOAD SWAP1 POP DUP2 LT ISZERO PUSH2 0x510 JUMPI PUSH1 0x0 PUSH1 0x66 PUSH1 0x0 PUSH1 0x65 DUP5 DUP2 SLOAD DUP2 LT PUSH2 0x353 JUMPI PUSH2 0x352 PUSH2 0x18C0 JUMP JUMPDEST JUMPDEST SWAP1 PUSH1 0x0 MSTORE PUSH1 0x20 PUSH1 0x0 KECCAK256 ADD PUSH1 0x0 SWAP1 SLOAD SWAP1 PUSH2 0x100 EXP SWAP1 DIV PUSH20 0xFFFFFFFFFFFFFFFFFFFFFFFFFFFFFFFFFFFFFFFF AND PUSH20 0xFFFFFFFFFFFFFFFFFFFFFFFFFFFFFFFFFFFFFFFF AND PUSH20 0xFFFFFFFFFFFFFFFFFFFFFFFFFFFFFFFFFFFFFFFF AND DUP2 MSTORE PUSH1 0x20 ADD SWAP1 DUP2 MSTORE PUSH1 0x20 ADD PUSH1 0x0 KECCAK256 PUSH1 0x40 MLOAD DUP1 PUSH1 0x40 ADD PUSH1 0x40 MSTORE SWAP1 DUP2 PUSH1 0x0 DUP3 ADD SLOAD DUP2 MSTORE PUSH1 0x20 ADD PUSH1 0x1 DUP3 ADD PUSH1 0x0 SWAP1 SLOAD SWAP1 PUSH2 0x100 EXP SWAP1 DIV PUSH1 0xFF AND ISZERO ISZERO ISZERO ISZERO DUP2 MSTORE POP POP SWAP1 POP DUP1 PUSH1 0x20 ADD MLOAD ISZERO PUSH2 0x4FC JUMPI PUSH1 0x0 PUSH1 0x65 DUP4 DUP2 SLOAD DUP2 LT PUSH2 0x40A JUMPI PUSH2 0x409 PUSH2 0x18C0 JUMP JUMPDEST JUMPDEST SWAP1 PUSH1 0x0 MSTORE PUSH1 0x20 PUSH1 0x0 KECCAK256 ADD PUSH1 0x0 SWAP1 SLOAD SWAP1 PUSH2 0x100 EXP SWAP1 DIV PUSH20 0xFFFFFFFFFFFFFFFFFFFFFFFFFFFFFFFFFFFFFFFF AND PUSH20 0xFFFFFFFFFFFFFFFFFFFFFFFFFFFFFFFFFFFFFFFF AND PUSH2 0x2710 DUP4 PUSH1 0x0 ADD MLOAD DUP7 PUSH2 0x45E SWAP2 SWAP1 PUSH2 0x1777 JUMP JUMPDEST PUSH2 0x468 SWAP2 SWAP1 PUSH2 0x1746 JUMP JUMPDEST PUSH1 0x40 MLOAD PUSH2 0x474 SWAP1 PUSH2 0x152E JUMP JUMPDEST PUSH1 0x0 PUSH1 0x40 MLOAD DUP1 DUP4 SUB DUP2 DUP6 DUP8 GAS CALL SWAP3 POP POP POP RETURNDATASIZE DUP1 PUSH1 0x0 DUP2 EQ PUSH2 0x4B1 JUMPI PUSH1 0x40 MLOAD SWAP2 POP PUSH1 0x1F NOT PUSH1 0x3F RETURNDATASIZE ADD AND DUP3 ADD PUSH1 0x40 MSTORE RETURNDATASIZE DUP3 MSTORE RETURNDATASIZE PUSH1 0x0 PUSH1 0x20 DUP5 ADD RETURNDATACOPY PUSH2 0x4B6 JUMP JUMPDEST PUSH1 0x60 SWAP2 POP JUMPDEST POP POP SWAP1 POP DUP1 PUSH2 0x4FA JUMPI PUSH1 0x40 MLOAD PUSH32 0x8C379A000000000000000000000000000000000000000000000000000000000 DUP2 MSTORE PUSH1 0x4 ADD PUSH2 0x4F1 SWAP1 PUSH2 0x159E JUMP JUMPDEST PUSH1 0x40 MLOAD DUP1 SWAP2 SUB SWAP1 REVERT JUMPDEST POP JUMPDEST POP DUP1 DUP1 PUSH2 0x508 SWAP1 PUSH2 0x1819 JUMP JUMPDEST SWAP2 POP POP PUSH2 0x32C JUMP JUMPDEST POP POP JUMP JUMPDEST JUMP JUMPDEST PUSH2 0x51E PUSH2 0x10D3 JUMP JUMPDEST PUSH20 0xFFFFFFFFFFFFFFFFFFFFFFFFFFFFFFFFFFFFFFFF AND PUSH2 0x53C PUSH2 0x85C JUMP JUMPDEST PUSH20 0xFFFFFFFFFFFFFFFFFFFFFFFFFFFFFFFFFFFFFFFF AND EQ PUSH2 0x592 JUMPI PUSH1 0x40 MLOAD PUSH32 0x8C379A000000000000000000000000000000000000000000000000000000000 DUP2 MSTORE PUSH1 0x4 ADD PUSH2 0x589 SWAP1 PUSH2 0x163E JUMP JUMPDEST PUSH1 0x40 MLOAD DUP1 SWAP2 SUB SWAP1 REVERT JUMPDEST PUSH1 0x0 PUSH20 0xFFFFFFFFFFFFFFFFFFFFFFFFFFFFFFFFFFFFFFFF AND DUP3 PUSH20 0xFFFFFFFFFFFFFFFFFFFFFFFFFFFFFFFFFFFFFFFF AND EQ ISZERO PUSH2 0x602 JUMPI PUSH1 0x40 MLOAD PUSH32 0x8C379A000000000000000000000000000000000000000000000000000000000 DUP2 MSTORE PUSH1 0x4 ADD PUSH2 0x5F9 SWAP1 PUSH2 0x161E JUMP JUMPDEST PUSH1 0x40 MLOAD DUP1 SWAP2 SUB SWAP1 REVERT JUMPDEST PUSH1 0x66 PUSH1 0x0 DUP4 PUSH20 0xFFFFFFFFFFFFFFFFFFFFFFFFFFFFFFFFFFFFFFFF AND PUSH20 0xFFFFFFFFFFFFFFFFFFFFFFFFFFFFFFFFFFFFFFFF AND DUP2 MSTORE PUSH1 0x20 ADD SWAP1 DUP2 MSTORE PUSH1 0x20 ADD PUSH1 0x0 KECCAK256 PUSH1 0x1 ADD PUSH1 0x0 SWAP1 SLOAD SWAP1 PUSH2 0x100 EXP SWAP1 DIV PUSH1 0xFF AND ISZERO PUSH2 0x692 JUMPI PUSH1 0x40 MLOAD PUSH32 0x8C379A000000000000000000000000000000000000000000000000000000000 DUP2 MSTORE PUSH1 0x4 ADD PUSH2 0x689 SWAP1 PUSH2 0x15DE JUMP JUMPDEST PUSH1 0x40 MLOAD DUP1 SWAP2 SUB SWAP1 REVERT JUMPDEST PUSH2 0x2710 DUP2 PUSH2 0x69E PUSH2 0x980 JUMP JUMPDEST PUSH2 0x6A8 SWAP2 SWAP1 PUSH2 0x16F0 JUMP JUMPDEST GT ISZERO PUSH2 0x6E9 JUMPI PUSH1 0x40 MLOAD PUSH32 0x8C379A000000000000000000000000000000000000000000000000000000000 DUP2 MSTORE PUSH1 0x4 ADD PUSH2 0x6E0 SWAP1 PUSH2 0x15BE JUMP JUMPDEST PUSH1 0x40 MLOAD DUP1 SWAP2 SUB SWAP1 REVERT JUMPDEST PUSH1 0x40 MLOAD DUP1 PUSH1 0x40 ADD PUSH1 0x40 MSTORE DUP1 DUP3 DUP2 MSTORE PUSH1 0x20 ADD PUSH1 0x1 ISZERO ISZERO DUP2 MSTORE POP PUSH1 0x66 PUSH1 0x0 DUP5 PUSH20 0xFFFFFFFFFFFFFFFFFFFFFFFFFFFFFFFFFFFFFFFF AND PUSH20 0xFFFFFFFFFFFFFFFFFFFFFFFFFFFFFFFFFFFFFFFF AND DUP2 MSTORE PUSH1 0x20 ADD SWAP1 DUP2 MSTORE PUSH1 0x20 ADD PUSH1 0x0 KECCAK256 PUSH1 0x0 DUP3 ADD MLOAD DUP2 PUSH1 0x0 ADD SSTORE PUSH1 0x20 DUP3 ADD MLOAD DUP2 PUSH1 0x1 ADD PUSH1 0x0 PUSH2 0x100 EXP DUP2 SLOAD DUP2 PUSH1 0xFF MUL NOT AND SWAP1 DUP4 ISZERO ISZERO MUL OR SWAP1 SSTORE POP SWAP1 POP POP PUSH1 0x65 DUP3 SWAP1 DUP1 PUSH1 0x1 DUP2 SLOAD ADD DUP1 DUP3 SSTORE DUP1 SWAP2 POP POP PUSH1 0x1 SWAP1 SUB SWAP1 PUSH1 0x0 MSTORE PUSH1 0x20 PUSH1 0x0 KECCAK256 ADD PUSH1 0x0 SWAP1 SWAP2 SWAP1 SWAP2 SWAP1 SWAP2 PUSH2 0x100 EXP DUP2 SLOAD DUP2 PUSH20 0xFFFFFFFFFFFFFFFFFFFFFFFFFFFFFFFFFFFFFFFF MUL NOT AND SWAP1 DUP4 PUSH20 0xFFFFFFFFFFFFFFFFFFFFFFFFFFFFFFFFFFFFFFFF AND MUL OR SWAP1 SSTORE POP POP POP JUMP JUMPDEST PUSH2 0x7DC PUSH2 0x10D3 JUMP JUMPDEST PUSH20 0xFFFFFFFFFFFFFFFFFFFFFFFFFFFFFFFFFFFFFFFF AND PUSH2 0x7FA PUSH2 0x85C JUMP JUMPDEST PUSH20 0xFFFFFFFFFFFFFFFFFFFFFFFFFFFFFFFFFFFFFFFF AND EQ PUSH2 0x850 JUMPI PUSH1 0x40 MLOAD PUSH32 0x8C379A000000000000000000000000000000000000000000000000000000000 DUP2 MSTORE PUSH1 0x4 ADD PUSH2 0x847 SWAP1 PUSH2 0x163E JUMP JUMPDEST PUSH1 0x40 MLOAD DUP1 SWAP2 SUB SWAP1 REVERT JUMPDEST PUSH2 0x85A PUSH1 0x0 PUSH2 0x10DB JUMP JUMPDEST JUMP JUMPDEST PUSH1 0x0 PUSH1 0x33 PUSH1 0x0 SWAP1 SLOAD SWAP1 PUSH2 0x100 EXP SWAP1 DIV PUSH20 0xFFFFFFFFFFFFFFFFFFFFFFFFFFFFFFFFFFFFFFFF AND SWAP1 POP SWAP1 JUMP JUMPDEST PUSH2 0x88E PUSH2 0x128F JUMP JUMPDEST PUSH2 0x896 PUSH2 0x10D3 JUMP JUMPDEST PUSH20 0xFFFFFFFFFFFFFFFFFFFFFFFFFFFFFFFFFFFFFFFF AND PUSH2 0x8B4 PUSH2 0x85C JUMP JUMPDEST PUSH20 0xFFFFFFFFFFFFFFFFFFFFFFFFFFFFFFFFFFFFFFFF AND EQ PUSH2 0x90A JUMPI PUSH1 0x40 MLOAD PUSH32 0x8C379A000000000000000000000000000000000000000000000000000000000 DUP2 MSTORE PUSH1 0x4 ADD PUSH2 0x901 SWAP1 PUSH2 0x163E JUMP JUMPDEST PUSH1 0x40 MLOAD DUP1 SWAP2 SUB SWAP1 REVERT JUMPDEST PUSH1 0x66 PUSH1 0x0 DUP4 PUSH20 0xFFFFFFFFFFFFFFFFFFFFFFFFFFFFFFFFFFFFFFFF AND PUSH20 0xFFFFFFFFFFFFFFFFFFFFFFFFFFFFFFFFFFFFFFFF AND DUP2 MSTORE PUSH1 0x20 ADD SWAP1 DUP2 MSTORE PUSH1 0x20 ADD PUSH1 0x0 KECCAK256 PUSH1 0x40 MLOAD DUP1 PUSH1 0x40 ADD PUSH1 0x40 MSTORE SWAP1 DUP2 PUSH1 0x0 DUP3 ADD SLOAD DUP2 MSTORE PUSH1 0x20 ADD PUSH1 0x1 DUP3 ADD PUSH1 0x0 SWAP1 SLOAD SWAP1 PUSH2 0x100 EXP SWAP1 DIV PUSH1 0xFF AND ISZERO ISZERO ISZERO ISZERO DUP2 MSTORE POP POP SWAP1 POP SWAP2 SWAP1 POP JUMP JUMPDEST PUSH1 0x0 DUP1 PUSH1 0x0 SWAP1 POP PUSH1 0x0 JUMPDEST PUSH1 0x65 DUP1 SLOAD SWAP1 POP DUP2 LT ISZERO PUSH2 0xA79 JUMPI PUSH1 0x0 PUSH1 0x66 PUSH1 0x0 PUSH1 0x65 DUP5 DUP2 SLOAD DUP2 LT PUSH2 0x9B1 JUMPI PUSH2 0x9B0 PUSH2 0x18C0 JUMP JUMPDEST JUMPDEST SWAP1 PUSH1 0x0 MSTORE PUSH1 0x20 PUSH1 0x0 KECCAK256 ADD PUSH1 0x0 SWAP1 SLOAD SWAP1 PUSH2 0x100 EXP SWAP1 DIV PUSH20 0xFFFFFFFFFFFFFFFFFFFFFFFFFFFFFFFFFFFFFFFF AND PUSH20 0xFFFFFFFFFFFFFFFFFFFFFFFFFFFFFFFFFFFFFFFF AND PUSH20 0xFFFFFFFFFFFFFFFFFFFFFFFFFFFFFFFFFFFFFFFF AND DUP2 MSTORE PUSH1 0x20 ADD SWAP1 DUP2 MSTORE PUSH1 0x20 ADD PUSH1 0x0 KECCAK256 PUSH1 0x40 MLOAD DUP1 PUSH1 0x40 ADD PUSH1 0x40 MSTORE SWAP1 DUP2 PUSH1 0x0 DUP3 ADD SLOAD DUP2 MSTORE PUSH1 0x20 ADD PUSH1 0x1 DUP3 ADD PUSH1 0x0 SWAP1 SLOAD SWAP1 PUSH2 0x100 EXP SWAP1 DIV PUSH1 0xFF AND ISZERO ISZERO ISZERO ISZERO DUP2 MSTORE POP POP SWAP1 POP DUP1 PUSH1 0x20 ADD MLOAD ISZERO PUSH2 0xA65 JUMPI DUP1 PUSH1 0x0 ADD MLOAD DUP4 PUSH2 0xA62 SWAP2 SWAP1 PUSH2 0x16F0 JUMP JUMPDEST SWAP3 POP JUMPDEST POP DUP1 DUP1 PUSH2 0xA71 SWAP1 PUSH2 0x1819 JUMP JUMPDEST SWAP2 POP POP PUSH2 0x98A JUMP JUMPDEST POP DUP1 SWAP2 POP POP SWAP1 JUMP JUMPDEST PUSH2 0xA89 PUSH2 0x10D3 JUMP JUMPDEST PUSH20 0xFFFFFFFFFFFFFFFFFFFFFFFFFFFFFFFFFFFFFFFF AND PUSH2 0xAA7 PUSH2 0x85C JUMP JUMPDEST PUSH20 0xFFFFFFFFFFFFFFFFFFFFFFFFFFFFFFFFFFFFFFFF AND EQ PUSH2 0xAFD JUMPI PUSH1 0x40 MLOAD PUSH32 0x8C379A000000000000000000000000000000000000000000000000000000000 DUP2 MSTORE PUSH1 0x4 ADD PUSH2 0xAF4 SWAP1 PUSH2 0x163E JUMP JUMPDEST PUSH1 0x40 MLOAD DUP1 SWAP2 SUB SWAP1 REVERT JUMPDEST PUSH1 0x0 PUSH20 0xFFFFFFFFFFFFFFFFFFFFFFFFFFFFFFFFFFFFFFFF AND DUP3 PUSH20 0xFFFFFFFFFFFFFFFFFFFFFFFFFFFFFFFFFFFFFFFF AND EQ ISZERO PUSH2 0xB6D JUMPI PUSH1 0x40 MLOAD PUSH32 0x8C379A000000000000000000000000000000000000000000000000000000000 DUP2 MSTORE PUSH1 0x4 ADD PUSH2 0xB64 SWAP1 PUSH2 0x161E JUMP JUMPDEST PUSH1 0x40 MLOAD DUP1 SWAP2 SUB SWAP1 REVERT JUMPDEST PUSH1 0x66 PUSH1 0x0 DUP4 PUSH20 0xFFFFFFFFFFFFFFFFFFFFFFFFFFFFFFFFFFFFFFFF AND PUSH20 0xFFFFFFFFFFFFFFFFFFFFFFFFFFFFFFFFFFFFFFFF AND DUP2 MSTORE PUSH1 0x20 ADD SWAP1 DUP2 MSTORE PUSH1 0x20 ADD PUSH1 0x0 KECCAK256 PUSH1 0x1 ADD PUSH1 0x0 SWAP1 SLOAD SWAP1 PUSH2 0x100 EXP SWAP1 DIV PUSH1 0xFF AND PUSH2 0xBFC JUMPI PUSH1 0x40 MLOAD PUSH32 0x8C379A000000000000000000000000000000000000000000000000000000000 DUP2 MSTORE PUSH1 0x4 ADD PUSH2 0xBF3 SWAP1 PUSH2 0x165E JUMP JUMPDEST PUSH1 0x40 MLOAD DUP1 SWAP2 SUB SWAP1 REVERT JUMPDEST DUP1 PUSH1 0x66 PUSH1 0x0 DUP5 PUSH20 0xFFFFFFFFFFFFFFFFFFFFFFFFFFFFFFFFFFFFFFFF AND PUSH20 0xFFFFFFFFFFFFFFFFFFFFFFFFFFFFFFFFFFFFFFFF AND DUP2 MSTORE PUSH1 0x20 ADD SWAP1 DUP2 MSTORE PUSH1 0x20 ADD PUSH1 0x0 KECCAK256 PUSH1 0x0 ADD DUP2 SWAP1 SSTORE POP PUSH2 0x2710 PUSH2 0xC4E PUSH2 0x980 JUMP JUMPDEST GT ISZERO PUSH2 0xC8F JUMPI PUSH1 0x40 MLOAD PUSH32 0x8C379A000000000000000000000000000000000000000000000000000000000 DUP2 MSTORE PUSH1 0x4 ADD PUSH2 0xC86 SWAP1 PUSH2 0x15BE JUMP JUMPDEST PUSH1 0x40 MLOAD DUP1 SWAP2 SUB SWAP1 REVERT JUMPDEST POP POP JUMP JUMPDEST PUSH2 0xC9B PUSH2 0x128F JUMP JUMPDEST PUSH1 0x66 PUSH1 0x0 PUSH2 0xCA7 PUSH2 0x10D3 JUMP JUMPDEST PUSH20 0xFFFFFFFFFFFFFFFFFFFFFFFFFFFFFFFFFFFFFFFF AND PUSH20 0xFFFFFFFFFFFFFFFFFFFFFFFFFFFFFFFFFFFFFFFF AND DUP2 MSTORE PUSH1 0x20 ADD SWAP1 DUP2 MSTORE PUSH1 0x20 ADD PUSH1 0x0 KECCAK256 PUSH1 0x40 MLOAD DUP1 PUSH1 0x40 ADD PUSH1 0x40 MSTORE SWAP1 DUP2 PUSH1 0x0 DUP3 ADD SLOAD DUP2 MSTORE PUSH1 0x20 ADD PUSH1 0x1 DUP3 ADD PUSH1 0x0 SWAP1 SLOAD SWAP1 PUSH2 0x100 EXP SWAP1 DIV PUSH1 0xFF AND ISZERO ISZERO ISZERO ISZERO DUP2 MSTORE POP POP SWAP1 POP SWAP1 JUMP JUMPDEST PUSH2 0xD1E PUSH2 0x10D3 JUMP JUMPDEST PUSH20 0xFFFFFFFFFFFFFFFFFFFFFFFFFFFFFFFFFFFFFFFF AND PUSH2 0xD3C PUSH2 0x85C JUMP JUMPDEST PUSH20 0xFFFFFFFFFFFFFFFFFFFFFFFFFFFFFFFFFFFFFFFF AND EQ PUSH2 0xD92 JUMPI PUSH1 0x40 MLOAD PUSH32 0x8C379A000000000000000000000000000000000000000000000000000000000 DUP2 MSTORE PUSH1 0x4 ADD PUSH2 0xD89 SWAP1 PUSH2 0x163E JUMP JUMPDEST PUSH1 0x40 MLOAD DUP1 SWAP2 SUB SWAP1 REVERT JUMPDEST PUSH1 0x0 PUSH20 0xFFFFFFFFFFFFFFFFFFFFFFFFFFFFFFFFFFFFFFFF AND DUP2 PUSH20 0xFFFFFFFFFFFFFFFFFFFFFFFFFFFFFFFFFFFFFFFF AND EQ ISZERO PUSH2 0xE02 JUMPI PUSH1 0x40 MLOAD PUSH32 0x8C379A000000000000000000000000000000000000000000000000000000000 DUP2 MSTORE PUSH1 0x4 ADD PUSH2 0xDF9 SWAP1 PUSH2 0x161E JUMP JUMPDEST PUSH1 0x40 MLOAD DUP1 SWAP2 SUB SWAP1 REVERT JUMPDEST PUSH1 0x66 PUSH1 0x0 DUP3 PUSH20 0xFFFFFFFFFFFFFFFFFFFFFFFFFFFFFFFFFFFFFFFF AND PUSH20 0xFFFFFFFFFFFFFFFFFFFFFFFFFFFFFFFFFFFFFFFF AND DUP2 MSTORE PUSH1 0x20 ADD SWAP1 DUP2 MSTORE PUSH1 0x20 ADD PUSH1 0x0 KECCAK256 PUSH1 0x1 ADD PUSH1 0x0 SWAP1 SLOAD SWAP1 PUSH2 0x100 EXP SWAP1 DIV PUSH1 0xFF AND PUSH2 0xE91 JUMPI PUSH1 0x40 MLOAD PUSH32 0x8C379A000000000000000000000000000000000000000000000000000000000 DUP2 MSTORE PUSH1 0x4 ADD PUSH2 0xE88 SWAP1 PUSH2 0x165E JUMP JUMPDEST PUSH1 0x40 MLOAD DUP1 SWAP2 SUB SWAP1 REVERT JUMPDEST PUSH1 0x0 PUSH1 0x66 PUSH1 0x0 DUP4 PUSH20 0xFFFFFFFFFFFFFFFFFFFFFFFFFFFFFFFFFFFFFFFF AND PUSH20 0xFFFFFFFFFFFFFFFFFFFFFFFFFFFFFFFFFFFFFFFF AND DUP2 MSTORE PUSH1 0x20 ADD SWAP1 DUP2 MSTORE PUSH1 0x20 ADD PUSH1 0x0 KECCAK256 PUSH1 0x1 ADD PUSH1 0x0 PUSH2 0x100 EXP DUP2 SLOAD DUP2 PUSH1 0xFF MUL NOT AND SWAP1 DUP4 ISZERO ISZERO MUL OR SWAP1 SSTORE POP POP JUMP JUMPDEST PUSH2 0xEF7 PUSH2 0x10D3 JUMP JUMPDEST PUSH20 0xFFFFFFFFFFFFFFFFFFFFFFFFFFFFFFFFFFFFFFFF AND PUSH2 0xF15 PUSH2 0x85C JUMP JUMPDEST PUSH20 0xFFFFFFFFFFFFFFFFFFFFFFFFFFFFFFFFFFFFFFFF AND EQ PUSH2 0xF6B JUMPI PUSH1 0x40 MLOAD PUSH32 0x8C379A000000000000000000000000000000000000000000000000000000000 DUP2 MSTORE PUSH1 0x4 ADD PUSH2 0xF62 SWAP1 PUSH2 0x163E JUMP JUMPDEST PUSH1 0x40 MLOAD DUP1 SWAP2 SUB SWAP1 REVERT JUMPDEST PUSH1 0x0 PUSH20 0xFFFFFFFFFFFFFFFFFFFFFFFFFFFFFFFFFFFFFFFF AND DUP2 PUSH20 0xFFFFFFFFFFFFFFFFFFFFFFFFFFFFFFFFFFFFFFFF AND EQ ISZERO PUSH2 0xFDB JUMPI PUSH1 0x40 MLOAD PUSH32 0x8C379A000000000000000000000000000000000000000000000000000000000 DUP2 MSTORE PUSH1 0x4 ADD PUSH2 0xFD2 SWAP1 PUSH2 0x155E JUMP JUMPDEST PUSH1 0x40 MLOAD DUP1 SWAP2 SUB SWAP1 REVERT JUMPDEST PUSH2 0xFE4 DUP2 PUSH2 0x10DB JUMP JUMPDEST POP JUMP JUMPDEST PUSH1 0x0 PUSH1 0x1 SWAP1 SLOAD SWAP1 PUSH2 0x100 EXP SWAP1 DIV PUSH1 0xFF AND PUSH2 0x100F JUMPI PUSH1 0x0 DUP1 SLOAD SWAP1 PUSH2 0x100 EXP SWAP1 DIV PUSH1 0xFF AND ISZERO PUSH2 0x1018 JUMP JUMPDEST PUSH2 0x1017 PUSH2 0x11A1 JUMP JUMPDEST JUMPDEST PUSH2 0x1057 JUMPI PUSH1 0x40 MLOAD PUSH32 0x8C379A000000000000000000000000000000000000000000000000000000000 DUP2 MSTORE PUSH1 0x4 ADD PUSH2 0x104E SWAP1 PUSH2 0x15FE JUMP JUMPDEST PUSH1 0x40 MLOAD DUP1 SWAP2 SUB SWAP1 REVERT JUMPDEST PUSH1 0x0 DUP1 PUSH1 0x1 SWAP1 SLOAD SWAP1 PUSH2 0x100 EXP SWAP1 DIV PUSH1 0xFF AND ISZERO SWAP1 POP DUP1 ISZERO PUSH2 0x10A7 JUMPI PUSH1 0x1 PUSH1 0x0 PUSH1 0x1 PUSH2 0x100 EXP DUP2 SLOAD DUP2 PUSH1 0xFF MUL NOT AND SWAP1 DUP4 ISZERO ISZERO MUL OR SWAP1 SSTORE POP PUSH1 0x1 PUSH1 0x0 DUP1 PUSH2 0x100 EXP DUP2 SLOAD DUP2 PUSH1 0xFF MUL NOT AND SWAP1 DUP4 ISZERO ISZERO MUL OR SWAP1 SSTORE POP JUMPDEST PUSH2 0x10AF PUSH2 0x11B2 JUMP JUMPDEST DUP1 ISZERO PUSH2 0x10D0 JUMPI PUSH1 0x0 DUP1 PUSH1 0x1 PUSH2 0x100 EXP DUP2 SLOAD DUP2 PUSH1 0xFF MUL NOT AND SWAP1 DUP4 ISZERO ISZERO MUL OR SWAP1 SSTORE POP JUMPDEST POP JUMP JUMPDEST PUSH1 0x0 CALLER SWAP1 POP SWAP1 JUMP JUMPDEST PUSH1 0x0 PUSH1 0x33 PUSH1 0x0 SWAP1 SLOAD SWAP1 PUSH2 0x100 EXP SWAP1 DIV PUSH20 0xFFFFFFFFFFFFFFFFFFFFFFFFFFFFFFFFFFFFFFFF AND SWAP1 POP DUP2 PUSH1 0x33 PUSH1 0x0 PUSH2 0x100 EXP DUP2 SLOAD DUP2 PUSH20 0xFFFFFFFFFFFFFFFFFFFFFFFFFFFFFFFFFFFFFFFF MUL NOT AND SWAP1 DUP4 PUSH20 0xFFFFFFFFFFFFFFFFFFFFFFFFFFFFFFFFFFFFFFFF AND MUL OR SWAP1 SSTORE POP DUP2 PUSH20 0xFFFFFFFFFFFFFFFFFFFFFFFFFFFFFFFFFFFFFFFF AND DUP2 PUSH20 0xFFFFFFFFFFFFFFFFFFFFFFFFFFFFFFFFFFFFFFFF AND PUSH32 0x8BE0079C531659141344CD1FD0A4F28419497F9722A3DAAFE3B4186F6B6457E0 PUSH1 0x40 MLOAD PUSH1 0x40 MLOAD DUP1 SWAP2 SUB SWAP1 LOG3 POP POP JUMP JUMPDEST PUSH1 0x0 PUSH2 0x11AC ADDRESS PUSH2 0x120B JUMP JUMPDEST ISZERO SWAP1 POP SWAP1 JUMP JUMPDEST PUSH1 0x0 PUSH1 0x1 SWAP1 SLOAD SWAP1 PUSH2 0x100 EXP SWAP1 DIV PUSH1 0xFF AND PUSH2 0x1201 JUMPI PUSH1 0x40 MLOAD PUSH32 0x8C379A000000000000000000000000000000000000000000000000000000000 DUP2 MSTORE PUSH1 0x4 ADD PUSH2 0x11F8 SWAP1 PUSH2 0x167E JUMP JUMPDEST PUSH1 0x40 MLOAD DUP1 SWAP2 SUB SWAP1 REVERT JUMPDEST PUSH2 0x1209 PUSH2 0x122E JUMP JUMPDEST JUMP JUMPDEST PUSH1 0x0 DUP1 DUP3 PUSH20 0xFFFFFFFFFFFFFFFFFFFFFFFFFFFFFFFFFFFFFFFF AND EXTCODESIZE GT SWAP1 POP SWAP2 SWAP1 POP JUMP JUMPDEST PUSH1 0x0 PUSH1 0x1 SWAP1 SLOAD SWAP1 PUSH2 0x100 EXP SWAP1 DIV PUSH1 0xFF AND PUSH2 0x127D JUMPI PUSH1 0x40 MLOAD PUSH32 0x8C379A000000000000000000000000000000000000000000000000000000000 DUP2 MSTORE PUSH1 0x4 ADD PUSH2 0x1274 SWAP1 PUSH2 0x167E JUMP JUMPDEST PUSH1 0x40 MLOAD DUP1 SWAP2 SUB SWAP1 REVERT JUMPDEST PUSH2 0x128D PUSH2 0x1288 PUSH2 0x10D3 JUMP JUMPDEST PUSH2 0x10DB JUMP JUMPDEST JUMP JUMPDEST PUSH1 0x40 MLOAD DUP1 PUSH1 0x40 ADD PUSH1 0x40 MSTORE DUP1 PUSH1 0x0 DUP2 MSTORE PUSH1 0x20 ADD PUSH1 0x0 ISZERO ISZERO DUP2 MSTORE POP SWAP1 JUMP JUMPDEST PUSH1 0x0 DUP2 CALLDATALOAD SWAP1 POP PUSH2 0x12BA DUP2 PUSH2 0x1B4F JUMP JUMPDEST SWAP3 SWAP2 POP POP JUMP JUMPDEST PUSH1 0x0 DUP2 CALLDATALOAD SWAP1 POP PUSH2 0x12CF DUP2 PUSH2 0x1B66 JUMP JUMPDEST SWAP3 SWAP2 POP POP JUMP JUMPDEST PUSH1 0x0 PUSH1 0x20 DUP3 DUP5 SUB SLT ISZERO PUSH2 0x12EB JUMPI PUSH2 0x12EA PUSH2 0x18EF JUMP JUMPDEST JUMPDEST PUSH1 0x0 PUSH2 0x12F9 DUP5 DUP3 DUP6 ADD PUSH2 0x12AB JUMP JUMPDEST SWAP2 POP POP SWAP3 SWAP2 POP POP JUMP JUMPDEST PUSH1 0x0 DUP1 PUSH1 0x40 DUP4 DUP6 SUB SLT ISZERO PUSH2 0x1319 JUMPI PUSH2 0x1318 PUSH2 0x18EF JUMP JUMPDEST JUMPDEST PUSH1 0x0 PUSH2 0x1327 DUP6 DUP3 DUP7 ADD PUSH2 0x12AB JUMP JUMPDEST SWAP3 POP POP PUSH1 0x20 PUSH2 0x1338 DUP6 DUP3 DUP7 ADD PUSH2 0x12C0 JUMP JUMPDEST SWAP2 POP POP SWAP3 POP SWAP3 SWAP1 POP JUMP JUMPDEST PUSH2 0x134B DUP2 PUSH2 0x17D1 JUMP JUMPDEST DUP3 MSTORE POP POP JUMP JUMPDEST PUSH2 0x135A DUP2 PUSH2 0x17E3 JUMP JUMPDEST DUP3 MSTORE POP POP JUMP JUMPDEST PUSH1 0x0 PUSH2 0x136D PUSH1 0x26 DUP4 PUSH2 0x16DF JUMP JUMPDEST SWAP2 POP PUSH2 0x1378 DUP3 PUSH2 0x18F4 JUMP JUMPDEST PUSH1 0x40 DUP3 ADD SWAP1 POP SWAP2 SWAP1 POP JUMP JUMPDEST PUSH1 0x0 PUSH2 0x1390 PUSH1 0x16 DUP4 PUSH2 0x16DF JUMP JUMPDEST SWAP2 POP PUSH2 0x139B DUP3 PUSH2 0x1943 JUMP JUMPDEST PUSH1 0x20 DUP3 ADD SWAP1 POP SWAP2 SWAP1 POP JUMP JUMPDEST PUSH1 0x0 PUSH2 0x13B3 PUSH1 0x14 DUP4 PUSH2 0x16DF JUMP JUMPDEST SWAP2 POP PUSH2 0x13BE DUP3 PUSH2 0x196C JUMP JUMPDEST PUSH1 0x20 DUP3 ADD SWAP1 POP SWAP2 SWAP1 POP JUMP JUMPDEST PUSH1 0x0 PUSH2 0x13D6 PUSH1 0x2A DUP4 PUSH2 0x16DF JUMP JUMPDEST SWAP2 POP PUSH2 0x13E1 DUP3 PUSH2 0x1995 JUMP JUMPDEST PUSH1 0x40 DUP3 ADD SWAP1 POP SWAP2 SWAP1 POP JUMP JUMPDEST PUSH1 0x0 PUSH2 0x13F9 PUSH1 0x1B DUP4 PUSH2 0x16DF JUMP JUMPDEST SWAP2 POP PUSH2 0x1404 DUP3 PUSH2 0x19E4 JUMP JUMPDEST PUSH1 0x20 DUP3 ADD SWAP1 POP SWAP2 SWAP1 POP JUMP JUMPDEST PUSH1 0x0 PUSH2 0x141C PUSH1 0x2E DUP4 PUSH2 0x16DF JUMP JUMPDEST SWAP2 POP PUSH2 0x1427 DUP3 PUSH2 0x1A0D JUMP JUMPDEST PUSH1 0x40 DUP3 ADD SWAP1 POP SWAP2 SWAP1 POP JUMP JUMPDEST PUSH1 0x0 PUSH2 0x143F PUSH1 0x27 DUP4 PUSH2 0x16DF JUMP JUMPDEST SWAP2 POP PUSH2 0x144A DUP3 PUSH2 0x1A5C JUMP JUMPDEST PUSH1 0x40 DUP3 ADD SWAP1 POP SWAP2 SWAP1 POP JUMP JUMPDEST PUSH1 0x0 PUSH2 0x1462 PUSH1 0x20 DUP4 PUSH2 0x16DF JUMP JUMPDEST SWAP2 POP PUSH2 0x146D DUP3 PUSH2 0x1AAB JUMP JUMPDEST PUSH1 0x20 DUP3 ADD SWAP1 POP SWAP2 SWAP1 POP JUMP JUMPDEST PUSH1 0x0 PUSH2 0x1485 PUSH1 0x0 DUP4 PUSH2 0x16D4 JUMP JUMPDEST SWAP2 POP PUSH2 0x1490 DUP3 PUSH2 0x1AD4 JUMP JUMPDEST PUSH1 0x0 DUP3 ADD SWAP1 POP SWAP2 SWAP1 POP JUMP JUMPDEST PUSH1 0x0 PUSH2 0x14A8 PUSH1 0x1A DUP4 PUSH2 0x16DF JUMP JUMPDEST SWAP2 POP PUSH2 0x14B3 DUP3 PUSH2 0x1AD7 JUMP JUMPDEST PUSH1 0x20 DUP3 ADD SWAP1 POP SWAP2 SWAP1 POP JUMP JUMPDEST PUSH1 0x0 PUSH2 0x14CB PUSH1 0x2B DUP4 PUSH2 0x16DF JUMP JUMPDEST SWAP2 POP PUSH2 0x14D6 DUP3 PUSH2 0x1B00 JUMP JUMPDEST PUSH1 0x40 DUP3 ADD SWAP1 POP SWAP2 SWAP1 POP JUMP JUMPDEST PUSH1 0x40 DUP3 ADD PUSH1 0x0 DUP3 ADD MLOAD PUSH2 0x14F7 PUSH1 0x0 DUP6 ADD DUP3 PUSH2 0x1510 JUMP JUMPDEST POP PUSH1 0x20 DUP3 ADD MLOAD PUSH2 0x150A PUSH1 0x20 DUP6 ADD DUP3 PUSH2 0x1351 JUMP JUMPDEST POP POP POP POP JUMP JUMPDEST PUSH2 0x1519 DUP2 PUSH2 0x180F JUMP JUMPDEST DUP3 MSTORE POP POP JUMP JUMPDEST PUSH2 0x1528 DUP2 PUSH2 0x180F JUMP JUMPDEST DUP3 MSTORE POP POP JUMP JUMPDEST PUSH1 0x0 PUSH2 0x1539 DUP3 PUSH2 0x1478 JUMP JUMPDEST SWAP2 POP DUP2 SWAP1 POP SWAP2 SWAP1 POP JUMP JUMPDEST PUSH1 0x0 PUSH1 0x20 DUP3 ADD SWAP1 POP PUSH2 0x1558 PUSH1 0x0 DUP4 ADD DUP5 PUSH2 0x1342 JUMP JUMPDEST SWAP3 SWAP2 POP POP JUMP JUMPDEST PUSH1 0x0 PUSH1 0x20 DUP3 ADD SWAP1 POP DUP2 DUP2 SUB PUSH1 0x0 DUP4 ADD MSTORE PUSH2 0x1577 DUP2 PUSH2 0x1360 JUMP JUMPDEST SWAP1 POP SWAP2 SWAP1 POP JUMP JUMPDEST PUSH1 0x0 PUSH1 0x20 DUP3 ADD SWAP1 POP DUP2 DUP2 SUB PUSH1 0x0 DUP4 ADD MSTORE PUSH2 0x1597 DUP2 PUSH2 0x1383 JUMP JUMPDEST SWAP1 POP SWAP2 SWAP1 POP JUMP JUMPDEST PUSH1 0x0 PUSH1 0x20 DUP3 ADD SWAP1 POP DUP2 DUP2 SUB PUSH1 0x0 DUP4 ADD MSTORE PUSH2 0x15B7 DUP2 PUSH2 0x13A6 JUMP JUMPDEST SWAP1 POP SWAP2 SWAP1 POP JUMP JUMPDEST PUSH1 0x0 PUSH1 0x20 DUP3 ADD SWAP1 POP DUP2 DUP2 SUB PUSH1 0x0 DUP4 ADD MSTORE PUSH2 0x15D7 DUP2 PUSH2 0x13C9 JUMP JUMPDEST SWAP1 POP SWAP2 SWAP1 POP JUMP JUMPDEST PUSH1 0x0 PUSH1 0x20 DUP3 ADD SWAP1 POP DUP2 DUP2 SUB PUSH1 0x0 DUP4 ADD MSTORE PUSH2 0x15F7 DUP2 PUSH2 0x13EC JUMP JUMPDEST SWAP1 POP SWAP2 SWAP1 POP JUMP JUMPDEST PUSH1 0x0 PUSH1 0x20 DUP3 ADD SWAP1 POP DUP2 DUP2 SUB PUSH1 0x0 DUP4 ADD MSTORE PUSH2 0x1617 DUP2 PUSH2 0x140F JUMP JUMPDEST SWAP1 POP SWAP2 SWAP1 POP JUMP JUMPDEST PUSH1 0x0 PUSH1 0x20 DUP3 ADD SWAP1 POP DUP2 DUP2 SUB PUSH1 0x0 DUP4 ADD MSTORE PUSH2 0x1637 DUP2 PUSH2 0x1432 JUMP JUMPDEST SWAP1 POP SWAP2 SWAP1 POP JUMP JUMPDEST PUSH1 0x0 PUSH1 0x20 DUP3 ADD SWAP1 POP DUP2 DUP2 SUB PUSH1 0x0 DUP4 ADD MSTORE PUSH2 0x1657 DUP2 PUSH2 0x1455 JUMP JUMPDEST SWAP1 POP SWAP2 SWAP1 POP JUMP JUMPDEST PUSH1 0x0 PUSH1 0x20 DUP3 ADD SWAP1 POP DUP2 DUP2 SUB PUSH1 0x0 DUP4 ADD MSTORE PUSH2 0x1677 DUP2 PUSH2 0x149B JUMP JUMPDEST SWAP1 POP SWAP2 SWAP1 POP JUMP JUMPDEST PUSH1 0x0 PUSH1 0x20 DUP3 ADD SWAP1 POP DUP2 DUP2 SUB PUSH1 0x0 DUP4 ADD MSTORE PUSH2 0x1697 DUP2 PUSH2 0x14BE JUMP JUMPDEST SWAP1 POP SWAP2 SWAP1 POP JUMP JUMPDEST PUSH1 0x0 PUSH1 0x40 DUP3 ADD SWAP1 POP PUSH2 0x16B3 PUSH1 0x0 DUP4 ADD DUP5 PUSH2 0x14E1 JUMP JUMPDEST SWAP3 SWAP2 POP POP JUMP JUMPDEST PUSH1 0x0 PUSH1 0x20 DUP3 ADD SWAP1 POP PUSH2 0x16CE PUSH1 0x0 DUP4 ADD DUP5 PUSH2 0x151F JUMP JUMPDEST SWAP3 SWAP2 POP POP JUMP JUMPDEST PUSH1 0x0 DUP2 SWAP1 POP SWAP3 SWAP2 POP POP JUMP JUMPDEST PUSH1 0x0 DUP3 DUP3 MSTORE PUSH1 0x20 DUP3 ADD SWAP1 POP SWAP3 SWAP2 POP POP JUMP JUMPDEST PUSH1 0x0 PUSH2 0x16FB DUP3 PUSH2 0x180F JUMP JUMPDEST SWAP2 POP PUSH2 0x1706 DUP4 PUSH2 0x180F JUMP JUMPDEST SWAP3 POP DUP3 PUSH32 0xFFFFFFFFFFFFFFFFFFFFFFFFFFFFFFFFFFFFFFFFFFFFFFFFFFFFFFFFFFFFFFFF SUB DUP3 GT ISZERO PUSH2 0x173B JUMPI PUSH2 0x173A PUSH2 0x1862 JUMP JUMPDEST JUMPDEST DUP3 DUP3 ADD SWAP1 POP SWAP3 SWAP2 POP POP JUMP JUMPDEST PUSH1 0x0 PUSH2 0x1751 DUP3 PUSH2 0x180F JUMP JUMPDEST SWAP2 POP PUSH2 0x175C DUP4 PUSH2 0x180F JUMP JUMPDEST SWAP3 POP DUP3 PUSH2 0x176C JUMPI PUSH2 0x176B PUSH2 0x1891 JUMP JUMPDEST JUMPDEST DUP3 DUP3 DIV SWAP1 POP SWAP3 SWAP2 POP POP JUMP JUMPDEST PUSH1 0x0 PUSH2 0x1782 DUP3 PUSH2 0x180F JUMP JUMPDEST SWAP2 POP PUSH2 0x178D DUP4 PUSH2 0x180F JUMP JUMPDEST SWAP3 POP DUP2 PUSH32 0xFFFFFFFFFFFFFFFFFFFFFFFFFFFFFFFFFFFFFFFFFFFFFFFFFFFFFFFFFFFFFFFF DIV DUP4 GT DUP3 ISZERO ISZERO AND ISZERO PUSH2 0x17C6 JUMPI PUSH2 0x17C5 PUSH2 0x1862 JUMP JUMPDEST JUMPDEST DUP3 DUP3 MUL SWAP1 POP SWAP3 SWAP2 POP POP JUMP JUMPDEST PUSH1 0x0 PUSH2 0x17DC DUP3 PUSH2 0x17EF JUMP JUMPDEST SWAP1 POP SWAP2 SWAP1 POP JUMP JUMPDEST PUSH1 0x0 DUP2 ISZERO ISZERO SWAP1 POP SWAP2 SWAP1 POP JUMP JUMPDEST PUSH1 0x0 PUSH20 0xFFFFFFFFFFFFFFFFFFFFFFFFFFFFFFFFFFFFFFFF DUP3 AND SWAP1 POP SWAP2 SWAP1 POP JUMP JUMPDEST PUSH1 0x0 DUP2 SWAP1 POP SWAP2 SWAP1 POP JUMP JUMPDEST PUSH1 0x0 PUSH2 0x1824 DUP3 PUSH2 0x180F JUMP JUMPDEST SWAP2 POP PUSH32 0xFFFFFFFFFFFFFFFFFFFFFFFFFFFFFFFFFFFFFFFFFFFFFFFFFFFFFFFFFFFFFFFF DUP3 EQ ISZERO PUSH2 0x1857 JUMPI PUSH2 0x1856 PUSH2 0x1862 JUMP JUMPDEST JUMPDEST PUSH1 0x1 DUP3 ADD SWAP1 POP SWAP2 SWAP1 POP JUMP JUMPDEST PUSH32 0x4E487B7100000000000000000000000000000000000000000000000000000000 PUSH1 0x0 MSTORE PUSH1 0x11 PUSH1 0x4 MSTORE PUSH1 0x24 PUSH1 0x0 REVERT JUMPDEST PUSH32 0x4E487B7100000000000000000000000000000000000000000000000000000000 PUSH1 0x0 MSTORE PUSH1 0x12 PUSH1 0x4 MSTORE PUSH1 0x24 PUSH1 0x0 REVERT JUMPDEST PUSH32 0x4E487B7100000000000000000000000000000000000000000000000000000000 PUSH1 0x0 MSTORE PUSH1 0x32 PUSH1 0x4 MSTORE PUSH1 0x24 PUSH1 0x0 REVERT JUMPDEST PUSH1 0x0 DUP1 REVERT JUMPDEST PUSH32 0x4F776E61626C653A206E6577206F776E657220697320746865207A65726F2061 PUSH1 0x0 DUP3 ADD MSTORE PUSH32 0x6464726573730000000000000000000000000000000000000000000000000000 PUSH1 0x20 DUP3 ADD MSTORE POP JUMP JUMPDEST PUSH32 0x6E6F2062616C616E636520746F20776974686472617700000000000000000000 PUSH1 0x0 DUP3 ADD MSTORE POP JUMP JUMPDEST PUSH32 0x4661696C656420746F2073656E64204574686572000000000000000000000000 PUSH1 0x0 DUP3 ADD MSTORE POP JUMP JUMPDEST PUSH32 0x746F74616C50657263656E746167652077696C6C206265206772656174657220 PUSH1 0x0 DUP3 ADD MSTORE PUSH32 0x7468616E20313030303000000000000000000000000000000000000000000000 PUSH1 0x20 DUP3 ADD MSTORE POP JUMP JUMPDEST PUSH32 0x436F6C6C61626F7261746F7220616C7265616479206578697374730000000000 PUSH1 0x0 DUP3 ADD MSTORE POP JUMP JUMPDEST PUSH32 0x496E697469616C697A61626C653A20636F6E747261637420697320616C726561 PUSH1 0x0 DUP3 ADD MSTORE PUSH32 0x647920696E697469616C697A6564000000000000000000000000000000000000 PUSH1 0x20 DUP3 ADD MSTORE POP JUMP JUMPDEST PUSH32 0x436F6C6C61626F7261746F722063616E6E6F7420626520616E20656D70747920 PUSH1 0x0 DUP3 ADD MSTORE PUSH32 0x6164647265737300000000000000000000000000000000000000000000000000 PUSH1 0x20 DUP3 ADD MSTORE POP JUMP JUMPDEST PUSH32 0x4F776E61626C653A2063616C6C6572206973206E6F7420746865206F776E6572 PUSH1 0x0 DUP3 ADD MSTORE POP JUMP JUMPDEST POP JUMP JUMPDEST PUSH32 0x436F6C6C61626F7261746F72206973206E6F7420657869737473000000000000 PUSH1 0x0 DUP3 ADD MSTORE POP JUMP JUMPDEST PUSH32 0x496E697469616C697A61626C653A20636F6E7472616374206973206E6F742069 PUSH1 0x0 DUP3 ADD MSTORE PUSH32 0x6E697469616C697A696E67000000000000000000000000000000000000000000 PUSH1 0x20 DUP3 ADD MSTORE POP JUMP JUMPDEST PUSH2 0x1B58 DUP2 PUSH2 0x17D1 JUMP JUMPDEST DUP2 EQ PUSH2 0x1B63 JUMPI PUSH1 0x0 DUP1 REVERT JUMPDEST POP JUMP JUMPDEST PUSH2 0x1B6F DUP2 PUSH2 0x180F JUMP JUMPDEST DUP2 EQ PUSH2 0x1B7A JUMPI PUSH1 0x0 DUP1 REVERT JUMPDEST POP JUMP INVALID LOG2 PUSH5 0x6970667358 0x22 SLT KECCAK256 0xC PUSH11 0xA58B739E4C0E5E8438C2CA 0x4A 0xD4 SIGNEXTEND 0xB1 0xB9 DIFFICULTY 0xE1 SHR 0xCD 0xB9 SWAP7 SWAP4 LOG0 LOG0 SWAP16 PUSH18 0x6F93D164736F6C6343000807003300000000 "
				},
				"gasEstimates": {
					"creation": {
						"codeDepositCost": "1418200",
						"executionCost": "1479",
						"totalCost": "1419679"
					},
					"external": {
						"": "218",
						"__initialize()": "112788",
						"addCollaborator(address,uint256)": "infinite",
						"delCollaborator(address)": "29411",
						"getCollaborator()": "5092",
						"getCollaborator(address)": "7679",
						"owner()": "2611",
						"recharge()": "143",
						"renounceOwnership()": "30441",
						"setCollaborator(address,uint256)": "infinite",
						"totalPercentage()": "infinite",
						"transferOwnership(address)": "30811",
						"withdraw()": "infinite"
					}
				},
				"methodIdentifiers": {
					"__initialize()": "f80ce32b",
					"addCollaborator(address,uint256)": "54a33f0e",
					"delCollaborator(address)": "ece123e4",
					"getCollaborator()": "e975e3ab",
					"getCollaborator(address)": "b116bbf5",
					"owner()": "8da5cb5b",
					"recharge()": "4cddae28",
					"renounceOwnership()": "715018a6",
					"setCollaborator(address,uint256)": "dd9a5837",
					"totalPercentage()": "d44a0e61",
					"transferOwnership(address)": "f2fde38b",
					"withdraw()": "3ccfd60b"
				}
			},
			"storageLayout": {
				"storage": [
					{
						"astId": 130,
						"contract": "contracts/ChampionCollaborator.sol:ChampionCollaborator",
						"label": "_initialized",
						"offset": 0,
						"slot": "0",
						"type": "t_bool"
					},
					{
						"astId": 133,
						"contract": "contracts/ChampionCollaborator.sol:ChampionCollaborator",
						"label": "_initializing",
						"offset": 1,
						"slot": "0",
						"type": "t_bool"
					},
					{
						"astId": 481,
						"contract": "contracts/ChampionCollaborator.sol:ChampionCollaborator",
						"label": "__gap",
						"offset": 0,
						"slot": "1",
						"type": "t_array(t_uint256)50_storage"
					},
					{
						"astId": 10,
						"contract": "contracts/ChampionCollaborator.sol:ChampionCollaborator",
						"label": "_owner",
						"offset": 0,
						"slot": "51",
						"type": "t_address"
					},
					{
						"astId": 122,
						"contract": "contracts/ChampionCollaborator.sol:ChampionCollaborator",
						"label": "__gap",
						"offset": 0,
						"slot": "52",
						"type": "t_array(t_uint256)49_storage"
					},
					{
						"astId": 496,
						"contract": "contracts/ChampionCollaborator.sol:ChampionCollaborator",
						"label": "allCollaborators",
						"offset": 0,
						"slot": "101",
						"type": "t_array(t_address)dyn_storage"
					},
					{
						"astId": 501,
						"contract": "contracts/ChampionCollaborator.sol:ChampionCollaborator",
						"label": "CollaboratorMap",
						"offset": 0,
						"slot": "102",
						"type": "t_mapping(t_address,t_struct(Collaborator)493_storage)"
					}
				],
				"types": {
					"t_address": {
						"encoding": "inplace",
						"label": "address",
						"numberOfBytes": "20"
					},
					"t_array(t_address)dyn_storage": {
						"base": "t_address",
						"encoding": "dynamic_array",
						"label": "address[]",
						"numberOfBytes": "32"
					},
					"t_array(t_uint256)49_storage": {
						"base": "t_uint256",
						"encoding": "inplace",
						"label": "uint256[49]",
						"numberOfBytes": "1568"
					},
					"t_array(t_uint256)50_storage": {
						"base": "t_uint256",
						"encoding": "inplace",
						"label": "uint256[50]",
						"numberOfBytes": "1600"
					},
					"t_bool": {
						"encoding": "inplace",
						"label": "bool",
						"numberOfBytes": "1"
					},
					"t_mapping(t_address,t_struct(Collaborator)493_storage)": {
						"encoding": "mapping",
						"key": "t_address",
						"label": "mapping(address => struct ChampionCollaborator.Collaborator)",
						"numberOfBytes": "32",
						"value": "t_struct(Collaborator)493_storage"
					},
					"t_struct(Collaborator)493_storage": {
						"encoding": "inplace",
						"label": "struct ChampionCollaborator.Collaborator",
						"members": [
							{
								"astId": 490,
								"contract": "contracts/ChampionCollaborator.sol:ChampionCollaborator",
								"label": "percentage",
								"offset": 0,
								"slot": "0",
								"type": "t_uint256"
							},
							{
								"astId": 492,
								"contract": "contracts/ChampionCollaborator.sol:ChampionCollaborator",
								"label": "active",
								"offset": 0,
								"slot": "1",
								"type": "t_bool"
							}
						],
						"numberOfBytes": "64"
					},
					"t_uint256": {
						"encoding": "inplace",
						"label": "uint256",
						"numberOfBytes": "32"
					}
				}
			},
			"userdoc": {
				"kind": "user",
				"methods": {},
				"version": 1
			}
		}
	}
}