{
	"contracts/ChampionCollaborator.sol": {
		"ChampionCollaborator": {
			"abi": [
				{
					"anonymous": false,
					"inputs": [
						{
							"indexed": true,
							"internalType": "address",
							"name": "previousOwner",
							"type": "address"
						},
						{
							"indexed": true,
							"internalType": "address",
							"name": "newOwner",
							"type": "address"
						}
					],
					"name": "OwnershipTransferred",
					"type": "event"
				},
				{
					"stateMutability": "payable",
					"type": "fallback"
				},
				{
					"inputs": [],
					"name": "__initialize",
					"outputs": [],
					"stateMutability": "nonpayable",
					"type": "function"
				},
				{
					"inputs": [
						{
							"internalType": "address",
							"name": "account",
							"type": "address"
						},
						{
							"internalType": "uint256",
							"name": "percentage",
							"type": "uint256"
						}
					],
					"name": "addCollaborator",
					"outputs": [],
					"stateMutability": "nonpayable",
					"type": "function"
				},
				{
					"inputs": [
						{
							"internalType": "address",
							"name": "account",
							"type": "address"
						}
					],
					"name": "delCollaborator",
					"outputs": [],
					"stateMutability": "nonpayable",
					"type": "function"
				},
				{
					"inputs": [],
					"name": "getAllCollaborator",
					"outputs": [
						{
							"internalType": "address[]",
							"name": "",
							"type": "address[]"
						}
					],
					"stateMutability": "view",
					"type": "function"
				},
				{
					"inputs": [
						{
							"internalType": "address",
							"name": "account",
							"type": "address"
						}
					],
					"name": "getCollaborator",
					"outputs": [
						{
							"components": [
								{
									"internalType": "uint256",
									"name": "percentage",
									"type": "uint256"
								},
								{
									"internalType": "bool",
									"name": "active",
									"type": "bool"
								}
							],
							"internalType": "struct ChampionCollaborator.Collaborator",
							"name": "",
							"type": "tuple"
						}
					],
					"stateMutability": "view",
					"type": "function"
				},
				{
					"inputs": [],
					"name": "getCollaborator",
					"outputs": [
						{
							"components": [
								{
									"internalType": "uint256",
									"name": "percentage",
									"type": "uint256"
								},
								{
									"internalType": "bool",
									"name": "active",
									"type": "bool"
								}
							],
							"internalType": "struct ChampionCollaborator.Collaborator",
							"name": "",
							"type": "tuple"
						}
					],
					"stateMutability": "view",
					"type": "function"
				},
				{
					"inputs": [],
					"name": "owner",
					"outputs": [
						{
							"internalType": "address",
							"name": "",
							"type": "address"
						}
					],
					"stateMutability": "view",
					"type": "function"
				},
				{
					"inputs": [],
					"name": "renounceOwnership",
					"outputs": [],
					"stateMutability": "nonpayable",
					"type": "function"
				},
				{
					"inputs": [
						{
							"internalType": "address",
							"name": "account",
							"type": "address"
						},
						{
							"internalType": "uint256",
							"name": "percentage",
							"type": "uint256"
						}
					],
					"name": "setCollaborator",
					"outputs": [],
					"stateMutability": "nonpayable",
					"type": "function"
				},
				{
					"inputs": [],
					"name": "totalPercentage",
					"outputs": [
						{
							"internalType": "uint256",
							"name": "",
							"type": "uint256"
						}
					],
					"stateMutability": "view",
					"type": "function"
				},
				{
					"inputs": [
						{
							"internalType": "address",
							"name": "newOwner",
							"type": "address"
						}
					],
					"name": "transferOwnership",
					"outputs": [],
					"stateMutability": "nonpayable",
					"type": "function"
				},
				{
					"inputs": [],
					"name": "withdraw",
					"outputs": [],
					"stateMutability": "nonpayable",
					"type": "function"
				},
				{
					"stateMutability": "payable",
					"type": "receive"
				}
			],
			"devdoc": {
				"kind": "dev",
				"methods": {
					"owner()": {
						"details": "Returns the address of the current owner."
					},
					"renounceOwnership()": {
						"details": "Leaves the contract without owner. It will not be possible to call `onlyOwner` functions anymore. Can only be called by the current owner. NOTE: Renouncing ownership will leave the contract without an owner, thereby removing any functionality that is only available to the owner."
					},
					"transferOwnership(address)": {
						"details": "Transfers ownership of the contract to a new account (`newOwner`). Can only be called by the current owner."
					}
				},
				"version": 1
			},
			"evm": {
				"assembly": "    /* \"contracts/ChampionCollaborator.sol\":160:3152  contract ChampionCollaborator is OwnableUpgradeable {\r... */\n  mstore(0x40, 0x80)\n  callvalue\n  dup1\n  iszero\n  tag_1\n  jumpi\n  0x00\n  dup1\n  revert\ntag_1:\n  pop\n  dataSize(sub_0)\n  dup1\n  dataOffset(sub_0)\n  0x00\n  codecopy\n  0x00\n  return\nstop\n\nsub_0: assembly {\n        /* \"contracts/ChampionCollaborator.sol\":160:3152  contract ChampionCollaborator is OwnableUpgradeable {\r... */\n      mstore(0x40, 0x80)\n      jumpi(tag_1, lt(calldatasize, 0x04))\n      shr(0xe0, calldataload(0x00))\n      dup1\n      0xdd9a5837\n      gt\n      tag_15\n      jumpi\n      dup1\n      0xdd9a5837\n      eq\n      tag_9\n      jumpi\n      dup1\n      0xe975e3ab\n      eq\n      tag_10\n      jumpi\n      dup1\n      0xece123e4\n      eq\n      tag_11\n      jumpi\n      dup1\n      0xf2fde38b\n      eq\n      tag_12\n      jumpi\n      dup1\n      0xf7fd128a\n      eq\n      tag_13\n      jumpi\n      dup1\n      0xf80ce32b\n      eq\n      tag_14\n      jumpi\n      jump(tag_2)\n    tag_15:\n      dup1\n      0x3ccfd60b\n      eq\n      tag_3\n      jumpi\n      dup1\n      0x54a33f0e\n      eq\n      tag_4\n      jumpi\n      dup1\n      0x715018a6\n      eq\n      tag_5\n      jumpi\n      dup1\n      0x8da5cb5b\n      eq\n      tag_6\n      jumpi\n      dup1\n      0xb116bbf5\n      eq\n      tag_7\n      jumpi\n      dup1\n      0xd44a0e61\n      eq\n      tag_8\n      jumpi\n      jump(tag_2)\n    tag_1:\n      jumpi(tag_2, calldatasize)\n      stop\n    tag_2:\n      stop\n        /* \"contracts/ChampionCollaborator.sol\":2584:3149  function withdraw() external onlyOwner {\r... */\n    tag_3:\n      callvalue\n      dup1\n      iszero\n      tag_20\n      jumpi\n      0x00\n      dup1\n      revert\n    tag_20:\n      pop\n      tag_21\n      tag_22\n      jump\t// in\n    tag_21:\n      stop\n        /* \"contracts/ChampionCollaborator.sol\":1407:1876  function addCollaborator(address account, uint percentage) public onlyOwner {\r... */\n    tag_4:\n      callvalue\n      dup1\n      iszero\n      tag_23\n      jumpi\n      0x00\n      dup1\n      revert\n    tag_23:\n      pop\n      tag_24\n      0x04\n      dup1\n      calldatasize\n      sub\n      dup2\n      add\n      swap1\n      tag_25\n      swap2\n      swap1\n      tag_26\n      jump\t// in\n    tag_25:\n      tag_27\n      jump\t// in\n    tag_24:\n      stop\n        /* \"@openzeppelin/contracts-upgradeable/access/OwnableUpgradeable.sol\":1908:2009  function renounceOwnership() public virtual onlyOwner {... */\n    tag_5:\n      callvalue\n      dup1\n      iszero\n      tag_28\n      jumpi\n      0x00\n      dup1\n      revert\n    tag_28:\n      pop\n      tag_29\n      tag_30\n      jump\t// in\n    tag_29:\n      stop\n        /* \"@openzeppelin/contracts-upgradeable/access/OwnableUpgradeable.sol\":1276:1361  function owner() public view virtual returns (address) {... */\n    tag_6:\n      callvalue\n      dup1\n      iszero\n      tag_31\n      jumpi\n      0x00\n      dup1\n      revert\n    tag_31:\n      pop\n      tag_32\n      tag_33\n      jump\t// in\n    tag_32:\n      mload(0x40)\n      tag_34\n      swap2\n      swap1\n      tag_35\n      jump\t// in\n    tag_34:\n      mload(0x40)\n      dup1\n      swap2\n      sub\n      swap1\n      return\n        /* \"contracts/ChampionCollaborator.sol\":752:895  function getCollaborator(address account) public view onlyOwner returns(Collaborator memory) {\r... */\n    tag_7:\n      callvalue\n      dup1\n      iszero\n      tag_36\n      jumpi\n      0x00\n      dup1\n      revert\n    tag_36:\n      pop\n      tag_37\n      0x04\n      dup1\n      calldatasize\n      sub\n      dup2\n      add\n      swap1\n      tag_38\n      swap2\n      swap1\n      tag_39\n      jump\t// in\n    tag_38:\n      tag_40\n      jump\t// in\n    tag_37:\n      mload(0x40)\n      tag_41\n      swap2\n      swap1\n      tag_42\n      jump\t// in\n    tag_41:\n      mload(0x40)\n      dup1\n      swap2\n      sub\n      swap1\n      return\n        /* \"contracts/ChampionCollaborator.sol\":1031:1399  function totalPercentage() public view returns(uint) {\r... */\n    tag_8:\n      callvalue\n      dup1\n      iszero\n      tag_43\n      jumpi\n      0x00\n      dup1\n      revert\n    tag_43:\n      pop\n      tag_44\n      tag_45\n      jump\t// in\n    tag_44:\n      mload(0x40)\n      tag_46\n      swap2\n      swap1\n      tag_47\n      jump\t// in\n    tag_46:\n      mload(0x40)\n      dup1\n      swap2\n      sub\n      swap1\n      return\n        /* \"contracts/ChampionCollaborator.sol\":1884:2294  function setCollaborator(address account, uint percentage) public onlyOwner {\r... */\n    tag_9:\n      callvalue\n      dup1\n      iszero\n      tag_48\n      jumpi\n      0x00\n      dup1\n      revert\n    tag_48:\n      pop\n      tag_49\n      0x04\n      dup1\n      calldatasize\n      sub\n      dup2\n      add\n      swap1\n      tag_50\n      swap2\n      swap1\n      tag_26\n      jump\t// in\n    tag_50:\n      tag_51\n      jump\t// in\n    tag_49:\n      stop\n        /* \"contracts/ChampionCollaborator.sol\":621:744  function getCollaborator() public view returns(Collaborator memory) {\r... */\n    tag_10:\n      callvalue\n      dup1\n      iszero\n      tag_52\n      jumpi\n      0x00\n      dup1\n      revert\n    tag_52:\n      pop\n      tag_53\n      tag_54\n      jump\t// in\n    tag_53:\n      mload(0x40)\n      tag_55\n      swap2\n      swap1\n      tag_42\n      jump\t// in\n    tag_55:\n      mload(0x40)\n      dup1\n      swap2\n      sub\n      swap1\n      return\n        /* \"contracts/ChampionCollaborator.sol\":2302:2576  function delCollaborator(address account) public onlyOwner {\r... */\n    tag_11:\n      callvalue\n      dup1\n      iszero\n      tag_56\n      jumpi\n      0x00\n      dup1\n      revert\n    tag_56:\n      pop\n      tag_57\n      0x04\n      dup1\n      calldatasize\n      sub\n      dup2\n      add\n      swap1\n      tag_58\n      swap2\n      swap1\n      tag_39\n      jump\t// in\n    tag_58:\n      tag_59\n      jump\t// in\n    tag_57:\n      stop\n        /* \"@openzeppelin/contracts-upgradeable/access/OwnableUpgradeable.sol\":2158:2356  function transferOwnership(address newOwner) public virtual onlyOwner {... */\n    tag_12:\n      callvalue\n      dup1\n      iszero\n      tag_60\n      jumpi\n      0x00\n      dup1\n      revert\n    tag_60:\n      pop\n      tag_61\n      0x04\n      dup1\n      calldatasize\n      sub\n      dup2\n      add\n      swap1\n      tag_62\n      swap2\n      swap1\n      tag_39\n      jump\t// in\n    tag_62:\n      tag_63\n      jump\t// in\n    tag_61:\n      stop\n        /* \"contracts/ChampionCollaborator.sol\":903:1023  function getAllCollaborator() public view onlyOwner returns(address[] memory) {\r... */\n    tag_13:\n      callvalue\n      dup1\n      iszero\n      tag_64\n      jumpi\n      0x00\n      dup1\n      revert\n    tag_64:\n      pop\n      tag_65\n      tag_66\n      jump\t// in\n    tag_65:\n      mload(0x40)\n      tag_67\n      swap2\n      swap1\n      tag_68\n      jump\t// in\n    tag_67:\n      mload(0x40)\n      dup1\n      swap2\n      sub\n      swap1\n      return\n        /* \"contracts/ChampionCollaborator.sol\":533:613  function __initialize() external initializer {\r... */\n    tag_14:\n      callvalue\n      dup1\n      iszero\n      tag_69\n      jumpi\n      0x00\n      dup1\n      revert\n    tag_69:\n      pop\n      tag_70\n      tag_71\n      jump\t// in\n    tag_70:\n      stop\n        /* \"contracts/ChampionCollaborator.sol\":2584:3149  function withdraw() external onlyOwner {\r... */\n    tag_22:\n        /* \"@openzeppelin/contracts-upgradeable/access/OwnableUpgradeable.sol\":1499:1511  _msgSender() */\n      tag_73\n        /* \"@openzeppelin/contracts-upgradeable/access/OwnableUpgradeable.sol\":1499:1509  _msgSender */\n      tag_74\n        /* \"@openzeppelin/contracts-upgradeable/access/OwnableUpgradeable.sol\":1499:1511  _msgSender() */\n      jump\t// in\n    tag_73:\n        /* \"@openzeppelin/contracts-upgradeable/access/OwnableUpgradeable.sol\":1488:1511  owner() == _msgSender() */\n      0xffffffffffffffffffffffffffffffffffffffff\n      and\n        /* \"@openzeppelin/contracts-upgradeable/access/OwnableUpgradeable.sol\":1488:1495  owner() */\n      tag_75\n        /* \"@openzeppelin/contracts-upgradeable/access/OwnableUpgradeable.sol\":1488:1493  owner */\n      tag_33\n        /* \"@openzeppelin/contracts-upgradeable/access/OwnableUpgradeable.sol\":1488:1495  owner() */\n      jump\t// in\n    tag_75:\n        /* \"@openzeppelin/contracts-upgradeable/access/OwnableUpgradeable.sol\":1488:1511  owner() == _msgSender() */\n      0xffffffffffffffffffffffffffffffffffffffff\n      and\n      eq\n        /* \"@openzeppelin/contracts-upgradeable/access/OwnableUpgradeable.sol\":1480:1548  require(owner() == _msgSender(), \"Ownable: caller is not the owner\") */\n      tag_76\n      jumpi\n      mload(0x40)\n      0x08c379a000000000000000000000000000000000000000000000000000000000\n      dup2\n      mstore\n      0x04\n      add\n      tag_77\n      swap1\n      tag_78\n      jump\t// in\n    tag_77:\n      mload(0x40)\n      dup1\n      swap2\n      sub\n      swap1\n      revert\n    tag_76:\n        /* \"contracts/ChampionCollaborator.sol\":2634:2649  uint256 balance */\n      0x00\n        /* \"contracts/ChampionCollaborator.sol\":2652:2673  address(this).balance */\n      selfbalance\n        /* \"contracts/ChampionCollaborator.sol\":2634:2673  uint256 balance = address(this).balance */\n      swap1\n      pop\n        /* \"contracts/ChampionCollaborator.sol\":2702:2703  0 */\n      0x00\n        /* \"contracts/ChampionCollaborator.sol\":2692:2699  balance */\n      dup2\n        /* \"contracts/ChampionCollaborator.sol\":2692:2703  balance > 0 */\n      gt\n        /* \"contracts/ChampionCollaborator.sol\":2684:2730  require(balance > 0, \"no balance to withdraw\") */\n      tag_80\n      jumpi\n      mload(0x40)\n      0x08c379a000000000000000000000000000000000000000000000000000000000\n      dup2\n      mstore\n      0x04\n      add\n      tag_81\n      swap1\n      tag_82\n      jump\t// in\n    tag_81:\n      mload(0x40)\n      dup1\n      swap2\n      sub\n      swap1\n      revert\n    tag_80:\n        /* \"contracts/ChampionCollaborator.sol\":2746:2752  uint i */\n      0x00\n        /* \"contracts/ChampionCollaborator.sol\":2741:3142  for (uint i = 0; i < allCollaborators.length; i++) {\r... */\n    tag_83:\n        /* \"contracts/ChampionCollaborator.sol\":2762:2778  allCollaborators */\n      0x65\n        /* \"contracts/ChampionCollaborator.sol\":2762:2785  allCollaborators.length */\n      dup1\n      sload\n      swap1\n      pop\n        /* \"contracts/ChampionCollaborator.sol\":2758:2759  i */\n      dup2\n        /* \"contracts/ChampionCollaborator.sol\":2758:2785  i < allCollaborators.length */\n      lt\n        /* \"contracts/ChampionCollaborator.sol\":2741:3142  for (uint i = 0; i < allCollaborators.length; i++) {\r... */\n      iszero\n      tag_84\n      jumpi\n        /* \"contracts/ChampionCollaborator.sol\":2807:2839  Collaborator memory collaborator */\n      0x00\n        /* \"contracts/ChampionCollaborator.sol\":2842:2857  CollaboratorMap */\n      0x66\n        /* \"contracts/ChampionCollaborator.sol\":2842:2878  CollaboratorMap[allCollaborators[i]] */\n      0x00\n        /* \"contracts/ChampionCollaborator.sol\":2858:2874  allCollaborators */\n      0x65\n        /* \"contracts/ChampionCollaborator.sol\":2875:2876  i */\n      dup5\n        /* \"contracts/ChampionCollaborator.sol\":2858:2877  allCollaborators[i] */\n      dup2\n      sload\n      dup2\n      lt\n      tag_86\n      jumpi\n      tag_87\n      tag_88\n      jump\t// in\n    tag_87:\n    tag_86:\n      swap1\n      0x00\n      mstore\n      keccak256(0x00, 0x20)\n      add\n      0x00\n      swap1\n      sload\n      swap1\n      0x0100\n      exp\n      swap1\n      div\n      0xffffffffffffffffffffffffffffffffffffffff\n      and\n        /* \"contracts/ChampionCollaborator.sol\":2842:2878  CollaboratorMap[allCollaborators[i]] */\n      0xffffffffffffffffffffffffffffffffffffffff\n      and\n      0xffffffffffffffffffffffffffffffffffffffff\n      and\n      dup2\n      mstore\n      0x20\n      add\n      swap1\n      dup2\n      mstore\n      0x20\n      add\n      0x00\n      keccak256\n        /* \"contracts/ChampionCollaborator.sol\":2807:2878  Collaborator memory collaborator = CollaboratorMap[allCollaborators[i]] */\n      mload(0x40)\n      dup1\n      0x40\n      add\n      0x40\n      mstore\n      swap1\n      dup2\n      0x00\n      dup3\n      add\n      sload\n      dup2\n      mstore\n      0x20\n      add\n      0x01\n      dup3\n      add\n      0x00\n      swap1\n      sload\n      swap1\n      0x0100\n      exp\n      swap1\n      div\n      0xff\n      and\n      iszero\n      iszero\n      iszero\n      iszero\n      dup2\n      mstore\n      pop\n      pop\n      swap1\n      pop\n        /* \"contracts/ChampionCollaborator.sol\":2897:2909  collaborator */\n      dup1\n        /* \"contracts/ChampionCollaborator.sol\":2897:2916  collaborator.active */\n      0x20\n      add\n      mload\n        /* \"contracts/ChampionCollaborator.sol\":2893:3131  if (collaborator.active) {\r... */\n      iszero\n      tag_90\n      jumpi\n        /* \"contracts/ChampionCollaborator.sol\":2938:2947  bool sent */\n      0x00\n        /* \"contracts/ChampionCollaborator.sol\":2949:2966  bytes memory data */\n      dup1\n        /* \"contracts/ChampionCollaborator.sol\":2978:2994  allCollaborators */\n      0x65\n        /* \"contracts/ChampionCollaborator.sol\":2995:2996  i */\n      dup5\n        /* \"contracts/ChampionCollaborator.sol\":2978:2997  allCollaborators[i] */\n      dup2\n      sload\n      dup2\n      lt\n      tag_91\n      jumpi\n      tag_92\n      tag_88\n      jump\t// in\n    tag_92:\n    tag_91:\n      swap1\n      0x00\n      mstore\n      keccak256(0x00, 0x20)\n      add\n      0x00\n      swap1\n      sload\n      swap1\n      0x0100\n      exp\n      swap1\n      div\n      0xffffffffffffffffffffffffffffffffffffffff\n      and\n        /* \"contracts/ChampionCollaborator.sol\":2970:3003  payable(allCollaborators[i]).call */\n      0xffffffffffffffffffffffffffffffffffffffff\n      and\n        /* \"contracts/ChampionCollaborator.sol\":3049:3054  10000 */\n      0x2710\n        /* \"contracts/ChampionCollaborator.sol\":3022:3034  collaborator */\n      dup5\n        /* \"contracts/ChampionCollaborator.sol\":3022:3045  collaborator.percentage */\n      0x00\n      add\n      mload\n        /* \"contracts/ChampionCollaborator.sol\":3012:3019  balance */\n      dup8\n        /* \"contracts/ChampionCollaborator.sol\":3012:3045  balance * collaborator.percentage */\n      tag_94\n      swap2\n      swap1\n      tag_95\n      jump\t// in\n    tag_94:\n        /* \"contracts/ChampionCollaborator.sol\":3011:3054  (balance * collaborator.percentage) / 10000 */\n      tag_96\n      swap2\n      swap1\n      tag_97\n      jump\t// in\n    tag_96:\n        /* \"contracts/ChampionCollaborator.sol\":2970:3059  payable(allCollaborators[i]).call{value: (balance * collaborator.percentage) / 10000}(\"\") */\n      mload(0x40)\n      tag_98\n      swap1\n      tag_99\n      jump\t// in\n    tag_98:\n      0x00\n      mload(0x40)\n      dup1\n      dup4\n      sub\n      dup2\n      dup6\n      dup8\n      gas\n      call\n      swap3\n      pop\n      pop\n      pop\n      returndatasize\n      dup1\n      0x00\n      dup2\n      eq\n      tag_102\n      jumpi\n      mload(0x40)\n      swap2\n      pop\n      and(add(returndatasize, 0x3f), not(0x1f))\n      dup3\n      add\n      0x40\n      mstore\n      returndatasize\n      dup3\n      mstore\n      returndatasize\n      0x00\n      0x20\n      dup5\n      add\n      returndatacopy\n      jump(tag_101)\n    tag_102:\n      0x60\n      swap2\n      pop\n    tag_101:\n      pop\n        /* \"contracts/ChampionCollaborator.sol\":2937:3059  (bool sent, bytes memory data) = payable(allCollaborators[i]).call{value: (balance * collaborator.percentage) / 10000}(\"\") */\n      swap2\n      pop\n      swap2\n      pop\n        /* \"contracts/ChampionCollaborator.sol\":3086:3090  sent */\n      dup2\n        /* \"contracts/ChampionCollaborator.sol\":3078:3115  require(sent, \"Failed to send Ether\") */\n      tag_103\n      jumpi\n      mload(0x40)\n      0x08c379a000000000000000000000000000000000000000000000000000000000\n      dup2\n      mstore\n      0x04\n      add\n      tag_104\n      swap1\n      tag_105\n      jump\t// in\n    tag_104:\n      mload(0x40)\n      dup1\n      swap2\n      sub\n      swap1\n      revert\n    tag_103:\n        /* \"contracts/ChampionCollaborator.sol\":2918:3131  {\r... */\n      pop\n      pop\n        /* \"contracts/ChampionCollaborator.sol\":2893:3131  if (collaborator.active) {\r... */\n    tag_90:\n        /* \"contracts/ChampionCollaborator.sol\":2792:3142  {\r... */\n      pop\n        /* \"contracts/ChampionCollaborator.sol\":2787:2790  i++ */\n      dup1\n      dup1\n      tag_106\n      swap1\n      tag_107\n      jump\t// in\n    tag_106:\n      swap2\n      pop\n      pop\n        /* \"contracts/ChampionCollaborator.sol\":2741:3142  for (uint i = 0; i < allCollaborators.length; i++) {\r... */\n      jump(tag_83)\n    tag_84:\n      pop\n        /* \"contracts/ChampionCollaborator.sol\":2623:3149  {\r... */\n      pop\n        /* \"contracts/ChampionCollaborator.sol\":2584:3149  function withdraw() external onlyOwner {\r... */\n      jump\t// out\n        /* \"contracts/ChampionCollaborator.sol\":1407:1876  function addCollaborator(address account, uint percentage) public onlyOwner {\r... */\n    tag_27:\n        /* \"@openzeppelin/contracts-upgradeable/access/OwnableUpgradeable.sol\":1499:1511  _msgSender() */\n      tag_109\n        /* \"@openzeppelin/contracts-upgradeable/access/OwnableUpgradeable.sol\":1499:1509  _msgSender */\n      tag_74\n        /* \"@openzeppelin/contracts-upgradeable/access/OwnableUpgradeable.sol\":1499:1511  _msgSender() */\n      jump\t// in\n    tag_109:\n        /* \"@openzeppelin/contracts-upgradeable/access/OwnableUpgradeable.sol\":1488:1511  owner() == _msgSender() */\n      0xffffffffffffffffffffffffffffffffffffffff\n      and\n        /* \"@openzeppelin/contracts-upgradeable/access/OwnableUpgradeable.sol\":1488:1495  owner() */\n      tag_110\n        /* \"@openzeppelin/contracts-upgradeable/access/OwnableUpgradeable.sol\":1488:1493  owner */\n      tag_33\n        /* \"@openzeppelin/contracts-upgradeable/access/OwnableUpgradeable.sol\":1488:1495  owner() */\n      jump\t// in\n    tag_110:\n        /* \"@openzeppelin/contracts-upgradeable/access/OwnableUpgradeable.sol\":1488:1511  owner() == _msgSender() */\n      0xffffffffffffffffffffffffffffffffffffffff\n      and\n      eq\n        /* \"@openzeppelin/contracts-upgradeable/access/OwnableUpgradeable.sol\":1480:1548  require(owner() == _msgSender(), \"Ownable: caller is not the owner\") */\n      tag_111\n      jumpi\n      mload(0x40)\n      0x08c379a000000000000000000000000000000000000000000000000000000000\n      dup2\n      mstore\n      0x04\n      add\n      tag_112\n      swap1\n      tag_78\n      jump\t// in\n    tag_112:\n      mload(0x40)\n      dup1\n      swap2\n      sub\n      swap1\n      revert\n    tag_111:\n        /* \"contracts/ChampionCollaborator.sol\":1521:1522  0 */\n      0x00\n        /* \"contracts/ChampionCollaborator.sol\":1502:1523  account != address(0) */\n      0xffffffffffffffffffffffffffffffffffffffff\n      and\n        /* \"contracts/ChampionCollaborator.sol\":1502:1509  account */\n      dup3\n        /* \"contracts/ChampionCollaborator.sol\":1502:1523  account != address(0) */\n      0xffffffffffffffffffffffffffffffffffffffff\n      and\n      eq\n      iszero\n        /* \"contracts/ChampionCollaborator.sol\":1494:1567  require(account != address(0), \"Collaborator cannot be an empty address\") */\n      tag_114\n      jumpi\n      mload(0x40)\n      0x08c379a000000000000000000000000000000000000000000000000000000000\n      dup2\n      mstore\n      0x04\n      add\n      tag_115\n      swap1\n      tag_116\n      jump\t// in\n    tag_115:\n      mload(0x40)\n      dup1\n      swap2\n      sub\n      swap1\n      revert\n    tag_114:\n        /* \"contracts/ChampionCollaborator.sol\":1587:1602  CollaboratorMap */\n      0x66\n        /* \"contracts/ChampionCollaborator.sol\":1587:1611  CollaboratorMap[account] */\n      0x00\n        /* \"contracts/ChampionCollaborator.sol\":1603:1610  account */\n      dup4\n        /* \"contracts/ChampionCollaborator.sol\":1587:1611  CollaboratorMap[account] */\n      0xffffffffffffffffffffffffffffffffffffffff\n      and\n      0xffffffffffffffffffffffffffffffffffffffff\n      and\n      dup2\n      mstore\n      0x20\n      add\n      swap1\n      dup2\n      mstore\n      0x20\n      add\n      0x00\n      keccak256\n        /* \"contracts/ChampionCollaborator.sol\":1587:1618  CollaboratorMap[account].active */\n      0x01\n      add\n      0x00\n      swap1\n      sload\n      swap1\n      0x0100\n      exp\n      swap1\n      div\n      0xff\n      and\n        /* \"contracts/ChampionCollaborator.sol\":1586:1618  !CollaboratorMap[account].active */\n      iszero\n        /* \"contracts/ChampionCollaborator.sol\":1578:1650  require(!CollaboratorMap[account].active, \"Collaborator already exists\") */\n      tag_117\n      jumpi\n      mload(0x40)\n      0x08c379a000000000000000000000000000000000000000000000000000000000\n      dup2\n      mstore\n      0x04\n      add\n      tag_118\n      swap1\n      tag_119\n      jump\t// in\n    tag_118:\n      mload(0x40)\n      dup1\n      swap2\n      sub\n      swap1\n      revert\n    tag_117:\n        /* \"contracts/ChampionCollaborator.sol\":1705:1710  10000 */\n      0x2710\n        /* \"contracts/ChampionCollaborator.sol\":1690:1700  percentage */\n      dup2\n        /* \"contracts/ChampionCollaborator.sol\":1670:1687  totalPercentage() */\n      tag_120\n        /* \"contracts/ChampionCollaborator.sol\":1670:1685  totalPercentage */\n      tag_45\n        /* \"contracts/ChampionCollaborator.sol\":1670:1687  totalPercentage() */\n      jump\t// in\n    tag_120:\n        /* \"contracts/ChampionCollaborator.sol\":1670:1700  totalPercentage() + percentage */\n      tag_121\n      swap2\n      swap1\n      tag_122\n      jump\t// in\n    tag_121:\n        /* \"contracts/ChampionCollaborator.sol\":1669:1710  (totalPercentage() + percentage) <= 10000 */\n      gt\n      iszero\n        /* \"contracts/ChampionCollaborator.sol\":1661:1757  require((totalPercentage() + percentage) <= 10000, \"totalPercentage will be greater than 10000\") */\n      tag_123\n      jumpi\n      mload(0x40)\n      0x08c379a000000000000000000000000000000000000000000000000000000000\n      dup2\n      mstore\n      0x04\n      add\n      tag_124\n      swap1\n      tag_125\n      jump\t// in\n    tag_124:\n      mload(0x40)\n      dup1\n      swap2\n      sub\n      swap1\n      revert\n    tag_123:\n        /* \"contracts/ChampionCollaborator.sol\":1797:1827  Collaborator(percentage, true) */\n      mload(0x40)\n      dup1\n      0x40\n      add\n      0x40\n      mstore\n      dup1\n        /* \"contracts/ChampionCollaborator.sol\":1810:1820  percentage */\n      dup3\n        /* \"contracts/ChampionCollaborator.sol\":1797:1827  Collaborator(percentage, true) */\n      dup2\n      mstore\n      0x20\n      add\n        /* \"contracts/ChampionCollaborator.sol\":1822:1826  true */\n      0x01\n        /* \"contracts/ChampionCollaborator.sol\":1797:1827  Collaborator(percentage, true) */\n      iszero\n      iszero\n      dup2\n      mstore\n      pop\n        /* \"contracts/ChampionCollaborator.sol\":1770:1785  CollaboratorMap */\n      0x66\n        /* \"contracts/ChampionCollaborator.sol\":1770:1794  CollaboratorMap[account] */\n      0x00\n        /* \"contracts/ChampionCollaborator.sol\":1786:1793  account */\n      dup5\n        /* \"contracts/ChampionCollaborator.sol\":1770:1794  CollaboratorMap[account] */\n      0xffffffffffffffffffffffffffffffffffffffff\n      and\n      0xffffffffffffffffffffffffffffffffffffffff\n      and\n      dup2\n      mstore\n      0x20\n      add\n      swap1\n      dup2\n      mstore\n      0x20\n      add\n      0x00\n      keccak256\n        /* \"contracts/ChampionCollaborator.sol\":1770:1827  CollaboratorMap[account] = Collaborator(percentage, true) */\n      0x00\n      dup3\n      add\n      mload\n      dup2\n      0x00\n      add\n      sstore\n      0x20\n      dup3\n      add\n      mload\n      dup2\n      0x01\n      add\n      exp(0x0100, 0x00)\n      dup2\n      sload\n      dup2\n      0xff\n      mul\n      not\n      and\n      swap1\n      dup4\n      iszero\n      iszero\n      mul\n      or\n      swap1\n      sstore\n      pop\n      swap1\n      pop\n      pop\n        /* \"contracts/ChampionCollaborator.sol\":1838:1854  allCollaborators */\n      0x65\n        /* \"contracts/ChampionCollaborator.sol\":1860:1867  account */\n      dup3\n        /* \"contracts/ChampionCollaborator.sol\":1838:1868  allCollaborators.push(account) */\n      swap1\n      dup1\n      0x01\n      dup2\n      sload\n      add\n      dup1\n      dup3\n      sstore\n      dup1\n      swap2\n      pop\n      pop\n      0x01\n      swap1\n      sub\n      swap1\n      0x00\n      mstore\n      keccak256(0x00, 0x20)\n      add\n      0x00\n      swap1\n      swap2\n      swap1\n      swap2\n      swap1\n      swap2\n      0x0100\n      exp\n      dup2\n      sload\n      dup2\n      0xffffffffffffffffffffffffffffffffffffffff\n      mul\n      not\n      and\n      swap1\n      dup4\n      0xffffffffffffffffffffffffffffffffffffffff\n      and\n      mul\n      or\n      swap1\n      sstore\n      pop\n        /* \"contracts/ChampionCollaborator.sol\":1407:1876  function addCollaborator(address account, uint percentage) public onlyOwner {\r... */\n      pop\n      pop\n      jump\t// out\n        /* \"@openzeppelin/contracts-upgradeable/access/OwnableUpgradeable.sol\":1908:2009  function renounceOwnership() public virtual onlyOwner {... */\n    tag_30:\n        /* \"@openzeppelin/contracts-upgradeable/access/OwnableUpgradeable.sol\":1499:1511  _msgSender() */\n      tag_128\n        /* \"@openzeppelin/contracts-upgradeable/access/OwnableUpgradeable.sol\":1499:1509  _msgSender */\n      tag_74\n        /* \"@openzeppelin/contracts-upgradeable/access/OwnableUpgradeable.sol\":1499:1511  _msgSender() */\n      jump\t// in\n    tag_128:\n        /* \"@openzeppelin/contracts-upgradeable/access/OwnableUpgradeable.sol\":1488:1511  owner() == _msgSender() */\n      0xffffffffffffffffffffffffffffffffffffffff\n      and\n        /* \"@openzeppelin/contracts-upgradeable/access/OwnableUpgradeable.sol\":1488:1495  owner() */\n      tag_129\n        /* \"@openzeppelin/contracts-upgradeable/access/OwnableUpgradeable.sol\":1488:1493  owner */\n      tag_33\n        /* \"@openzeppelin/contracts-upgradeable/access/OwnableUpgradeable.sol\":1488:1495  owner() */\n      jump\t// in\n    tag_129:\n        /* \"@openzeppelin/contracts-upgradeable/access/OwnableUpgradeable.sol\":1488:1511  owner() == _msgSender() */\n      0xffffffffffffffffffffffffffffffffffffffff\n      and\n      eq\n        /* \"@openzeppelin/contracts-upgradeable/access/OwnableUpgradeable.sol\":1480:1548  require(owner() == _msgSender(), \"Ownable: caller is not the owner\") */\n      tag_130\n      jumpi\n      mload(0x40)\n      0x08c379a000000000000000000000000000000000000000000000000000000000\n      dup2\n      mstore\n      0x04\n      add\n      tag_131\n      swap1\n      tag_78\n      jump\t// in\n    tag_131:\n      mload(0x40)\n      dup1\n      swap2\n      sub\n      swap1\n      revert\n    tag_130:\n        /* \"@openzeppelin/contracts-upgradeable/access/OwnableUpgradeable.sol\":1972:2002  _transferOwnership(address(0)) */\n      tag_133\n        /* \"@openzeppelin/contracts-upgradeable/access/OwnableUpgradeable.sol\":1999:2000  0 */\n      0x00\n        /* \"@openzeppelin/contracts-upgradeable/access/OwnableUpgradeable.sol\":1972:1990  _transferOwnership */\n      tag_134\n        /* \"@openzeppelin/contracts-upgradeable/access/OwnableUpgradeable.sol\":1972:2002  _transferOwnership(address(0)) */\n      jump\t// in\n    tag_133:\n        /* \"@openzeppelin/contracts-upgradeable/access/OwnableUpgradeable.sol\":1908:2009  function renounceOwnership() public virtual onlyOwner {... */\n      jump\t// out\n        /* \"@openzeppelin/contracts-upgradeable/access/OwnableUpgradeable.sol\":1276:1361  function owner() public view virtual returns (address) {... */\n    tag_33:\n        /* \"@openzeppelin/contracts-upgradeable/access/OwnableUpgradeable.sol\":1322:1329  address */\n      0x00\n        /* \"@openzeppelin/contracts-upgradeable/access/OwnableUpgradeable.sol\":1348:1354  _owner */\n      0x33\n      0x00\n      swap1\n      sload\n      swap1\n      0x0100\n      exp\n      swap1\n      div\n      0xffffffffffffffffffffffffffffffffffffffff\n      and\n        /* \"@openzeppelin/contracts-upgradeable/access/OwnableUpgradeable.sol\":1341:1354  return _owner */\n      swap1\n      pop\n        /* \"@openzeppelin/contracts-upgradeable/access/OwnableUpgradeable.sol\":1276:1361  function owner() public view virtual returns (address) {... */\n      swap1\n      jump\t// out\n        /* \"contracts/ChampionCollaborator.sol\":752:895  function getCollaborator(address account) public view onlyOwner returns(Collaborator memory) {\r... */\n    tag_40:\n        /* \"contracts/ChampionCollaborator.sol\":824:843  Collaborator memory */\n      tag_136\n      tag_137\n      jump\t// in\n    tag_136:\n        /* \"@openzeppelin/contracts-upgradeable/access/OwnableUpgradeable.sol\":1499:1511  _msgSender() */\n      tag_139\n        /* \"@openzeppelin/contracts-upgradeable/access/OwnableUpgradeable.sol\":1499:1509  _msgSender */\n      tag_74\n        /* \"@openzeppelin/contracts-upgradeable/access/OwnableUpgradeable.sol\":1499:1511  _msgSender() */\n      jump\t// in\n    tag_139:\n        /* \"@openzeppelin/contracts-upgradeable/access/OwnableUpgradeable.sol\":1488:1511  owner() == _msgSender() */\n      0xffffffffffffffffffffffffffffffffffffffff\n      and\n        /* \"@openzeppelin/contracts-upgradeable/access/OwnableUpgradeable.sol\":1488:1495  owner() */\n      tag_140\n        /* \"@openzeppelin/contracts-upgradeable/access/OwnableUpgradeable.sol\":1488:1493  owner */\n      tag_33\n        /* \"@openzeppelin/contracts-upgradeable/access/OwnableUpgradeable.sol\":1488:1495  owner() */\n      jump\t// in\n    tag_140:\n        /* \"@openzeppelin/contracts-upgradeable/access/OwnableUpgradeable.sol\":1488:1511  owner() == _msgSender() */\n      0xffffffffffffffffffffffffffffffffffffffff\n      and\n      eq\n        /* \"@openzeppelin/contracts-upgradeable/access/OwnableUpgradeable.sol\":1480:1548  require(owner() == _msgSender(), \"Ownable: caller is not the owner\") */\n      tag_141\n      jumpi\n      mload(0x40)\n      0x08c379a000000000000000000000000000000000000000000000000000000000\n      dup2\n      mstore\n      0x04\n      add\n      tag_142\n      swap1\n      tag_78\n      jump\t// in\n    tag_142:\n      mload(0x40)\n      dup1\n      swap2\n      sub\n      swap1\n      revert\n    tag_141:\n        /* \"contracts/ChampionCollaborator.sol\":863:878  CollaboratorMap */\n      0x66\n        /* \"contracts/ChampionCollaborator.sol\":863:887  CollaboratorMap[account] */\n      0x00\n        /* \"contracts/ChampionCollaborator.sol\":879:886  account */\n      dup4\n        /* \"contracts/ChampionCollaborator.sol\":863:887  CollaboratorMap[account] */\n      0xffffffffffffffffffffffffffffffffffffffff\n      and\n      0xffffffffffffffffffffffffffffffffffffffff\n      and\n      dup2\n      mstore\n      0x20\n      add\n      swap1\n      dup2\n      mstore\n      0x20\n      add\n      0x00\n      keccak256\n        /* \"contracts/ChampionCollaborator.sol\":856:887  return CollaboratorMap[account] */\n      mload(0x40)\n      dup1\n      0x40\n      add\n      0x40\n      mstore\n      swap1\n      dup2\n      0x00\n      dup3\n      add\n      sload\n      dup2\n      mstore\n      0x20\n      add\n      0x01\n      dup3\n      add\n      0x00\n      swap1\n      sload\n      swap1\n      0x0100\n      exp\n      swap1\n      div\n      0xff\n      and\n      iszero\n      iszero\n      iszero\n      iszero\n      dup2\n      mstore\n      pop\n      pop\n      swap1\n      pop\n        /* \"contracts/ChampionCollaborator.sol\":752:895  function getCollaborator(address account) public view onlyOwner returns(Collaborator memory) {\r... */\n      swap2\n      swap1\n      pop\n      jump\t// out\n        /* \"contracts/ChampionCollaborator.sol\":1031:1399  function totalPercentage() public view returns(uint) {\r... */\n    tag_45:\n        /* \"contracts/ChampionCollaborator.sol\":1078:1082  uint */\n      0x00\n        /* \"contracts/ChampionCollaborator.sol\":1095:1103  uint sum */\n      dup1\n        /* \"contracts/ChampionCollaborator.sol\":1106:1107  0 */\n      0x00\n        /* \"contracts/ChampionCollaborator.sol\":1095:1107  uint sum = 0 */\n      swap1\n      pop\n        /* \"contracts/ChampionCollaborator.sol\":1123:1129  uint i */\n      0x00\n        /* \"contracts/ChampionCollaborator.sol\":1118:1371  for (uint i = 0; i < allCollaborators.length; i++) {\r... */\n    tag_145:\n        /* \"contracts/ChampionCollaborator.sol\":1139:1155  allCollaborators */\n      0x65\n        /* \"contracts/ChampionCollaborator.sol\":1139:1162  allCollaborators.length */\n      dup1\n      sload\n      swap1\n      pop\n        /* \"contracts/ChampionCollaborator.sol\":1135:1136  i */\n      dup2\n        /* \"contracts/ChampionCollaborator.sol\":1135:1162  i < allCollaborators.length */\n      lt\n        /* \"contracts/ChampionCollaborator.sol\":1118:1371  for (uint i = 0; i < allCollaborators.length; i++) {\r... */\n      iszero\n      tag_146\n      jumpi\n        /* \"contracts/ChampionCollaborator.sol\":1184:1216  Collaborator memory collaborator */\n      0x00\n        /* \"contracts/ChampionCollaborator.sol\":1219:1234  CollaboratorMap */\n      0x66\n        /* \"contracts/ChampionCollaborator.sol\":1219:1255  CollaboratorMap[allCollaborators[i]] */\n      0x00\n        /* \"contracts/ChampionCollaborator.sol\":1235:1251  allCollaborators */\n      0x65\n        /* \"contracts/ChampionCollaborator.sol\":1252:1253  i */\n      dup5\n        /* \"contracts/ChampionCollaborator.sol\":1235:1254  allCollaborators[i] */\n      dup2\n      sload\n      dup2\n      lt\n      tag_148\n      jumpi\n      tag_149\n      tag_88\n      jump\t// in\n    tag_149:\n    tag_148:\n      swap1\n      0x00\n      mstore\n      keccak256(0x00, 0x20)\n      add\n      0x00\n      swap1\n      sload\n      swap1\n      0x0100\n      exp\n      swap1\n      div\n      0xffffffffffffffffffffffffffffffffffffffff\n      and\n        /* \"contracts/ChampionCollaborator.sol\":1219:1255  CollaboratorMap[allCollaborators[i]] */\n      0xffffffffffffffffffffffffffffffffffffffff\n      and\n      0xffffffffffffffffffffffffffffffffffffffff\n      and\n      dup2\n      mstore\n      0x20\n      add\n      swap1\n      dup2\n      mstore\n      0x20\n      add\n      0x00\n      keccak256\n        /* \"contracts/ChampionCollaborator.sol\":1184:1255  Collaborator memory collaborator = CollaboratorMap[allCollaborators[i]] */\n      mload(0x40)\n      dup1\n      0x40\n      add\n      0x40\n      mstore\n      swap1\n      dup2\n      0x00\n      dup3\n      add\n      sload\n      dup2\n      mstore\n      0x20\n      add\n      0x01\n      dup3\n      add\n      0x00\n      swap1\n      sload\n      swap1\n      0x0100\n      exp\n      swap1\n      div\n      0xff\n      and\n      iszero\n      iszero\n      iszero\n      iszero\n      dup2\n      mstore\n      pop\n      pop\n      swap1\n      pop\n        /* \"contracts/ChampionCollaborator.sol\":1274:1286  collaborator */\n      dup1\n        /* \"contracts/ChampionCollaborator.sol\":1274:1293  collaborator.active */\n      0x20\n      add\n      mload\n        /* \"contracts/ChampionCollaborator.sol\":1270:1360  if (collaborator.active) {\r... */\n      iszero\n      tag_151\n      jumpi\n        /* \"contracts/ChampionCollaborator.sol\":1321:1333  collaborator */\n      dup1\n        /* \"contracts/ChampionCollaborator.sol\":1321:1344  collaborator.percentage */\n      0x00\n      add\n      mload\n        /* \"contracts/ChampionCollaborator.sol\":1314:1344  sum += collaborator.percentage */\n      dup4\n      tag_152\n      swap2\n      swap1\n      tag_122\n      jump\t// in\n    tag_152:\n      swap3\n      pop\n        /* \"contracts/ChampionCollaborator.sol\":1270:1360  if (collaborator.active) {\r... */\n    tag_151:\n        /* \"contracts/ChampionCollaborator.sol\":1169:1371  {\r... */\n      pop\n        /* \"contracts/ChampionCollaborator.sol\":1164:1167  i++ */\n      dup1\n      dup1\n      tag_153\n      swap1\n      tag_107\n      jump\t// in\n    tag_153:\n      swap2\n      pop\n      pop\n        /* \"contracts/ChampionCollaborator.sol\":1118:1371  for (uint i = 0; i < allCollaborators.length; i++) {\r... */\n      jump(tag_145)\n    tag_146:\n      pop\n        /* \"contracts/ChampionCollaborator.sol\":1388:1391  sum */\n      dup1\n        /* \"contracts/ChampionCollaborator.sol\":1381:1391  return sum */\n      swap2\n      pop\n      pop\n        /* \"contracts/ChampionCollaborator.sol\":1031:1399  function totalPercentage() public view returns(uint) {\r... */\n      swap1\n      jump\t// out\n        /* \"contracts/ChampionCollaborator.sol\":1884:2294  function setCollaborator(address account, uint percentage) public onlyOwner {\r... */\n    tag_51:\n        /* \"@openzeppelin/contracts-upgradeable/access/OwnableUpgradeable.sol\":1499:1511  _msgSender() */\n      tag_155\n        /* \"@openzeppelin/contracts-upgradeable/access/OwnableUpgradeable.sol\":1499:1509  _msgSender */\n      tag_74\n        /* \"@openzeppelin/contracts-upgradeable/access/OwnableUpgradeable.sol\":1499:1511  _msgSender() */\n      jump\t// in\n    tag_155:\n        /* \"@openzeppelin/contracts-upgradeable/access/OwnableUpgradeable.sol\":1488:1511  owner() == _msgSender() */\n      0xffffffffffffffffffffffffffffffffffffffff\n      and\n        /* \"@openzeppelin/contracts-upgradeable/access/OwnableUpgradeable.sol\":1488:1495  owner() */\n      tag_156\n        /* \"@openzeppelin/contracts-upgradeable/access/OwnableUpgradeable.sol\":1488:1493  owner */\n      tag_33\n        /* \"@openzeppelin/contracts-upgradeable/access/OwnableUpgradeable.sol\":1488:1495  owner() */\n      jump\t// in\n    tag_156:\n        /* \"@openzeppelin/contracts-upgradeable/access/OwnableUpgradeable.sol\":1488:1511  owner() == _msgSender() */\n      0xffffffffffffffffffffffffffffffffffffffff\n      and\n      eq\n        /* \"@openzeppelin/contracts-upgradeable/access/OwnableUpgradeable.sol\":1480:1548  require(owner() == _msgSender(), \"Ownable: caller is not the owner\") */\n      tag_157\n      jumpi\n      mload(0x40)\n      0x08c379a000000000000000000000000000000000000000000000000000000000\n      dup2\n      mstore\n      0x04\n      add\n      tag_158\n      swap1\n      tag_78\n      jump\t// in\n    tag_158:\n      mload(0x40)\n      dup1\n      swap2\n      sub\n      swap1\n      revert\n    tag_157:\n        /* \"contracts/ChampionCollaborator.sol\":1998:1999  0 */\n      0x00\n        /* \"contracts/ChampionCollaborator.sol\":1979:2000  account != address(0) */\n      0xffffffffffffffffffffffffffffffffffffffff\n      and\n        /* \"contracts/ChampionCollaborator.sol\":1979:1986  account */\n      dup3\n        /* \"contracts/ChampionCollaborator.sol\":1979:2000  account != address(0) */\n      0xffffffffffffffffffffffffffffffffffffffff\n      and\n      eq\n      iszero\n        /* \"contracts/ChampionCollaborator.sol\":1971:2044  require(account != address(0), \"Collaborator cannot be an empty address\") */\n      tag_160\n      jumpi\n      mload(0x40)\n      0x08c379a000000000000000000000000000000000000000000000000000000000\n      dup2\n      mstore\n      0x04\n      add\n      tag_161\n      swap1\n      tag_116\n      jump\t// in\n    tag_161:\n      mload(0x40)\n      dup1\n      swap2\n      sub\n      swap1\n      revert\n    tag_160:\n        /* \"contracts/ChampionCollaborator.sol\":2063:2078  CollaboratorMap */\n      0x66\n        /* \"contracts/ChampionCollaborator.sol\":2063:2087  CollaboratorMap[account] */\n      0x00\n        /* \"contracts/ChampionCollaborator.sol\":2079:2086  account */\n      dup4\n        /* \"contracts/ChampionCollaborator.sol\":2063:2087  CollaboratorMap[account] */\n      0xffffffffffffffffffffffffffffffffffffffff\n      and\n      0xffffffffffffffffffffffffffffffffffffffff\n      and\n      dup2\n      mstore\n      0x20\n      add\n      swap1\n      dup2\n      mstore\n      0x20\n      add\n      0x00\n      keccak256\n        /* \"contracts/ChampionCollaborator.sol\":2063:2094  CollaboratorMap[account].active */\n      0x01\n      add\n      0x00\n      swap1\n      sload\n      swap1\n      0x0100\n      exp\n      swap1\n      div\n      0xff\n      and\n        /* \"contracts/ChampionCollaborator.sol\":2055:2125  require(CollaboratorMap[account].active, \"Collaborator is not exists\") */\n      tag_162\n      jumpi\n      mload(0x40)\n      0x08c379a000000000000000000000000000000000000000000000000000000000\n      dup2\n      mstore\n      0x04\n      add\n      tag_163\n      swap1\n      tag_164\n      jump\t// in\n    tag_163:\n      mload(0x40)\n      dup1\n      swap2\n      sub\n      swap1\n      revert\n    tag_162:\n        /* \"contracts/ChampionCollaborator.sol\":2184:2194  percentage */\n      dup1\n        /* \"contracts/ChampionCollaborator.sol\":2146:2161  CollaboratorMap */\n      0x66\n        /* \"contracts/ChampionCollaborator.sol\":2146:2170  CollaboratorMap[account] */\n      0x00\n        /* \"contracts/ChampionCollaborator.sol\":2162:2169  account */\n      dup5\n        /* \"contracts/ChampionCollaborator.sol\":2146:2170  CollaboratorMap[account] */\n      0xffffffffffffffffffffffffffffffffffffffff\n      and\n      0xffffffffffffffffffffffffffffffffffffffff\n      and\n      dup2\n      mstore\n      0x20\n      add\n      swap1\n      dup2\n      mstore\n      0x20\n      add\n      0x00\n      keccak256\n        /* \"contracts/ChampionCollaborator.sol\":2146:2181  CollaboratorMap[account].percentage */\n      0x00\n      add\n        /* \"contracts/ChampionCollaborator.sol\":2146:2194  CollaboratorMap[account].percentage = percentage */\n      dup2\n      swap1\n      sstore\n      pop\n        /* \"contracts/ChampionCollaborator.sol\":2234:2239  10000 */\n      0x2710\n        /* \"contracts/ChampionCollaborator.sol\":2213:2230  totalPercentage() */\n      tag_165\n        /* \"contracts/ChampionCollaborator.sol\":2213:2228  totalPercentage */\n      tag_45\n        /* \"contracts/ChampionCollaborator.sol\":2213:2230  totalPercentage() */\n      jump\t// in\n    tag_165:\n        /* \"contracts/ChampionCollaborator.sol\":2213:2239  totalPercentage() <= 10000 */\n      gt\n      iszero\n        /* \"contracts/ChampionCollaborator.sol\":2205:2286  require(totalPercentage() <= 10000, \"totalPercentage will be greater than 10000\") */\n      tag_166\n      jumpi\n      mload(0x40)\n      0x08c379a000000000000000000000000000000000000000000000000000000000\n      dup2\n      mstore\n      0x04\n      add\n      tag_167\n      swap1\n      tag_125\n      jump\t// in\n    tag_167:\n      mload(0x40)\n      dup1\n      swap2\n      sub\n      swap1\n      revert\n    tag_166:\n        /* \"contracts/ChampionCollaborator.sol\":1884:2294  function setCollaborator(address account, uint percentage) public onlyOwner {\r... */\n      pop\n      pop\n      jump\t// out\n        /* \"contracts/ChampionCollaborator.sol\":621:744  function getCollaborator() public view returns(Collaborator memory) {\r... */\n    tag_54:\n        /* \"contracts/ChampionCollaborator.sol\":668:687  Collaborator memory */\n      tag_168\n      tag_137\n      jump\t// in\n    tag_168:\n        /* \"contracts/ChampionCollaborator.sol\":707:722  CollaboratorMap */\n      0x66\n        /* \"contracts/ChampionCollaborator.sol\":707:736  CollaboratorMap[_msgSender()] */\n      0x00\n        /* \"contracts/ChampionCollaborator.sol\":723:735  _msgSender() */\n      tag_170\n        /* \"contracts/ChampionCollaborator.sol\":723:733  _msgSender */\n      tag_74\n        /* \"contracts/ChampionCollaborator.sol\":723:735  _msgSender() */\n      jump\t// in\n    tag_170:\n        /* \"contracts/ChampionCollaborator.sol\":707:736  CollaboratorMap[_msgSender()] */\n      0xffffffffffffffffffffffffffffffffffffffff\n      and\n      0xffffffffffffffffffffffffffffffffffffffff\n      and\n      dup2\n      mstore\n      0x20\n      add\n      swap1\n      dup2\n      mstore\n      0x20\n      add\n      0x00\n      keccak256\n        /* \"contracts/ChampionCollaborator.sol\":700:736  return CollaboratorMap[_msgSender()] */\n      mload(0x40)\n      dup1\n      0x40\n      add\n      0x40\n      mstore\n      swap1\n      dup2\n      0x00\n      dup3\n      add\n      sload\n      dup2\n      mstore\n      0x20\n      add\n      0x01\n      dup3\n      add\n      0x00\n      swap1\n      sload\n      swap1\n      0x0100\n      exp\n      swap1\n      div\n      0xff\n      and\n      iszero\n      iszero\n      iszero\n      iszero\n      dup2\n      mstore\n      pop\n      pop\n      swap1\n      pop\n        /* \"contracts/ChampionCollaborator.sol\":621:744  function getCollaborator() public view returns(Collaborator memory) {\r... */\n      swap1\n      jump\t// out\n        /* \"contracts/ChampionCollaborator.sol\":2302:2576  function delCollaborator(address account) public onlyOwner {\r... */\n    tag_59:\n        /* \"@openzeppelin/contracts-upgradeable/access/OwnableUpgradeable.sol\":1499:1511  _msgSender() */\n      tag_172\n        /* \"@openzeppelin/contracts-upgradeable/access/OwnableUpgradeable.sol\":1499:1509  _msgSender */\n      tag_74\n        /* \"@openzeppelin/contracts-upgradeable/access/OwnableUpgradeable.sol\":1499:1511  _msgSender() */\n      jump\t// in\n    tag_172:\n        /* \"@openzeppelin/contracts-upgradeable/access/OwnableUpgradeable.sol\":1488:1511  owner() == _msgSender() */\n      0xffffffffffffffffffffffffffffffffffffffff\n      and\n        /* \"@openzeppelin/contracts-upgradeable/access/OwnableUpgradeable.sol\":1488:1495  owner() */\n      tag_173\n        /* \"@openzeppelin/contracts-upgradeable/access/OwnableUpgradeable.sol\":1488:1493  owner */\n      tag_33\n        /* \"@openzeppelin/contracts-upgradeable/access/OwnableUpgradeable.sol\":1488:1495  owner() */\n      jump\t// in\n    tag_173:\n        /* \"@openzeppelin/contracts-upgradeable/access/OwnableUpgradeable.sol\":1488:1511  owner() == _msgSender() */\n      0xffffffffffffffffffffffffffffffffffffffff\n      and\n      eq\n        /* \"@openzeppelin/contracts-upgradeable/access/OwnableUpgradeable.sol\":1480:1548  require(owner() == _msgSender(), \"Ownable: caller is not the owner\") */\n      tag_174\n      jumpi\n      mload(0x40)\n      0x08c379a000000000000000000000000000000000000000000000000000000000\n      dup2\n      mstore\n      0x04\n      add\n      tag_175\n      swap1\n      tag_78\n      jump\t// in\n    tag_175:\n      mload(0x40)\n      dup1\n      swap2\n      sub\n      swap1\n      revert\n    tag_174:\n        /* \"contracts/ChampionCollaborator.sol\":2399:2400  0 */\n      0x00\n        /* \"contracts/ChampionCollaborator.sol\":2380:2401  account != address(0) */\n      0xffffffffffffffffffffffffffffffffffffffff\n      and\n        /* \"contracts/ChampionCollaborator.sol\":2380:2387  account */\n      dup2\n        /* \"contracts/ChampionCollaborator.sol\":2380:2401  account != address(0) */\n      0xffffffffffffffffffffffffffffffffffffffff\n      and\n      eq\n      iszero\n        /* \"contracts/ChampionCollaborator.sol\":2372:2445  require(account != address(0), \"Collaborator cannot be an empty address\") */\n      tag_177\n      jumpi\n      mload(0x40)\n      0x08c379a000000000000000000000000000000000000000000000000000000000\n      dup2\n      mstore\n      0x04\n      add\n      tag_178\n      swap1\n      tag_116\n      jump\t// in\n    tag_178:\n      mload(0x40)\n      dup1\n      swap2\n      sub\n      swap1\n      revert\n    tag_177:\n        /* \"contracts/ChampionCollaborator.sol\":2464:2479  CollaboratorMap */\n      0x66\n        /* \"contracts/ChampionCollaborator.sol\":2464:2488  CollaboratorMap[account] */\n      0x00\n        /* \"contracts/ChampionCollaborator.sol\":2480:2487  account */\n      dup3\n        /* \"contracts/ChampionCollaborator.sol\":2464:2488  CollaboratorMap[account] */\n      0xffffffffffffffffffffffffffffffffffffffff\n      and\n      0xffffffffffffffffffffffffffffffffffffffff\n      and\n      dup2\n      mstore\n      0x20\n      add\n      swap1\n      dup2\n      mstore\n      0x20\n      add\n      0x00\n      keccak256\n        /* \"contracts/ChampionCollaborator.sol\":2464:2495  CollaboratorMap[account].active */\n      0x01\n      add\n      0x00\n      swap1\n      sload\n      swap1\n      0x0100\n      exp\n      swap1\n      div\n      0xff\n      and\n        /* \"contracts/ChampionCollaborator.sol\":2456:2526  require(CollaboratorMap[account].active, \"Collaborator is not exists\") */\n      tag_179\n      jumpi\n      mload(0x40)\n      0x08c379a000000000000000000000000000000000000000000000000000000000\n      dup2\n      mstore\n      0x04\n      add\n      tag_180\n      swap1\n      tag_164\n      jump\t// in\n    tag_180:\n      mload(0x40)\n      dup1\n      swap2\n      sub\n      swap1\n      revert\n    tag_179:\n        /* \"contracts/ChampionCollaborator.sol\":2544:2559  CollaboratorMap */\n      0x66\n        /* \"contracts/ChampionCollaborator.sol\":2544:2568  CollaboratorMap[account] */\n      0x00\n        /* \"contracts/ChampionCollaborator.sol\":2560:2567  account */\n      dup3\n        /* \"contracts/ChampionCollaborator.sol\":2544:2568  CollaboratorMap[account] */\n      0xffffffffffffffffffffffffffffffffffffffff\n      and\n      0xffffffffffffffffffffffffffffffffffffffff\n      and\n      dup2\n      mstore\n      0x20\n      add\n      swap1\n      dup2\n      mstore\n      0x20\n      add\n      0x00\n      keccak256\n      0x00\n        /* \"contracts/ChampionCollaborator.sol\":2537:2568  delete CollaboratorMap[account] */\n      dup1\n      dup3\n      add\n      0x00\n      swap1\n      sstore\n      0x01\n      dup3\n      add\n      exp(0x0100, 0x00)\n      dup2\n      sload\n      swap1\n      0xff\n      mul\n      not\n      and\n      swap1\n      sstore\n      pop\n      pop\n        /* \"contracts/ChampionCollaborator.sol\":2302:2576  function delCollaborator(address account) public onlyOwner {\r... */\n      pop\n      jump\t// out\n        /* \"@openzeppelin/contracts-upgradeable/access/OwnableUpgradeable.sol\":2158:2356  function transferOwnership(address newOwner) public virtual onlyOwner {... */\n    tag_63:\n        /* \"@openzeppelin/contracts-upgradeable/access/OwnableUpgradeable.sol\":1499:1511  _msgSender() */\n      tag_182\n        /* \"@openzeppelin/contracts-upgradeable/access/OwnableUpgradeable.sol\":1499:1509  _msgSender */\n      tag_74\n        /* \"@openzeppelin/contracts-upgradeable/access/OwnableUpgradeable.sol\":1499:1511  _msgSender() */\n      jump\t// in\n    tag_182:\n        /* \"@openzeppelin/contracts-upgradeable/access/OwnableUpgradeable.sol\":1488:1511  owner() == _msgSender() */\n      0xffffffffffffffffffffffffffffffffffffffff\n      and\n        /* \"@openzeppelin/contracts-upgradeable/access/OwnableUpgradeable.sol\":1488:1495  owner() */\n      tag_183\n        /* \"@openzeppelin/contracts-upgradeable/access/OwnableUpgradeable.sol\":1488:1493  owner */\n      tag_33\n        /* \"@openzeppelin/contracts-upgradeable/access/OwnableUpgradeable.sol\":1488:1495  owner() */\n      jump\t// in\n    tag_183:\n        /* \"@openzeppelin/contracts-upgradeable/access/OwnableUpgradeable.sol\":1488:1511  owner() == _msgSender() */\n      0xffffffffffffffffffffffffffffffffffffffff\n      and\n      eq\n        /* \"@openzeppelin/contracts-upgradeable/access/OwnableUpgradeable.sol\":1480:1548  require(owner() == _msgSender(), \"Ownable: caller is not the owner\") */\n      tag_184\n      jumpi\n      mload(0x40)\n      0x08c379a000000000000000000000000000000000000000000000000000000000\n      dup2\n      mstore\n      0x04\n      add\n      tag_185\n      swap1\n      tag_78\n      jump\t// in\n    tag_185:\n      mload(0x40)\n      dup1\n      swap2\n      sub\n      swap1\n      revert\n    tag_184:\n        /* \"@openzeppelin/contracts-upgradeable/access/OwnableUpgradeable.sol\":2266:2267  0 */\n      0x00\n        /* \"@openzeppelin/contracts-upgradeable/access/OwnableUpgradeable.sol\":2246:2268  newOwner != address(0) */\n      0xffffffffffffffffffffffffffffffffffffffff\n      and\n        /* \"@openzeppelin/contracts-upgradeable/access/OwnableUpgradeable.sol\":2246:2254  newOwner */\n      dup2\n        /* \"@openzeppelin/contracts-upgradeable/access/OwnableUpgradeable.sol\":2246:2268  newOwner != address(0) */\n      0xffffffffffffffffffffffffffffffffffffffff\n      and\n      eq\n      iszero\n        /* \"@openzeppelin/contracts-upgradeable/access/OwnableUpgradeable.sol\":2238:2311  require(newOwner != address(0), \"Ownable: new owner is the zero address\") */\n      tag_187\n      jumpi\n      mload(0x40)\n      0x08c379a000000000000000000000000000000000000000000000000000000000\n      dup2\n      mstore\n      0x04\n      add\n      tag_188\n      swap1\n      tag_189\n      jump\t// in\n    tag_188:\n      mload(0x40)\n      dup1\n      swap2\n      sub\n      swap1\n      revert\n    tag_187:\n        /* \"@openzeppelin/contracts-upgradeable/access/OwnableUpgradeable.sol\":2321:2349  _transferOwnership(newOwner) */\n      tag_190\n        /* \"@openzeppelin/contracts-upgradeable/access/OwnableUpgradeable.sol\":2340:2348  newOwner */\n      dup2\n        /* \"@openzeppelin/contracts-upgradeable/access/OwnableUpgradeable.sol\":2321:2339  _transferOwnership */\n      tag_134\n        /* \"@openzeppelin/contracts-upgradeable/access/OwnableUpgradeable.sol\":2321:2349  _transferOwnership(newOwner) */\n      jump\t// in\n    tag_190:\n        /* \"@openzeppelin/contracts-upgradeable/access/OwnableUpgradeable.sol\":2158:2356  function transferOwnership(address newOwner) public virtual onlyOwner {... */\n      pop\n      jump\t// out\n        /* \"contracts/ChampionCollaborator.sol\":903:1023  function getAllCollaborator() public view onlyOwner returns(address[] memory) {\r... */\n    tag_66:\n        /* \"contracts/ChampionCollaborator.sol\":963:979  address[] memory */\n      0x60\n        /* \"@openzeppelin/contracts-upgradeable/access/OwnableUpgradeable.sol\":1499:1511  _msgSender() */\n      tag_192\n        /* \"@openzeppelin/contracts-upgradeable/access/OwnableUpgradeable.sol\":1499:1509  _msgSender */\n      tag_74\n        /* \"@openzeppelin/contracts-upgradeable/access/OwnableUpgradeable.sol\":1499:1511  _msgSender() */\n      jump\t// in\n    tag_192:\n        /* \"@openzeppelin/contracts-upgradeable/access/OwnableUpgradeable.sol\":1488:1511  owner() == _msgSender() */\n      0xffffffffffffffffffffffffffffffffffffffff\n      and\n        /* \"@openzeppelin/contracts-upgradeable/access/OwnableUpgradeable.sol\":1488:1495  owner() */\n      tag_193\n        /* \"@openzeppelin/contracts-upgradeable/access/OwnableUpgradeable.sol\":1488:1493  owner */\n      tag_33\n        /* \"@openzeppelin/contracts-upgradeable/access/OwnableUpgradeable.sol\":1488:1495  owner() */\n      jump\t// in\n    tag_193:\n        /* \"@openzeppelin/contracts-upgradeable/access/OwnableUpgradeable.sol\":1488:1511  owner() == _msgSender() */\n      0xffffffffffffffffffffffffffffffffffffffff\n      and\n      eq\n        /* \"@openzeppelin/contracts-upgradeable/access/OwnableUpgradeable.sol\":1480:1548  require(owner() == _msgSender(), \"Ownable: caller is not the owner\") */\n      tag_194\n      jumpi\n      mload(0x40)\n      0x08c379a000000000000000000000000000000000000000000000000000000000\n      dup2\n      mstore\n      0x04\n      add\n      tag_195\n      swap1\n      tag_78\n      jump\t// in\n    tag_195:\n      mload(0x40)\n      dup1\n      swap2\n      sub\n      swap1\n      revert\n    tag_194:\n        /* \"contracts/ChampionCollaborator.sol\":999:1015  allCollaborators */\n      0x65\n        /* \"contracts/ChampionCollaborator.sol\":992:1015  return allCollaborators */\n      dup1\n      sload\n      dup1\n      0x20\n      mul\n      0x20\n      add\n      mload(0x40)\n      swap1\n      dup2\n      add\n      0x40\n      mstore\n      dup1\n      swap3\n      swap2\n      swap1\n      dup2\n      dup2\n      mstore\n      0x20\n      add\n      dup3\n      dup1\n      sload\n      dup1\n      iszero\n      tag_197\n      jumpi\n      0x20\n      mul\n      dup3\n      add\n      swap2\n      swap1\n      0x00\n      mstore\n      keccak256(0x00, 0x20)\n      swap1\n    tag_198:\n      dup2\n      0x00\n      swap1\n      sload\n      swap1\n      0x0100\n      exp\n      swap1\n      div\n      0xffffffffffffffffffffffffffffffffffffffff\n      and\n      0xffffffffffffffffffffffffffffffffffffffff\n      and\n      dup2\n      mstore\n      0x20\n      add\n      swap1\n      0x01\n      add\n      swap1\n      dup1\n      dup4\n      gt\n      tag_198\n      jumpi\n    tag_197:\n      pop\n      pop\n      pop\n      pop\n      pop\n      swap1\n      pop\n        /* \"contracts/ChampionCollaborator.sol\":903:1023  function getAllCollaborator() public view onlyOwner returns(address[] memory) {\r... */\n      swap1\n      jump\t// out\n        /* \"contracts/ChampionCollaborator.sol\":533:613  function __initialize() external initializer {\r... */\n    tag_71:\n        /* \"@openzeppelin/contracts-upgradeable/proxy/utils/Initializable.sol\":2369:2382  _initializing */\n      0x00\n      0x01\n      swap1\n      sload\n      swap1\n      0x0100\n      exp\n      swap1\n      div\n      0xff\n      and\n        /* \"@openzeppelin/contracts-upgradeable/proxy/utils/Initializable.sol\":2369:2417  _initializing ? _isConstructor() : !_initialized */\n      tag_200\n      jumpi\n        /* \"@openzeppelin/contracts-upgradeable/proxy/utils/Initializable.sol\":2405:2417  _initialized */\n      0x00\n      dup1\n      sload\n      swap1\n      0x0100\n      exp\n      swap1\n      div\n      0xff\n      and\n        /* \"@openzeppelin/contracts-upgradeable/proxy/utils/Initializable.sol\":2404:2417  !_initialized */\n      iszero\n        /* \"@openzeppelin/contracts-upgradeable/proxy/utils/Initializable.sol\":2369:2417  _initializing ? _isConstructor() : !_initialized */\n      jump(tag_201)\n    tag_200:\n        /* \"@openzeppelin/contracts-upgradeable/proxy/utils/Initializable.sol\":2385:2401  _isConstructor() */\n      tag_202\n        /* \"@openzeppelin/contracts-upgradeable/proxy/utils/Initializable.sol\":2385:2399  _isConstructor */\n      tag_203\n        /* \"@openzeppelin/contracts-upgradeable/proxy/utils/Initializable.sol\":2385:2401  _isConstructor() */\n      jump\t// in\n    tag_202:\n        /* \"@openzeppelin/contracts-upgradeable/proxy/utils/Initializable.sol\":2369:2417  _initializing ? _isConstructor() : !_initialized */\n    tag_201:\n        /* \"@openzeppelin/contracts-upgradeable/proxy/utils/Initializable.sol\":2361:2468  require(_initializing ? _isConstructor() : !_initialized, \"Initializable: contract is already initialized\") */\n      tag_204\n      jumpi\n      mload(0x40)\n      0x08c379a000000000000000000000000000000000000000000000000000000000\n      dup2\n      mstore\n      0x04\n      add\n      tag_205\n      swap1\n      tag_206\n      jump\t// in\n    tag_205:\n      mload(0x40)\n      dup1\n      swap2\n      sub\n      swap1\n      revert\n    tag_204:\n        /* \"@openzeppelin/contracts-upgradeable/proxy/utils/Initializable.sol\":2479:2498  bool isTopLevelCall */\n      0x00\n        /* \"@openzeppelin/contracts-upgradeable/proxy/utils/Initializable.sol\":2502:2515  _initializing */\n      dup1\n      0x01\n      swap1\n      sload\n      swap1\n      0x0100\n      exp\n      swap1\n      div\n      0xff\n      and\n        /* \"@openzeppelin/contracts-upgradeable/proxy/utils/Initializable.sol\":2501:2515  !_initializing */\n      iszero\n        /* \"@openzeppelin/contracts-upgradeable/proxy/utils/Initializable.sol\":2479:2515  bool isTopLevelCall = !_initializing */\n      swap1\n      pop\n        /* \"@openzeppelin/contracts-upgradeable/proxy/utils/Initializable.sol\":2529:2543  isTopLevelCall */\n      dup1\n        /* \"@openzeppelin/contracts-upgradeable/proxy/utils/Initializable.sol\":2525:2623  if (isTopLevelCall) {... */\n      iszero\n      tag_207\n      jumpi\n        /* \"@openzeppelin/contracts-upgradeable/proxy/utils/Initializable.sol\":2575:2579  true */\n      0x01\n        /* \"@openzeppelin/contracts-upgradeable/proxy/utils/Initializable.sol\":2559:2572  _initializing */\n      0x00\n      0x01\n        /* \"@openzeppelin/contracts-upgradeable/proxy/utils/Initializable.sol\":2559:2579  _initializing = true */\n      0x0100\n      exp\n      dup2\n      sload\n      dup2\n      0xff\n      mul\n      not\n      and\n      swap1\n      dup4\n      iszero\n      iszero\n      mul\n      or\n      swap1\n      sstore\n      pop\n        /* \"@openzeppelin/contracts-upgradeable/proxy/utils/Initializable.sol\":2608:2612  true */\n      0x01\n        /* \"@openzeppelin/contracts-upgradeable/proxy/utils/Initializable.sol\":2593:2605  _initialized */\n      0x00\n      dup1\n        /* \"@openzeppelin/contracts-upgradeable/proxy/utils/Initializable.sol\":2593:2612  _initialized = true */\n      0x0100\n      exp\n      dup2\n      sload\n      dup2\n      0xff\n      mul\n      not\n      and\n      swap1\n      dup4\n      iszero\n      iszero\n      mul\n      or\n      swap1\n      sstore\n      pop\n        /* \"@openzeppelin/contracts-upgradeable/proxy/utils/Initializable.sol\":2525:2623  if (isTopLevelCall) {... */\n    tag_207:\n        /* \"contracts/ChampionCollaborator.sol\":589:605  __Ownable_init() */\n      tag_209\n        /* \"contracts/ChampionCollaborator.sol\":589:603  __Ownable_init */\n      tag_210\n        /* \"contracts/ChampionCollaborator.sol\":589:605  __Ownable_init() */\n      jump\t// in\n    tag_209:\n        /* \"@openzeppelin/contracts-upgradeable/proxy/utils/Initializable.sol\":2649:2663  isTopLevelCall */\n      dup1\n        /* \"@openzeppelin/contracts-upgradeable/proxy/utils/Initializable.sol\":2645:2711  if (isTopLevelCall) {... */\n      iszero\n      tag_211\n      jumpi\n        /* \"@openzeppelin/contracts-upgradeable/proxy/utils/Initializable.sol\":2695:2700  false */\n      0x00\n        /* \"@openzeppelin/contracts-upgradeable/proxy/utils/Initializable.sol\":2679:2692  _initializing */\n      dup1\n      0x01\n        /* \"@openzeppelin/contracts-upgradeable/proxy/utils/Initializable.sol\":2679:2700  _initializing = false */\n      0x0100\n      exp\n      dup2\n      sload\n      dup2\n      0xff\n      mul\n      not\n      and\n      swap1\n      dup4\n      iszero\n      iszero\n      mul\n      or\n      swap1\n      sstore\n      pop\n        /* \"@openzeppelin/contracts-upgradeable/proxy/utils/Initializable.sol\":2645:2711  if (isTopLevelCall) {... */\n    tag_211:\n        /* \"@openzeppelin/contracts-upgradeable/proxy/utils/Initializable.sol\":2080:2717  {... */\n      pop\n        /* \"contracts/ChampionCollaborator.sol\":533:613  function __initialize() external initializer {\r... */\n      jump\t// out\n        /* \"@openzeppelin/contracts-upgradeable/utils/ContextUpgradeable.sol\":850:946  function _msgSender() internal view virtual returns (address) {... */\n    tag_74:\n        /* \"@openzeppelin/contracts-upgradeable/utils/ContextUpgradeable.sol\":903:910  address */\n      0x00\n        /* \"@openzeppelin/contracts-upgradeable/utils/ContextUpgradeable.sol\":929:939  msg.sender */\n      caller\n        /* \"@openzeppelin/contracts-upgradeable/utils/ContextUpgradeable.sol\":922:939  return msg.sender */\n      swap1\n      pop\n        /* \"@openzeppelin/contracts-upgradeable/utils/ContextUpgradeable.sol\":850:946  function _msgSender() internal view virtual returns (address) {... */\n      swap1\n      jump\t// out\n        /* \"@openzeppelin/contracts-upgradeable/access/OwnableUpgradeable.sol\":2510:2697  function _transferOwnership(address newOwner) internal virtual {... */\n    tag_134:\n        /* \"@openzeppelin/contracts-upgradeable/access/OwnableUpgradeable.sol\":2583:2599  address oldOwner */\n      0x00\n        /* \"@openzeppelin/contracts-upgradeable/access/OwnableUpgradeable.sol\":2602:2608  _owner */\n      0x33\n      0x00\n      swap1\n      sload\n      swap1\n      0x0100\n      exp\n      swap1\n      div\n      0xffffffffffffffffffffffffffffffffffffffff\n      and\n        /* \"@openzeppelin/contracts-upgradeable/access/OwnableUpgradeable.sol\":2583:2608  address oldOwner = _owner */\n      swap1\n      pop\n        /* \"@openzeppelin/contracts-upgradeable/access/OwnableUpgradeable.sol\":2627:2635  newOwner */\n      dup2\n        /* \"@openzeppelin/contracts-upgradeable/access/OwnableUpgradeable.sol\":2618:2624  _owner */\n      0x33\n      0x00\n        /* \"@openzeppelin/contracts-upgradeable/access/OwnableUpgradeable.sol\":2618:2635  _owner = newOwner */\n      0x0100\n      exp\n      dup2\n      sload\n      dup2\n      0xffffffffffffffffffffffffffffffffffffffff\n      mul\n      not\n      and\n      swap1\n      dup4\n      0xffffffffffffffffffffffffffffffffffffffff\n      and\n      mul\n      or\n      swap1\n      sstore\n      pop\n        /* \"@openzeppelin/contracts-upgradeable/access/OwnableUpgradeable.sol\":2681:2689  newOwner */\n      dup2\n        /* \"@openzeppelin/contracts-upgradeable/access/OwnableUpgradeable.sol\":2650:2690  OwnershipTransferred(oldOwner, newOwner) */\n      0xffffffffffffffffffffffffffffffffffffffff\n      and\n        /* \"@openzeppelin/contracts-upgradeable/access/OwnableUpgradeable.sol\":2671:2679  oldOwner */\n      dup2\n        /* \"@openzeppelin/contracts-upgradeable/access/OwnableUpgradeable.sol\":2650:2690  OwnershipTransferred(oldOwner, newOwner) */\n      0xffffffffffffffffffffffffffffffffffffffff\n      and\n      0x8be0079c531659141344cd1fd0a4f28419497f9722a3daafe3b4186f6b6457e0\n      mload(0x40)\n      mload(0x40)\n      dup1\n      swap2\n      sub\n      swap1\n      log3\n        /* \"@openzeppelin/contracts-upgradeable/access/OwnableUpgradeable.sol\":2573:2697  {... */\n      pop\n        /* \"@openzeppelin/contracts-upgradeable/access/OwnableUpgradeable.sol\":2510:2697  function _transferOwnership(address newOwner) internal virtual {... */\n      pop\n      jump\t// out\n        /* \"@openzeppelin/contracts-upgradeable/proxy/utils/Initializable.sol\":3037:3160  function _isConstructor() private view returns (bool) {... */\n    tag_203:\n        /* \"@openzeppelin/contracts-upgradeable/proxy/utils/Initializable.sol\":3085:3089  bool */\n      0x00\n        /* \"@openzeppelin/contracts-upgradeable/proxy/utils/Initializable.sol\":3109:3153  AddressUpgradeable.isContract(address(this)) */\n      tag_215\n        /* \"@openzeppelin/contracts-upgradeable/proxy/utils/Initializable.sol\":3147:3151  this */\n      address\n        /* \"@openzeppelin/contracts-upgradeable/proxy/utils/Initializable.sol\":3109:3138  AddressUpgradeable.isContract */\n      tag_216\n        /* \"@openzeppelin/contracts-upgradeable/proxy/utils/Initializable.sol\":3109:3153  AddressUpgradeable.isContract(address(this)) */\n      jump\t// in\n    tag_215:\n        /* \"@openzeppelin/contracts-upgradeable/proxy/utils/Initializable.sol\":3108:3153  !AddressUpgradeable.isContract(address(this)) */\n      iszero\n        /* \"@openzeppelin/contracts-upgradeable/proxy/utils/Initializable.sol\":3101:3153  return !AddressUpgradeable.isContract(address(this)) */\n      swap1\n      pop\n        /* \"@openzeppelin/contracts-upgradeable/proxy/utils/Initializable.sol\":3037:3160  function _isConstructor() private view returns (bool) {... */\n      swap1\n      jump\t// out\n        /* \"@openzeppelin/contracts-upgradeable/access/OwnableUpgradeable.sol\":988:1083  function __Ownable_init() internal onlyInitializing {... */\n    tag_210:\n        /* \"@openzeppelin/contracts-upgradeable/proxy/utils/Initializable.sol\":2952:2965  _initializing */\n      0x00\n      0x01\n      swap1\n      sload\n      swap1\n      0x0100\n      exp\n      swap1\n      div\n      0xff\n      and\n        /* \"@openzeppelin/contracts-upgradeable/proxy/utils/Initializable.sol\":2944:3013  require(_initializing, \"Initializable: contract is not initializing\") */\n      tag_218\n      jumpi\n      mload(0x40)\n      0x08c379a000000000000000000000000000000000000000000000000000000000\n      dup2\n      mstore\n      0x04\n      add\n      tag_219\n      swap1\n      tag_220\n      jump\t// in\n    tag_219:\n      mload(0x40)\n      dup1\n      swap2\n      sub\n      swap1\n      revert\n    tag_218:\n        /* \"@openzeppelin/contracts-upgradeable/access/OwnableUpgradeable.sol\":1050:1076  __Ownable_init_unchained() */\n      tag_222\n        /* \"@openzeppelin/contracts-upgradeable/access/OwnableUpgradeable.sol\":1050:1074  __Ownable_init_unchained */\n      tag_223\n        /* \"@openzeppelin/contracts-upgradeable/access/OwnableUpgradeable.sol\":1050:1076  __Ownable_init_unchained() */\n      jump\t// in\n    tag_222:\n        /* \"@openzeppelin/contracts-upgradeable/access/OwnableUpgradeable.sol\":988:1083  function __Ownable_init() internal onlyInitializing {... */\n      jump\t// out\n        /* \"@openzeppelin/contracts-upgradeable/utils/AddressUpgradeable.sol\":1186:1506  function isContract(address account) internal view returns (bool) {... */\n    tag_216:\n        /* \"@openzeppelin/contracts-upgradeable/utils/AddressUpgradeable.sol\":1246:1250  bool */\n      0x00\n        /* \"@openzeppelin/contracts-upgradeable/utils/AddressUpgradeable.sol\":1498:1499  0 */\n      dup1\n        /* \"@openzeppelin/contracts-upgradeable/utils/AddressUpgradeable.sol\":1476:1483  account */\n      dup3\n        /* \"@openzeppelin/contracts-upgradeable/utils/AddressUpgradeable.sol\":1476:1495  account.code.length */\n      0xffffffffffffffffffffffffffffffffffffffff\n      and\n      extcodesize\n        /* \"@openzeppelin/contracts-upgradeable/utils/AddressUpgradeable.sol\":1476:1499  account.code.length > 0 */\n      gt\n        /* \"@openzeppelin/contracts-upgradeable/utils/AddressUpgradeable.sol\":1469:1499  return account.code.length > 0 */\n      swap1\n      pop\n        /* \"@openzeppelin/contracts-upgradeable/utils/AddressUpgradeable.sol\":1186:1506  function isContract(address account) internal view returns (bool) {... */\n      swap2\n      swap1\n      pop\n      jump\t// out\n        /* \"@openzeppelin/contracts-upgradeable/access/OwnableUpgradeable.sol\":1089:1200  function __Ownable_init_unchained() internal onlyInitializing {... */\n    tag_223:\n        /* \"@openzeppelin/contracts-upgradeable/proxy/utils/Initializable.sol\":2952:2965  _initializing */\n      0x00\n      0x01\n      swap1\n      sload\n      swap1\n      0x0100\n      exp\n      swap1\n      div\n      0xff\n      and\n        /* \"@openzeppelin/contracts-upgradeable/proxy/utils/Initializable.sol\":2944:3013  require(_initializing, \"Initializable: contract is not initializing\") */\n      tag_226\n      jumpi\n      mload(0x40)\n      0x08c379a000000000000000000000000000000000000000000000000000000000\n      dup2\n      mstore\n      0x04\n      add\n      tag_227\n      swap1\n      tag_220\n      jump\t// in\n    tag_227:\n      mload(0x40)\n      dup1\n      swap2\n      sub\n      swap1\n      revert\n    tag_226:\n        /* \"@openzeppelin/contracts-upgradeable/access/OwnableUpgradeable.sol\":1161:1193  _transferOwnership(_msgSender()) */\n      tag_229\n        /* \"@openzeppelin/contracts-upgradeable/access/OwnableUpgradeable.sol\":1180:1192  _msgSender() */\n      tag_230\n        /* \"@openzeppelin/contracts-upgradeable/access/OwnableUpgradeable.sol\":1180:1190  _msgSender */\n      tag_74\n        /* \"@openzeppelin/contracts-upgradeable/access/OwnableUpgradeable.sol\":1180:1192  _msgSender() */\n      jump\t// in\n    tag_230:\n        /* \"@openzeppelin/contracts-upgradeable/access/OwnableUpgradeable.sol\":1161:1179  _transferOwnership */\n      tag_134\n        /* \"@openzeppelin/contracts-upgradeable/access/OwnableUpgradeable.sol\":1161:1193  _transferOwnership(_msgSender()) */\n      jump\t// in\n    tag_229:\n        /* \"@openzeppelin/contracts-upgradeable/access/OwnableUpgradeable.sol\":1089:1200  function __Ownable_init_unchained() internal onlyInitializing {... */\n      jump\t// out\n    tag_137:\n      mload(0x40)\n      dup1\n      0x40\n      add\n      0x40\n      mstore\n      dup1\n      0x00\n      dup2\n      mstore\n      0x20\n      add\n      iszero(iszero(0x00))\n      dup2\n      mstore\n      pop\n      swap1\n      jump\t// out\n        /* \"#utility.yul\":7:146   */\n    tag_232:\n        /* \"#utility.yul\":53:58   */\n      0x00\n        /* \"#utility.yul\":91:97   */\n      dup2\n        /* \"#utility.yul\":78:98   */\n      calldataload\n        /* \"#utility.yul\":69:98   */\n      swap1\n      pop\n        /* \"#utility.yul\":107:140   */\n      tag_234\n        /* \"#utility.yul\":134:139   */\n      dup2\n        /* \"#utility.yul\":107:140   */\n      tag_235\n      jump\t// in\n    tag_234:\n        /* \"#utility.yul\":7:146   */\n      swap3\n      swap2\n      pop\n      pop\n      jump\t// out\n        /* \"#utility.yul\":152:291   */\n    tag_236:\n        /* \"#utility.yul\":198:203   */\n      0x00\n        /* \"#utility.yul\":236:242   */\n      dup2\n        /* \"#utility.yul\":223:243   */\n      calldataload\n        /* \"#utility.yul\":214:243   */\n      swap1\n      pop\n        /* \"#utility.yul\":252:285   */\n      tag_238\n        /* \"#utility.yul\":279:284   */\n      dup2\n        /* \"#utility.yul\":252:285   */\n      tag_239\n      jump\t// in\n    tag_238:\n        /* \"#utility.yul\":152:291   */\n      swap3\n      swap2\n      pop\n      pop\n      jump\t// out\n        /* \"#utility.yul\":297:626   */\n    tag_39:\n        /* \"#utility.yul\":356:362   */\n      0x00\n        /* \"#utility.yul\":405:407   */\n      0x20\n        /* \"#utility.yul\":393:402   */\n      dup3\n        /* \"#utility.yul\":384:391   */\n      dup5\n        /* \"#utility.yul\":380:403   */\n      sub\n        /* \"#utility.yul\":376:408   */\n      slt\n        /* \"#utility.yul\":373:492   */\n      iszero\n      tag_241\n      jumpi\n        /* \"#utility.yul\":411:490   */\n      tag_242\n      tag_243\n      jump\t// in\n    tag_242:\n        /* \"#utility.yul\":373:492   */\n    tag_241:\n        /* \"#utility.yul\":531:532   */\n      0x00\n        /* \"#utility.yul\":556:609   */\n      tag_244\n        /* \"#utility.yul\":601:608   */\n      dup5\n        /* \"#utility.yul\":592:598   */\n      dup3\n        /* \"#utility.yul\":581:590   */\n      dup6\n        /* \"#utility.yul\":577:599   */\n      add\n        /* \"#utility.yul\":556:609   */\n      tag_232\n      jump\t// in\n    tag_244:\n        /* \"#utility.yul\":546:609   */\n      swap2\n      pop\n        /* \"#utility.yul\":502:619   */\n      pop\n        /* \"#utility.yul\":297:626   */\n      swap3\n      swap2\n      pop\n      pop\n      jump\t// out\n        /* \"#utility.yul\":632:1106   */\n    tag_26:\n        /* \"#utility.yul\":700:706   */\n      0x00\n        /* \"#utility.yul\":708:714   */\n      dup1\n        /* \"#utility.yul\":757:759   */\n      0x40\n        /* \"#utility.yul\":745:754   */\n      dup4\n        /* \"#utility.yul\":736:743   */\n      dup6\n        /* \"#utility.yul\":732:755   */\n      sub\n        /* \"#utility.yul\":728:760   */\n      slt\n        /* \"#utility.yul\":725:844   */\n      iszero\n      tag_246\n      jumpi\n        /* \"#utility.yul\":763:842   */\n      tag_247\n      tag_243\n      jump\t// in\n    tag_247:\n        /* \"#utility.yul\":725:844   */\n    tag_246:\n        /* \"#utility.yul\":883:884   */\n      0x00\n        /* \"#utility.yul\":908:961   */\n      tag_248\n        /* \"#utility.yul\":953:960   */\n      dup6\n        /* \"#utility.yul\":944:950   */\n      dup3\n        /* \"#utility.yul\":933:942   */\n      dup7\n        /* \"#utility.yul\":929:951   */\n      add\n        /* \"#utility.yul\":908:961   */\n      tag_232\n      jump\t// in\n    tag_248:\n        /* \"#utility.yul\":898:961   */\n      swap3\n      pop\n        /* \"#utility.yul\":854:971   */\n      pop\n        /* \"#utility.yul\":1010:1012   */\n      0x20\n        /* \"#utility.yul\":1036:1089   */\n      tag_249\n        /* \"#utility.yul\":1081:1088   */\n      dup6\n        /* \"#utility.yul\":1072:1078   */\n      dup3\n        /* \"#utility.yul\":1061:1070   */\n      dup7\n        /* \"#utility.yul\":1057:1079   */\n      add\n        /* \"#utility.yul\":1036:1089   */\n      tag_236\n      jump\t// in\n    tag_249:\n        /* \"#utility.yul\":1026:1089   */\n      swap2\n      pop\n        /* \"#utility.yul\":981:1099   */\n      pop\n        /* \"#utility.yul\":632:1106   */\n      swap3\n      pop\n      swap3\n      swap1\n      pop\n      jump\t// out\n        /* \"#utility.yul\":1112:1291   */\n    tag_250:\n        /* \"#utility.yul\":1181:1191   */\n      0x00\n        /* \"#utility.yul\":1202:1248   */\n      tag_252\n        /* \"#utility.yul\":1244:1247   */\n      dup4\n        /* \"#utility.yul\":1236:1242   */\n      dup4\n        /* \"#utility.yul\":1202:1248   */\n      tag_253\n      jump\t// in\n    tag_252:\n        /* \"#utility.yul\":1280:1284   */\n      0x20\n        /* \"#utility.yul\":1275:1278   */\n      dup4\n        /* \"#utility.yul\":1271:1285   */\n      add\n        /* \"#utility.yul\":1257:1285   */\n      swap1\n      pop\n        /* \"#utility.yul\":1112:1291   */\n      swap3\n      swap2\n      pop\n      pop\n      jump\t// out\n        /* \"#utility.yul\":1297:1405   */\n    tag_253:\n        /* \"#utility.yul\":1374:1398   */\n      tag_255\n        /* \"#utility.yul\":1392:1397   */\n      dup2\n        /* \"#utility.yul\":1374:1398   */\n      tag_256\n      jump\t// in\n    tag_255:\n        /* \"#utility.yul\":1369:1372   */\n      dup3\n        /* \"#utility.yul\":1362:1399   */\n      mstore\n        /* \"#utility.yul\":1297:1405   */\n      pop\n      pop\n      jump\t// out\n        /* \"#utility.yul\":1411:1529   */\n    tag_257:\n        /* \"#utility.yul\":1498:1522   */\n      tag_259\n        /* \"#utility.yul\":1516:1521   */\n      dup2\n        /* \"#utility.yul\":1498:1522   */\n      tag_256\n      jump\t// in\n    tag_259:\n        /* \"#utility.yul\":1493:1496   */\n      dup3\n        /* \"#utility.yul\":1486:1523   */\n      mstore\n        /* \"#utility.yul\":1411:1529   */\n      pop\n      pop\n      jump\t// out\n        /* \"#utility.yul\":1565:2297   */\n    tag_260:\n        /* \"#utility.yul\":1684:1687   */\n      0x00\n        /* \"#utility.yul\":1713:1767   */\n      tag_262\n        /* \"#utility.yul\":1761:1766   */\n      dup3\n        /* \"#utility.yul\":1713:1767   */\n      tag_263\n      jump\t// in\n    tag_262:\n        /* \"#utility.yul\":1783:1869   */\n      tag_264\n        /* \"#utility.yul\":1862:1868   */\n      dup2\n        /* \"#utility.yul\":1857:1860   */\n      dup6\n        /* \"#utility.yul\":1783:1869   */\n      tag_265\n      jump\t// in\n    tag_264:\n        /* \"#utility.yul\":1776:1869   */\n      swap4\n      pop\n        /* \"#utility.yul\":1893:1949   */\n      tag_266\n        /* \"#utility.yul\":1943:1948   */\n      dup4\n        /* \"#utility.yul\":1893:1949   */\n      tag_267\n      jump\t// in\n    tag_266:\n        /* \"#utility.yul\":1972:1979   */\n      dup1\n        /* \"#utility.yul\":2003:2004   */\n      0x00\n        /* \"#utility.yul\":1988:2272   */\n    tag_268:\n        /* \"#utility.yul\":2013:2019   */\n      dup4\n        /* \"#utility.yul\":2010:2011   */\n      dup2\n        /* \"#utility.yul\":2007:2020   */\n      lt\n        /* \"#utility.yul\":1988:2272   */\n      iszero\n      tag_270\n      jumpi\n        /* \"#utility.yul\":2089:2095   */\n      dup2\n        /* \"#utility.yul\":2083:2096   */\n      mload\n        /* \"#utility.yul\":2116:2179   */\n      tag_271\n        /* \"#utility.yul\":2175:2178   */\n      dup9\n        /* \"#utility.yul\":2160:2173   */\n      dup3\n        /* \"#utility.yul\":2116:2179   */\n      tag_250\n      jump\t// in\n    tag_271:\n        /* \"#utility.yul\":2109:2179   */\n      swap8\n      pop\n        /* \"#utility.yul\":2202:2262   */\n      tag_272\n        /* \"#utility.yul\":2255:2261   */\n      dup4\n        /* \"#utility.yul\":2202:2262   */\n      tag_273\n      jump\t// in\n    tag_272:\n        /* \"#utility.yul\":2192:2262   */\n      swap3\n      pop\n        /* \"#utility.yul\":2048:2272   */\n      pop\n        /* \"#utility.yul\":2035:2036   */\n      0x01\n        /* \"#utility.yul\":2032:2033   */\n      dup2\n        /* \"#utility.yul\":2028:2037   */\n      add\n        /* \"#utility.yul\":2023:2037   */\n      swap1\n      pop\n        /* \"#utility.yul\":1988:2272   */\n      jump(tag_268)\n    tag_270:\n        /* \"#utility.yul\":1992:2006   */\n      pop\n        /* \"#utility.yul\":2288:2291   */\n      dup6\n        /* \"#utility.yul\":2281:2291   */\n      swap4\n      pop\n        /* \"#utility.yul\":1689:2297   */\n      pop\n      pop\n      pop\n        /* \"#utility.yul\":1565:2297   */\n      swap3\n      swap2\n      pop\n      pop\n      jump\t// out\n        /* \"#utility.yul\":2303:2402   */\n    tag_274:\n        /* \"#utility.yul\":2374:2395   */\n      tag_276\n        /* \"#utility.yul\":2389:2394   */\n      dup2\n        /* \"#utility.yul\":2374:2395   */\n      tag_277\n      jump\t// in\n    tag_276:\n        /* \"#utility.yul\":2369:2372   */\n      dup3\n        /* \"#utility.yul\":2362:2396   */\n      mstore\n        /* \"#utility.yul\":2303:2402   */\n      pop\n      pop\n      jump\t// out\n        /* \"#utility.yul\":2408:2774   */\n    tag_278:\n        /* \"#utility.yul\":2550:2553   */\n      0x00\n        /* \"#utility.yul\":2571:2638   */\n      tag_280\n        /* \"#utility.yul\":2635:2637   */\n      0x26\n        /* \"#utility.yul\":2630:2633   */\n      dup4\n        /* \"#utility.yul\":2571:2638   */\n      tag_281\n      jump\t// in\n    tag_280:\n        /* \"#utility.yul\":2564:2638   */\n      swap2\n      pop\n        /* \"#utility.yul\":2647:2740   */\n      tag_282\n        /* \"#utility.yul\":2736:2739   */\n      dup3\n        /* \"#utility.yul\":2647:2740   */\n      tag_283\n      jump\t// in\n    tag_282:\n        /* \"#utility.yul\":2765:2767   */\n      0x40\n        /* \"#utility.yul\":2760:2763   */\n      dup3\n        /* \"#utility.yul\":2756:2768   */\n      add\n        /* \"#utility.yul\":2749:2768   */\n      swap1\n      pop\n        /* \"#utility.yul\":2408:2774   */\n      swap2\n      swap1\n      pop\n      jump\t// out\n        /* \"#utility.yul\":2780:3146   */\n    tag_284:\n        /* \"#utility.yul\":2922:2925   */\n      0x00\n        /* \"#utility.yul\":2943:3010   */\n      tag_286\n        /* \"#utility.yul\":3007:3009   */\n      0x16\n        /* \"#utility.yul\":3002:3005   */\n      dup4\n        /* \"#utility.yul\":2943:3010   */\n      tag_281\n      jump\t// in\n    tag_286:\n        /* \"#utility.yul\":2936:3010   */\n      swap2\n      pop\n        /* \"#utility.yul\":3019:3112   */\n      tag_287\n        /* \"#utility.yul\":3108:3111   */\n      dup3\n        /* \"#utility.yul\":3019:3112   */\n      tag_288\n      jump\t// in\n    tag_287:\n        /* \"#utility.yul\":3137:3139   */\n      0x20\n        /* \"#utility.yul\":3132:3135   */\n      dup3\n        /* \"#utility.yul\":3128:3140   */\n      add\n        /* \"#utility.yul\":3121:3140   */\n      swap1\n      pop\n        /* \"#utility.yul\":2780:3146   */\n      swap2\n      swap1\n      pop\n      jump\t// out\n        /* \"#utility.yul\":3152:3518   */\n    tag_289:\n        /* \"#utility.yul\":3294:3297   */\n      0x00\n        /* \"#utility.yul\":3315:3382   */\n      tag_291\n        /* \"#utility.yul\":3379:3381   */\n      0x14\n        /* \"#utility.yul\":3374:3377   */\n      dup4\n        /* \"#utility.yul\":3315:3382   */\n      tag_281\n      jump\t// in\n    tag_291:\n        /* \"#utility.yul\":3308:3382   */\n      swap2\n      pop\n        /* \"#utility.yul\":3391:3484   */\n      tag_292\n        /* \"#utility.yul\":3480:3483   */\n      dup3\n        /* \"#utility.yul\":3391:3484   */\n      tag_293\n      jump\t// in\n    tag_292:\n        /* \"#utility.yul\":3509:3511   */\n      0x20\n        /* \"#utility.yul\":3504:3507   */\n      dup3\n        /* \"#utility.yul\":3500:3512   */\n      add\n        /* \"#utility.yul\":3493:3512   */\n      swap1\n      pop\n        /* \"#utility.yul\":3152:3518   */\n      swap2\n      swap1\n      pop\n      jump\t// out\n        /* \"#utility.yul\":3524:3890   */\n    tag_294:\n        /* \"#utility.yul\":3666:3669   */\n      0x00\n        /* \"#utility.yul\":3687:3754   */\n      tag_296\n        /* \"#utility.yul\":3751:3753   */\n      0x2a\n        /* \"#utility.yul\":3746:3749   */\n      dup4\n        /* \"#utility.yul\":3687:3754   */\n      tag_281\n      jump\t// in\n    tag_296:\n        /* \"#utility.yul\":3680:3754   */\n      swap2\n      pop\n        /* \"#utility.yul\":3763:3856   */\n      tag_297\n        /* \"#utility.yul\":3852:3855   */\n      dup3\n        /* \"#utility.yul\":3763:3856   */\n      tag_298\n      jump\t// in\n    tag_297:\n        /* \"#utility.yul\":3881:3883   */\n      0x40\n        /* \"#utility.yul\":3876:3879   */\n      dup3\n        /* \"#utility.yul\":3872:3884   */\n      add\n        /* \"#utility.yul\":3865:3884   */\n      swap1\n      pop\n        /* \"#utility.yul\":3524:3890   */\n      swap2\n      swap1\n      pop\n      jump\t// out\n        /* \"#utility.yul\":3896:4262   */\n    tag_299:\n        /* \"#utility.yul\":4038:4041   */\n      0x00\n        /* \"#utility.yul\":4059:4126   */\n      tag_301\n        /* \"#utility.yul\":4123:4125   */\n      0x1b\n        /* \"#utility.yul\":4118:4121   */\n      dup4\n        /* \"#utility.yul\":4059:4126   */\n      tag_281\n      jump\t// in\n    tag_301:\n        /* \"#utility.yul\":4052:4126   */\n      swap2\n      pop\n        /* \"#utility.yul\":4135:4228   */\n      tag_302\n        /* \"#utility.yul\":4224:4227   */\n      dup3\n        /* \"#utility.yul\":4135:4228   */\n      tag_303\n      jump\t// in\n    tag_302:\n        /* \"#utility.yul\":4253:4255   */\n      0x20\n        /* \"#utility.yul\":4248:4251   */\n      dup3\n        /* \"#utility.yul\":4244:4256   */\n      add\n        /* \"#utility.yul\":4237:4256   */\n      swap1\n      pop\n        /* \"#utility.yul\":3896:4262   */\n      swap2\n      swap1\n      pop\n      jump\t// out\n        /* \"#utility.yul\":4268:4634   */\n    tag_304:\n        /* \"#utility.yul\":4410:4413   */\n      0x00\n        /* \"#utility.yul\":4431:4498   */\n      tag_306\n        /* \"#utility.yul\":4495:4497   */\n      0x2e\n        /* \"#utility.yul\":4490:4493   */\n      dup4\n        /* \"#utility.yul\":4431:4498   */\n      tag_281\n      jump\t// in\n    tag_306:\n        /* \"#utility.yul\":4424:4498   */\n      swap2\n      pop\n        /* \"#utility.yul\":4507:4600   */\n      tag_307\n        /* \"#utility.yul\":4596:4599   */\n      dup3\n        /* \"#utility.yul\":4507:4600   */\n      tag_308\n      jump\t// in\n    tag_307:\n        /* \"#utility.yul\":4625:4627   */\n      0x40\n        /* \"#utility.yul\":4620:4623   */\n      dup3\n        /* \"#utility.yul\":4616:4628   */\n      add\n        /* \"#utility.yul\":4609:4628   */\n      swap1\n      pop\n        /* \"#utility.yul\":4268:4634   */\n      swap2\n      swap1\n      pop\n      jump\t// out\n        /* \"#utility.yul\":4640:5006   */\n    tag_309:\n        /* \"#utility.yul\":4782:4785   */\n      0x00\n        /* \"#utility.yul\":4803:4870   */\n      tag_311\n        /* \"#utility.yul\":4867:4869   */\n      0x27\n        /* \"#utility.yul\":4862:4865   */\n      dup4\n        /* \"#utility.yul\":4803:4870   */\n      tag_281\n      jump\t// in\n    tag_311:\n        /* \"#utility.yul\":4796:4870   */\n      swap2\n      pop\n        /* \"#utility.yul\":4879:4972   */\n      tag_312\n        /* \"#utility.yul\":4968:4971   */\n      dup3\n        /* \"#utility.yul\":4879:4972   */\n      tag_313\n      jump\t// in\n    tag_312:\n        /* \"#utility.yul\":4997:4999   */\n      0x40\n        /* \"#utility.yul\":4992:4995   */\n      dup3\n        /* \"#utility.yul\":4988:5000   */\n      add\n        /* \"#utility.yul\":4981:5000   */\n      swap1\n      pop\n        /* \"#utility.yul\":4640:5006   */\n      swap2\n      swap1\n      pop\n      jump\t// out\n        /* \"#utility.yul\":5012:5378   */\n    tag_314:\n        /* \"#utility.yul\":5154:5157   */\n      0x00\n        /* \"#utility.yul\":5175:5242   */\n      tag_316\n        /* \"#utility.yul\":5239:5241   */\n      0x20\n        /* \"#utility.yul\":5234:5237   */\n      dup4\n        /* \"#utility.yul\":5175:5242   */\n      tag_281\n      jump\t// in\n    tag_316:\n        /* \"#utility.yul\":5168:5242   */\n      swap2\n      pop\n        /* \"#utility.yul\":5251:5344   */\n      tag_317\n        /* \"#utility.yul\":5340:5343   */\n      dup3\n        /* \"#utility.yul\":5251:5344   */\n      tag_318\n      jump\t// in\n    tag_317:\n        /* \"#utility.yul\":5369:5371   */\n      0x20\n        /* \"#utility.yul\":5364:5367   */\n      dup3\n        /* \"#utility.yul\":5360:5372   */\n      add\n        /* \"#utility.yul\":5353:5372   */\n      swap1\n      pop\n        /* \"#utility.yul\":5012:5378   */\n      swap2\n      swap1\n      pop\n      jump\t// out\n        /* \"#utility.yul\":5384:5782   */\n    tag_319:\n        /* \"#utility.yul\":5543:5546   */\n      0x00\n        /* \"#utility.yul\":5564:5647   */\n      tag_321\n        /* \"#utility.yul\":5645:5646   */\n      0x00\n        /* \"#utility.yul\":5640:5643   */\n      dup4\n        /* \"#utility.yul\":5564:5647   */\n      tag_322\n      jump\t// in\n    tag_321:\n        /* \"#utility.yul\":5557:5647   */\n      swap2\n      pop\n        /* \"#utility.yul\":5656:5749   */\n      tag_323\n        /* \"#utility.yul\":5745:5748   */\n      dup3\n        /* \"#utility.yul\":5656:5749   */\n      tag_324\n      jump\t// in\n    tag_323:\n        /* \"#utility.yul\":5774:5775   */\n      0x00\n        /* \"#utility.yul\":5769:5772   */\n      dup3\n        /* \"#utility.yul\":5765:5776   */\n      add\n        /* \"#utility.yul\":5758:5776   */\n      swap1\n      pop\n        /* \"#utility.yul\":5384:5782   */\n      swap2\n      swap1\n      pop\n      jump\t// out\n        /* \"#utility.yul\":5788:6154   */\n    tag_325:\n        /* \"#utility.yul\":5930:5933   */\n      0x00\n        /* \"#utility.yul\":5951:6018   */\n      tag_327\n        /* \"#utility.yul\":6015:6017   */\n      0x1a\n        /* \"#utility.yul\":6010:6013   */\n      dup4\n        /* \"#utility.yul\":5951:6018   */\n      tag_281\n      jump\t// in\n    tag_327:\n        /* \"#utility.yul\":5944:6018   */\n      swap2\n      pop\n        /* \"#utility.yul\":6027:6120   */\n      tag_328\n        /* \"#utility.yul\":6116:6119   */\n      dup3\n        /* \"#utility.yul\":6027:6120   */\n      tag_329\n      jump\t// in\n    tag_328:\n        /* \"#utility.yul\":6145:6147   */\n      0x20\n        /* \"#utility.yul\":6140:6143   */\n      dup3\n        /* \"#utility.yul\":6136:6148   */\n      add\n        /* \"#utility.yul\":6129:6148   */\n      swap1\n      pop\n        /* \"#utility.yul\":5788:6154   */\n      swap2\n      swap1\n      pop\n      jump\t// out\n        /* \"#utility.yul\":6160:6526   */\n    tag_330:\n        /* \"#utility.yul\":6302:6305   */\n      0x00\n        /* \"#utility.yul\":6323:6390   */\n      tag_332\n        /* \"#utility.yul\":6387:6389   */\n      0x2b\n        /* \"#utility.yul\":6382:6385   */\n      dup4\n        /* \"#utility.yul\":6323:6390   */\n      tag_281\n      jump\t// in\n    tag_332:\n        /* \"#utility.yul\":6316:6390   */\n      swap2\n      pop\n        /* \"#utility.yul\":6399:6492   */\n      tag_333\n        /* \"#utility.yul\":6488:6491   */\n      dup3\n        /* \"#utility.yul\":6399:6492   */\n      tag_334\n      jump\t// in\n    tag_333:\n        /* \"#utility.yul\":6517:6519   */\n      0x40\n        /* \"#utility.yul\":6512:6515   */\n      dup3\n        /* \"#utility.yul\":6508:6520   */\n      add\n        /* \"#utility.yul\":6501:6520   */\n      swap1\n      pop\n        /* \"#utility.yul\":6160:6526   */\n      swap2\n      swap1\n      pop\n      jump\t// out\n        /* \"#utility.yul\":6624:7141   */\n    tag_335:\n        /* \"#utility.yul\":6779:6783   */\n      0x40\n        /* \"#utility.yul\":6774:6777   */\n      dup3\n        /* \"#utility.yul\":6770:6784   */\n      add\n        /* \"#utility.yul\":6872:6876   */\n      0x00\n        /* \"#utility.yul\":6865:6870   */\n      dup3\n        /* \"#utility.yul\":6861:6877   */\n      add\n        /* \"#utility.yul\":6855:6878   */\n      mload\n        /* \"#utility.yul\":6891:6954   */\n      tag_337\n        /* \"#utility.yul\":6948:6952   */\n      0x00\n        /* \"#utility.yul\":6943:6946   */\n      dup6\n        /* \"#utility.yul\":6939:6953   */\n      add\n        /* \"#utility.yul\":6925:6937   */\n      dup3\n        /* \"#utility.yul\":6891:6954   */\n      tag_338\n      jump\t// in\n    tag_337:\n        /* \"#utility.yul\":6794:6964   */\n      pop\n        /* \"#utility.yul\":7048:7052   */\n      0x20\n        /* \"#utility.yul\":7041:7046   */\n      dup3\n        /* \"#utility.yul\":7037:7053   */\n      add\n        /* \"#utility.yul\":7031:7054   */\n      mload\n        /* \"#utility.yul\":7067:7124   */\n      tag_339\n        /* \"#utility.yul\":7118:7122   */\n      0x20\n        /* \"#utility.yul\":7113:7116   */\n      dup6\n        /* \"#utility.yul\":7109:7123   */\n      add\n        /* \"#utility.yul\":7095:7107   */\n      dup3\n        /* \"#utility.yul\":7067:7124   */\n      tag_274\n      jump\t// in\n    tag_339:\n        /* \"#utility.yul\":6974:7134   */\n      pop\n        /* \"#utility.yul\":6748:7141   */\n      pop\n        /* \"#utility.yul\":6624:7141   */\n      pop\n      pop\n      jump\t// out\n        /* \"#utility.yul\":7147:7255   */\n    tag_338:\n        /* \"#utility.yul\":7224:7248   */\n      tag_341\n        /* \"#utility.yul\":7242:7247   */\n      dup2\n        /* \"#utility.yul\":7224:7248   */\n      tag_342\n      jump\t// in\n    tag_341:\n        /* \"#utility.yul\":7219:7222   */\n      dup3\n        /* \"#utility.yul\":7212:7249   */\n      mstore\n        /* \"#utility.yul\":7147:7255   */\n      pop\n      pop\n      jump\t// out\n        /* \"#utility.yul\":7261:7379   */\n    tag_343:\n        /* \"#utility.yul\":7348:7372   */\n      tag_345\n        /* \"#utility.yul\":7366:7371   */\n      dup2\n        /* \"#utility.yul\":7348:7372   */\n      tag_342\n      jump\t// in\n    tag_345:\n        /* \"#utility.yul\":7343:7346   */\n      dup3\n        /* \"#utility.yul\":7336:7373   */\n      mstore\n        /* \"#utility.yul\":7261:7379   */\n      pop\n      pop\n      jump\t// out\n        /* \"#utility.yul\":7385:7764   */\n    tag_99:\n        /* \"#utility.yul\":7569:7572   */\n      0x00\n        /* \"#utility.yul\":7591:7738   */\n      tag_347\n        /* \"#utility.yul\":7734:7737   */\n      dup3\n        /* \"#utility.yul\":7591:7738   */\n      tag_319\n      jump\t// in\n    tag_347:\n        /* \"#utility.yul\":7584:7738   */\n      swap2\n      pop\n        /* \"#utility.yul\":7755:7758   */\n      dup2\n        /* \"#utility.yul\":7748:7758   */\n      swap1\n      pop\n        /* \"#utility.yul\":7385:7764   */\n      swap2\n      swap1\n      pop\n      jump\t// out\n        /* \"#utility.yul\":7770:7992   */\n    tag_35:\n        /* \"#utility.yul\":7863:7867   */\n      0x00\n        /* \"#utility.yul\":7901:7903   */\n      0x20\n        /* \"#utility.yul\":7890:7899   */\n      dup3\n        /* \"#utility.yul\":7886:7904   */\n      add\n        /* \"#utility.yul\":7878:7904   */\n      swap1\n      pop\n        /* \"#utility.yul\":7914:7985   */\n      tag_349\n        /* \"#utility.yul\":7982:7983   */\n      0x00\n        /* \"#utility.yul\":7971:7980   */\n      dup4\n        /* \"#utility.yul\":7967:7984   */\n      add\n        /* \"#utility.yul\":7958:7964   */\n      dup5\n        /* \"#utility.yul\":7914:7985   */\n      tag_257\n      jump\t// in\n    tag_349:\n        /* \"#utility.yul\":7770:7992   */\n      swap3\n      swap2\n      pop\n      pop\n      jump\t// out\n        /* \"#utility.yul\":7998:8371   */\n    tag_68:\n        /* \"#utility.yul\":8141:8145   */\n      0x00\n        /* \"#utility.yul\":8179:8181   */\n      0x20\n        /* \"#utility.yul\":8168:8177   */\n      dup3\n        /* \"#utility.yul\":8164:8182   */\n      add\n        /* \"#utility.yul\":8156:8182   */\n      swap1\n      pop\n        /* \"#utility.yul\":8228:8237   */\n      dup2\n        /* \"#utility.yul\":8222:8226   */\n      dup2\n        /* \"#utility.yul\":8218:8238   */\n      sub\n        /* \"#utility.yul\":8214:8215   */\n      0x00\n        /* \"#utility.yul\":8203:8212   */\n      dup4\n        /* \"#utility.yul\":8199:8216   */\n      add\n        /* \"#utility.yul\":8192:8239   */\n      mstore\n        /* \"#utility.yul\":8256:8364   */\n      tag_351\n        /* \"#utility.yul\":8359:8363   */\n      dup2\n        /* \"#utility.yul\":8350:8356   */\n      dup5\n        /* \"#utility.yul\":8256:8364   */\n      tag_260\n      jump\t// in\n    tag_351:\n        /* \"#utility.yul\":8248:8364   */\n      swap1\n      pop\n        /* \"#utility.yul\":7998:8371   */\n      swap3\n      swap2\n      pop\n      pop\n      jump\t// out\n        /* \"#utility.yul\":8377:8796   */\n    tag_189:\n        /* \"#utility.yul\":8543:8547   */\n      0x00\n        /* \"#utility.yul\":8581:8583   */\n      0x20\n        /* \"#utility.yul\":8570:8579   */\n      dup3\n        /* \"#utility.yul\":8566:8584   */\n      add\n        /* \"#utility.yul\":8558:8584   */\n      swap1\n      pop\n        /* \"#utility.yul\":8630:8639   */\n      dup2\n        /* \"#utility.yul\":8624:8628   */\n      dup2\n        /* \"#utility.yul\":8620:8640   */\n      sub\n        /* \"#utility.yul\":8616:8617   */\n      0x00\n        /* \"#utility.yul\":8605:8614   */\n      dup4\n        /* \"#utility.yul\":8601:8618   */\n      add\n        /* \"#utility.yul\":8594:8641   */\n      mstore\n        /* \"#utility.yul\":8658:8789   */\n      tag_353\n        /* \"#utility.yul\":8784:8788   */\n      dup2\n        /* \"#utility.yul\":8658:8789   */\n      tag_278\n      jump\t// in\n    tag_353:\n        /* \"#utility.yul\":8650:8789   */\n      swap1\n      pop\n        /* \"#utility.yul\":8377:8796   */\n      swap2\n      swap1\n      pop\n      jump\t// out\n        /* \"#utility.yul\":8802:9221   */\n    tag_82:\n        /* \"#utility.yul\":8968:8972   */\n      0x00\n        /* \"#utility.yul\":9006:9008   */\n      0x20\n        /* \"#utility.yul\":8995:9004   */\n      dup3\n        /* \"#utility.yul\":8991:9009   */\n      add\n        /* \"#utility.yul\":8983:9009   */\n      swap1\n      pop\n        /* \"#utility.yul\":9055:9064   */\n      dup2\n        /* \"#utility.yul\":9049:9053   */\n      dup2\n        /* \"#utility.yul\":9045:9065   */\n      sub\n        /* \"#utility.yul\":9041:9042   */\n      0x00\n        /* \"#utility.yul\":9030:9039   */\n      dup4\n        /* \"#utility.yul\":9026:9043   */\n      add\n        /* \"#utility.yul\":9019:9066   */\n      mstore\n        /* \"#utility.yul\":9083:9214   */\n      tag_355\n        /* \"#utility.yul\":9209:9213   */\n      dup2\n        /* \"#utility.yul\":9083:9214   */\n      tag_284\n      jump\t// in\n    tag_355:\n        /* \"#utility.yul\":9075:9214   */\n      swap1\n      pop\n        /* \"#utility.yul\":8802:9221   */\n      swap2\n      swap1\n      pop\n      jump\t// out\n        /* \"#utility.yul\":9227:9646   */\n    tag_105:\n        /* \"#utility.yul\":9393:9397   */\n      0x00\n        /* \"#utility.yul\":9431:9433   */\n      0x20\n        /* \"#utility.yul\":9420:9429   */\n      dup3\n        /* \"#utility.yul\":9416:9434   */\n      add\n        /* \"#utility.yul\":9408:9434   */\n      swap1\n      pop\n        /* \"#utility.yul\":9480:9489   */\n      dup2\n        /* \"#utility.yul\":9474:9478   */\n      dup2\n        /* \"#utility.yul\":9470:9490   */\n      sub\n        /* \"#utility.yul\":9466:9467   */\n      0x00\n        /* \"#utility.yul\":9455:9464   */\n      dup4\n        /* \"#utility.yul\":9451:9468   */\n      add\n        /* \"#utility.yul\":9444:9491   */\n      mstore\n        /* \"#utility.yul\":9508:9639   */\n      tag_357\n        /* \"#utility.yul\":9634:9638   */\n      dup2\n        /* \"#utility.yul\":9508:9639   */\n      tag_289\n      jump\t// in\n    tag_357:\n        /* \"#utility.yul\":9500:9639   */\n      swap1\n      pop\n        /* \"#utility.yul\":9227:9646   */\n      swap2\n      swap1\n      pop\n      jump\t// out\n        /* \"#utility.yul\":9652:10071   */\n    tag_125:\n        /* \"#utility.yul\":9818:9822   */\n      0x00\n        /* \"#utility.yul\":9856:9858   */\n      0x20\n        /* \"#utility.yul\":9845:9854   */\n      dup3\n        /* \"#utility.yul\":9841:9859   */\n      add\n        /* \"#utility.yul\":9833:9859   */\n      swap1\n      pop\n        /* \"#utility.yul\":9905:9914   */\n      dup2\n        /* \"#utility.yul\":9899:9903   */\n      dup2\n        /* \"#utility.yul\":9895:9915   */\n      sub\n        /* \"#utility.yul\":9891:9892   */\n      0x00\n        /* \"#utility.yul\":9880:9889   */\n      dup4\n        /* \"#utility.yul\":9876:9893   */\n      add\n        /* \"#utility.yul\":9869:9916   */\n      mstore\n        /* \"#utility.yul\":9933:10064   */\n      tag_359\n        /* \"#utility.yul\":10059:10063   */\n      dup2\n        /* \"#utility.yul\":9933:10064   */\n      tag_294\n      jump\t// in\n    tag_359:\n        /* \"#utility.yul\":9925:10064   */\n      swap1\n      pop\n        /* \"#utility.yul\":9652:10071   */\n      swap2\n      swap1\n      pop\n      jump\t// out\n        /* \"#utility.yul\":10077:10496   */\n    tag_119:\n        /* \"#utility.yul\":10243:10247   */\n      0x00\n        /* \"#utility.yul\":10281:10283   */\n      0x20\n        /* \"#utility.yul\":10270:10279   */\n      dup3\n        /* \"#utility.yul\":10266:10284   */\n      add\n        /* \"#utility.yul\":10258:10284   */\n      swap1\n      pop\n        /* \"#utility.yul\":10330:10339   */\n      dup2\n        /* \"#utility.yul\":10324:10328   */\n      dup2\n        /* \"#utility.yul\":10320:10340   */\n      sub\n        /* \"#utility.yul\":10316:10317   */\n      0x00\n        /* \"#utility.yul\":10305:10314   */\n      dup4\n        /* \"#utility.yul\":10301:10318   */\n      add\n        /* \"#utility.yul\":10294:10341   */\n      mstore\n        /* \"#utility.yul\":10358:10489   */\n      tag_361\n        /* \"#utility.yul\":10484:10488   */\n      dup2\n        /* \"#utility.yul\":10358:10489   */\n      tag_299\n      jump\t// in\n    tag_361:\n        /* \"#utility.yul\":10350:10489   */\n      swap1\n      pop\n        /* \"#utility.yul\":10077:10496   */\n      swap2\n      swap1\n      pop\n      jump\t// out\n        /* \"#utility.yul\":10502:10921   */\n    tag_206:\n        /* \"#utility.yul\":10668:10672   */\n      0x00\n        /* \"#utility.yul\":10706:10708   */\n      0x20\n        /* \"#utility.yul\":10695:10704   */\n      dup3\n        /* \"#utility.yul\":10691:10709   */\n      add\n        /* \"#utility.yul\":10683:10709   */\n      swap1\n      pop\n        /* \"#utility.yul\":10755:10764   */\n      dup2\n        /* \"#utility.yul\":10749:10753   */\n      dup2\n        /* \"#utility.yul\":10745:10765   */\n      sub\n        /* \"#utility.yul\":10741:10742   */\n      0x00\n        /* \"#utility.yul\":10730:10739   */\n      dup4\n        /* \"#utility.yul\":10726:10743   */\n      add\n        /* \"#utility.yul\":10719:10766   */\n      mstore\n        /* \"#utility.yul\":10783:10914   */\n      tag_363\n        /* \"#utility.yul\":10909:10913   */\n      dup2\n        /* \"#utility.yul\":10783:10914   */\n      tag_304\n      jump\t// in\n    tag_363:\n        /* \"#utility.yul\":10775:10914   */\n      swap1\n      pop\n        /* \"#utility.yul\":10502:10921   */\n      swap2\n      swap1\n      pop\n      jump\t// out\n        /* \"#utility.yul\":10927:11346   */\n    tag_116:\n        /* \"#utility.yul\":11093:11097   */\n      0x00\n        /* \"#utility.yul\":11131:11133   */\n      0x20\n        /* \"#utility.yul\":11120:11129   */\n      dup3\n        /* \"#utility.yul\":11116:11134   */\n      add\n        /* \"#utility.yul\":11108:11134   */\n      swap1\n      pop\n        /* \"#utility.yul\":11180:11189   */\n      dup2\n        /* \"#utility.yul\":11174:11178   */\n      dup2\n        /* \"#utility.yul\":11170:11190   */\n      sub\n        /* \"#utility.yul\":11166:11167   */\n      0x00\n        /* \"#utility.yul\":11155:11164   */\n      dup4\n        /* \"#utility.yul\":11151:11168   */\n      add\n        /* \"#utility.yul\":11144:11191   */\n      mstore\n        /* \"#utility.yul\":11208:11339   */\n      tag_365\n        /* \"#utility.yul\":11334:11338   */\n      dup2\n        /* \"#utility.yul\":11208:11339   */\n      tag_309\n      jump\t// in\n    tag_365:\n        /* \"#utility.yul\":11200:11339   */\n      swap1\n      pop\n        /* \"#utility.yul\":10927:11346   */\n      swap2\n      swap1\n      pop\n      jump\t// out\n        /* \"#utility.yul\":11352:11771   */\n    tag_78:\n        /* \"#utility.yul\":11518:11522   */\n      0x00\n        /* \"#utility.yul\":11556:11558   */\n      0x20\n        /* \"#utility.yul\":11545:11554   */\n      dup3\n        /* \"#utility.yul\":11541:11559   */\n      add\n        /* \"#utility.yul\":11533:11559   */\n      swap1\n      pop\n        /* \"#utility.yul\":11605:11614   */\n      dup2\n        /* \"#utility.yul\":11599:11603   */\n      dup2\n        /* \"#utility.yul\":11595:11615   */\n      sub\n        /* \"#utility.yul\":11591:11592   */\n      0x00\n        /* \"#utility.yul\":11580:11589   */\n      dup4\n        /* \"#utility.yul\":11576:11593   */\n      add\n        /* \"#utility.yul\":11569:11616   */\n      mstore\n        /* \"#utility.yul\":11633:11764   */\n      tag_367\n        /* \"#utility.yul\":11759:11763   */\n      dup2\n        /* \"#utility.yul\":11633:11764   */\n      tag_314\n      jump\t// in\n    tag_367:\n        /* \"#utility.yul\":11625:11764   */\n      swap1\n      pop\n        /* \"#utility.yul\":11352:11771   */\n      swap2\n      swap1\n      pop\n      jump\t// out\n        /* \"#utility.yul\":11777:12196   */\n    tag_164:\n        /* \"#utility.yul\":11943:11947   */\n      0x00\n        /* \"#utility.yul\":11981:11983   */\n      0x20\n        /* \"#utility.yul\":11970:11979   */\n      dup3\n        /* \"#utility.yul\":11966:11984   */\n      add\n        /* \"#utility.yul\":11958:11984   */\n      swap1\n      pop\n        /* \"#utility.yul\":12030:12039   */\n      dup2\n        /* \"#utility.yul\":12024:12028   */\n      dup2\n        /* \"#utility.yul\":12020:12040   */\n      sub\n        /* \"#utility.yul\":12016:12017   */\n      0x00\n        /* \"#utility.yul\":12005:12014   */\n      dup4\n        /* \"#utility.yul\":12001:12018   */\n      add\n        /* \"#utility.yul\":11994:12041   */\n      mstore\n        /* \"#utility.yul\":12058:12189   */\n      tag_369\n        /* \"#utility.yul\":12184:12188   */\n      dup2\n        /* \"#utility.yul\":12058:12189   */\n      tag_325\n      jump\t// in\n    tag_369:\n        /* \"#utility.yul\":12050:12189   */\n      swap1\n      pop\n        /* \"#utility.yul\":11777:12196   */\n      swap2\n      swap1\n      pop\n      jump\t// out\n        /* \"#utility.yul\":12202:12621   */\n    tag_220:\n        /* \"#utility.yul\":12368:12372   */\n      0x00\n        /* \"#utility.yul\":12406:12408   */\n      0x20\n        /* \"#utility.yul\":12395:12404   */\n      dup3\n        /* \"#utility.yul\":12391:12409   */\n      add\n        /* \"#utility.yul\":12383:12409   */\n      swap1\n      pop\n        /* \"#utility.yul\":12455:12464   */\n      dup2\n        /* \"#utility.yul\":12449:12453   */\n      dup2\n        /* \"#utility.yul\":12445:12465   */\n      sub\n        /* \"#utility.yul\":12441:12442   */\n      0x00\n        /* \"#utility.yul\":12430:12439   */\n      dup4\n        /* \"#utility.yul\":12426:12443   */\n      add\n        /* \"#utility.yul\":12419:12466   */\n      mstore\n        /* \"#utility.yul\":12483:12614   */\n      tag_371\n        /* \"#utility.yul\":12609:12613   */\n      dup2\n        /* \"#utility.yul\":12483:12614   */\n      tag_330\n      jump\t// in\n    tag_371:\n        /* \"#utility.yul\":12475:12614   */\n      swap1\n      pop\n        /* \"#utility.yul\":12202:12621   */\n      swap2\n      swap1\n      pop\n      jump\t// out\n        /* \"#utility.yul\":12627:12965   */\n    tag_42:\n        /* \"#utility.yul\":12778:12782   */\n      0x00\n        /* \"#utility.yul\":12816:12818   */\n      0x40\n        /* \"#utility.yul\":12805:12814   */\n      dup3\n        /* \"#utility.yul\":12801:12819   */\n      add\n        /* \"#utility.yul\":12793:12819   */\n      swap1\n      pop\n        /* \"#utility.yul\":12829:12958   */\n      tag_373\n        /* \"#utility.yul\":12955:12956   */\n      0x00\n        /* \"#utility.yul\":12944:12953   */\n      dup4\n        /* \"#utility.yul\":12940:12957   */\n      add\n        /* \"#utility.yul\":12931:12937   */\n      dup5\n        /* \"#utility.yul\":12829:12958   */\n      tag_335\n      jump\t// in\n    tag_373:\n        /* \"#utility.yul\":12627:12965   */\n      swap3\n      swap2\n      pop\n      pop\n      jump\t// out\n        /* \"#utility.yul\":12971:13193   */\n    tag_47:\n        /* \"#utility.yul\":13064:13068   */\n      0x00\n        /* \"#utility.yul\":13102:13104   */\n      0x20\n        /* \"#utility.yul\":13091:13100   */\n      dup3\n        /* \"#utility.yul\":13087:13105   */\n      add\n        /* \"#utility.yul\":13079:13105   */\n      swap1\n      pop\n        /* \"#utility.yul\":13115:13186   */\n      tag_375\n        /* \"#utility.yul\":13183:13184   */\n      0x00\n        /* \"#utility.yul\":13172:13181   */\n      dup4\n        /* \"#utility.yul\":13168:13185   */\n      add\n        /* \"#utility.yul\":13159:13165   */\n      dup5\n        /* \"#utility.yul\":13115:13186   */\n      tag_343\n      jump\t// in\n    tag_375:\n        /* \"#utility.yul\":12971:13193   */\n      swap3\n      swap2\n      pop\n      pop\n      jump\t// out\n        /* \"#utility.yul\":13280:13412   */\n    tag_267:\n        /* \"#utility.yul\":13347:13351   */\n      0x00\n        /* \"#utility.yul\":13370:13373   */\n      dup2\n        /* \"#utility.yul\":13362:13373   */\n      swap1\n      pop\n        /* \"#utility.yul\":13400:13404   */\n      0x20\n        /* \"#utility.yul\":13395:13398   */\n      dup3\n        /* \"#utility.yul\":13391:13405   */\n      add\n        /* \"#utility.yul\":13383:13405   */\n      swap1\n      pop\n        /* \"#utility.yul\":13280:13412   */\n      swap2\n      swap1\n      pop\n      jump\t// out\n        /* \"#utility.yul\":13418:13532   */\n    tag_263:\n        /* \"#utility.yul\":13485:13491   */\n      0x00\n        /* \"#utility.yul\":13519:13524   */\n      dup2\n        /* \"#utility.yul\":13513:13525   */\n      mload\n        /* \"#utility.yul\":13503:13525   */\n      swap1\n      pop\n        /* \"#utility.yul\":13418:13532   */\n      swap2\n      swap1\n      pop\n      jump\t// out\n        /* \"#utility.yul\":13538:13651   */\n    tag_273:\n        /* \"#utility.yul\":13608:13612   */\n      0x00\n        /* \"#utility.yul\":13640:13644   */\n      0x20\n        /* \"#utility.yul\":13635:13638   */\n      dup3\n        /* \"#utility.yul\":13631:13645   */\n      add\n        /* \"#utility.yul\":13623:13645   */\n      swap1\n      pop\n        /* \"#utility.yul\":13538:13651   */\n      swap2\n      swap1\n      pop\n      jump\t// out\n        /* \"#utility.yul\":13657:13841   */\n    tag_265:\n        /* \"#utility.yul\":13756:13767   */\n      0x00\n        /* \"#utility.yul\":13790:13796   */\n      dup3\n        /* \"#utility.yul\":13785:13788   */\n      dup3\n        /* \"#utility.yul\":13778:13797   */\n      mstore\n        /* \"#utility.yul\":13830:13834   */\n      0x20\n        /* \"#utility.yul\":13825:13828   */\n      dup3\n        /* \"#utility.yul\":13821:13835   */\n      add\n        /* \"#utility.yul\":13806:13835   */\n      swap1\n      pop\n        /* \"#utility.yul\":13657:13841   */\n      swap3\n      swap2\n      pop\n      pop\n      jump\t// out\n        /* \"#utility.yul\":13847:13994   */\n    tag_322:\n        /* \"#utility.yul\":13948:13959   */\n      0x00\n        /* \"#utility.yul\":13985:13988   */\n      dup2\n        /* \"#utility.yul\":13970:13988   */\n      swap1\n      pop\n        /* \"#utility.yul\":13847:13994   */\n      swap3\n      swap2\n      pop\n      pop\n      jump\t// out\n        /* \"#utility.yul\":14000:14169   */\n    tag_281:\n        /* \"#utility.yul\":14084:14095   */\n      0x00\n        /* \"#utility.yul\":14118:14124   */\n      dup3\n        /* \"#utility.yul\":14113:14116   */\n      dup3\n        /* \"#utility.yul\":14106:14125   */\n      mstore\n        /* \"#utility.yul\":14158:14162   */\n      0x20\n        /* \"#utility.yul\":14153:14156   */\n      dup3\n        /* \"#utility.yul\":14149:14163   */\n      add\n        /* \"#utility.yul\":14134:14163   */\n      swap1\n      pop\n        /* \"#utility.yul\":14000:14169   */\n      swap3\n      swap2\n      pop\n      pop\n      jump\t// out\n        /* \"#utility.yul\":14175:14480   */\n    tag_122:\n        /* \"#utility.yul\":14215:14218   */\n      0x00\n        /* \"#utility.yul\":14234:14254   */\n      tag_385\n        /* \"#utility.yul\":14252:14253   */\n      dup3\n        /* \"#utility.yul\":14234:14254   */\n      tag_342\n      jump\t// in\n    tag_385:\n        /* \"#utility.yul\":14229:14254   */\n      swap2\n      pop\n        /* \"#utility.yul\":14268:14288   */\n      tag_386\n        /* \"#utility.yul\":14286:14287   */\n      dup4\n        /* \"#utility.yul\":14268:14288   */\n      tag_342\n      jump\t// in\n    tag_386:\n        /* \"#utility.yul\":14263:14288   */\n      swap3\n      pop\n        /* \"#utility.yul\":14422:14423   */\n      dup3\n        /* \"#utility.yul\":14354:14420   */\n      0xffffffffffffffffffffffffffffffffffffffffffffffffffffffffffffffff\n        /* \"#utility.yul\":14350:14424   */\n      sub\n        /* \"#utility.yul\":14347:14348   */\n      dup3\n        /* \"#utility.yul\":14344:14425   */\n      gt\n        /* \"#utility.yul\":14341:14448   */\n      iszero\n      tag_387\n      jumpi\n        /* \"#utility.yul\":14428:14446   */\n      tag_388\n      tag_389\n      jump\t// in\n    tag_388:\n        /* \"#utility.yul\":14341:14448   */\n    tag_387:\n        /* \"#utility.yul\":14472:14473   */\n      dup3\n        /* \"#utility.yul\":14469:14470   */\n      dup3\n        /* \"#utility.yul\":14465:14474   */\n      add\n        /* \"#utility.yul\":14458:14474   */\n      swap1\n      pop\n        /* \"#utility.yul\":14175:14480   */\n      swap3\n      swap2\n      pop\n      pop\n      jump\t// out\n        /* \"#utility.yul\":14486:14671   */\n    tag_97:\n        /* \"#utility.yul\":14526:14527   */\n      0x00\n        /* \"#utility.yul\":14543:14563   */\n      tag_391\n        /* \"#utility.yul\":14561:14562   */\n      dup3\n        /* \"#utility.yul\":14543:14563   */\n      tag_342\n      jump\t// in\n    tag_391:\n        /* \"#utility.yul\":14538:14563   */\n      swap2\n      pop\n        /* \"#utility.yul\":14577:14597   */\n      tag_392\n        /* \"#utility.yul\":14595:14596   */\n      dup4\n        /* \"#utility.yul\":14577:14597   */\n      tag_342\n      jump\t// in\n    tag_392:\n        /* \"#utility.yul\":14572:14597   */\n      swap3\n      pop\n        /* \"#utility.yul\":14616:14617   */\n      dup3\n        /* \"#utility.yul\":14606:14641   */\n      tag_393\n      jumpi\n        /* \"#utility.yul\":14621:14639   */\n      tag_394\n      tag_395\n      jump\t// in\n    tag_394:\n        /* \"#utility.yul\":14606:14641   */\n    tag_393:\n        /* \"#utility.yul\":14663:14664   */\n      dup3\n        /* \"#utility.yul\":14660:14661   */\n      dup3\n        /* \"#utility.yul\":14656:14665   */\n      div\n        /* \"#utility.yul\":14651:14665   */\n      swap1\n      pop\n        /* \"#utility.yul\":14486:14671   */\n      swap3\n      swap2\n      pop\n      pop\n      jump\t// out\n        /* \"#utility.yul\":14677:15025   */\n    tag_95:\n        /* \"#utility.yul\":14717:14724   */\n      0x00\n        /* \"#utility.yul\":14740:14760   */\n      tag_397\n        /* \"#utility.yul\":14758:14759   */\n      dup3\n        /* \"#utility.yul\":14740:14760   */\n      tag_342\n      jump\t// in\n    tag_397:\n        /* \"#utility.yul\":14735:14760   */\n      swap2\n      pop\n        /* \"#utility.yul\":14774:14794   */\n      tag_398\n        /* \"#utility.yul\":14792:14793   */\n      dup4\n        /* \"#utility.yul\":14774:14794   */\n      tag_342\n      jump\t// in\n    tag_398:\n        /* \"#utility.yul\":14769:14794   */\n      swap3\n      pop\n        /* \"#utility.yul\":14962:14963   */\n      dup2\n        /* \"#utility.yul\":14894:14960   */\n      0xffffffffffffffffffffffffffffffffffffffffffffffffffffffffffffffff\n        /* \"#utility.yul\":14890:14964   */\n      div\n        /* \"#utility.yul\":14887:14888   */\n      dup4\n        /* \"#utility.yul\":14884:14965   */\n      gt\n        /* \"#utility.yul\":14879:14880   */\n      dup3\n        /* \"#utility.yul\":14872:14881   */\n      iszero\n        /* \"#utility.yul\":14865:14882   */\n      iszero\n        /* \"#utility.yul\":14861:14966   */\n      and\n        /* \"#utility.yul\":14858:14989   */\n      iszero\n      tag_399\n      jumpi\n        /* \"#utility.yul\":14969:14987   */\n      tag_400\n      tag_389\n      jump\t// in\n    tag_400:\n        /* \"#utility.yul\":14858:14989   */\n    tag_399:\n        /* \"#utility.yul\":15017:15018   */\n      dup3\n        /* \"#utility.yul\":15014:15015   */\n      dup3\n        /* \"#utility.yul\":15010:15019   */\n      mul\n        /* \"#utility.yul\":14999:15019   */\n      swap1\n      pop\n        /* \"#utility.yul\":14677:15025   */\n      swap3\n      swap2\n      pop\n      pop\n      jump\t// out\n        /* \"#utility.yul\":15031:15127   */\n    tag_256:\n        /* \"#utility.yul\":15068:15075   */\n      0x00\n        /* \"#utility.yul\":15097:15121   */\n      tag_402\n        /* \"#utility.yul\":15115:15120   */\n      dup3\n        /* \"#utility.yul\":15097:15121   */\n      tag_403\n      jump\t// in\n    tag_402:\n        /* \"#utility.yul\":15086:15121   */\n      swap1\n      pop\n        /* \"#utility.yul\":15031:15127   */\n      swap2\n      swap1\n      pop\n      jump\t// out\n        /* \"#utility.yul\":15133:15223   */\n    tag_277:\n        /* \"#utility.yul\":15167:15174   */\n      0x00\n        /* \"#utility.yul\":15210:15215   */\n      dup2\n        /* \"#utility.yul\":15203:15216   */\n      iszero\n        /* \"#utility.yul\":15196:15217   */\n      iszero\n        /* \"#utility.yul\":15185:15217   */\n      swap1\n      pop\n        /* \"#utility.yul\":15133:15223   */\n      swap2\n      swap1\n      pop\n      jump\t// out\n        /* \"#utility.yul\":15229:15355   */\n    tag_403:\n        /* \"#utility.yul\":15266:15273   */\n      0x00\n        /* \"#utility.yul\":15306:15348   */\n      0xffffffffffffffffffffffffffffffffffffffff\n        /* \"#utility.yul\":15299:15304   */\n      dup3\n        /* \"#utility.yul\":15295:15349   */\n      and\n        /* \"#utility.yul\":15284:15349   */\n      swap1\n      pop\n        /* \"#utility.yul\":15229:15355   */\n      swap2\n      swap1\n      pop\n      jump\t// out\n        /* \"#utility.yul\":15361:15438   */\n    tag_342:\n        /* \"#utility.yul\":15398:15405   */\n      0x00\n        /* \"#utility.yul\":15427:15432   */\n      dup2\n        /* \"#utility.yul\":15416:15432   */\n      swap1\n      pop\n        /* \"#utility.yul\":15361:15438   */\n      swap2\n      swap1\n      pop\n      jump\t// out\n        /* \"#utility.yul\":15444:15677   */\n    tag_107:\n        /* \"#utility.yul\":15483:15486   */\n      0x00\n        /* \"#utility.yul\":15506:15530   */\n      tag_408\n        /* \"#utility.yul\":15524:15529   */\n      dup3\n        /* \"#utility.yul\":15506:15530   */\n      tag_342\n      jump\t// in\n    tag_408:\n        /* \"#utility.yul\":15497:15530   */\n      swap2\n      pop\n        /* \"#utility.yul\":15552:15618   */\n      0xffffffffffffffffffffffffffffffffffffffffffffffffffffffffffffffff\n        /* \"#utility.yul\":15545:15550   */\n      dup3\n        /* \"#utility.yul\":15542:15619   */\n      eq\n        /* \"#utility.yul\":15539:15642   */\n      iszero\n      tag_409\n      jumpi\n        /* \"#utility.yul\":15622:15640   */\n      tag_410\n      tag_389\n      jump\t// in\n    tag_410:\n        /* \"#utility.yul\":15539:15642   */\n    tag_409:\n        /* \"#utility.yul\":15669:15670   */\n      0x01\n        /* \"#utility.yul\":15662:15667   */\n      dup3\n        /* \"#utility.yul\":15658:15671   */\n      add\n        /* \"#utility.yul\":15651:15671   */\n      swap1\n      pop\n        /* \"#utility.yul\":15444:15677   */\n      swap2\n      swap1\n      pop\n      jump\t// out\n        /* \"#utility.yul\":15683:15863   */\n    tag_389:\n        /* \"#utility.yul\":15731:15808   */\n      0x4e487b7100000000000000000000000000000000000000000000000000000000\n        /* \"#utility.yul\":15728:15729   */\n      0x00\n        /* \"#utility.yul\":15721:15809   */\n      mstore\n        /* \"#utility.yul\":15828:15832   */\n      0x11\n        /* \"#utility.yul\":15825:15826   */\n      0x04\n        /* \"#utility.yul\":15818:15833   */\n      mstore\n        /* \"#utility.yul\":15852:15856   */\n      0x24\n        /* \"#utility.yul\":15849:15850   */\n      0x00\n        /* \"#utility.yul\":15842:15857   */\n      revert\n        /* \"#utility.yul\":15869:16049   */\n    tag_395:\n        /* \"#utility.yul\":15917:15994   */\n      0x4e487b7100000000000000000000000000000000000000000000000000000000\n        /* \"#utility.yul\":15914:15915   */\n      0x00\n        /* \"#utility.yul\":15907:15995   */\n      mstore\n        /* \"#utility.yul\":16014:16018   */\n      0x12\n        /* \"#utility.yul\":16011:16012   */\n      0x04\n        /* \"#utility.yul\":16004:16019   */\n      mstore\n        /* \"#utility.yul\":16038:16042   */\n      0x24\n        /* \"#utility.yul\":16035:16036   */\n      0x00\n        /* \"#utility.yul\":16028:16043   */\n      revert\n        /* \"#utility.yul\":16055:16235   */\n    tag_88:\n        /* \"#utility.yul\":16103:16180   */\n      0x4e487b7100000000000000000000000000000000000000000000000000000000\n        /* \"#utility.yul\":16100:16101   */\n      0x00\n        /* \"#utility.yul\":16093:16181   */\n      mstore\n        /* \"#utility.yul\":16200:16204   */\n      0x32\n        /* \"#utility.yul\":16197:16198   */\n      0x04\n        /* \"#utility.yul\":16190:16205   */\n      mstore\n        /* \"#utility.yul\":16224:16228   */\n      0x24\n        /* \"#utility.yul\":16221:16222   */\n      0x00\n        /* \"#utility.yul\":16214:16229   */\n      revert\n        /* \"#utility.yul\":16364:16481   */\n    tag_243:\n        /* \"#utility.yul\":16473:16474   */\n      0x00\n        /* \"#utility.yul\":16470:16471   */\n      dup1\n        /* \"#utility.yul\":16463:16475   */\n      revert\n        /* \"#utility.yul\":16487:16712   */\n    tag_283:\n        /* \"#utility.yul\":16627:16661   */\n      0x4f776e61626c653a206e6577206f776e657220697320746865207a65726f2061\n        /* \"#utility.yul\":16623:16624   */\n      0x00\n        /* \"#utility.yul\":16615:16621   */\n      dup3\n        /* \"#utility.yul\":16611:16625   */\n      add\n        /* \"#utility.yul\":16604:16662   */\n      mstore\n        /* \"#utility.yul\":16696:16704   */\n      0x6464726573730000000000000000000000000000000000000000000000000000\n        /* \"#utility.yul\":16691:16693   */\n      0x20\n        /* \"#utility.yul\":16683:16689   */\n      dup3\n        /* \"#utility.yul\":16679:16694   */\n      add\n        /* \"#utility.yul\":16672:16705   */\n      mstore\n        /* \"#utility.yul\":16487:16712   */\n      pop\n      jump\t// out\n        /* \"#utility.yul\":16718:16890   */\n    tag_288:\n        /* \"#utility.yul\":16858:16882   */\n      0x6e6f2062616c616e636520746f20776974686472617700000000000000000000\n        /* \"#utility.yul\":16854:16855   */\n      0x00\n        /* \"#utility.yul\":16846:16852   */\n      dup3\n        /* \"#utility.yul\":16842:16856   */\n      add\n        /* \"#utility.yul\":16835:16883   */\n      mstore\n        /* \"#utility.yul\":16718:16890   */\n      pop\n      jump\t// out\n        /* \"#utility.yul\":16896:17066   */\n    tag_293:\n        /* \"#utility.yul\":17036:17058   */\n      0x4661696c656420746f2073656e64204574686572000000000000000000000000\n        /* \"#utility.yul\":17032:17033   */\n      0x00\n        /* \"#utility.yul\":17024:17030   */\n      dup3\n        /* \"#utility.yul\":17020:17034   */\n      add\n        /* \"#utility.yul\":17013:17059   */\n      mstore\n        /* \"#utility.yul\":16896:17066   */\n      pop\n      jump\t// out\n        /* \"#utility.yul\":17072:17301   */\n    tag_298:\n        /* \"#utility.yul\":17212:17246   */\n      0x746f74616c50657263656e746167652077696c6c206265206772656174657220\n        /* \"#utility.yul\":17208:17209   */\n      0x00\n        /* \"#utility.yul\":17200:17206   */\n      dup3\n        /* \"#utility.yul\":17196:17210   */\n      add\n        /* \"#utility.yul\":17189:17247   */\n      mstore\n        /* \"#utility.yul\":17281:17293   */\n      0x7468616e20313030303000000000000000000000000000000000000000000000\n        /* \"#utility.yul\":17276:17278   */\n      0x20\n        /* \"#utility.yul\":17268:17274   */\n      dup3\n        /* \"#utility.yul\":17264:17279   */\n      add\n        /* \"#utility.yul\":17257:17294   */\n      mstore\n        /* \"#utility.yul\":17072:17301   */\n      pop\n      jump\t// out\n        /* \"#utility.yul\":17307:17484   */\n    tag_303:\n        /* \"#utility.yul\":17447:17476   */\n      0x436f6c6c61626f7261746f7220616c7265616479206578697374730000000000\n        /* \"#utility.yul\":17443:17444   */\n      0x00\n        /* \"#utility.yul\":17435:17441   */\n      dup3\n        /* \"#utility.yul\":17431:17445   */\n      add\n        /* \"#utility.yul\":17424:17477   */\n      mstore\n        /* \"#utility.yul\":17307:17484   */\n      pop\n      jump\t// out\n        /* \"#utility.yul\":17490:17723   */\n    tag_308:\n        /* \"#utility.yul\":17630:17664   */\n      0x496e697469616c697a61626c653a20636f6e747261637420697320616c726561\n        /* \"#utility.yul\":17626:17627   */\n      0x00\n        /* \"#utility.yul\":17618:17624   */\n      dup3\n        /* \"#utility.yul\":17614:17628   */\n      add\n        /* \"#utility.yul\":17607:17665   */\n      mstore\n        /* \"#utility.yul\":17699:17715   */\n      0x647920696e697469616c697a6564000000000000000000000000000000000000\n        /* \"#utility.yul\":17694:17696   */\n      0x20\n        /* \"#utility.yul\":17686:17692   */\n      dup3\n        /* \"#utility.yul\":17682:17697   */\n      add\n        /* \"#utility.yul\":17675:17716   */\n      mstore\n        /* \"#utility.yul\":17490:17723   */\n      pop\n      jump\t// out\n        /* \"#utility.yul\":17729:17955   */\n    tag_313:\n        /* \"#utility.yul\":17869:17903   */\n      0x436f6c6c61626f7261746f722063616e6e6f7420626520616e20656d70747920\n        /* \"#utility.yul\":17865:17866   */\n      0x00\n        /* \"#utility.yul\":17857:17863   */\n      dup3\n        /* \"#utility.yul\":17853:17867   */\n      add\n        /* \"#utility.yul\":17846:17904   */\n      mstore\n        /* \"#utility.yul\":17938:17947   */\n      0x6164647265737300000000000000000000000000000000000000000000000000\n        /* \"#utility.yul\":17933:17935   */\n      0x20\n        /* \"#utility.yul\":17925:17931   */\n      dup3\n        /* \"#utility.yul\":17921:17936   */\n      add\n        /* \"#utility.yul\":17914:17948   */\n      mstore\n        /* \"#utility.yul\":17729:17955   */\n      pop\n      jump\t// out\n        /* \"#utility.yul\":17961:18143   */\n    tag_318:\n        /* \"#utility.yul\":18101:18135   */\n      0x4f776e61626c653a2063616c6c6572206973206e6f7420746865206f776e6572\n        /* \"#utility.yul\":18097:18098   */\n      0x00\n        /* \"#utility.yul\":18089:18095   */\n      dup3\n        /* \"#utility.yul\":18085:18099   */\n      add\n        /* \"#utility.yul\":18078:18136   */\n      mstore\n        /* \"#utility.yul\":17961:18143   */\n      pop\n      jump\t// out\n        /* \"#utility.yul\":18149:18263   */\n    tag_324:\n      pop\n      jump\t// out\n        /* \"#utility.yul\":18269:18445   */\n    tag_329:\n        /* \"#utility.yul\":18409:18437   */\n      0x436f6c6c61626f7261746f72206973206e6f7420657869737473000000000000\n        /* \"#utility.yul\":18405:18406   */\n      0x00\n        /* \"#utility.yul\":18397:18403   */\n      dup3\n        /* \"#utility.yul\":18393:18407   */\n      add\n        /* \"#utility.yul\":18386:18438   */\n      mstore\n        /* \"#utility.yul\":18269:18445   */\n      pop\n      jump\t// out\n        /* \"#utility.yul\":18451:18681   */\n    tag_334:\n        /* \"#utility.yul\":18591:18625   */\n      0x496e697469616c697a61626c653a20636f6e7472616374206973206e6f742069\n        /* \"#utility.yul\":18587:18588   */\n      0x00\n        /* \"#utility.yul\":18579:18585   */\n      dup3\n        /* \"#utility.yul\":18575:18589   */\n      add\n        /* \"#utility.yul\":18568:18626   */\n      mstore\n        /* \"#utility.yul\":18660:18673   */\n      0x6e697469616c697a696e67000000000000000000000000000000000000000000\n        /* \"#utility.yul\":18655:18657   */\n      0x20\n        /* \"#utility.yul\":18647:18653   */\n      dup3\n        /* \"#utility.yul\":18643:18658   */\n      add\n        /* \"#utility.yul\":18636:18674   */\n      mstore\n        /* \"#utility.yul\":18451:18681   */\n      pop\n      jump\t// out\n        /* \"#utility.yul\":18687:18809   */\n    tag_235:\n        /* \"#utility.yul\":18760:18784   */\n      tag_429\n        /* \"#utility.yul\":18778:18783   */\n      dup2\n        /* \"#utility.yul\":18760:18784   */\n      tag_256\n      jump\t// in\n    tag_429:\n        /* \"#utility.yul\":18753:18758   */\n      dup2\n        /* \"#utility.yul\":18750:18785   */\n      eq\n        /* \"#utility.yul\":18740:18803   */\n      tag_430\n      jumpi\n        /* \"#utility.yul\":18799:18800   */\n      0x00\n        /* \"#utility.yul\":18796:18797   */\n      dup1\n        /* \"#utility.yul\":18789:18801   */\n      revert\n        /* \"#utility.yul\":18740:18803   */\n    tag_430:\n        /* \"#utility.yul\":18687:18809   */\n      pop\n      jump\t// out\n        /* \"#utility.yul\":18815:18937   */\n    tag_239:\n        /* \"#utility.yul\":18888:18912   */\n      tag_432\n        /* \"#utility.yul\":18906:18911   */\n      dup2\n        /* \"#utility.yul\":18888:18912   */\n      tag_342\n      jump\t// in\n    tag_432:\n        /* \"#utility.yul\":18881:18886   */\n      dup2\n        /* \"#utility.yul\":18878:18913   */\n      eq\n        /* \"#utility.yul\":18868:18931   */\n      tag_433\n      jumpi\n        /* \"#utility.yul\":18927:18928   */\n      0x00\n        /* \"#utility.yul\":18924:18925   */\n      dup1\n        /* \"#utility.yul\":18917:18929   */\n      revert\n        /* \"#utility.yul\":18868:18931   */\n    tag_433:\n        /* \"#utility.yul\":18815:18937   */\n      pop\n      jump\t// out\n\n    auxdata: 0xa2646970667358221220c245385fa054a02650b71f1eaa8fb71e09119a7f2db0d0ec62d5e02f26b4457b64736f6c63430008070033\n}\n",
				"bytecode": {
					"linkReferences": {},
					"object": "608060405234801561001057600080fd5b50611dc2806100206000396000f3fe6080604052600436106100ab5760003560e01c8063dd9a583711610064578063dd9a58371461019e578063e975e3ab146101c7578063ece123e4146101f2578063f2fde38b1461021b578063f7fd128a14610244578063f80ce32b1461026f576100b2565b80633ccfd60b146100b457806354a33f0e146100cb578063715018a6146100f45780638da5cb5b1461010b578063b116bbf514610136578063d44a0e6114610173576100b2565b366100b257005b005b3480156100c057600080fd5b506100c9610286565b005b3480156100d757600080fd5b506100f260048036038101906100ed9190611431565b610538565b005b34801561010057600080fd5b506101096107f6565b005b34801561011757600080fd5b5061012061087e565b60405161012d91906116f7565b60405180910390f35b34801561014257600080fd5b5061015d60048036038101906101589190611404565b6108a8565b60405161016a9190611874565b60405180910390f35b34801561017f57600080fd5b506101886109a2565b604051610195919061188f565b60405180910390f35b3480156101aa57600080fd5b506101c560048036038101906101c09190611431565b610aa3565b005b3480156101d357600080fd5b506101dc610cb5565b6040516101e99190611874565b60405180910390f35b3480156101fe57600080fd5b5061021960048036038101906102149190611404565b610d38565b005b34801561022757600080fd5b50610242600480360381019061023d9190611404565b610f14565b005b34801561025057600080fd5b5061025961100c565b6040516102669190611712565b60405180910390f35b34801561027b57600080fd5b50610284611116565b005b61028e611202565b73ffffffffffffffffffffffffffffffffffffffff166102ac61087e565b73ffffffffffffffffffffffffffffffffffffffff1614610302576040517f08c379a00000000000000000000000000000000000000000000000000000000081526004016102f990611814565b60405180910390fd5b60004790506000811161034a576040517f08c379a000000000000000000000000000000000000000000000000000000000815260040161034190611754565b60405180910390fd5b60005b606580549050811015610534576000606660006065848154811061037457610373611acf565b5b9060005260206000200160009054906101000a900473ffffffffffffffffffffffffffffffffffffffff1673ffffffffffffffffffffffffffffffffffffffff1673ffffffffffffffffffffffffffffffffffffffff168152602001908152602001600020604051806040016040529081600082015481526020016001820160009054906101000a900460ff1615151515815250509050806020015115610520576000806065848154811061042c5761042b611acf565b5b9060005260206000200160009054906101000a900473ffffffffffffffffffffffffffffffffffffffff1673ffffffffffffffffffffffffffffffffffffffff166127108460000151876104809190611986565b61048a9190611955565b604051610496906116e2565b60006040518083038185875af1925050503d80600081146104d3576040519150601f19603f3d011682016040523d82523d6000602084013e6104d8565b606091505b50915091508161051d576040517f08c379a000000000000000000000000000000000000000000000000000000000815260040161051490611774565b60405180910390fd5b50505b50808061052c90611a28565b91505061034d565b5050565b610540611202565b73ffffffffffffffffffffffffffffffffffffffff1661055e61087e565b73ffffffffffffffffffffffffffffffffffffffff16146105b4576040517f08c379a00000000000000000000000000000000000000000000000000000000081526004016105ab90611814565b60405180910390fd5b600073ffffffffffffffffffffffffffffffffffffffff168273ffffffffffffffffffffffffffffffffffffffff161415610624576040517f08c379a000000000000000000000000000000000000000000000000000000000815260040161061b906117f4565b60405180910390fd5b606660008373ffffffffffffffffffffffffffffffffffffffff1673ffffffffffffffffffffffffffffffffffffffff16815260200190815260200160002060010160009054906101000a900460ff16156106b4576040517f08c379a00000000000000000000000000000000000000000000000000000000081526004016106ab906117b4565b60405180910390fd5b612710816106c06109a2565b6106ca91906118ff565b111561070b576040517f08c379a000000000000000000000000000000000000000000000000000000000815260040161070290611794565b60405180910390fd5b604051806040016040528082815260200160011515815250606660008473ffffffffffffffffffffffffffffffffffffffff1673ffffffffffffffffffffffffffffffffffffffff1681526020019081526020016000206000820151816000015560208201518160010160006101000a81548160ff0219169083151502179055509050506065829080600181540180825580915050600190039060005260206000200160009091909190916101000a81548173ffffffffffffffffffffffffffffffffffffffff021916908373ffffffffffffffffffffffffffffffffffffffff1602179055505050565b6107fe611202565b73ffffffffffffffffffffffffffffffffffffffff1661081c61087e565b73ffffffffffffffffffffffffffffffffffffffff1614610872576040517f08c379a000000000000000000000000000000000000000000000000000000000815260040161086990611814565b60405180910390fd5b61087c600061120a565b565b6000603360009054906101000a900473ffffffffffffffffffffffffffffffffffffffff16905090565b6108b06113be565b6108b8611202565b73ffffffffffffffffffffffffffffffffffffffff166108d661087e565b73ffffffffffffffffffffffffffffffffffffffff161461092c576040517f08c379a000000000000000000000000000000000000000000000000000000000815260040161092390611814565b60405180910390fd5b606660008373ffffffffffffffffffffffffffffffffffffffff1673ffffffffffffffffffffffffffffffffffffffff168152602001908152602001600020604051806040016040529081600082015481526020016001820160009054906101000a900460ff1615151515815250509050919050565b6000806000905060005b606580549050811015610a9b57600060666000606584815481106109d3576109d2611acf565b5b9060005260206000200160009054906101000a900473ffffffffffffffffffffffffffffffffffffffff1673ffffffffffffffffffffffffffffffffffffffff1673ffffffffffffffffffffffffffffffffffffffff168152602001908152602001600020604051806040016040529081600082015481526020016001820160009054906101000a900460ff1615151515815250509050806020015115610a8757806000015183610a8491906118ff565b92505b508080610a9390611a28565b9150506109ac565b508091505090565b610aab611202565b73ffffffffffffffffffffffffffffffffffffffff16610ac961087e565b73ffffffffffffffffffffffffffffffffffffffff1614610b1f576040517f08c379a0000000000000000000000000000000000000000000000000000000008152600401610b1690611814565b60405180910390fd5b600073ffffffffffffffffffffffffffffffffffffffff168273ffffffffffffffffffffffffffffffffffffffff161415610b8f576040517f08c379a0000000000000000000000000000000000000000000000000000000008152600401610b86906117f4565b60405180910390fd5b606660008373ffffffffffffffffffffffffffffffffffffffff1673ffffffffffffffffffffffffffffffffffffffff16815260200190815260200160002060010160009054906101000a900460ff16610c1e576040517f08c379a0000000000000000000000000000000000000000000000000000000008152600401610c1590611834565b60405180910390fd5b80606660008473ffffffffffffffffffffffffffffffffffffffff1673ffffffffffffffffffffffffffffffffffffffff16815260200190815260200160002060000181905550612710610c706109a2565b1115610cb1576040517f08c379a0000000000000000000000000000000000000000000000000000000008152600401610ca890611794565b60405180910390fd5b5050565b610cbd6113be565b60666000610cc9611202565b73ffffffffffffffffffffffffffffffffffffffff1673ffffffffffffffffffffffffffffffffffffffff168152602001908152602001600020604051806040016040529081600082015481526020016001820160009054906101000a900460ff161515151581525050905090565b610d40611202565b73ffffffffffffffffffffffffffffffffffffffff16610d5e61087e565b73ffffffffffffffffffffffffffffffffffffffff1614610db4576040517f08c379a0000000000000000000000000000000000000000000000000000000008152600401610dab90611814565b60405180910390fd5b600073ffffffffffffffffffffffffffffffffffffffff168173ffffffffffffffffffffffffffffffffffffffff161415610e24576040517f08c379a0000000000000000000000000000000000000000000000000000000008152600401610e1b906117f4565b60405180910390fd5b606660008273ffffffffffffffffffffffffffffffffffffffff1673ffffffffffffffffffffffffffffffffffffffff16815260200190815260200160002060010160009054906101000a900460ff16610eb3576040517f08c379a0000000000000000000000000000000000000000000000000000000008152600401610eaa90611834565b60405180910390fd5b606660008273ffffffffffffffffffffffffffffffffffffffff1673ffffffffffffffffffffffffffffffffffffffff1681526020019081526020016000206000808201600090556001820160006101000a81549060ff0219169055505050565b610f1c611202565b73ffffffffffffffffffffffffffffffffffffffff16610f3a61087e565b73ffffffffffffffffffffffffffffffffffffffff1614610f90576040517f08c379a0000000000000000000000000000000000000000000000000000000008152600401610f8790611814565b60405180910390fd5b600073ffffffffffffffffffffffffffffffffffffffff168173ffffffffffffffffffffffffffffffffffffffff161415611000576040517f08c379a0000000000000000000000000000000000000000000000000000000008152600401610ff790611734565b60405180910390fd5b6110098161120a565b50565b6060611016611202565b73ffffffffffffffffffffffffffffffffffffffff1661103461087e565b73ffffffffffffffffffffffffffffffffffffffff161461108a576040517f08c379a000000000000000000000000000000000000000000000000000000000815260040161108190611814565b60405180910390fd5b606580548060200260200160405190810160405280929190818152602001828054801561110c57602002820191906000526020600020905b8160009054906101000a900473ffffffffffffffffffffffffffffffffffffffff1673ffffffffffffffffffffffffffffffffffffffff16815260200190600101908083116110c2575b5050505050905090565b600060019054906101000a900460ff1661113e5760008054906101000a900460ff1615611147565b6111466112d0565b5b611186576040517f08c379a000000000000000000000000000000000000000000000000000000000815260040161117d906117d4565b60405180910390fd5b60008060019054906101000a900460ff1615905080156111d6576001600060016101000a81548160ff02191690831515021790555060016000806101000a81548160ff0219169083151502179055505b6111de6112e1565b80156111ff5760008060016101000a81548160ff0219169083151502179055505b50565b600033905090565b6000603360009054906101000a900473ffffffffffffffffffffffffffffffffffffffff16905081603360006101000a81548173ffffffffffffffffffffffffffffffffffffffff021916908373ffffffffffffffffffffffffffffffffffffffff1602179055508173ffffffffffffffffffffffffffffffffffffffff168173ffffffffffffffffffffffffffffffffffffffff167f8be0079c531659141344cd1fd0a4f28419497f9722a3daafe3b4186f6b6457e060405160405180910390a35050565b60006112db3061133a565b15905090565b600060019054906101000a900460ff16611330576040517f08c379a000000000000000000000000000000000000000000000000000000000815260040161132790611854565b60405180910390fd5b61133861135d565b565b6000808273ffffffffffffffffffffffffffffffffffffffff163b119050919050565b600060019054906101000a900460ff166113ac576040517f08c379a00000000000000000000000000000000000000000000000000000000081526004016113a390611854565b60405180910390fd5b6113bc6113b7611202565b61120a565b565b6040518060400160405280600081526020016000151581525090565b6000813590506113e981611d5e565b92915050565b6000813590506113fe81611d75565b92915050565b60006020828403121561141a57611419611afe565b5b6000611428848285016113da565b91505092915050565b6000806040838503121561144857611447611afe565b5b6000611456858286016113da565b9250506020611467858286016113ef565b9150509250929050565b600061147d8383611489565b60208301905092915050565b611492816119e0565b82525050565b6114a1816119e0565b82525050565b60006114b2826118ba565b6114bc81856118d2565b93506114c7836118aa565b8060005b838110156114f85781516114df8882611471565b97506114ea836118c5565b9250506001810190506114cb565b5085935050505092915050565b61150e816119f2565b82525050565b60006115216026836118ee565b915061152c82611b03565b604082019050919050565b60006115446016836118ee565b915061154f82611b52565b602082019050919050565b60006115676014836118ee565b915061157282611b7b565b602082019050919050565b600061158a602a836118ee565b915061159582611ba4565b604082019050919050565b60006115ad601b836118ee565b91506115b882611bf3565b602082019050919050565b60006115d0602e836118ee565b91506115db82611c1c565b604082019050919050565b60006115f36027836118ee565b91506115fe82611c6b565b604082019050919050565b60006116166020836118ee565b915061162182611cba565b602082019050919050565b60006116396000836118e3565b915061164482611ce3565b600082019050919050565b600061165c601a836118ee565b915061166782611ce6565b602082019050919050565b600061167f602b836118ee565b915061168a82611d0f565b604082019050919050565b6040820160008201516116ab60008501826116c4565b5060208201516116be6020850182611505565b50505050565b6116cd81611a1e565b82525050565b6116dc81611a1e565b82525050565b60006116ed8261162c565b9150819050919050565b600060208201905061170c6000830184611498565b92915050565b6000602082019050818103600083015261172c81846114a7565b905092915050565b6000602082019050818103600083015261174d81611514565b9050919050565b6000602082019050818103600083015261176d81611537565b9050919050565b6000602082019050818103600083015261178d8161155a565b9050919050565b600060208201905081810360008301526117ad8161157d565b9050919050565b600060208201905081810360008301526117cd816115a0565b9050919050565b600060208201905081810360008301526117ed816115c3565b9050919050565b6000602082019050818103600083015261180d816115e6565b9050919050565b6000602082019050818103600083015261182d81611609565b9050919050565b6000602082019050818103600083015261184d8161164f565b9050919050565b6000602082019050818103600083015261186d81611672565b9050919050565b60006040820190506118896000830184611695565b92915050565b60006020820190506118a460008301846116d3565b92915050565b6000819050602082019050919050565b600081519050919050565b6000602082019050919050565b600082825260208201905092915050565b600081905092915050565b600082825260208201905092915050565b600061190a82611a1e565b915061191583611a1e565b9250827fffffffffffffffffffffffffffffffffffffffffffffffffffffffffffffffff0382111561194a57611949611a71565b5b828201905092915050565b600061196082611a1e565b915061196b83611a1e565b92508261197b5761197a611aa0565b5b828204905092915050565b600061199182611a1e565b915061199c83611a1e565b9250817fffffffffffffffffffffffffffffffffffffffffffffffffffffffffffffffff04831182151516156119d5576119d4611a71565b5b828202905092915050565b60006119eb826119fe565b9050919050565b60008115159050919050565b600073ffffffffffffffffffffffffffffffffffffffff82169050919050565b6000819050919050565b6000611a3382611a1e565b91507fffffffffffffffffffffffffffffffffffffffffffffffffffffffffffffffff821415611a6657611a65611a71565b5b600182019050919050565b7f4e487b7100000000000000000000000000000000000000000000000000000000600052601160045260246000fd5b7f4e487b7100000000000000000000000000000000000000000000000000000000600052601260045260246000fd5b7f4e487b7100000000000000000000000000000000000000000000000000000000600052603260045260246000fd5b600080fd5b7f4f776e61626c653a206e6577206f776e657220697320746865207a65726f206160008201527f6464726573730000000000000000000000000000000000000000000000000000602082015250565b7f6e6f2062616c616e636520746f20776974686472617700000000000000000000600082015250565b7f4661696c656420746f2073656e64204574686572000000000000000000000000600082015250565b7f746f74616c50657263656e746167652077696c6c20626520677265617465722060008201527f7468616e20313030303000000000000000000000000000000000000000000000602082015250565b7f436f6c6c61626f7261746f7220616c7265616479206578697374730000000000600082015250565b7f496e697469616c697a61626c653a20636f6e747261637420697320616c72656160008201527f647920696e697469616c697a6564000000000000000000000000000000000000602082015250565b7f436f6c6c61626f7261746f722063616e6e6f7420626520616e20656d7074792060008201527f6164647265737300000000000000000000000000000000000000000000000000602082015250565b7f4f776e61626c653a2063616c6c6572206973206e6f7420746865206f776e6572600082015250565b50565b7f436f6c6c61626f7261746f72206973206e6f7420657869737473000000000000600082015250565b7f496e697469616c697a61626c653a20636f6e7472616374206973206e6f74206960008201527f6e697469616c697a696e67000000000000000000000000000000000000000000602082015250565b611d67816119e0565b8114611d7257600080fd5b50565b611d7e81611a1e565b8114611d8957600080fd5b5056fea2646970667358221220c245385fa054a02650b71f1eaa8fb71e09119a7f2db0d0ec62d5e02f26b4457b64736f6c63430008070033",
					"opcodes": "PUSH1 0x80 PUSH1 0x40 MSTORE CALLVALUE DUP1 ISZERO PUSH2 0x10 JUMPI PUSH1 0x0 DUP1 REVERT JUMPDEST POP PUSH2 0x1DC2 DUP1 PUSH2 0x20 PUSH1 0x0 CODECOPY PUSH1 0x0 RETURN INVALID PUSH1 0x80 PUSH1 0x40 MSTORE PUSH1 0x4 CALLDATASIZE LT PUSH2 0xAB JUMPI PUSH1 0x0 CALLDATALOAD PUSH1 0xE0 SHR DUP1 PUSH4 0xDD9A5837 GT PUSH2 0x64 JUMPI DUP1 PUSH4 0xDD9A5837 EQ PUSH2 0x19E JUMPI DUP1 PUSH4 0xE975E3AB EQ PUSH2 0x1C7 JUMPI DUP1 PUSH4 0xECE123E4 EQ PUSH2 0x1F2 JUMPI DUP1 PUSH4 0xF2FDE38B EQ PUSH2 0x21B JUMPI DUP1 PUSH4 0xF7FD128A EQ PUSH2 0x244 JUMPI DUP1 PUSH4 0xF80CE32B EQ PUSH2 0x26F JUMPI PUSH2 0xB2 JUMP JUMPDEST DUP1 PUSH4 0x3CCFD60B EQ PUSH2 0xB4 JUMPI DUP1 PUSH4 0x54A33F0E EQ PUSH2 0xCB JUMPI DUP1 PUSH4 0x715018A6 EQ PUSH2 0xF4 JUMPI DUP1 PUSH4 0x8DA5CB5B EQ PUSH2 0x10B JUMPI DUP1 PUSH4 0xB116BBF5 EQ PUSH2 0x136 JUMPI DUP1 PUSH4 0xD44A0E61 EQ PUSH2 0x173 JUMPI PUSH2 0xB2 JUMP JUMPDEST CALLDATASIZE PUSH2 0xB2 JUMPI STOP JUMPDEST STOP JUMPDEST CALLVALUE DUP1 ISZERO PUSH2 0xC0 JUMPI PUSH1 0x0 DUP1 REVERT JUMPDEST POP PUSH2 0xC9 PUSH2 0x286 JUMP JUMPDEST STOP JUMPDEST CALLVALUE DUP1 ISZERO PUSH2 0xD7 JUMPI PUSH1 0x0 DUP1 REVERT JUMPDEST POP PUSH2 0xF2 PUSH1 0x4 DUP1 CALLDATASIZE SUB DUP2 ADD SWAP1 PUSH2 0xED SWAP2 SWAP1 PUSH2 0x1431 JUMP JUMPDEST PUSH2 0x538 JUMP JUMPDEST STOP JUMPDEST CALLVALUE DUP1 ISZERO PUSH2 0x100 JUMPI PUSH1 0x0 DUP1 REVERT JUMPDEST POP PUSH2 0x109 PUSH2 0x7F6 JUMP JUMPDEST STOP JUMPDEST CALLVALUE DUP1 ISZERO PUSH2 0x117 JUMPI PUSH1 0x0 DUP1 REVERT JUMPDEST POP PUSH2 0x120 PUSH2 0x87E JUMP JUMPDEST PUSH1 0x40 MLOAD PUSH2 0x12D SWAP2 SWAP1 PUSH2 0x16F7 JUMP JUMPDEST PUSH1 0x40 MLOAD DUP1 SWAP2 SUB SWAP1 RETURN JUMPDEST CALLVALUE DUP1 ISZERO PUSH2 0x142 JUMPI PUSH1 0x0 DUP1 REVERT JUMPDEST POP PUSH2 0x15D PUSH1 0x4 DUP1 CALLDATASIZE SUB DUP2 ADD SWAP1 PUSH2 0x158 SWAP2 SWAP1 PUSH2 0x1404 JUMP JUMPDEST PUSH2 0x8A8 JUMP JUMPDEST PUSH1 0x40 MLOAD PUSH2 0x16A SWAP2 SWAP1 PUSH2 0x1874 JUMP JUMPDEST PUSH1 0x40 MLOAD DUP1 SWAP2 SUB SWAP1 RETURN JUMPDEST CALLVALUE DUP1 ISZERO PUSH2 0x17F JUMPI PUSH1 0x0 DUP1 REVERT JUMPDEST POP PUSH2 0x188 PUSH2 0x9A2 JUMP JUMPDEST PUSH1 0x40 MLOAD PUSH2 0x195 SWAP2 SWAP1 PUSH2 0x188F JUMP JUMPDEST PUSH1 0x40 MLOAD DUP1 SWAP2 SUB SWAP1 RETURN JUMPDEST CALLVALUE DUP1 ISZERO PUSH2 0x1AA JUMPI PUSH1 0x0 DUP1 REVERT JUMPDEST POP PUSH2 0x1C5 PUSH1 0x4 DUP1 CALLDATASIZE SUB DUP2 ADD SWAP1 PUSH2 0x1C0 SWAP2 SWAP1 PUSH2 0x1431 JUMP JUMPDEST PUSH2 0xAA3 JUMP JUMPDEST STOP JUMPDEST CALLVALUE DUP1 ISZERO PUSH2 0x1D3 JUMPI PUSH1 0x0 DUP1 REVERT JUMPDEST POP PUSH2 0x1DC PUSH2 0xCB5 JUMP JUMPDEST PUSH1 0x40 MLOAD PUSH2 0x1E9 SWAP2 SWAP1 PUSH2 0x1874 JUMP JUMPDEST PUSH1 0x40 MLOAD DUP1 SWAP2 SUB SWAP1 RETURN JUMPDEST CALLVALUE DUP1 ISZERO PUSH2 0x1FE JUMPI PUSH1 0x0 DUP1 REVERT JUMPDEST POP PUSH2 0x219 PUSH1 0x4 DUP1 CALLDATASIZE SUB DUP2 ADD SWAP1 PUSH2 0x214 SWAP2 SWAP1 PUSH2 0x1404 JUMP JUMPDEST PUSH2 0xD38 JUMP JUMPDEST STOP JUMPDEST CALLVALUE DUP1 ISZERO PUSH2 0x227 JUMPI PUSH1 0x0 DUP1 REVERT JUMPDEST POP PUSH2 0x242 PUSH1 0x4 DUP1 CALLDATASIZE SUB DUP2 ADD SWAP1 PUSH2 0x23D SWAP2 SWAP1 PUSH2 0x1404 JUMP JUMPDEST PUSH2 0xF14 JUMP JUMPDEST STOP JUMPDEST CALLVALUE DUP1 ISZERO PUSH2 0x250 JUMPI PUSH1 0x0 DUP1 REVERT JUMPDEST POP PUSH2 0x259 PUSH2 0x100C JUMP JUMPDEST PUSH1 0x40 MLOAD PUSH2 0x266 SWAP2 SWAP1 PUSH2 0x1712 JUMP JUMPDEST PUSH1 0x40 MLOAD DUP1 SWAP2 SUB SWAP1 RETURN JUMPDEST CALLVALUE DUP1 ISZERO PUSH2 0x27B JUMPI PUSH1 0x0 DUP1 REVERT JUMPDEST POP PUSH2 0x284 PUSH2 0x1116 JUMP JUMPDEST STOP JUMPDEST PUSH2 0x28E PUSH2 0x1202 JUMP JUMPDEST PUSH20 0xFFFFFFFFFFFFFFFFFFFFFFFFFFFFFFFFFFFFFFFF AND PUSH2 0x2AC PUSH2 0x87E JUMP JUMPDEST PUSH20 0xFFFFFFFFFFFFFFFFFFFFFFFFFFFFFFFFFFFFFFFF AND EQ PUSH2 0x302 JUMPI PUSH1 0x40 MLOAD PUSH32 0x8C379A000000000000000000000000000000000000000000000000000000000 DUP2 MSTORE PUSH1 0x4 ADD PUSH2 0x2F9 SWAP1 PUSH2 0x1814 JUMP JUMPDEST PUSH1 0x40 MLOAD DUP1 SWAP2 SUB SWAP1 REVERT JUMPDEST PUSH1 0x0 SELFBALANCE SWAP1 POP PUSH1 0x0 DUP2 GT PUSH2 0x34A JUMPI PUSH1 0x40 MLOAD PUSH32 0x8C379A000000000000000000000000000000000000000000000000000000000 DUP2 MSTORE PUSH1 0x4 ADD PUSH2 0x341 SWAP1 PUSH2 0x1754 JUMP JUMPDEST PUSH1 0x40 MLOAD DUP1 SWAP2 SUB SWAP1 REVERT JUMPDEST PUSH1 0x0 JUMPDEST PUSH1 0x65 DUP1 SLOAD SWAP1 POP DUP2 LT ISZERO PUSH2 0x534 JUMPI PUSH1 0x0 PUSH1 0x66 PUSH1 0x0 PUSH1 0x65 DUP5 DUP2 SLOAD DUP2 LT PUSH2 0x374 JUMPI PUSH2 0x373 PUSH2 0x1ACF JUMP JUMPDEST JUMPDEST SWAP1 PUSH1 0x0 MSTORE PUSH1 0x20 PUSH1 0x0 KECCAK256 ADD PUSH1 0x0 SWAP1 SLOAD SWAP1 PUSH2 0x100 EXP SWAP1 DIV PUSH20 0xFFFFFFFFFFFFFFFFFFFFFFFFFFFFFFFFFFFFFFFF AND PUSH20 0xFFFFFFFFFFFFFFFFFFFFFFFFFFFFFFFFFFFFFFFF AND PUSH20 0xFFFFFFFFFFFFFFFFFFFFFFFFFFFFFFFFFFFFFFFF AND DUP2 MSTORE PUSH1 0x20 ADD SWAP1 DUP2 MSTORE PUSH1 0x20 ADD PUSH1 0x0 KECCAK256 PUSH1 0x40 MLOAD DUP1 PUSH1 0x40 ADD PUSH1 0x40 MSTORE SWAP1 DUP2 PUSH1 0x0 DUP3 ADD SLOAD DUP2 MSTORE PUSH1 0x20 ADD PUSH1 0x1 DUP3 ADD PUSH1 0x0 SWAP1 SLOAD SWAP1 PUSH2 0x100 EXP SWAP1 DIV PUSH1 0xFF AND ISZERO ISZERO ISZERO ISZERO DUP2 MSTORE POP POP SWAP1 POP DUP1 PUSH1 0x20 ADD MLOAD ISZERO PUSH2 0x520 JUMPI PUSH1 0x0 DUP1 PUSH1 0x65 DUP5 DUP2 SLOAD DUP2 LT PUSH2 0x42C JUMPI PUSH2 0x42B PUSH2 0x1ACF JUMP JUMPDEST JUMPDEST SWAP1 PUSH1 0x0 MSTORE PUSH1 0x20 PUSH1 0x0 KECCAK256 ADD PUSH1 0x0 SWAP1 SLOAD SWAP1 PUSH2 0x100 EXP SWAP1 DIV PUSH20 0xFFFFFFFFFFFFFFFFFFFFFFFFFFFFFFFFFFFFFFFF AND PUSH20 0xFFFFFFFFFFFFFFFFFFFFFFFFFFFFFFFFFFFFFFFF AND PUSH2 0x2710 DUP5 PUSH1 0x0 ADD MLOAD DUP8 PUSH2 0x480 SWAP2 SWAP1 PUSH2 0x1986 JUMP JUMPDEST PUSH2 0x48A SWAP2 SWAP1 PUSH2 0x1955 JUMP JUMPDEST PUSH1 0x40 MLOAD PUSH2 0x496 SWAP1 PUSH2 0x16E2 JUMP JUMPDEST PUSH1 0x0 PUSH1 0x40 MLOAD DUP1 DUP4 SUB DUP2 DUP6 DUP8 GAS CALL SWAP3 POP POP POP RETURNDATASIZE DUP1 PUSH1 0x0 DUP2 EQ PUSH2 0x4D3 JUMPI PUSH1 0x40 MLOAD SWAP2 POP PUSH1 0x1F NOT PUSH1 0x3F RETURNDATASIZE ADD AND DUP3 ADD PUSH1 0x40 MSTORE RETURNDATASIZE DUP3 MSTORE RETURNDATASIZE PUSH1 0x0 PUSH1 0x20 DUP5 ADD RETURNDATACOPY PUSH2 0x4D8 JUMP JUMPDEST PUSH1 0x60 SWAP2 POP JUMPDEST POP SWAP2 POP SWAP2 POP DUP2 PUSH2 0x51D JUMPI PUSH1 0x40 MLOAD PUSH32 0x8C379A000000000000000000000000000000000000000000000000000000000 DUP2 MSTORE PUSH1 0x4 ADD PUSH2 0x514 SWAP1 PUSH2 0x1774 JUMP JUMPDEST PUSH1 0x40 MLOAD DUP1 SWAP2 SUB SWAP1 REVERT JUMPDEST POP POP JUMPDEST POP DUP1 DUP1 PUSH2 0x52C SWAP1 PUSH2 0x1A28 JUMP JUMPDEST SWAP2 POP POP PUSH2 0x34D JUMP JUMPDEST POP POP JUMP JUMPDEST PUSH2 0x540 PUSH2 0x1202 JUMP JUMPDEST PUSH20 0xFFFFFFFFFFFFFFFFFFFFFFFFFFFFFFFFFFFFFFFF AND PUSH2 0x55E PUSH2 0x87E JUMP JUMPDEST PUSH20 0xFFFFFFFFFFFFFFFFFFFFFFFFFFFFFFFFFFFFFFFF AND EQ PUSH2 0x5B4 JUMPI PUSH1 0x40 MLOAD PUSH32 0x8C379A000000000000000000000000000000000000000000000000000000000 DUP2 MSTORE PUSH1 0x4 ADD PUSH2 0x5AB SWAP1 PUSH2 0x1814 JUMP JUMPDEST PUSH1 0x40 MLOAD DUP1 SWAP2 SUB SWAP1 REVERT JUMPDEST PUSH1 0x0 PUSH20 0xFFFFFFFFFFFFFFFFFFFFFFFFFFFFFFFFFFFFFFFF AND DUP3 PUSH20 0xFFFFFFFFFFFFFFFFFFFFFFFFFFFFFFFFFFFFFFFF AND EQ ISZERO PUSH2 0x624 JUMPI PUSH1 0x40 MLOAD PUSH32 0x8C379A000000000000000000000000000000000000000000000000000000000 DUP2 MSTORE PUSH1 0x4 ADD PUSH2 0x61B SWAP1 PUSH2 0x17F4 JUMP JUMPDEST PUSH1 0x40 MLOAD DUP1 SWAP2 SUB SWAP1 REVERT JUMPDEST PUSH1 0x66 PUSH1 0x0 DUP4 PUSH20 0xFFFFFFFFFFFFFFFFFFFFFFFFFFFFFFFFFFFFFFFF AND PUSH20 0xFFFFFFFFFFFFFFFFFFFFFFFFFFFFFFFFFFFFFFFF AND DUP2 MSTORE PUSH1 0x20 ADD SWAP1 DUP2 MSTORE PUSH1 0x20 ADD PUSH1 0x0 KECCAK256 PUSH1 0x1 ADD PUSH1 0x0 SWAP1 SLOAD SWAP1 PUSH2 0x100 EXP SWAP1 DIV PUSH1 0xFF AND ISZERO PUSH2 0x6B4 JUMPI PUSH1 0x40 MLOAD PUSH32 0x8C379A000000000000000000000000000000000000000000000000000000000 DUP2 MSTORE PUSH1 0x4 ADD PUSH2 0x6AB SWAP1 PUSH2 0x17B4 JUMP JUMPDEST PUSH1 0x40 MLOAD DUP1 SWAP2 SUB SWAP1 REVERT JUMPDEST PUSH2 0x2710 DUP2 PUSH2 0x6C0 PUSH2 0x9A2 JUMP JUMPDEST PUSH2 0x6CA SWAP2 SWAP1 PUSH2 0x18FF JUMP JUMPDEST GT ISZERO PUSH2 0x70B JUMPI PUSH1 0x40 MLOAD PUSH32 0x8C379A000000000000000000000000000000000000000000000000000000000 DUP2 MSTORE PUSH1 0x4 ADD PUSH2 0x702 SWAP1 PUSH2 0x1794 JUMP JUMPDEST PUSH1 0x40 MLOAD DUP1 SWAP2 SUB SWAP1 REVERT JUMPDEST PUSH1 0x40 MLOAD DUP1 PUSH1 0x40 ADD PUSH1 0x40 MSTORE DUP1 DUP3 DUP2 MSTORE PUSH1 0x20 ADD PUSH1 0x1 ISZERO ISZERO DUP2 MSTORE POP PUSH1 0x66 PUSH1 0x0 DUP5 PUSH20 0xFFFFFFFFFFFFFFFFFFFFFFFFFFFFFFFFFFFFFFFF AND PUSH20 0xFFFFFFFFFFFFFFFFFFFFFFFFFFFFFFFFFFFFFFFF AND DUP2 MSTORE PUSH1 0x20 ADD SWAP1 DUP2 MSTORE PUSH1 0x20 ADD PUSH1 0x0 KECCAK256 PUSH1 0x0 DUP3 ADD MLOAD DUP2 PUSH1 0x0 ADD SSTORE PUSH1 0x20 DUP3 ADD MLOAD DUP2 PUSH1 0x1 ADD PUSH1 0x0 PUSH2 0x100 EXP DUP2 SLOAD DUP2 PUSH1 0xFF MUL NOT AND SWAP1 DUP4 ISZERO ISZERO MUL OR SWAP1 SSTORE POP SWAP1 POP POP PUSH1 0x65 DUP3 SWAP1 DUP1 PUSH1 0x1 DUP2 SLOAD ADD DUP1 DUP3 SSTORE DUP1 SWAP2 POP POP PUSH1 0x1 SWAP1 SUB SWAP1 PUSH1 0x0 MSTORE PUSH1 0x20 PUSH1 0x0 KECCAK256 ADD PUSH1 0x0 SWAP1 SWAP2 SWAP1 SWAP2 SWAP1 SWAP2 PUSH2 0x100 EXP DUP2 SLOAD DUP2 PUSH20 0xFFFFFFFFFFFFFFFFFFFFFFFFFFFFFFFFFFFFFFFF MUL NOT AND SWAP1 DUP4 PUSH20 0xFFFFFFFFFFFFFFFFFFFFFFFFFFFFFFFFFFFFFFFF AND MUL OR SWAP1 SSTORE POP POP POP JUMP JUMPDEST PUSH2 0x7FE PUSH2 0x1202 JUMP JUMPDEST PUSH20 0xFFFFFFFFFFFFFFFFFFFFFFFFFFFFFFFFFFFFFFFF AND PUSH2 0x81C PUSH2 0x87E JUMP JUMPDEST PUSH20 0xFFFFFFFFFFFFFFFFFFFFFFFFFFFFFFFFFFFFFFFF AND EQ PUSH2 0x872 JUMPI PUSH1 0x40 MLOAD PUSH32 0x8C379A000000000000000000000000000000000000000000000000000000000 DUP2 MSTORE PUSH1 0x4 ADD PUSH2 0x869 SWAP1 PUSH2 0x1814 JUMP JUMPDEST PUSH1 0x40 MLOAD DUP1 SWAP2 SUB SWAP1 REVERT JUMPDEST PUSH2 0x87C PUSH1 0x0 PUSH2 0x120A JUMP JUMPDEST JUMP JUMPDEST PUSH1 0x0 PUSH1 0x33 PUSH1 0x0 SWAP1 SLOAD SWAP1 PUSH2 0x100 EXP SWAP1 DIV PUSH20 0xFFFFFFFFFFFFFFFFFFFFFFFFFFFFFFFFFFFFFFFF AND SWAP1 POP SWAP1 JUMP JUMPDEST PUSH2 0x8B0 PUSH2 0x13BE JUMP JUMPDEST PUSH2 0x8B8 PUSH2 0x1202 JUMP JUMPDEST PUSH20 0xFFFFFFFFFFFFFFFFFFFFFFFFFFFFFFFFFFFFFFFF AND PUSH2 0x8D6 PUSH2 0x87E JUMP JUMPDEST PUSH20 0xFFFFFFFFFFFFFFFFFFFFFFFFFFFFFFFFFFFFFFFF AND EQ PUSH2 0x92C JUMPI PUSH1 0x40 MLOAD PUSH32 0x8C379A000000000000000000000000000000000000000000000000000000000 DUP2 MSTORE PUSH1 0x4 ADD PUSH2 0x923 SWAP1 PUSH2 0x1814 JUMP JUMPDEST PUSH1 0x40 MLOAD DUP1 SWAP2 SUB SWAP1 REVERT JUMPDEST PUSH1 0x66 PUSH1 0x0 DUP4 PUSH20 0xFFFFFFFFFFFFFFFFFFFFFFFFFFFFFFFFFFFFFFFF AND PUSH20 0xFFFFFFFFFFFFFFFFFFFFFFFFFFFFFFFFFFFFFFFF AND DUP2 MSTORE PUSH1 0x20 ADD SWAP1 DUP2 MSTORE PUSH1 0x20 ADD PUSH1 0x0 KECCAK256 PUSH1 0x40 MLOAD DUP1 PUSH1 0x40 ADD PUSH1 0x40 MSTORE SWAP1 DUP2 PUSH1 0x0 DUP3 ADD SLOAD DUP2 MSTORE PUSH1 0x20 ADD PUSH1 0x1 DUP3 ADD PUSH1 0x0 SWAP1 SLOAD SWAP1 PUSH2 0x100 EXP SWAP1 DIV PUSH1 0xFF AND ISZERO ISZERO ISZERO ISZERO DUP2 MSTORE POP POP SWAP1 POP SWAP2 SWAP1 POP JUMP JUMPDEST PUSH1 0x0 DUP1 PUSH1 0x0 SWAP1 POP PUSH1 0x0 JUMPDEST PUSH1 0x65 DUP1 SLOAD SWAP1 POP DUP2 LT ISZERO PUSH2 0xA9B JUMPI PUSH1 0x0 PUSH1 0x66 PUSH1 0x0 PUSH1 0x65 DUP5 DUP2 SLOAD DUP2 LT PUSH2 0x9D3 JUMPI PUSH2 0x9D2 PUSH2 0x1ACF JUMP JUMPDEST JUMPDEST SWAP1 PUSH1 0x0 MSTORE PUSH1 0x20 PUSH1 0x0 KECCAK256 ADD PUSH1 0x0 SWAP1 SLOAD SWAP1 PUSH2 0x100 EXP SWAP1 DIV PUSH20 0xFFFFFFFFFFFFFFFFFFFFFFFFFFFFFFFFFFFFFFFF AND PUSH20 0xFFFFFFFFFFFFFFFFFFFFFFFFFFFFFFFFFFFFFFFF AND PUSH20 0xFFFFFFFFFFFFFFFFFFFFFFFFFFFFFFFFFFFFFFFF AND DUP2 MSTORE PUSH1 0x20 ADD SWAP1 DUP2 MSTORE PUSH1 0x20 ADD PUSH1 0x0 KECCAK256 PUSH1 0x40 MLOAD DUP1 PUSH1 0x40 ADD PUSH1 0x40 MSTORE SWAP1 DUP2 PUSH1 0x0 DUP3 ADD SLOAD DUP2 MSTORE PUSH1 0x20 ADD PUSH1 0x1 DUP3 ADD PUSH1 0x0 SWAP1 SLOAD SWAP1 PUSH2 0x100 EXP SWAP1 DIV PUSH1 0xFF AND ISZERO ISZERO ISZERO ISZERO DUP2 MSTORE POP POP SWAP1 POP DUP1 PUSH1 0x20 ADD MLOAD ISZERO PUSH2 0xA87 JUMPI DUP1 PUSH1 0x0 ADD MLOAD DUP4 PUSH2 0xA84 SWAP2 SWAP1 PUSH2 0x18FF JUMP JUMPDEST SWAP3 POP JUMPDEST POP DUP1 DUP1 PUSH2 0xA93 SWAP1 PUSH2 0x1A28 JUMP JUMPDEST SWAP2 POP POP PUSH2 0x9AC JUMP JUMPDEST POP DUP1 SWAP2 POP POP SWAP1 JUMP JUMPDEST PUSH2 0xAAB PUSH2 0x1202 JUMP JUMPDEST PUSH20 0xFFFFFFFFFFFFFFFFFFFFFFFFFFFFFFFFFFFFFFFF AND PUSH2 0xAC9 PUSH2 0x87E JUMP JUMPDEST PUSH20 0xFFFFFFFFFFFFFFFFFFFFFFFFFFFFFFFFFFFFFFFF AND EQ PUSH2 0xB1F JUMPI PUSH1 0x40 MLOAD PUSH32 0x8C379A000000000000000000000000000000000000000000000000000000000 DUP2 MSTORE PUSH1 0x4 ADD PUSH2 0xB16 SWAP1 PUSH2 0x1814 JUMP JUMPDEST PUSH1 0x40 MLOAD DUP1 SWAP2 SUB SWAP1 REVERT JUMPDEST PUSH1 0x0 PUSH20 0xFFFFFFFFFFFFFFFFFFFFFFFFFFFFFFFFFFFFFFFF AND DUP3 PUSH20 0xFFFFFFFFFFFFFFFFFFFFFFFFFFFFFFFFFFFFFFFF AND EQ ISZERO PUSH2 0xB8F JUMPI PUSH1 0x40 MLOAD PUSH32 0x8C379A000000000000000000000000000000000000000000000000000000000 DUP2 MSTORE PUSH1 0x4 ADD PUSH2 0xB86 SWAP1 PUSH2 0x17F4 JUMP JUMPDEST PUSH1 0x40 MLOAD DUP1 SWAP2 SUB SWAP1 REVERT JUMPDEST PUSH1 0x66 PUSH1 0x0 DUP4 PUSH20 0xFFFFFFFFFFFFFFFFFFFFFFFFFFFFFFFFFFFFFFFF AND PUSH20 0xFFFFFFFFFFFFFFFFFFFFFFFFFFFFFFFFFFFFFFFF AND DUP2 MSTORE PUSH1 0x20 ADD SWAP1 DUP2 MSTORE PUSH1 0x20 ADD PUSH1 0x0 KECCAK256 PUSH1 0x1 ADD PUSH1 0x0 SWAP1 SLOAD SWAP1 PUSH2 0x100 EXP SWAP1 DIV PUSH1 0xFF AND PUSH2 0xC1E JUMPI PUSH1 0x40 MLOAD PUSH32 0x8C379A000000000000000000000000000000000000000000000000000000000 DUP2 MSTORE PUSH1 0x4 ADD PUSH2 0xC15 SWAP1 PUSH2 0x1834 JUMP JUMPDEST PUSH1 0x40 MLOAD DUP1 SWAP2 SUB SWAP1 REVERT JUMPDEST DUP1 PUSH1 0x66 PUSH1 0x0 DUP5 PUSH20 0xFFFFFFFFFFFFFFFFFFFFFFFFFFFFFFFFFFFFFFFF AND PUSH20 0xFFFFFFFFFFFFFFFFFFFFFFFFFFFFFFFFFFFFFFFF AND DUP2 MSTORE PUSH1 0x20 ADD SWAP1 DUP2 MSTORE PUSH1 0x20 ADD PUSH1 0x0 KECCAK256 PUSH1 0x0 ADD DUP2 SWAP1 SSTORE POP PUSH2 0x2710 PUSH2 0xC70 PUSH2 0x9A2 JUMP JUMPDEST GT ISZERO PUSH2 0xCB1 JUMPI PUSH1 0x40 MLOAD PUSH32 0x8C379A000000000000000000000000000000000000000000000000000000000 DUP2 MSTORE PUSH1 0x4 ADD PUSH2 0xCA8 SWAP1 PUSH2 0x1794 JUMP JUMPDEST PUSH1 0x40 MLOAD DUP1 SWAP2 SUB SWAP1 REVERT JUMPDEST POP POP JUMP JUMPDEST PUSH2 0xCBD PUSH2 0x13BE JUMP JUMPDEST PUSH1 0x66 PUSH1 0x0 PUSH2 0xCC9 PUSH2 0x1202 JUMP JUMPDEST PUSH20 0xFFFFFFFFFFFFFFFFFFFFFFFFFFFFFFFFFFFFFFFF AND PUSH20 0xFFFFFFFFFFFFFFFFFFFFFFFFFFFFFFFFFFFFFFFF AND DUP2 MSTORE PUSH1 0x20 ADD SWAP1 DUP2 MSTORE PUSH1 0x20 ADD PUSH1 0x0 KECCAK256 PUSH1 0x40 MLOAD DUP1 PUSH1 0x40 ADD PUSH1 0x40 MSTORE SWAP1 DUP2 PUSH1 0x0 DUP3 ADD SLOAD DUP2 MSTORE PUSH1 0x20 ADD PUSH1 0x1 DUP3 ADD PUSH1 0x0 SWAP1 SLOAD SWAP1 PUSH2 0x100 EXP SWAP1 DIV PUSH1 0xFF AND ISZERO ISZERO ISZERO ISZERO DUP2 MSTORE POP POP SWAP1 POP SWAP1 JUMP JUMPDEST PUSH2 0xD40 PUSH2 0x1202 JUMP JUMPDEST PUSH20 0xFFFFFFFFFFFFFFFFFFFFFFFFFFFFFFFFFFFFFFFF AND PUSH2 0xD5E PUSH2 0x87E JUMP JUMPDEST PUSH20 0xFFFFFFFFFFFFFFFFFFFFFFFFFFFFFFFFFFFFFFFF AND EQ PUSH2 0xDB4 JUMPI PUSH1 0x40 MLOAD PUSH32 0x8C379A000000000000000000000000000000000000000000000000000000000 DUP2 MSTORE PUSH1 0x4 ADD PUSH2 0xDAB SWAP1 PUSH2 0x1814 JUMP JUMPDEST PUSH1 0x40 MLOAD DUP1 SWAP2 SUB SWAP1 REVERT JUMPDEST PUSH1 0x0 PUSH20 0xFFFFFFFFFFFFFFFFFFFFFFFFFFFFFFFFFFFFFFFF AND DUP2 PUSH20 0xFFFFFFFFFFFFFFFFFFFFFFFFFFFFFFFFFFFFFFFF AND EQ ISZERO PUSH2 0xE24 JUMPI PUSH1 0x40 MLOAD PUSH32 0x8C379A000000000000000000000000000000000000000000000000000000000 DUP2 MSTORE PUSH1 0x4 ADD PUSH2 0xE1B SWAP1 PUSH2 0x17F4 JUMP JUMPDEST PUSH1 0x40 MLOAD DUP1 SWAP2 SUB SWAP1 REVERT JUMPDEST PUSH1 0x66 PUSH1 0x0 DUP3 PUSH20 0xFFFFFFFFFFFFFFFFFFFFFFFFFFFFFFFFFFFFFFFF AND PUSH20 0xFFFFFFFFFFFFFFFFFFFFFFFFFFFFFFFFFFFFFFFF AND DUP2 MSTORE PUSH1 0x20 ADD SWAP1 DUP2 MSTORE PUSH1 0x20 ADD PUSH1 0x0 KECCAK256 PUSH1 0x1 ADD PUSH1 0x0 SWAP1 SLOAD SWAP1 PUSH2 0x100 EXP SWAP1 DIV PUSH1 0xFF AND PUSH2 0xEB3 JUMPI PUSH1 0x40 MLOAD PUSH32 0x8C379A000000000000000000000000000000000000000000000000000000000 DUP2 MSTORE PUSH1 0x4 ADD PUSH2 0xEAA SWAP1 PUSH2 0x1834 JUMP JUMPDEST PUSH1 0x40 MLOAD DUP1 SWAP2 SUB SWAP1 REVERT JUMPDEST PUSH1 0x66 PUSH1 0x0 DUP3 PUSH20 0xFFFFFFFFFFFFFFFFFFFFFFFFFFFFFFFFFFFFFFFF AND PUSH20 0xFFFFFFFFFFFFFFFFFFFFFFFFFFFFFFFFFFFFFFFF AND DUP2 MSTORE PUSH1 0x20 ADD SWAP1 DUP2 MSTORE PUSH1 0x20 ADD PUSH1 0x0 KECCAK256 PUSH1 0x0 DUP1 DUP3 ADD PUSH1 0x0 SWAP1 SSTORE PUSH1 0x1 DUP3 ADD PUSH1 0x0 PUSH2 0x100 EXP DUP2 SLOAD SWAP1 PUSH1 0xFF MUL NOT AND SWAP1 SSTORE POP POP POP JUMP JUMPDEST PUSH2 0xF1C PUSH2 0x1202 JUMP JUMPDEST PUSH20 0xFFFFFFFFFFFFFFFFFFFFFFFFFFFFFFFFFFFFFFFF AND PUSH2 0xF3A PUSH2 0x87E JUMP JUMPDEST PUSH20 0xFFFFFFFFFFFFFFFFFFFFFFFFFFFFFFFFFFFFFFFF AND EQ PUSH2 0xF90 JUMPI PUSH1 0x40 MLOAD PUSH32 0x8C379A000000000000000000000000000000000000000000000000000000000 DUP2 MSTORE PUSH1 0x4 ADD PUSH2 0xF87 SWAP1 PUSH2 0x1814 JUMP JUMPDEST PUSH1 0x40 MLOAD DUP1 SWAP2 SUB SWAP1 REVERT JUMPDEST PUSH1 0x0 PUSH20 0xFFFFFFFFFFFFFFFFFFFFFFFFFFFFFFFFFFFFFFFF AND DUP2 PUSH20 0xFFFFFFFFFFFFFFFFFFFFFFFFFFFFFFFFFFFFFFFF AND EQ ISZERO PUSH2 0x1000 JUMPI PUSH1 0x40 MLOAD PUSH32 0x8C379A000000000000000000000000000000000000000000000000000000000 DUP2 MSTORE PUSH1 0x4 ADD PUSH2 0xFF7 SWAP1 PUSH2 0x1734 JUMP JUMPDEST PUSH1 0x40 MLOAD DUP1 SWAP2 SUB SWAP1 REVERT JUMPDEST PUSH2 0x1009 DUP2 PUSH2 0x120A JUMP JUMPDEST POP JUMP JUMPDEST PUSH1 0x60 PUSH2 0x1016 PUSH2 0x1202 JUMP JUMPDEST PUSH20 0xFFFFFFFFFFFFFFFFFFFFFFFFFFFFFFFFFFFFFFFF AND PUSH2 0x1034 PUSH2 0x87E JUMP JUMPDEST PUSH20 0xFFFFFFFFFFFFFFFFFFFFFFFFFFFFFFFFFFFFFFFF AND EQ PUSH2 0x108A JUMPI PUSH1 0x40 MLOAD PUSH32 0x8C379A000000000000000000000000000000000000000000000000000000000 DUP2 MSTORE PUSH1 0x4 ADD PUSH2 0x1081 SWAP1 PUSH2 0x1814 JUMP JUMPDEST PUSH1 0x40 MLOAD DUP1 SWAP2 SUB SWAP1 REVERT JUMPDEST PUSH1 0x65 DUP1 SLOAD DUP1 PUSH1 0x20 MUL PUSH1 0x20 ADD PUSH1 0x40 MLOAD SWAP1 DUP2 ADD PUSH1 0x40 MSTORE DUP1 SWAP3 SWAP2 SWAP1 DUP2 DUP2 MSTORE PUSH1 0x20 ADD DUP3 DUP1 SLOAD DUP1 ISZERO PUSH2 0x110C JUMPI PUSH1 0x20 MUL DUP3 ADD SWAP2 SWAP1 PUSH1 0x0 MSTORE PUSH1 0x20 PUSH1 0x0 KECCAK256 SWAP1 JUMPDEST DUP2 PUSH1 0x0 SWAP1 SLOAD SWAP1 PUSH2 0x100 EXP SWAP1 DIV PUSH20 0xFFFFFFFFFFFFFFFFFFFFFFFFFFFFFFFFFFFFFFFF AND PUSH20 0xFFFFFFFFFFFFFFFFFFFFFFFFFFFFFFFFFFFFFFFF AND DUP2 MSTORE PUSH1 0x20 ADD SWAP1 PUSH1 0x1 ADD SWAP1 DUP1 DUP4 GT PUSH2 0x10C2 JUMPI JUMPDEST POP POP POP POP POP SWAP1 POP SWAP1 JUMP JUMPDEST PUSH1 0x0 PUSH1 0x1 SWAP1 SLOAD SWAP1 PUSH2 0x100 EXP SWAP1 DIV PUSH1 0xFF AND PUSH2 0x113E JUMPI PUSH1 0x0 DUP1 SLOAD SWAP1 PUSH2 0x100 EXP SWAP1 DIV PUSH1 0xFF AND ISZERO PUSH2 0x1147 JUMP JUMPDEST PUSH2 0x1146 PUSH2 0x12D0 JUMP JUMPDEST JUMPDEST PUSH2 0x1186 JUMPI PUSH1 0x40 MLOAD PUSH32 0x8C379A000000000000000000000000000000000000000000000000000000000 DUP2 MSTORE PUSH1 0x4 ADD PUSH2 0x117D SWAP1 PUSH2 0x17D4 JUMP JUMPDEST PUSH1 0x40 MLOAD DUP1 SWAP2 SUB SWAP1 REVERT JUMPDEST PUSH1 0x0 DUP1 PUSH1 0x1 SWAP1 SLOAD SWAP1 PUSH2 0x100 EXP SWAP1 DIV PUSH1 0xFF AND ISZERO SWAP1 POP DUP1 ISZERO PUSH2 0x11D6 JUMPI PUSH1 0x1 PUSH1 0x0 PUSH1 0x1 PUSH2 0x100 EXP DUP2 SLOAD DUP2 PUSH1 0xFF MUL NOT AND SWAP1 DUP4 ISZERO ISZERO MUL OR SWAP1 SSTORE POP PUSH1 0x1 PUSH1 0x0 DUP1 PUSH2 0x100 EXP DUP2 SLOAD DUP2 PUSH1 0xFF MUL NOT AND SWAP1 DUP4 ISZERO ISZERO MUL OR SWAP1 SSTORE POP JUMPDEST PUSH2 0x11DE PUSH2 0x12E1 JUMP JUMPDEST DUP1 ISZERO PUSH2 0x11FF JUMPI PUSH1 0x0 DUP1 PUSH1 0x1 PUSH2 0x100 EXP DUP2 SLOAD DUP2 PUSH1 0xFF MUL NOT AND SWAP1 DUP4 ISZERO ISZERO MUL OR SWAP1 SSTORE POP JUMPDEST POP JUMP JUMPDEST PUSH1 0x0 CALLER SWAP1 POP SWAP1 JUMP JUMPDEST PUSH1 0x0 PUSH1 0x33 PUSH1 0x0 SWAP1 SLOAD SWAP1 PUSH2 0x100 EXP SWAP1 DIV PUSH20 0xFFFFFFFFFFFFFFFFFFFFFFFFFFFFFFFFFFFFFFFF AND SWAP1 POP DUP2 PUSH1 0x33 PUSH1 0x0 PUSH2 0x100 EXP DUP2 SLOAD DUP2 PUSH20 0xFFFFFFFFFFFFFFFFFFFFFFFFFFFFFFFFFFFFFFFF MUL NOT AND SWAP1 DUP4 PUSH20 0xFFFFFFFFFFFFFFFFFFFFFFFFFFFFFFFFFFFFFFFF AND MUL OR SWAP1 SSTORE POP DUP2 PUSH20 0xFFFFFFFFFFFFFFFFFFFFFFFFFFFFFFFFFFFFFFFF AND DUP2 PUSH20 0xFFFFFFFFFFFFFFFFFFFFFFFFFFFFFFFFFFFFFFFF AND PUSH32 0x8BE0079C531659141344CD1FD0A4F28419497F9722A3DAAFE3B4186F6B6457E0 PUSH1 0x40 MLOAD PUSH1 0x40 MLOAD DUP1 SWAP2 SUB SWAP1 LOG3 POP POP JUMP JUMPDEST PUSH1 0x0 PUSH2 0x12DB ADDRESS PUSH2 0x133A JUMP JUMPDEST ISZERO SWAP1 POP SWAP1 JUMP JUMPDEST PUSH1 0x0 PUSH1 0x1 SWAP1 SLOAD SWAP1 PUSH2 0x100 EXP SWAP1 DIV PUSH1 0xFF AND PUSH2 0x1330 JUMPI PUSH1 0x40 MLOAD PUSH32 0x8C379A000000000000000000000000000000000000000000000000000000000 DUP2 MSTORE PUSH1 0x4 ADD PUSH2 0x1327 SWAP1 PUSH2 0x1854 JUMP JUMPDEST PUSH1 0x40 MLOAD DUP1 SWAP2 SUB SWAP1 REVERT JUMPDEST PUSH2 0x1338 PUSH2 0x135D JUMP JUMPDEST JUMP JUMPDEST PUSH1 0x0 DUP1 DUP3 PUSH20 0xFFFFFFFFFFFFFFFFFFFFFFFFFFFFFFFFFFFFFFFF AND EXTCODESIZE GT SWAP1 POP SWAP2 SWAP1 POP JUMP JUMPDEST PUSH1 0x0 PUSH1 0x1 SWAP1 SLOAD SWAP1 PUSH2 0x100 EXP SWAP1 DIV PUSH1 0xFF AND PUSH2 0x13AC JUMPI PUSH1 0x40 MLOAD PUSH32 0x8C379A000000000000000000000000000000000000000000000000000000000 DUP2 MSTORE PUSH1 0x4 ADD PUSH2 0x13A3 SWAP1 PUSH2 0x1854 JUMP JUMPDEST PUSH1 0x40 MLOAD DUP1 SWAP2 SUB SWAP1 REVERT JUMPDEST PUSH2 0x13BC PUSH2 0x13B7 PUSH2 0x1202 JUMP JUMPDEST PUSH2 0x120A JUMP JUMPDEST JUMP JUMPDEST PUSH1 0x40 MLOAD DUP1 PUSH1 0x40 ADD PUSH1 0x40 MSTORE DUP1 PUSH1 0x0 DUP2 MSTORE PUSH1 0x20 ADD PUSH1 0x0 ISZERO ISZERO DUP2 MSTORE POP SWAP1 JUMP JUMPDEST PUSH1 0x0 DUP2 CALLDATALOAD SWAP1 POP PUSH2 0x13E9 DUP2 PUSH2 0x1D5E JUMP JUMPDEST SWAP3 SWAP2 POP POP JUMP JUMPDEST PUSH1 0x0 DUP2 CALLDATALOAD SWAP1 POP PUSH2 0x13FE DUP2 PUSH2 0x1D75 JUMP JUMPDEST SWAP3 SWAP2 POP POP JUMP JUMPDEST PUSH1 0x0 PUSH1 0x20 DUP3 DUP5 SUB SLT ISZERO PUSH2 0x141A JUMPI PUSH2 0x1419 PUSH2 0x1AFE JUMP JUMPDEST JUMPDEST PUSH1 0x0 PUSH2 0x1428 DUP5 DUP3 DUP6 ADD PUSH2 0x13DA JUMP JUMPDEST SWAP2 POP POP SWAP3 SWAP2 POP POP JUMP JUMPDEST PUSH1 0x0 DUP1 PUSH1 0x40 DUP4 DUP6 SUB SLT ISZERO PUSH2 0x1448 JUMPI PUSH2 0x1447 PUSH2 0x1AFE JUMP JUMPDEST JUMPDEST PUSH1 0x0 PUSH2 0x1456 DUP6 DUP3 DUP7 ADD PUSH2 0x13DA JUMP JUMPDEST SWAP3 POP POP PUSH1 0x20 PUSH2 0x1467 DUP6 DUP3 DUP7 ADD PUSH2 0x13EF JUMP JUMPDEST SWAP2 POP POP SWAP3 POP SWAP3 SWAP1 POP JUMP JUMPDEST PUSH1 0x0 PUSH2 0x147D DUP4 DUP4 PUSH2 0x1489 JUMP JUMPDEST PUSH1 0x20 DUP4 ADD SWAP1 POP SWAP3 SWAP2 POP POP JUMP JUMPDEST PUSH2 0x1492 DUP2 PUSH2 0x19E0 JUMP JUMPDEST DUP3 MSTORE POP POP JUMP JUMPDEST PUSH2 0x14A1 DUP2 PUSH2 0x19E0 JUMP JUMPDEST DUP3 MSTORE POP POP JUMP JUMPDEST PUSH1 0x0 PUSH2 0x14B2 DUP3 PUSH2 0x18BA JUMP JUMPDEST PUSH2 0x14BC DUP2 DUP6 PUSH2 0x18D2 JUMP JUMPDEST SWAP4 POP PUSH2 0x14C7 DUP4 PUSH2 0x18AA JUMP JUMPDEST DUP1 PUSH1 0x0 JUMPDEST DUP4 DUP2 LT ISZERO PUSH2 0x14F8 JUMPI DUP2 MLOAD PUSH2 0x14DF DUP9 DUP3 PUSH2 0x1471 JUMP JUMPDEST SWAP8 POP PUSH2 0x14EA DUP4 PUSH2 0x18C5 JUMP JUMPDEST SWAP3 POP POP PUSH1 0x1 DUP2 ADD SWAP1 POP PUSH2 0x14CB JUMP JUMPDEST POP DUP6 SWAP4 POP POP POP POP SWAP3 SWAP2 POP POP JUMP JUMPDEST PUSH2 0x150E DUP2 PUSH2 0x19F2 JUMP JUMPDEST DUP3 MSTORE POP POP JUMP JUMPDEST PUSH1 0x0 PUSH2 0x1521 PUSH1 0x26 DUP4 PUSH2 0x18EE JUMP JUMPDEST SWAP2 POP PUSH2 0x152C DUP3 PUSH2 0x1B03 JUMP JUMPDEST PUSH1 0x40 DUP3 ADD SWAP1 POP SWAP2 SWAP1 POP JUMP JUMPDEST PUSH1 0x0 PUSH2 0x1544 PUSH1 0x16 DUP4 PUSH2 0x18EE JUMP JUMPDEST SWAP2 POP PUSH2 0x154F DUP3 PUSH2 0x1B52 JUMP JUMPDEST PUSH1 0x20 DUP3 ADD SWAP1 POP SWAP2 SWAP1 POP JUMP JUMPDEST PUSH1 0x0 PUSH2 0x1567 PUSH1 0x14 DUP4 PUSH2 0x18EE JUMP JUMPDEST SWAP2 POP PUSH2 0x1572 DUP3 PUSH2 0x1B7B JUMP JUMPDEST PUSH1 0x20 DUP3 ADD SWAP1 POP SWAP2 SWAP1 POP JUMP JUMPDEST PUSH1 0x0 PUSH2 0x158A PUSH1 0x2A DUP4 PUSH2 0x18EE JUMP JUMPDEST SWAP2 POP PUSH2 0x1595 DUP3 PUSH2 0x1BA4 JUMP JUMPDEST PUSH1 0x40 DUP3 ADD SWAP1 POP SWAP2 SWAP1 POP JUMP JUMPDEST PUSH1 0x0 PUSH2 0x15AD PUSH1 0x1B DUP4 PUSH2 0x18EE JUMP JUMPDEST SWAP2 POP PUSH2 0x15B8 DUP3 PUSH2 0x1BF3 JUMP JUMPDEST PUSH1 0x20 DUP3 ADD SWAP1 POP SWAP2 SWAP1 POP JUMP JUMPDEST PUSH1 0x0 PUSH2 0x15D0 PUSH1 0x2E DUP4 PUSH2 0x18EE JUMP JUMPDEST SWAP2 POP PUSH2 0x15DB DUP3 PUSH2 0x1C1C JUMP JUMPDEST PUSH1 0x40 DUP3 ADD SWAP1 POP SWAP2 SWAP1 POP JUMP JUMPDEST PUSH1 0x0 PUSH2 0x15F3 PUSH1 0x27 DUP4 PUSH2 0x18EE JUMP JUMPDEST SWAP2 POP PUSH2 0x15FE DUP3 PUSH2 0x1C6B JUMP JUMPDEST PUSH1 0x40 DUP3 ADD SWAP1 POP SWAP2 SWAP1 POP JUMP JUMPDEST PUSH1 0x0 PUSH2 0x1616 PUSH1 0x20 DUP4 PUSH2 0x18EE JUMP JUMPDEST SWAP2 POP PUSH2 0x1621 DUP3 PUSH2 0x1CBA JUMP JUMPDEST PUSH1 0x20 DUP3 ADD SWAP1 POP SWAP2 SWAP1 POP JUMP JUMPDEST PUSH1 0x0 PUSH2 0x1639 PUSH1 0x0 DUP4 PUSH2 0x18E3 JUMP JUMPDEST SWAP2 POP PUSH2 0x1644 DUP3 PUSH2 0x1CE3 JUMP JUMPDEST PUSH1 0x0 DUP3 ADD SWAP1 POP SWAP2 SWAP1 POP JUMP JUMPDEST PUSH1 0x0 PUSH2 0x165C PUSH1 0x1A DUP4 PUSH2 0x18EE JUMP JUMPDEST SWAP2 POP PUSH2 0x1667 DUP3 PUSH2 0x1CE6 JUMP JUMPDEST PUSH1 0x20 DUP3 ADD SWAP1 POP SWAP2 SWAP1 POP JUMP JUMPDEST PUSH1 0x0 PUSH2 0x167F PUSH1 0x2B DUP4 PUSH2 0x18EE JUMP JUMPDEST SWAP2 POP PUSH2 0x168A DUP3 PUSH2 0x1D0F JUMP JUMPDEST PUSH1 0x40 DUP3 ADD SWAP1 POP SWAP2 SWAP1 POP JUMP JUMPDEST PUSH1 0x40 DUP3 ADD PUSH1 0x0 DUP3 ADD MLOAD PUSH2 0x16AB PUSH1 0x0 DUP6 ADD DUP3 PUSH2 0x16C4 JUMP JUMPDEST POP PUSH1 0x20 DUP3 ADD MLOAD PUSH2 0x16BE PUSH1 0x20 DUP6 ADD DUP3 PUSH2 0x1505 JUMP JUMPDEST POP POP POP POP JUMP JUMPDEST PUSH2 0x16CD DUP2 PUSH2 0x1A1E JUMP JUMPDEST DUP3 MSTORE POP POP JUMP JUMPDEST PUSH2 0x16DC DUP2 PUSH2 0x1A1E JUMP JUMPDEST DUP3 MSTORE POP POP JUMP JUMPDEST PUSH1 0x0 PUSH2 0x16ED DUP3 PUSH2 0x162C JUMP JUMPDEST SWAP2 POP DUP2 SWAP1 POP SWAP2 SWAP1 POP JUMP JUMPDEST PUSH1 0x0 PUSH1 0x20 DUP3 ADD SWAP1 POP PUSH2 0x170C PUSH1 0x0 DUP4 ADD DUP5 PUSH2 0x1498 JUMP JUMPDEST SWAP3 SWAP2 POP POP JUMP JUMPDEST PUSH1 0x0 PUSH1 0x20 DUP3 ADD SWAP1 POP DUP2 DUP2 SUB PUSH1 0x0 DUP4 ADD MSTORE PUSH2 0x172C DUP2 DUP5 PUSH2 0x14A7 JUMP JUMPDEST SWAP1 POP SWAP3 SWAP2 POP POP JUMP JUMPDEST PUSH1 0x0 PUSH1 0x20 DUP3 ADD SWAP1 POP DUP2 DUP2 SUB PUSH1 0x0 DUP4 ADD MSTORE PUSH2 0x174D DUP2 PUSH2 0x1514 JUMP JUMPDEST SWAP1 POP SWAP2 SWAP1 POP JUMP JUMPDEST PUSH1 0x0 PUSH1 0x20 DUP3 ADD SWAP1 POP DUP2 DUP2 SUB PUSH1 0x0 DUP4 ADD MSTORE PUSH2 0x176D DUP2 PUSH2 0x1537 JUMP JUMPDEST SWAP1 POP SWAP2 SWAP1 POP JUMP JUMPDEST PUSH1 0x0 PUSH1 0x20 DUP3 ADD SWAP1 POP DUP2 DUP2 SUB PUSH1 0x0 DUP4 ADD MSTORE PUSH2 0x178D DUP2 PUSH2 0x155A JUMP JUMPDEST SWAP1 POP SWAP2 SWAP1 POP JUMP JUMPDEST PUSH1 0x0 PUSH1 0x20 DUP3 ADD SWAP1 POP DUP2 DUP2 SUB PUSH1 0x0 DUP4 ADD MSTORE PUSH2 0x17AD DUP2 PUSH2 0x157D JUMP JUMPDEST SWAP1 POP SWAP2 SWAP1 POP JUMP JUMPDEST PUSH1 0x0 PUSH1 0x20 DUP3 ADD SWAP1 POP DUP2 DUP2 SUB PUSH1 0x0 DUP4 ADD MSTORE PUSH2 0x17CD DUP2 PUSH2 0x15A0 JUMP JUMPDEST SWAP1 POP SWAP2 SWAP1 POP JUMP JUMPDEST PUSH1 0x0 PUSH1 0x20 DUP3 ADD SWAP1 POP DUP2 DUP2 SUB PUSH1 0x0 DUP4 ADD MSTORE PUSH2 0x17ED DUP2 PUSH2 0x15C3 JUMP JUMPDEST SWAP1 POP SWAP2 SWAP1 POP JUMP JUMPDEST PUSH1 0x0 PUSH1 0x20 DUP3 ADD SWAP1 POP DUP2 DUP2 SUB PUSH1 0x0 DUP4 ADD MSTORE PUSH2 0x180D DUP2 PUSH2 0x15E6 JUMP JUMPDEST SWAP1 POP SWAP2 SWAP1 POP JUMP JUMPDEST PUSH1 0x0 PUSH1 0x20 DUP3 ADD SWAP1 POP DUP2 DUP2 SUB PUSH1 0x0 DUP4 ADD MSTORE PUSH2 0x182D DUP2 PUSH2 0x1609 JUMP JUMPDEST SWAP1 POP SWAP2 SWAP1 POP JUMP JUMPDEST PUSH1 0x0 PUSH1 0x20 DUP3 ADD SWAP1 POP DUP2 DUP2 SUB PUSH1 0x0 DUP4 ADD MSTORE PUSH2 0x184D DUP2 PUSH2 0x164F JUMP JUMPDEST SWAP1 POP SWAP2 SWAP1 POP JUMP JUMPDEST PUSH1 0x0 PUSH1 0x20 DUP3 ADD SWAP1 POP DUP2 DUP2 SUB PUSH1 0x0 DUP4 ADD MSTORE PUSH2 0x186D DUP2 PUSH2 0x1672 JUMP JUMPDEST SWAP1 POP SWAP2 SWAP1 POP JUMP JUMPDEST PUSH1 0x0 PUSH1 0x40 DUP3 ADD SWAP1 POP PUSH2 0x1889 PUSH1 0x0 DUP4 ADD DUP5 PUSH2 0x1695 JUMP JUMPDEST SWAP3 SWAP2 POP POP JUMP JUMPDEST PUSH1 0x0 PUSH1 0x20 DUP3 ADD SWAP1 POP PUSH2 0x18A4 PUSH1 0x0 DUP4 ADD DUP5 PUSH2 0x16D3 JUMP JUMPDEST SWAP3 SWAP2 POP POP JUMP JUMPDEST PUSH1 0x0 DUP2 SWAP1 POP PUSH1 0x20 DUP3 ADD SWAP1 POP SWAP2 SWAP1 POP JUMP JUMPDEST PUSH1 0x0 DUP2 MLOAD SWAP1 POP SWAP2 SWAP1 POP JUMP JUMPDEST PUSH1 0x0 PUSH1 0x20 DUP3 ADD SWAP1 POP SWAP2 SWAP1 POP JUMP JUMPDEST PUSH1 0x0 DUP3 DUP3 MSTORE PUSH1 0x20 DUP3 ADD SWAP1 POP SWAP3 SWAP2 POP POP JUMP JUMPDEST PUSH1 0x0 DUP2 SWAP1 POP SWAP3 SWAP2 POP POP JUMP JUMPDEST PUSH1 0x0 DUP3 DUP3 MSTORE PUSH1 0x20 DUP3 ADD SWAP1 POP SWAP3 SWAP2 POP POP JUMP JUMPDEST PUSH1 0x0 PUSH2 0x190A DUP3 PUSH2 0x1A1E JUMP JUMPDEST SWAP2 POP PUSH2 0x1915 DUP4 PUSH2 0x1A1E JUMP JUMPDEST SWAP3 POP DUP3 PUSH32 0xFFFFFFFFFFFFFFFFFFFFFFFFFFFFFFFFFFFFFFFFFFFFFFFFFFFFFFFFFFFFFFFF SUB DUP3 GT ISZERO PUSH2 0x194A JUMPI PUSH2 0x1949 PUSH2 0x1A71 JUMP JUMPDEST JUMPDEST DUP3 DUP3 ADD SWAP1 POP SWAP3 SWAP2 POP POP JUMP JUMPDEST PUSH1 0x0 PUSH2 0x1960 DUP3 PUSH2 0x1A1E JUMP JUMPDEST SWAP2 POP PUSH2 0x196B DUP4 PUSH2 0x1A1E JUMP JUMPDEST SWAP3 POP DUP3 PUSH2 0x197B JUMPI PUSH2 0x197A PUSH2 0x1AA0 JUMP JUMPDEST JUMPDEST DUP3 DUP3 DIV SWAP1 POP SWAP3 SWAP2 POP POP JUMP JUMPDEST PUSH1 0x0 PUSH2 0x1991 DUP3 PUSH2 0x1A1E JUMP JUMPDEST SWAP2 POP PUSH2 0x199C DUP4 PUSH2 0x1A1E JUMP JUMPDEST SWAP3 POP DUP2 PUSH32 0xFFFFFFFFFFFFFFFFFFFFFFFFFFFFFFFFFFFFFFFFFFFFFFFFFFFFFFFFFFFFFFFF DIV DUP4 GT DUP3 ISZERO ISZERO AND ISZERO PUSH2 0x19D5 JUMPI PUSH2 0x19D4 PUSH2 0x1A71 JUMP JUMPDEST JUMPDEST DUP3 DUP3 MUL SWAP1 POP SWAP3 SWAP2 POP POP JUMP JUMPDEST PUSH1 0x0 PUSH2 0x19EB DUP3 PUSH2 0x19FE JUMP JUMPDEST SWAP1 POP SWAP2 SWAP1 POP JUMP JUMPDEST PUSH1 0x0 DUP2 ISZERO ISZERO SWAP1 POP SWAP2 SWAP1 POP JUMP JUMPDEST PUSH1 0x0 PUSH20 0xFFFFFFFFFFFFFFFFFFFFFFFFFFFFFFFFFFFFFFFF DUP3 AND SWAP1 POP SWAP2 SWAP1 POP JUMP JUMPDEST PUSH1 0x0 DUP2 SWAP1 POP SWAP2 SWAP1 POP JUMP JUMPDEST PUSH1 0x0 PUSH2 0x1A33 DUP3 PUSH2 0x1A1E JUMP JUMPDEST SWAP2 POP PUSH32 0xFFFFFFFFFFFFFFFFFFFFFFFFFFFFFFFFFFFFFFFFFFFFFFFFFFFFFFFFFFFFFFFF DUP3 EQ ISZERO PUSH2 0x1A66 JUMPI PUSH2 0x1A65 PUSH2 0x1A71 JUMP JUMPDEST JUMPDEST PUSH1 0x1 DUP3 ADD SWAP1 POP SWAP2 SWAP1 POP JUMP JUMPDEST PUSH32 0x4E487B7100000000000000000000000000000000000000000000000000000000 PUSH1 0x0 MSTORE PUSH1 0x11 PUSH1 0x4 MSTORE PUSH1 0x24 PUSH1 0x0 REVERT JUMPDEST PUSH32 0x4E487B7100000000000000000000000000000000000000000000000000000000 PUSH1 0x0 MSTORE PUSH1 0x12 PUSH1 0x4 MSTORE PUSH1 0x24 PUSH1 0x0 REVERT JUMPDEST PUSH32 0x4E487B7100000000000000000000000000000000000000000000000000000000 PUSH1 0x0 MSTORE PUSH1 0x32 PUSH1 0x4 MSTORE PUSH1 0x24 PUSH1 0x0 REVERT JUMPDEST PUSH1 0x0 DUP1 REVERT JUMPDEST PUSH32 0x4F776E61626C653A206E6577206F776E657220697320746865207A65726F2061 PUSH1 0x0 DUP3 ADD MSTORE PUSH32 0x6464726573730000000000000000000000000000000000000000000000000000 PUSH1 0x20 DUP3 ADD MSTORE POP JUMP JUMPDEST PUSH32 0x6E6F2062616C616E636520746F20776974686472617700000000000000000000 PUSH1 0x0 DUP3 ADD MSTORE POP JUMP JUMPDEST PUSH32 0x4661696C656420746F2073656E64204574686572000000000000000000000000 PUSH1 0x0 DUP3 ADD MSTORE POP JUMP JUMPDEST PUSH32 0x746F74616C50657263656E746167652077696C6C206265206772656174657220 PUSH1 0x0 DUP3 ADD MSTORE PUSH32 0x7468616E20313030303000000000000000000000000000000000000000000000 PUSH1 0x20 DUP3 ADD MSTORE POP JUMP JUMPDEST PUSH32 0x436F6C6C61626F7261746F7220616C7265616479206578697374730000000000 PUSH1 0x0 DUP3 ADD MSTORE POP JUMP JUMPDEST PUSH32 0x496E697469616C697A61626C653A20636F6E747261637420697320616C726561 PUSH1 0x0 DUP3 ADD MSTORE PUSH32 0x647920696E697469616C697A6564000000000000000000000000000000000000 PUSH1 0x20 DUP3 ADD MSTORE POP JUMP JUMPDEST PUSH32 0x436F6C6C61626F7261746F722063616E6E6F7420626520616E20656D70747920 PUSH1 0x0 DUP3 ADD MSTORE PUSH32 0x6164647265737300000000000000000000000000000000000000000000000000 PUSH1 0x20 DUP3 ADD MSTORE POP JUMP JUMPDEST PUSH32 0x4F776E61626C653A2063616C6C6572206973206E6F7420746865206F776E6572 PUSH1 0x0 DUP3 ADD MSTORE POP JUMP JUMPDEST POP JUMP JUMPDEST PUSH32 0x436F6C6C61626F7261746F72206973206E6F7420657869737473000000000000 PUSH1 0x0 DUP3 ADD MSTORE POP JUMP JUMPDEST PUSH32 0x496E697469616C697A61626C653A20636F6E7472616374206973206E6F742069 PUSH1 0x0 DUP3 ADD MSTORE PUSH32 0x6E697469616C697A696E67000000000000000000000000000000000000000000 PUSH1 0x20 DUP3 ADD MSTORE POP JUMP JUMPDEST PUSH2 0x1D67 DUP2 PUSH2 0x19E0 JUMP JUMPDEST DUP2 EQ PUSH2 0x1D72 JUMPI PUSH1 0x0 DUP1 REVERT JUMPDEST POP JUMP JUMPDEST PUSH2 0x1D7E DUP2 PUSH2 0x1A1E JUMP JUMPDEST DUP2 EQ PUSH2 0x1D89 JUMPI PUSH1 0x0 DUP1 REVERT JUMPDEST POP JUMP INVALID LOG2 PUSH5 0x6970667358 0x22 SLT KECCAK256 0xC2 GASLIMIT CODESIZE 0x5F LOG0 SLOAD LOG0 0x26 POP 0xB7 0x1F 0x1E 0xAA DUP16 0xB7 0x1E MULMOD GT SWAP11 PUSH32 0x2DB0D0EC62D5E02F26B4457B64736F6C63430008070033000000000000000000 "
				},
				"gasEstimates": {
					"creation": {
						"codeDepositCost": "1523600",
						"executionCost": "1596",
						"totalCost": "1525196"
					},
					"external": {
						"": "218",
						"__initialize()": "112788",
						"addCollaborator(address,uint256)": "infinite",
						"delCollaborator(address)": "34389",
						"getAllCollaborator()": "infinite",
						"getCollaborator()": "5070",
						"getCollaborator(address)": "7657",
						"owner()": "2589",
						"renounceOwnership()": "30419",
						"setCollaborator(address,uint256)": "infinite",
						"totalPercentage()": "infinite",
						"transferOwnership(address)": "30789",
						"withdraw()": "infinite"
					}
				},
				"methodIdentifiers": {
					"__initialize()": "f80ce32b",
					"addCollaborator(address,uint256)": "54a33f0e",
					"delCollaborator(address)": "ece123e4",
					"getAllCollaborator()": "f7fd128a",
					"getCollaborator()": "e975e3ab",
					"getCollaborator(address)": "b116bbf5",
					"owner()": "8da5cb5b",
					"renounceOwnership()": "715018a6",
					"setCollaborator(address,uint256)": "dd9a5837",
					"totalPercentage()": "d44a0e61",
					"transferOwnership(address)": "f2fde38b",
					"withdraw()": "3ccfd60b"
				}
			},
			"storageLayout": {
				"storage": [
					{
						"astId": 130,
						"contract": "contracts/ChampionCollaborator.sol:ChampionCollaborator",
						"label": "_initialized",
						"offset": 0,
						"slot": "0",
						"type": "t_bool"
					},
					{
						"astId": 133,
						"contract": "contracts/ChampionCollaborator.sol:ChampionCollaborator",
						"label": "_initializing",
						"offset": 1,
						"slot": "0",
						"type": "t_bool"
					},
					{
						"astId": 481,
						"contract": "contracts/ChampionCollaborator.sol:ChampionCollaborator",
						"label": "__gap",
						"offset": 0,
						"slot": "1",
						"type": "t_array(t_uint256)50_storage"
					},
					{
						"astId": 10,
						"contract": "contracts/ChampionCollaborator.sol:ChampionCollaborator",
						"label": "_owner",
						"offset": 0,
						"slot": "51",
						"type": "t_address"
					},
					{
						"astId": 122,
						"contract": "contracts/ChampionCollaborator.sol:ChampionCollaborator",
						"label": "__gap",
						"offset": 0,
						"slot": "52",
						"type": "t_array(t_uint256)49_storage"
					},
					{
						"astId": 496,
						"contract": "contracts/ChampionCollaborator.sol:ChampionCollaborator",
						"label": "allCollaborators",
						"offset": 0,
						"slot": "101",
						"type": "t_array(t_address)dyn_storage"
					},
					{
						"astId": 501,
						"contract": "contracts/ChampionCollaborator.sol:ChampionCollaborator",
						"label": "CollaboratorMap",
						"offset": 0,
						"slot": "102",
						"type": "t_mapping(t_address,t_struct(Collaborator)493_storage)"
					}
				],
				"types": {
					"t_address": {
						"encoding": "inplace",
						"label": "address",
						"numberOfBytes": "20"
					},
					"t_array(t_address)dyn_storage": {
						"base": "t_address",
						"encoding": "dynamic_array",
						"label": "address[]",
						"numberOfBytes": "32"
					},
					"t_array(t_uint256)49_storage": {
						"base": "t_uint256",
						"encoding": "inplace",
						"label": "uint256[49]",
						"numberOfBytes": "1568"
					},
					"t_array(t_uint256)50_storage": {
						"base": "t_uint256",
						"encoding": "inplace",
						"label": "uint256[50]",
						"numberOfBytes": "1600"
					},
					"t_bool": {
						"encoding": "inplace",
						"label": "bool",
						"numberOfBytes": "1"
					},
					"t_mapping(t_address,t_struct(Collaborator)493_storage)": {
						"encoding": "mapping",
						"key": "t_address",
						"label": "mapping(address => struct ChampionCollaborator.Collaborator)",
						"numberOfBytes": "32",
						"value": "t_struct(Collaborator)493_storage"
					},
					"t_struct(Collaborator)493_storage": {
						"encoding": "inplace",
						"label": "struct ChampionCollaborator.Collaborator",
						"members": [
							{
								"astId": 490,
								"contract": "contracts/ChampionCollaborator.sol:ChampionCollaborator",
								"label": "percentage",
								"offset": 0,
								"slot": "0",
								"type": "t_uint256"
							},
							{
								"astId": 492,
								"contract": "contracts/ChampionCollaborator.sol:ChampionCollaborator",
								"label": "active",
								"offset": 0,
								"slot": "1",
								"type": "t_bool"
							}
						],
						"numberOfBytes": "64"
					},
					"t_uint256": {
						"encoding": "inplace",
						"label": "uint256",
						"numberOfBytes": "32"
					}
				}
			},
			"userdoc": {
				"kind": "user",
				"methods": {},
				"version": 1
			}
		}
	}
}