{
	"contracts/ChampionSale.sol": {
		"ChampionCollaborator": {
			"abi": [
				{
					"anonymous": false,
					"inputs": [
						{
							"indexed": true,
							"internalType": "address",
							"name": "previousOwner",
							"type": "address"
						},
						{
							"indexed": true,
							"internalType": "address",
							"name": "newOwner",
							"type": "address"
						}
					],
					"name": "OwnershipTransferred",
					"type": "event"
				},
				{
					"stateMutability": "payable",
					"type": "fallback"
				},
				{
					"inputs": [],
					"name": "__initialize",
					"outputs": [],
					"stateMutability": "nonpayable",
					"type": "function"
				},
				{
					"inputs": [
						{
							"internalType": "address",
							"name": "account",
							"type": "address"
						},
						{
							"internalType": "uint256",
							"name": "percentage",
							"type": "uint256"
						}
					],
					"name": "addCollaborator",
					"outputs": [],
					"stateMutability": "nonpayable",
					"type": "function"
				},
				{
					"inputs": [
						{
							"internalType": "address",
							"name": "account",
							"type": "address"
						}
					],
					"name": "delCollaborator",
					"outputs": [],
					"stateMutability": "nonpayable",
					"type": "function"
				},
				{
					"inputs": [
						{
							"internalType": "address",
							"name": "account",
							"type": "address"
						}
					],
					"name": "getCollaborator",
					"outputs": [
						{
							"components": [
								{
									"internalType": "uint256",
									"name": "percentage",
									"type": "uint256"
								},
								{
									"internalType": "bool",
									"name": "active",
									"type": "bool"
								}
							],
							"internalType": "struct ChampionCollaborator.Collaborator",
							"name": "",
							"type": "tuple"
						}
					],
					"stateMutability": "view",
					"type": "function"
				},
				{
					"inputs": [],
					"name": "getCollaborator",
					"outputs": [
						{
							"components": [
								{
									"internalType": "uint256",
									"name": "percentage",
									"type": "uint256"
								},
								{
									"internalType": "bool",
									"name": "active",
									"type": "bool"
								}
							],
							"internalType": "struct ChampionCollaborator.Collaborator",
							"name": "",
							"type": "tuple"
						}
					],
					"stateMutability": "view",
					"type": "function"
				},
				{
					"inputs": [],
					"name": "owner",
					"outputs": [
						{
							"internalType": "address",
							"name": "",
							"type": "address"
						}
					],
					"stateMutability": "view",
					"type": "function"
				},
				{
					"inputs": [],
					"name": "renounceOwnership",
					"outputs": [],
					"stateMutability": "nonpayable",
					"type": "function"
				},
				{
					"inputs": [
						{
							"internalType": "address",
							"name": "account",
							"type": "address"
						},
						{
							"internalType": "uint256",
							"name": "percentage",
							"type": "uint256"
						}
					],
					"name": "setCollaborator",
					"outputs": [],
					"stateMutability": "nonpayable",
					"type": "function"
				},
				{
					"inputs": [],
					"name": "totalPercentage",
					"outputs": [
						{
							"internalType": "uint256",
							"name": "",
							"type": "uint256"
						}
					],
					"stateMutability": "view",
					"type": "function"
				},
				{
					"inputs": [
						{
							"internalType": "address",
							"name": "newOwner",
							"type": "address"
						}
					],
					"name": "transferOwnership",
					"outputs": [],
					"stateMutability": "nonpayable",
					"type": "function"
				},
				{
					"inputs": [],
					"name": "withdraw",
					"outputs": [],
					"stateMutability": "nonpayable",
					"type": "function"
				},
				{
					"stateMutability": "payable",
					"type": "receive"
				}
			],
			"devdoc": {
				"kind": "dev",
				"methods": {
					"owner()": {
						"details": "Returns the address of the current owner."
					},
					"renounceOwnership()": {
						"details": "Leaves the contract without owner. It will not be possible to call `onlyOwner` functions anymore. Can only be called by the current owner. NOTE: Renouncing ownership will leave the contract without an owner, thereby removing any functionality that is only available to the owner."
					},
					"transferOwnership(address)": {
						"details": "Transfers ownership of the contract to a new account (`newOwner`). Can only be called by the current owner."
					}
				},
				"version": 1
			},
			"evm": {
				"assembly": "    /* \"contracts/ChampionSale.sol\":125:2932  contract ChampionCollaborator is OwnableUpgradeable {\r... */\n  mstore(0x40, 0x80)\n  callvalue\n  dup1\n  iszero\n  tag_1\n  jumpi\n  0x00\n  dup1\n  revert\ntag_1:\n  pop\n  dataSize(sub_0)\n  dup1\n  dataOffset(sub_0)\n  0x00\n  codecopy\n  0x00\n  return\nstop\n\nsub_0: assembly {\n        /* \"contracts/ChampionSale.sol\":125:2932  contract ChampionCollaborator is OwnableUpgradeable {\r... */\n      mstore(0x40, 0x80)\n      jumpi(tag_1, lt(calldatasize, 0x04))\n      shr(0xe0, calldataload(0x00))\n      dup1\n      0xd44a0e61\n      gt\n      tag_14\n      jumpi\n      dup1\n      0xd44a0e61\n      eq\n      tag_8\n      jumpi\n      dup1\n      0xdd9a5837\n      eq\n      tag_9\n      jumpi\n      dup1\n      0xe975e3ab\n      eq\n      tag_10\n      jumpi\n      dup1\n      0xece123e4\n      eq\n      tag_11\n      jumpi\n      dup1\n      0xf2fde38b\n      eq\n      tag_12\n      jumpi\n      dup1\n      0xf80ce32b\n      eq\n      tag_13\n      jumpi\n      jump(tag_2)\n    tag_14:\n      dup1\n      0x3ccfd60b\n      eq\n      tag_3\n      jumpi\n      dup1\n      0x54a33f0e\n      eq\n      tag_4\n      jumpi\n      dup1\n      0x715018a6\n      eq\n      tag_5\n      jumpi\n      dup1\n      0x8da5cb5b\n      eq\n      tag_6\n      jumpi\n      dup1\n      0xb116bbf5\n      eq\n      tag_7\n      jumpi\n      jump(tag_2)\n    tag_1:\n      jumpi(tag_2, calldatasize)\n      stop\n    tag_2:\n      stop\n        /* \"contracts/ChampionSale.sol\":2421:2929  function withdraw() external onlyOwner {\r... */\n    tag_3:\n      callvalue\n      dup1\n      iszero\n      tag_19\n      jumpi\n      0x00\n      dup1\n      revert\n    tag_19:\n      pop\n      tag_20\n      tag_21\n      jump\t// in\n    tag_20:\n      stop\n        /* \"contracts/ChampionSale.sol\":1244:1713  function addCollaborator(address account, uint percentage) public onlyOwner {\r... */\n    tag_4:\n      callvalue\n      dup1\n      iszero\n      tag_22\n      jumpi\n      0x00\n      dup1\n      revert\n    tag_22:\n      pop\n      tag_23\n      0x04\n      dup1\n      calldatasize\n      sub\n      dup2\n      add\n      swap1\n      tag_24\n      swap2\n      swap1\n      tag_25\n      jump\t// in\n    tag_24:\n      tag_26\n      jump\t// in\n    tag_23:\n      stop\n        /* \"@openzeppelin/contracts-upgradeable/access/OwnableUpgradeable.sol\":1908:2009  function renounceOwnership() public virtual onlyOwner {... */\n    tag_5:\n      callvalue\n      dup1\n      iszero\n      tag_27\n      jumpi\n      0x00\n      dup1\n      revert\n    tag_27:\n      pop\n      tag_28\n      tag_29\n      jump\t// in\n    tag_28:\n      stop\n        /* \"@openzeppelin/contracts-upgradeable/access/OwnableUpgradeable.sol\":1276:1361  function owner() public view virtual returns (address) {... */\n    tag_6:\n      callvalue\n      dup1\n      iszero\n      tag_30\n      jumpi\n      0x00\n      dup1\n      revert\n    tag_30:\n      pop\n      tag_31\n      tag_32\n      jump\t// in\n    tag_31:\n      mload(0x40)\n      tag_33\n      swap2\n      swap1\n      tag_34\n      jump\t// in\n    tag_33:\n      mload(0x40)\n      dup1\n      swap2\n      sub\n      swap1\n      return\n        /* \"contracts/ChampionSale.sol\":717:860  function getCollaborator(address account) public view onlyOwner returns(Collaborator memory) {\r... */\n    tag_7:\n      callvalue\n      dup1\n      iszero\n      tag_35\n      jumpi\n      0x00\n      dup1\n      revert\n    tag_35:\n      pop\n      tag_36\n      0x04\n      dup1\n      calldatasize\n      sub\n      dup2\n      add\n      swap1\n      tag_37\n      swap2\n      swap1\n      tag_38\n      jump\t// in\n    tag_37:\n      tag_39\n      jump\t// in\n    tag_36:\n      mload(0x40)\n      tag_40\n      swap2\n      swap1\n      tag_41\n      jump\t// in\n    tag_40:\n      mload(0x40)\n      dup1\n      swap2\n      sub\n      swap1\n      return\n        /* \"contracts/ChampionSale.sol\":868:1236  function totalPercentage() public view returns(uint) {\r... */\n    tag_8:\n      callvalue\n      dup1\n      iszero\n      tag_42\n      jumpi\n      0x00\n      dup1\n      revert\n    tag_42:\n      pop\n      tag_43\n      tag_44\n      jump\t// in\n    tag_43:\n      mload(0x40)\n      tag_45\n      swap2\n      swap1\n      tag_46\n      jump\t// in\n    tag_45:\n      mload(0x40)\n      dup1\n      swap2\n      sub\n      swap1\n      return\n        /* \"contracts/ChampionSale.sol\":1721:2131  function setCollaborator(address account, uint percentage) public onlyOwner {\r... */\n    tag_9:\n      callvalue\n      dup1\n      iszero\n      tag_47\n      jumpi\n      0x00\n      dup1\n      revert\n    tag_47:\n      pop\n      tag_48\n      0x04\n      dup1\n      calldatasize\n      sub\n      dup2\n      add\n      swap1\n      tag_49\n      swap2\n      swap1\n      tag_25\n      jump\t// in\n    tag_49:\n      tag_50\n      jump\t// in\n    tag_48:\n      stop\n        /* \"contracts/ChampionSale.sol\":586:709  function getCollaborator() public view returns(Collaborator memory) {\r... */\n    tag_10:\n      callvalue\n      dup1\n      iszero\n      tag_51\n      jumpi\n      0x00\n      dup1\n      revert\n    tag_51:\n      pop\n      tag_52\n      tag_53\n      jump\t// in\n    tag_52:\n      mload(0x40)\n      tag_54\n      swap2\n      swap1\n      tag_41\n      jump\t// in\n    tag_54:\n      mload(0x40)\n      dup1\n      swap2\n      sub\n      swap1\n      return\n        /* \"contracts/ChampionSale.sol\":2139:2413  function delCollaborator(address account) public onlyOwner {\r... */\n    tag_11:\n      callvalue\n      dup1\n      iszero\n      tag_55\n      jumpi\n      0x00\n      dup1\n      revert\n    tag_55:\n      pop\n      tag_56\n      0x04\n      dup1\n      calldatasize\n      sub\n      dup2\n      add\n      swap1\n      tag_57\n      swap2\n      swap1\n      tag_38\n      jump\t// in\n    tag_57:\n      tag_58\n      jump\t// in\n    tag_56:\n      stop\n        /* \"@openzeppelin/contracts-upgradeable/access/OwnableUpgradeable.sol\":2158:2356  function transferOwnership(address newOwner) public virtual onlyOwner {... */\n    tag_12:\n      callvalue\n      dup1\n      iszero\n      tag_59\n      jumpi\n      0x00\n      dup1\n      revert\n    tag_59:\n      pop\n      tag_60\n      0x04\n      dup1\n      calldatasize\n      sub\n      dup2\n      add\n      swap1\n      tag_61\n      swap2\n      swap1\n      tag_38\n      jump\t// in\n    tag_61:\n      tag_62\n      jump\t// in\n    tag_60:\n      stop\n        /* \"contracts/ChampionSale.sol\":498:578  function __initialize() external initializer {\r... */\n    tag_13:\n      callvalue\n      dup1\n      iszero\n      tag_63\n      jumpi\n      0x00\n      dup1\n      revert\n    tag_63:\n      pop\n      tag_64\n      tag_65\n      jump\t// in\n    tag_64:\n      stop\n        /* \"contracts/ChampionSale.sol\":2421:2929  function withdraw() external onlyOwner {\r... */\n    tag_21:\n        /* \"@openzeppelin/contracts-upgradeable/access/OwnableUpgradeable.sol\":1499:1511  _msgSender() */\n      tag_67\n        /* \"@openzeppelin/contracts-upgradeable/access/OwnableUpgradeable.sol\":1499:1509  _msgSender */\n      tag_68\n        /* \"@openzeppelin/contracts-upgradeable/access/OwnableUpgradeable.sol\":1499:1511  _msgSender() */\n      jump\t// in\n    tag_67:\n        /* \"@openzeppelin/contracts-upgradeable/access/OwnableUpgradeable.sol\":1488:1511  owner() == _msgSender() */\n      0xffffffffffffffffffffffffffffffffffffffff\n      and\n        /* \"@openzeppelin/contracts-upgradeable/access/OwnableUpgradeable.sol\":1488:1495  owner() */\n      tag_69\n        /* \"@openzeppelin/contracts-upgradeable/access/OwnableUpgradeable.sol\":1488:1493  owner */\n      tag_32\n        /* \"@openzeppelin/contracts-upgradeable/access/OwnableUpgradeable.sol\":1488:1495  owner() */\n      jump\t// in\n    tag_69:\n        /* \"@openzeppelin/contracts-upgradeable/access/OwnableUpgradeable.sol\":1488:1511  owner() == _msgSender() */\n      0xffffffffffffffffffffffffffffffffffffffff\n      and\n      eq\n        /* \"@openzeppelin/contracts-upgradeable/access/OwnableUpgradeable.sol\":1480:1548  require(owner() == _msgSender(), \"Ownable: caller is not the owner\") */\n      tag_70\n      jumpi\n      mload(0x40)\n      0x08c379a000000000000000000000000000000000000000000000000000000000\n      dup2\n      mstore\n      0x04\n      add\n      tag_71\n      swap1\n      tag_72\n      jump\t// in\n    tag_71:\n      mload(0x40)\n      dup1\n      swap2\n      sub\n      swap1\n      revert\n    tag_70:\n        /* \"contracts/ChampionSale.sol\":2471:2486  uint256 balance */\n      0x00\n        /* \"contracts/ChampionSale.sol\":2489:2510  address(this).balance */\n      selfbalance\n        /* \"contracts/ChampionSale.sol\":2471:2510  uint256 balance = address(this).balance */\n      swap1\n      pop\n        /* \"contracts/ChampionSale.sol\":2526:2532  uint i */\n      0x00\n        /* \"contracts/ChampionSale.sol\":2521:2922  for (uint i = 0; i < allCollaborators.length; i++) {\r... */\n    tag_74:\n        /* \"contracts/ChampionSale.sol\":2542:2558  allCollaborators */\n      0x65\n        /* \"contracts/ChampionSale.sol\":2542:2565  allCollaborators.length */\n      dup1\n      sload\n      swap1\n      pop\n        /* \"contracts/ChampionSale.sol\":2538:2539  i */\n      dup2\n        /* \"contracts/ChampionSale.sol\":2538:2565  i < allCollaborators.length */\n      lt\n        /* \"contracts/ChampionSale.sol\":2521:2922  for (uint i = 0; i < allCollaborators.length; i++) {\r... */\n      iszero\n      tag_75\n      jumpi\n        /* \"contracts/ChampionSale.sol\":2587:2619  Collaborator memory collaborator */\n      0x00\n        /* \"contracts/ChampionSale.sol\":2622:2637  CollaboratorMap */\n      0x66\n        /* \"contracts/ChampionSale.sol\":2622:2658  CollaboratorMap[allCollaborators[i]] */\n      0x00\n        /* \"contracts/ChampionSale.sol\":2638:2654  allCollaborators */\n      0x65\n        /* \"contracts/ChampionSale.sol\":2655:2656  i */\n      dup5\n        /* \"contracts/ChampionSale.sol\":2638:2657  allCollaborators[i] */\n      dup2\n      sload\n      dup2\n      lt\n      tag_77\n      jumpi\n      tag_78\n      tag_79\n      jump\t// in\n    tag_78:\n    tag_77:\n      swap1\n      0x00\n      mstore\n      keccak256(0x00, 0x20)\n      add\n      0x00\n      swap1\n      sload\n      swap1\n      0x0100\n      exp\n      swap1\n      div\n      0xffffffffffffffffffffffffffffffffffffffff\n      and\n        /* \"contracts/ChampionSale.sol\":2622:2658  CollaboratorMap[allCollaborators[i]] */\n      0xffffffffffffffffffffffffffffffffffffffff\n      and\n      0xffffffffffffffffffffffffffffffffffffffff\n      and\n      dup2\n      mstore\n      0x20\n      add\n      swap1\n      dup2\n      mstore\n      0x20\n      add\n      0x00\n      keccak256\n        /* \"contracts/ChampionSale.sol\":2587:2658  Collaborator memory collaborator = CollaboratorMap[allCollaborators[i]] */\n      mload(0x40)\n      dup1\n      0x40\n      add\n      0x40\n      mstore\n      swap1\n      dup2\n      0x00\n      dup3\n      add\n      sload\n      dup2\n      mstore\n      0x20\n      add\n      0x01\n      dup3\n      add\n      0x00\n      swap1\n      sload\n      swap1\n      0x0100\n      exp\n      swap1\n      div\n      0xff\n      and\n      iszero\n      iszero\n      iszero\n      iszero\n      dup2\n      mstore\n      pop\n      pop\n      swap1\n      pop\n        /* \"contracts/ChampionSale.sol\":2677:2689  collaborator */\n      dup1\n        /* \"contracts/ChampionSale.sol\":2677:2696  collaborator.active */\n      0x20\n      add\n      mload\n        /* \"contracts/ChampionSale.sol\":2673:2911  if (collaborator.active) {\r... */\n      iszero\n      tag_81\n      jumpi\n        /* \"contracts/ChampionSale.sol\":2718:2727  bool sent */\n      0x00\n        /* \"contracts/ChampionSale.sol\":2729:2746  bytes memory data */\n      dup1\n        /* \"contracts/ChampionSale.sol\":2758:2774  allCollaborators */\n      0x65\n        /* \"contracts/ChampionSale.sol\":2775:2776  i */\n      dup5\n        /* \"contracts/ChampionSale.sol\":2758:2777  allCollaborators[i] */\n      dup2\n      sload\n      dup2\n      lt\n      tag_82\n      jumpi\n      tag_83\n      tag_79\n      jump\t// in\n    tag_83:\n    tag_82:\n      swap1\n      0x00\n      mstore\n      keccak256(0x00, 0x20)\n      add\n      0x00\n      swap1\n      sload\n      swap1\n      0x0100\n      exp\n      swap1\n      div\n      0xffffffffffffffffffffffffffffffffffffffff\n      and\n        /* \"contracts/ChampionSale.sol\":2750:2783  payable(allCollaborators[i]).call */\n      0xffffffffffffffffffffffffffffffffffffffff\n      and\n        /* \"contracts/ChampionSale.sol\":2829:2834  10000 */\n      0x2710\n        /* \"contracts/ChampionSale.sol\":2802:2814  collaborator */\n      dup5\n        /* \"contracts/ChampionSale.sol\":2802:2825  collaborator.percentage */\n      0x00\n      add\n      mload\n        /* \"contracts/ChampionSale.sol\":2792:2799  balance */\n      dup8\n        /* \"contracts/ChampionSale.sol\":2792:2825  balance * collaborator.percentage */\n      tag_85\n      swap2\n      swap1\n      tag_86\n      jump\t// in\n    tag_85:\n        /* \"contracts/ChampionSale.sol\":2791:2834  (balance * collaborator.percentage) / 10000 */\n      tag_87\n      swap2\n      swap1\n      tag_88\n      jump\t// in\n    tag_87:\n        /* \"contracts/ChampionSale.sol\":2750:2839  payable(allCollaborators[i]).call{value: (balance * collaborator.percentage) / 10000}(\"\") */\n      mload(0x40)\n      tag_89\n      swap1\n      tag_90\n      jump\t// in\n    tag_89:\n      0x00\n      mload(0x40)\n      dup1\n      dup4\n      sub\n      dup2\n      dup6\n      dup8\n      gas\n      call\n      swap3\n      pop\n      pop\n      pop\n      returndatasize\n      dup1\n      0x00\n      dup2\n      eq\n      tag_93\n      jumpi\n      mload(0x40)\n      swap2\n      pop\n      and(add(returndatasize, 0x3f), not(0x1f))\n      dup3\n      add\n      0x40\n      mstore\n      returndatasize\n      dup3\n      mstore\n      returndatasize\n      0x00\n      0x20\n      dup5\n      add\n      returndatacopy\n      jump(tag_92)\n    tag_93:\n      0x60\n      swap2\n      pop\n    tag_92:\n      pop\n        /* \"contracts/ChampionSale.sol\":2717:2839  (bool sent, bytes memory data) = payable(allCollaborators[i]).call{value: (balance * collaborator.percentage) / 10000}(\"\") */\n      swap2\n      pop\n      swap2\n      pop\n        /* \"contracts/ChampionSale.sol\":2866:2870  sent */\n      dup2\n        /* \"contracts/ChampionSale.sol\":2858:2895  require(sent, \"Failed to send Ether\") */\n      tag_94\n      jumpi\n      mload(0x40)\n      0x08c379a000000000000000000000000000000000000000000000000000000000\n      dup2\n      mstore\n      0x04\n      add\n      tag_95\n      swap1\n      tag_96\n      jump\t// in\n    tag_95:\n      mload(0x40)\n      dup1\n      swap2\n      sub\n      swap1\n      revert\n    tag_94:\n        /* \"contracts/ChampionSale.sol\":2698:2911  {\r... */\n      pop\n      pop\n        /* \"contracts/ChampionSale.sol\":2673:2911  if (collaborator.active) {\r... */\n    tag_81:\n        /* \"contracts/ChampionSale.sol\":2572:2922  {\r... */\n      pop\n        /* \"contracts/ChampionSale.sol\":2567:2570  i++ */\n      dup1\n      dup1\n      tag_97\n      swap1\n      tag_98\n      jump\t// in\n    tag_97:\n      swap2\n      pop\n      pop\n        /* \"contracts/ChampionSale.sol\":2521:2922  for (uint i = 0; i < allCollaborators.length; i++) {\r... */\n      jump(tag_74)\n    tag_75:\n      pop\n        /* \"contracts/ChampionSale.sol\":2460:2929  {\r... */\n      pop\n        /* \"contracts/ChampionSale.sol\":2421:2929  function withdraw() external onlyOwner {\r... */\n      jump\t// out\n        /* \"contracts/ChampionSale.sol\":1244:1713  function addCollaborator(address account, uint percentage) public onlyOwner {\r... */\n    tag_26:\n        /* \"@openzeppelin/contracts-upgradeable/access/OwnableUpgradeable.sol\":1499:1511  _msgSender() */\n      tag_100\n        /* \"@openzeppelin/contracts-upgradeable/access/OwnableUpgradeable.sol\":1499:1509  _msgSender */\n      tag_68\n        /* \"@openzeppelin/contracts-upgradeable/access/OwnableUpgradeable.sol\":1499:1511  _msgSender() */\n      jump\t// in\n    tag_100:\n        /* \"@openzeppelin/contracts-upgradeable/access/OwnableUpgradeable.sol\":1488:1511  owner() == _msgSender() */\n      0xffffffffffffffffffffffffffffffffffffffff\n      and\n        /* \"@openzeppelin/contracts-upgradeable/access/OwnableUpgradeable.sol\":1488:1495  owner() */\n      tag_101\n        /* \"@openzeppelin/contracts-upgradeable/access/OwnableUpgradeable.sol\":1488:1493  owner */\n      tag_32\n        /* \"@openzeppelin/contracts-upgradeable/access/OwnableUpgradeable.sol\":1488:1495  owner() */\n      jump\t// in\n    tag_101:\n        /* \"@openzeppelin/contracts-upgradeable/access/OwnableUpgradeable.sol\":1488:1511  owner() == _msgSender() */\n      0xffffffffffffffffffffffffffffffffffffffff\n      and\n      eq\n        /* \"@openzeppelin/contracts-upgradeable/access/OwnableUpgradeable.sol\":1480:1548  require(owner() == _msgSender(), \"Ownable: caller is not the owner\") */\n      tag_102\n      jumpi\n      mload(0x40)\n      0x08c379a000000000000000000000000000000000000000000000000000000000\n      dup2\n      mstore\n      0x04\n      add\n      tag_103\n      swap1\n      tag_72\n      jump\t// in\n    tag_103:\n      mload(0x40)\n      dup1\n      swap2\n      sub\n      swap1\n      revert\n    tag_102:\n        /* \"contracts/ChampionSale.sol\":1358:1359  0 */\n      0x00\n        /* \"contracts/ChampionSale.sol\":1339:1360  account != address(0) */\n      0xffffffffffffffffffffffffffffffffffffffff\n      and\n        /* \"contracts/ChampionSale.sol\":1339:1346  account */\n      dup3\n        /* \"contracts/ChampionSale.sol\":1339:1360  account != address(0) */\n      0xffffffffffffffffffffffffffffffffffffffff\n      and\n      eq\n      iszero\n        /* \"contracts/ChampionSale.sol\":1331:1404  require(account != address(0), \"Collaborator cannot be an empty address\") */\n      tag_105\n      jumpi\n      mload(0x40)\n      0x08c379a000000000000000000000000000000000000000000000000000000000\n      dup2\n      mstore\n      0x04\n      add\n      tag_106\n      swap1\n      tag_107\n      jump\t// in\n    tag_106:\n      mload(0x40)\n      dup1\n      swap2\n      sub\n      swap1\n      revert\n    tag_105:\n        /* \"contracts/ChampionSale.sol\":1424:1439  CollaboratorMap */\n      0x66\n        /* \"contracts/ChampionSale.sol\":1424:1448  CollaboratorMap[account] */\n      0x00\n        /* \"contracts/ChampionSale.sol\":1440:1447  account */\n      dup4\n        /* \"contracts/ChampionSale.sol\":1424:1448  CollaboratorMap[account] */\n      0xffffffffffffffffffffffffffffffffffffffff\n      and\n      0xffffffffffffffffffffffffffffffffffffffff\n      and\n      dup2\n      mstore\n      0x20\n      add\n      swap1\n      dup2\n      mstore\n      0x20\n      add\n      0x00\n      keccak256\n        /* \"contracts/ChampionSale.sol\":1424:1455  CollaboratorMap[account].active */\n      0x01\n      add\n      0x00\n      swap1\n      sload\n      swap1\n      0x0100\n      exp\n      swap1\n      div\n      0xff\n      and\n        /* \"contracts/ChampionSale.sol\":1423:1455  !CollaboratorMap[account].active */\n      iszero\n        /* \"contracts/ChampionSale.sol\":1415:1487  require(!CollaboratorMap[account].active, \"Collaborator already exists\") */\n      tag_108\n      jumpi\n      mload(0x40)\n      0x08c379a000000000000000000000000000000000000000000000000000000000\n      dup2\n      mstore\n      0x04\n      add\n      tag_109\n      swap1\n      tag_110\n      jump\t// in\n    tag_109:\n      mload(0x40)\n      dup1\n      swap2\n      sub\n      swap1\n      revert\n    tag_108:\n        /* \"contracts/ChampionSale.sol\":1542:1547  10000 */\n      0x2710\n        /* \"contracts/ChampionSale.sol\":1527:1537  percentage */\n      dup2\n        /* \"contracts/ChampionSale.sol\":1507:1524  totalPercentage() */\n      tag_111\n        /* \"contracts/ChampionSale.sol\":1507:1522  totalPercentage */\n      tag_44\n        /* \"contracts/ChampionSale.sol\":1507:1524  totalPercentage() */\n      jump\t// in\n    tag_111:\n        /* \"contracts/ChampionSale.sol\":1507:1537  totalPercentage() + percentage */\n      tag_112\n      swap2\n      swap1\n      tag_113\n      jump\t// in\n    tag_112:\n        /* \"contracts/ChampionSale.sol\":1506:1547  (totalPercentage() + percentage) <= 10000 */\n      gt\n      iszero\n        /* \"contracts/ChampionSale.sol\":1498:1594  require((totalPercentage() + percentage) <= 10000, \"totalPercentage will be greater than 10000\") */\n      tag_114\n      jumpi\n      mload(0x40)\n      0x08c379a000000000000000000000000000000000000000000000000000000000\n      dup2\n      mstore\n      0x04\n      add\n      tag_115\n      swap1\n      tag_116\n      jump\t// in\n    tag_115:\n      mload(0x40)\n      dup1\n      swap2\n      sub\n      swap1\n      revert\n    tag_114:\n        /* \"contracts/ChampionSale.sol\":1634:1664  Collaborator(percentage, true) */\n      mload(0x40)\n      dup1\n      0x40\n      add\n      0x40\n      mstore\n      dup1\n        /* \"contracts/ChampionSale.sol\":1647:1657  percentage */\n      dup3\n        /* \"contracts/ChampionSale.sol\":1634:1664  Collaborator(percentage, true) */\n      dup2\n      mstore\n      0x20\n      add\n        /* \"contracts/ChampionSale.sol\":1659:1663  true */\n      0x01\n        /* \"contracts/ChampionSale.sol\":1634:1664  Collaborator(percentage, true) */\n      iszero\n      iszero\n      dup2\n      mstore\n      pop\n        /* \"contracts/ChampionSale.sol\":1607:1622  CollaboratorMap */\n      0x66\n        /* \"contracts/ChampionSale.sol\":1607:1631  CollaboratorMap[account] */\n      0x00\n        /* \"contracts/ChampionSale.sol\":1623:1630  account */\n      dup5\n        /* \"contracts/ChampionSale.sol\":1607:1631  CollaboratorMap[account] */\n      0xffffffffffffffffffffffffffffffffffffffff\n      and\n      0xffffffffffffffffffffffffffffffffffffffff\n      and\n      dup2\n      mstore\n      0x20\n      add\n      swap1\n      dup2\n      mstore\n      0x20\n      add\n      0x00\n      keccak256\n        /* \"contracts/ChampionSale.sol\":1607:1664  CollaboratorMap[account] = Collaborator(percentage, true) */\n      0x00\n      dup3\n      add\n      mload\n      dup2\n      0x00\n      add\n      sstore\n      0x20\n      dup3\n      add\n      mload\n      dup2\n      0x01\n      add\n      exp(0x0100, 0x00)\n      dup2\n      sload\n      dup2\n      0xff\n      mul\n      not\n      and\n      swap1\n      dup4\n      iszero\n      iszero\n      mul\n      or\n      swap1\n      sstore\n      pop\n      swap1\n      pop\n      pop\n        /* \"contracts/ChampionSale.sol\":1675:1691  allCollaborators */\n      0x65\n        /* \"contracts/ChampionSale.sol\":1697:1704  account */\n      dup3\n        /* \"contracts/ChampionSale.sol\":1675:1705  allCollaborators.push(account) */\n      swap1\n      dup1\n      0x01\n      dup2\n      sload\n      add\n      dup1\n      dup3\n      sstore\n      dup1\n      swap2\n      pop\n      pop\n      0x01\n      swap1\n      sub\n      swap1\n      0x00\n      mstore\n      keccak256(0x00, 0x20)\n      add\n      0x00\n      swap1\n      swap2\n      swap1\n      swap2\n      swap1\n      swap2\n      0x0100\n      exp\n      dup2\n      sload\n      dup2\n      0xffffffffffffffffffffffffffffffffffffffff\n      mul\n      not\n      and\n      swap1\n      dup4\n      0xffffffffffffffffffffffffffffffffffffffff\n      and\n      mul\n      or\n      swap1\n      sstore\n      pop\n        /* \"contracts/ChampionSale.sol\":1244:1713  function addCollaborator(address account, uint percentage) public onlyOwner {\r... */\n      pop\n      pop\n      jump\t// out\n        /* \"@openzeppelin/contracts-upgradeable/access/OwnableUpgradeable.sol\":1908:2009  function renounceOwnership() public virtual onlyOwner {... */\n    tag_29:\n        /* \"@openzeppelin/contracts-upgradeable/access/OwnableUpgradeable.sol\":1499:1511  _msgSender() */\n      tag_119\n        /* \"@openzeppelin/contracts-upgradeable/access/OwnableUpgradeable.sol\":1499:1509  _msgSender */\n      tag_68\n        /* \"@openzeppelin/contracts-upgradeable/access/OwnableUpgradeable.sol\":1499:1511  _msgSender() */\n      jump\t// in\n    tag_119:\n        /* \"@openzeppelin/contracts-upgradeable/access/OwnableUpgradeable.sol\":1488:1511  owner() == _msgSender() */\n      0xffffffffffffffffffffffffffffffffffffffff\n      and\n        /* \"@openzeppelin/contracts-upgradeable/access/OwnableUpgradeable.sol\":1488:1495  owner() */\n      tag_120\n        /* \"@openzeppelin/contracts-upgradeable/access/OwnableUpgradeable.sol\":1488:1493  owner */\n      tag_32\n        /* \"@openzeppelin/contracts-upgradeable/access/OwnableUpgradeable.sol\":1488:1495  owner() */\n      jump\t// in\n    tag_120:\n        /* \"@openzeppelin/contracts-upgradeable/access/OwnableUpgradeable.sol\":1488:1511  owner() == _msgSender() */\n      0xffffffffffffffffffffffffffffffffffffffff\n      and\n      eq\n        /* \"@openzeppelin/contracts-upgradeable/access/OwnableUpgradeable.sol\":1480:1548  require(owner() == _msgSender(), \"Ownable: caller is not the owner\") */\n      tag_121\n      jumpi\n      mload(0x40)\n      0x08c379a000000000000000000000000000000000000000000000000000000000\n      dup2\n      mstore\n      0x04\n      add\n      tag_122\n      swap1\n      tag_72\n      jump\t// in\n    tag_122:\n      mload(0x40)\n      dup1\n      swap2\n      sub\n      swap1\n      revert\n    tag_121:\n        /* \"@openzeppelin/contracts-upgradeable/access/OwnableUpgradeable.sol\":1972:2002  _transferOwnership(address(0)) */\n      tag_124\n        /* \"@openzeppelin/contracts-upgradeable/access/OwnableUpgradeable.sol\":1999:2000  0 */\n      0x00\n        /* \"@openzeppelin/contracts-upgradeable/access/OwnableUpgradeable.sol\":1972:1990  _transferOwnership */\n      tag_125\n        /* \"@openzeppelin/contracts-upgradeable/access/OwnableUpgradeable.sol\":1972:2002  _transferOwnership(address(0)) */\n      jump\t// in\n    tag_124:\n        /* \"@openzeppelin/contracts-upgradeable/access/OwnableUpgradeable.sol\":1908:2009  function renounceOwnership() public virtual onlyOwner {... */\n      jump\t// out\n        /* \"@openzeppelin/contracts-upgradeable/access/OwnableUpgradeable.sol\":1276:1361  function owner() public view virtual returns (address) {... */\n    tag_32:\n        /* \"@openzeppelin/contracts-upgradeable/access/OwnableUpgradeable.sol\":1322:1329  address */\n      0x00\n        /* \"@openzeppelin/contracts-upgradeable/access/OwnableUpgradeable.sol\":1348:1354  _owner */\n      0x33\n      0x00\n      swap1\n      sload\n      swap1\n      0x0100\n      exp\n      swap1\n      div\n      0xffffffffffffffffffffffffffffffffffffffff\n      and\n        /* \"@openzeppelin/contracts-upgradeable/access/OwnableUpgradeable.sol\":1341:1354  return _owner */\n      swap1\n      pop\n        /* \"@openzeppelin/contracts-upgradeable/access/OwnableUpgradeable.sol\":1276:1361  function owner() public view virtual returns (address) {... */\n      swap1\n      jump\t// out\n        /* \"contracts/ChampionSale.sol\":717:860  function getCollaborator(address account) public view onlyOwner returns(Collaborator memory) {\r... */\n    tag_39:\n        /* \"contracts/ChampionSale.sol\":789:808  Collaborator memory */\n      tag_127\n      tag_128\n      jump\t// in\n    tag_127:\n        /* \"@openzeppelin/contracts-upgradeable/access/OwnableUpgradeable.sol\":1499:1511  _msgSender() */\n      tag_130\n        /* \"@openzeppelin/contracts-upgradeable/access/OwnableUpgradeable.sol\":1499:1509  _msgSender */\n      tag_68\n        /* \"@openzeppelin/contracts-upgradeable/access/OwnableUpgradeable.sol\":1499:1511  _msgSender() */\n      jump\t// in\n    tag_130:\n        /* \"@openzeppelin/contracts-upgradeable/access/OwnableUpgradeable.sol\":1488:1511  owner() == _msgSender() */\n      0xffffffffffffffffffffffffffffffffffffffff\n      and\n        /* \"@openzeppelin/contracts-upgradeable/access/OwnableUpgradeable.sol\":1488:1495  owner() */\n      tag_131\n        /* \"@openzeppelin/contracts-upgradeable/access/OwnableUpgradeable.sol\":1488:1493  owner */\n      tag_32\n        /* \"@openzeppelin/contracts-upgradeable/access/OwnableUpgradeable.sol\":1488:1495  owner() */\n      jump\t// in\n    tag_131:\n        /* \"@openzeppelin/contracts-upgradeable/access/OwnableUpgradeable.sol\":1488:1511  owner() == _msgSender() */\n      0xffffffffffffffffffffffffffffffffffffffff\n      and\n      eq\n        /* \"@openzeppelin/contracts-upgradeable/access/OwnableUpgradeable.sol\":1480:1548  require(owner() == _msgSender(), \"Ownable: caller is not the owner\") */\n      tag_132\n      jumpi\n      mload(0x40)\n      0x08c379a000000000000000000000000000000000000000000000000000000000\n      dup2\n      mstore\n      0x04\n      add\n      tag_133\n      swap1\n      tag_72\n      jump\t// in\n    tag_133:\n      mload(0x40)\n      dup1\n      swap2\n      sub\n      swap1\n      revert\n    tag_132:\n        /* \"contracts/ChampionSale.sol\":828:843  CollaboratorMap */\n      0x66\n        /* \"contracts/ChampionSale.sol\":828:852  CollaboratorMap[account] */\n      0x00\n        /* \"contracts/ChampionSale.sol\":844:851  account */\n      dup4\n        /* \"contracts/ChampionSale.sol\":828:852  CollaboratorMap[account] */\n      0xffffffffffffffffffffffffffffffffffffffff\n      and\n      0xffffffffffffffffffffffffffffffffffffffff\n      and\n      dup2\n      mstore\n      0x20\n      add\n      swap1\n      dup2\n      mstore\n      0x20\n      add\n      0x00\n      keccak256\n        /* \"contracts/ChampionSale.sol\":821:852  return CollaboratorMap[account] */\n      mload(0x40)\n      dup1\n      0x40\n      add\n      0x40\n      mstore\n      swap1\n      dup2\n      0x00\n      dup3\n      add\n      sload\n      dup2\n      mstore\n      0x20\n      add\n      0x01\n      dup3\n      add\n      0x00\n      swap1\n      sload\n      swap1\n      0x0100\n      exp\n      swap1\n      div\n      0xff\n      and\n      iszero\n      iszero\n      iszero\n      iszero\n      dup2\n      mstore\n      pop\n      pop\n      swap1\n      pop\n        /* \"contracts/ChampionSale.sol\":717:860  function getCollaborator(address account) public view onlyOwner returns(Collaborator memory) {\r... */\n      swap2\n      swap1\n      pop\n      jump\t// out\n        /* \"contracts/ChampionSale.sol\":868:1236  function totalPercentage() public view returns(uint) {\r... */\n    tag_44:\n        /* \"contracts/ChampionSale.sol\":915:919  uint */\n      0x00\n        /* \"contracts/ChampionSale.sol\":932:940  uint sum */\n      dup1\n        /* \"contracts/ChampionSale.sol\":943:944  0 */\n      0x00\n        /* \"contracts/ChampionSale.sol\":932:944  uint sum = 0 */\n      swap1\n      pop\n        /* \"contracts/ChampionSale.sol\":960:966  uint i */\n      0x00\n        /* \"contracts/ChampionSale.sol\":955:1208  for (uint i = 0; i < allCollaborators.length; i++) {\r... */\n    tag_136:\n        /* \"contracts/ChampionSale.sol\":976:992  allCollaborators */\n      0x65\n        /* \"contracts/ChampionSale.sol\":976:999  allCollaborators.length */\n      dup1\n      sload\n      swap1\n      pop\n        /* \"contracts/ChampionSale.sol\":972:973  i */\n      dup2\n        /* \"contracts/ChampionSale.sol\":972:999  i < allCollaborators.length */\n      lt\n        /* \"contracts/ChampionSale.sol\":955:1208  for (uint i = 0; i < allCollaborators.length; i++) {\r... */\n      iszero\n      tag_137\n      jumpi\n        /* \"contracts/ChampionSale.sol\":1021:1053  Collaborator memory collaborator */\n      0x00\n        /* \"contracts/ChampionSale.sol\":1056:1071  CollaboratorMap */\n      0x66\n        /* \"contracts/ChampionSale.sol\":1056:1092  CollaboratorMap[allCollaborators[i]] */\n      0x00\n        /* \"contracts/ChampionSale.sol\":1072:1088  allCollaborators */\n      0x65\n        /* \"contracts/ChampionSale.sol\":1089:1090  i */\n      dup5\n        /* \"contracts/ChampionSale.sol\":1072:1091  allCollaborators[i] */\n      dup2\n      sload\n      dup2\n      lt\n      tag_139\n      jumpi\n      tag_140\n      tag_79\n      jump\t// in\n    tag_140:\n    tag_139:\n      swap1\n      0x00\n      mstore\n      keccak256(0x00, 0x20)\n      add\n      0x00\n      swap1\n      sload\n      swap1\n      0x0100\n      exp\n      swap1\n      div\n      0xffffffffffffffffffffffffffffffffffffffff\n      and\n        /* \"contracts/ChampionSale.sol\":1056:1092  CollaboratorMap[allCollaborators[i]] */\n      0xffffffffffffffffffffffffffffffffffffffff\n      and\n      0xffffffffffffffffffffffffffffffffffffffff\n      and\n      dup2\n      mstore\n      0x20\n      add\n      swap1\n      dup2\n      mstore\n      0x20\n      add\n      0x00\n      keccak256\n        /* \"contracts/ChampionSale.sol\":1021:1092  Collaborator memory collaborator = CollaboratorMap[allCollaborators[i]] */\n      mload(0x40)\n      dup1\n      0x40\n      add\n      0x40\n      mstore\n      swap1\n      dup2\n      0x00\n      dup3\n      add\n      sload\n      dup2\n      mstore\n      0x20\n      add\n      0x01\n      dup3\n      add\n      0x00\n      swap1\n      sload\n      swap1\n      0x0100\n      exp\n      swap1\n      div\n      0xff\n      and\n      iszero\n      iszero\n      iszero\n      iszero\n      dup2\n      mstore\n      pop\n      pop\n      swap1\n      pop\n        /* \"contracts/ChampionSale.sol\":1111:1123  collaborator */\n      dup1\n        /* \"contracts/ChampionSale.sol\":1111:1130  collaborator.active */\n      0x20\n      add\n      mload\n        /* \"contracts/ChampionSale.sol\":1107:1197  if (collaborator.active) {\r... */\n      iszero\n      tag_142\n      jumpi\n        /* \"contracts/ChampionSale.sol\":1158:1170  collaborator */\n      dup1\n        /* \"contracts/ChampionSale.sol\":1158:1181  collaborator.percentage */\n      0x00\n      add\n      mload\n        /* \"contracts/ChampionSale.sol\":1151:1181  sum += collaborator.percentage */\n      dup4\n      tag_143\n      swap2\n      swap1\n      tag_113\n      jump\t// in\n    tag_143:\n      swap3\n      pop\n        /* \"contracts/ChampionSale.sol\":1107:1197  if (collaborator.active) {\r... */\n    tag_142:\n        /* \"contracts/ChampionSale.sol\":1006:1208  {\r... */\n      pop\n        /* \"contracts/ChampionSale.sol\":1001:1004  i++ */\n      dup1\n      dup1\n      tag_144\n      swap1\n      tag_98\n      jump\t// in\n    tag_144:\n      swap2\n      pop\n      pop\n        /* \"contracts/ChampionSale.sol\":955:1208  for (uint i = 0; i < allCollaborators.length; i++) {\r... */\n      jump(tag_136)\n    tag_137:\n      pop\n        /* \"contracts/ChampionSale.sol\":1225:1228  sum */\n      dup1\n        /* \"contracts/ChampionSale.sol\":1218:1228  return sum */\n      swap2\n      pop\n      pop\n        /* \"contracts/ChampionSale.sol\":868:1236  function totalPercentage() public view returns(uint) {\r... */\n      swap1\n      jump\t// out\n        /* \"contracts/ChampionSale.sol\":1721:2131  function setCollaborator(address account, uint percentage) public onlyOwner {\r... */\n    tag_50:\n        /* \"@openzeppelin/contracts-upgradeable/access/OwnableUpgradeable.sol\":1499:1511  _msgSender() */\n      tag_146\n        /* \"@openzeppelin/contracts-upgradeable/access/OwnableUpgradeable.sol\":1499:1509  _msgSender */\n      tag_68\n        /* \"@openzeppelin/contracts-upgradeable/access/OwnableUpgradeable.sol\":1499:1511  _msgSender() */\n      jump\t// in\n    tag_146:\n        /* \"@openzeppelin/contracts-upgradeable/access/OwnableUpgradeable.sol\":1488:1511  owner() == _msgSender() */\n      0xffffffffffffffffffffffffffffffffffffffff\n      and\n        /* \"@openzeppelin/contracts-upgradeable/access/OwnableUpgradeable.sol\":1488:1495  owner() */\n      tag_147\n        /* \"@openzeppelin/contracts-upgradeable/access/OwnableUpgradeable.sol\":1488:1493  owner */\n      tag_32\n        /* \"@openzeppelin/contracts-upgradeable/access/OwnableUpgradeable.sol\":1488:1495  owner() */\n      jump\t// in\n    tag_147:\n        /* \"@openzeppelin/contracts-upgradeable/access/OwnableUpgradeable.sol\":1488:1511  owner() == _msgSender() */\n      0xffffffffffffffffffffffffffffffffffffffff\n      and\n      eq\n        /* \"@openzeppelin/contracts-upgradeable/access/OwnableUpgradeable.sol\":1480:1548  require(owner() == _msgSender(), \"Ownable: caller is not the owner\") */\n      tag_148\n      jumpi\n      mload(0x40)\n      0x08c379a000000000000000000000000000000000000000000000000000000000\n      dup2\n      mstore\n      0x04\n      add\n      tag_149\n      swap1\n      tag_72\n      jump\t// in\n    tag_149:\n      mload(0x40)\n      dup1\n      swap2\n      sub\n      swap1\n      revert\n    tag_148:\n        /* \"contracts/ChampionSale.sol\":1835:1836  0 */\n      0x00\n        /* \"contracts/ChampionSale.sol\":1816:1837  account != address(0) */\n      0xffffffffffffffffffffffffffffffffffffffff\n      and\n        /* \"contracts/ChampionSale.sol\":1816:1823  account */\n      dup3\n        /* \"contracts/ChampionSale.sol\":1816:1837  account != address(0) */\n      0xffffffffffffffffffffffffffffffffffffffff\n      and\n      eq\n      iszero\n        /* \"contracts/ChampionSale.sol\":1808:1881  require(account != address(0), \"Collaborator cannot be an empty address\") */\n      tag_151\n      jumpi\n      mload(0x40)\n      0x08c379a000000000000000000000000000000000000000000000000000000000\n      dup2\n      mstore\n      0x04\n      add\n      tag_152\n      swap1\n      tag_107\n      jump\t// in\n    tag_152:\n      mload(0x40)\n      dup1\n      swap2\n      sub\n      swap1\n      revert\n    tag_151:\n        /* \"contracts/ChampionSale.sol\":1900:1915  CollaboratorMap */\n      0x66\n        /* \"contracts/ChampionSale.sol\":1900:1924  CollaboratorMap[account] */\n      0x00\n        /* \"contracts/ChampionSale.sol\":1916:1923  account */\n      dup4\n        /* \"contracts/ChampionSale.sol\":1900:1924  CollaboratorMap[account] */\n      0xffffffffffffffffffffffffffffffffffffffff\n      and\n      0xffffffffffffffffffffffffffffffffffffffff\n      and\n      dup2\n      mstore\n      0x20\n      add\n      swap1\n      dup2\n      mstore\n      0x20\n      add\n      0x00\n      keccak256\n        /* \"contracts/ChampionSale.sol\":1900:1931  CollaboratorMap[account].active */\n      0x01\n      add\n      0x00\n      swap1\n      sload\n      swap1\n      0x0100\n      exp\n      swap1\n      div\n      0xff\n      and\n        /* \"contracts/ChampionSale.sol\":1892:1962  require(CollaboratorMap[account].active, \"Collaborator is not exists\") */\n      tag_153\n      jumpi\n      mload(0x40)\n      0x08c379a000000000000000000000000000000000000000000000000000000000\n      dup2\n      mstore\n      0x04\n      add\n      tag_154\n      swap1\n      tag_155\n      jump\t// in\n    tag_154:\n      mload(0x40)\n      dup1\n      swap2\n      sub\n      swap1\n      revert\n    tag_153:\n        /* \"contracts/ChampionSale.sol\":2021:2031  percentage */\n      dup1\n        /* \"contracts/ChampionSale.sol\":1983:1998  CollaboratorMap */\n      0x66\n        /* \"contracts/ChampionSale.sol\":1983:2007  CollaboratorMap[account] */\n      0x00\n        /* \"contracts/ChampionSale.sol\":1999:2006  account */\n      dup5\n        /* \"contracts/ChampionSale.sol\":1983:2007  CollaboratorMap[account] */\n      0xffffffffffffffffffffffffffffffffffffffff\n      and\n      0xffffffffffffffffffffffffffffffffffffffff\n      and\n      dup2\n      mstore\n      0x20\n      add\n      swap1\n      dup2\n      mstore\n      0x20\n      add\n      0x00\n      keccak256\n        /* \"contracts/ChampionSale.sol\":1983:2018  CollaboratorMap[account].percentage */\n      0x00\n      add\n        /* \"contracts/ChampionSale.sol\":1983:2031  CollaboratorMap[account].percentage = percentage */\n      dup2\n      swap1\n      sstore\n      pop\n        /* \"contracts/ChampionSale.sol\":2071:2076  10000 */\n      0x2710\n        /* \"contracts/ChampionSale.sol\":2050:2067  totalPercentage() */\n      tag_156\n        /* \"contracts/ChampionSale.sol\":2050:2065  totalPercentage */\n      tag_44\n        /* \"contracts/ChampionSale.sol\":2050:2067  totalPercentage() */\n      jump\t// in\n    tag_156:\n        /* \"contracts/ChampionSale.sol\":2050:2076  totalPercentage() <= 10000 */\n      gt\n      iszero\n        /* \"contracts/ChampionSale.sol\":2042:2123  require(totalPercentage() <= 10000, \"totalPercentage will be greater than 10000\") */\n      tag_157\n      jumpi\n      mload(0x40)\n      0x08c379a000000000000000000000000000000000000000000000000000000000\n      dup2\n      mstore\n      0x04\n      add\n      tag_158\n      swap1\n      tag_116\n      jump\t// in\n    tag_158:\n      mload(0x40)\n      dup1\n      swap2\n      sub\n      swap1\n      revert\n    tag_157:\n        /* \"contracts/ChampionSale.sol\":1721:2131  function setCollaborator(address account, uint percentage) public onlyOwner {\r... */\n      pop\n      pop\n      jump\t// out\n        /* \"contracts/ChampionSale.sol\":586:709  function getCollaborator() public view returns(Collaborator memory) {\r... */\n    tag_53:\n        /* \"contracts/ChampionSale.sol\":633:652  Collaborator memory */\n      tag_159\n      tag_128\n      jump\t// in\n    tag_159:\n        /* \"contracts/ChampionSale.sol\":672:687  CollaboratorMap */\n      0x66\n        /* \"contracts/ChampionSale.sol\":672:701  CollaboratorMap[_msgSender()] */\n      0x00\n        /* \"contracts/ChampionSale.sol\":688:700  _msgSender() */\n      tag_161\n        /* \"contracts/ChampionSale.sol\":688:698  _msgSender */\n      tag_68\n        /* \"contracts/ChampionSale.sol\":688:700  _msgSender() */\n      jump\t// in\n    tag_161:\n        /* \"contracts/ChampionSale.sol\":672:701  CollaboratorMap[_msgSender()] */\n      0xffffffffffffffffffffffffffffffffffffffff\n      and\n      0xffffffffffffffffffffffffffffffffffffffff\n      and\n      dup2\n      mstore\n      0x20\n      add\n      swap1\n      dup2\n      mstore\n      0x20\n      add\n      0x00\n      keccak256\n        /* \"contracts/ChampionSale.sol\":665:701  return CollaboratorMap[_msgSender()] */\n      mload(0x40)\n      dup1\n      0x40\n      add\n      0x40\n      mstore\n      swap1\n      dup2\n      0x00\n      dup3\n      add\n      sload\n      dup2\n      mstore\n      0x20\n      add\n      0x01\n      dup3\n      add\n      0x00\n      swap1\n      sload\n      swap1\n      0x0100\n      exp\n      swap1\n      div\n      0xff\n      and\n      iszero\n      iszero\n      iszero\n      iszero\n      dup2\n      mstore\n      pop\n      pop\n      swap1\n      pop\n        /* \"contracts/ChampionSale.sol\":586:709  function getCollaborator() public view returns(Collaborator memory) {\r... */\n      swap1\n      jump\t// out\n        /* \"contracts/ChampionSale.sol\":2139:2413  function delCollaborator(address account) public onlyOwner {\r... */\n    tag_58:\n        /* \"@openzeppelin/contracts-upgradeable/access/OwnableUpgradeable.sol\":1499:1511  _msgSender() */\n      tag_163\n        /* \"@openzeppelin/contracts-upgradeable/access/OwnableUpgradeable.sol\":1499:1509  _msgSender */\n      tag_68\n        /* \"@openzeppelin/contracts-upgradeable/access/OwnableUpgradeable.sol\":1499:1511  _msgSender() */\n      jump\t// in\n    tag_163:\n        /* \"@openzeppelin/contracts-upgradeable/access/OwnableUpgradeable.sol\":1488:1511  owner() == _msgSender() */\n      0xffffffffffffffffffffffffffffffffffffffff\n      and\n        /* \"@openzeppelin/contracts-upgradeable/access/OwnableUpgradeable.sol\":1488:1495  owner() */\n      tag_164\n        /* \"@openzeppelin/contracts-upgradeable/access/OwnableUpgradeable.sol\":1488:1493  owner */\n      tag_32\n        /* \"@openzeppelin/contracts-upgradeable/access/OwnableUpgradeable.sol\":1488:1495  owner() */\n      jump\t// in\n    tag_164:\n        /* \"@openzeppelin/contracts-upgradeable/access/OwnableUpgradeable.sol\":1488:1511  owner() == _msgSender() */\n      0xffffffffffffffffffffffffffffffffffffffff\n      and\n      eq\n        /* \"@openzeppelin/contracts-upgradeable/access/OwnableUpgradeable.sol\":1480:1548  require(owner() == _msgSender(), \"Ownable: caller is not the owner\") */\n      tag_165\n      jumpi\n      mload(0x40)\n      0x08c379a000000000000000000000000000000000000000000000000000000000\n      dup2\n      mstore\n      0x04\n      add\n      tag_166\n      swap1\n      tag_72\n      jump\t// in\n    tag_166:\n      mload(0x40)\n      dup1\n      swap2\n      sub\n      swap1\n      revert\n    tag_165:\n        /* \"contracts/ChampionSale.sol\":2236:2237  0 */\n      0x00\n        /* \"contracts/ChampionSale.sol\":2217:2238  account != address(0) */\n      0xffffffffffffffffffffffffffffffffffffffff\n      and\n        /* \"contracts/ChampionSale.sol\":2217:2224  account */\n      dup2\n        /* \"contracts/ChampionSale.sol\":2217:2238  account != address(0) */\n      0xffffffffffffffffffffffffffffffffffffffff\n      and\n      eq\n      iszero\n        /* \"contracts/ChampionSale.sol\":2209:2282  require(account != address(0), \"Collaborator cannot be an empty address\") */\n      tag_168\n      jumpi\n      mload(0x40)\n      0x08c379a000000000000000000000000000000000000000000000000000000000\n      dup2\n      mstore\n      0x04\n      add\n      tag_169\n      swap1\n      tag_107\n      jump\t// in\n    tag_169:\n      mload(0x40)\n      dup1\n      swap2\n      sub\n      swap1\n      revert\n    tag_168:\n        /* \"contracts/ChampionSale.sol\":2301:2316  CollaboratorMap */\n      0x66\n        /* \"contracts/ChampionSale.sol\":2301:2325  CollaboratorMap[account] */\n      0x00\n        /* \"contracts/ChampionSale.sol\":2317:2324  account */\n      dup3\n        /* \"contracts/ChampionSale.sol\":2301:2325  CollaboratorMap[account] */\n      0xffffffffffffffffffffffffffffffffffffffff\n      and\n      0xffffffffffffffffffffffffffffffffffffffff\n      and\n      dup2\n      mstore\n      0x20\n      add\n      swap1\n      dup2\n      mstore\n      0x20\n      add\n      0x00\n      keccak256\n        /* \"contracts/ChampionSale.sol\":2301:2332  CollaboratorMap[account].active */\n      0x01\n      add\n      0x00\n      swap1\n      sload\n      swap1\n      0x0100\n      exp\n      swap1\n      div\n      0xff\n      and\n        /* \"contracts/ChampionSale.sol\":2293:2363  require(CollaboratorMap[account].active, \"Collaborator is not exists\") */\n      tag_170\n      jumpi\n      mload(0x40)\n      0x08c379a000000000000000000000000000000000000000000000000000000000\n      dup2\n      mstore\n      0x04\n      add\n      tag_171\n      swap1\n      tag_155\n      jump\t// in\n    tag_171:\n      mload(0x40)\n      dup1\n      swap2\n      sub\n      swap1\n      revert\n    tag_170:\n        /* \"contracts/ChampionSale.sol\":2381:2396  CollaboratorMap */\n      0x66\n        /* \"contracts/ChampionSale.sol\":2381:2405  CollaboratorMap[account] */\n      0x00\n        /* \"contracts/ChampionSale.sol\":2397:2404  account */\n      dup3\n        /* \"contracts/ChampionSale.sol\":2381:2405  CollaboratorMap[account] */\n      0xffffffffffffffffffffffffffffffffffffffff\n      and\n      0xffffffffffffffffffffffffffffffffffffffff\n      and\n      dup2\n      mstore\n      0x20\n      add\n      swap1\n      dup2\n      mstore\n      0x20\n      add\n      0x00\n      keccak256\n      0x00\n        /* \"contracts/ChampionSale.sol\":2374:2405  delete CollaboratorMap[account] */\n      dup1\n      dup3\n      add\n      0x00\n      swap1\n      sstore\n      0x01\n      dup3\n      add\n      exp(0x0100, 0x00)\n      dup2\n      sload\n      swap1\n      0xff\n      mul\n      not\n      and\n      swap1\n      sstore\n      pop\n      pop\n        /* \"contracts/ChampionSale.sol\":2139:2413  function delCollaborator(address account) public onlyOwner {\r... */\n      pop\n      jump\t// out\n        /* \"@openzeppelin/contracts-upgradeable/access/OwnableUpgradeable.sol\":2158:2356  function transferOwnership(address newOwner) public virtual onlyOwner {... */\n    tag_62:\n        /* \"@openzeppelin/contracts-upgradeable/access/OwnableUpgradeable.sol\":1499:1511  _msgSender() */\n      tag_173\n        /* \"@openzeppelin/contracts-upgradeable/access/OwnableUpgradeable.sol\":1499:1509  _msgSender */\n      tag_68\n        /* \"@openzeppelin/contracts-upgradeable/access/OwnableUpgradeable.sol\":1499:1511  _msgSender() */\n      jump\t// in\n    tag_173:\n        /* \"@openzeppelin/contracts-upgradeable/access/OwnableUpgradeable.sol\":1488:1511  owner() == _msgSender() */\n      0xffffffffffffffffffffffffffffffffffffffff\n      and\n        /* \"@openzeppelin/contracts-upgradeable/access/OwnableUpgradeable.sol\":1488:1495  owner() */\n      tag_174\n        /* \"@openzeppelin/contracts-upgradeable/access/OwnableUpgradeable.sol\":1488:1493  owner */\n      tag_32\n        /* \"@openzeppelin/contracts-upgradeable/access/OwnableUpgradeable.sol\":1488:1495  owner() */\n      jump\t// in\n    tag_174:\n        /* \"@openzeppelin/contracts-upgradeable/access/OwnableUpgradeable.sol\":1488:1511  owner() == _msgSender() */\n      0xffffffffffffffffffffffffffffffffffffffff\n      and\n      eq\n        /* \"@openzeppelin/contracts-upgradeable/access/OwnableUpgradeable.sol\":1480:1548  require(owner() == _msgSender(), \"Ownable: caller is not the owner\") */\n      tag_175\n      jumpi\n      mload(0x40)\n      0x08c379a000000000000000000000000000000000000000000000000000000000\n      dup2\n      mstore\n      0x04\n      add\n      tag_176\n      swap1\n      tag_72\n      jump\t// in\n    tag_176:\n      mload(0x40)\n      dup1\n      swap2\n      sub\n      swap1\n      revert\n    tag_175:\n        /* \"@openzeppelin/contracts-upgradeable/access/OwnableUpgradeable.sol\":2266:2267  0 */\n      0x00\n        /* \"@openzeppelin/contracts-upgradeable/access/OwnableUpgradeable.sol\":2246:2268  newOwner != address(0) */\n      0xffffffffffffffffffffffffffffffffffffffff\n      and\n        /* \"@openzeppelin/contracts-upgradeable/access/OwnableUpgradeable.sol\":2246:2254  newOwner */\n      dup2\n        /* \"@openzeppelin/contracts-upgradeable/access/OwnableUpgradeable.sol\":2246:2268  newOwner != address(0) */\n      0xffffffffffffffffffffffffffffffffffffffff\n      and\n      eq\n      iszero\n        /* \"@openzeppelin/contracts-upgradeable/access/OwnableUpgradeable.sol\":2238:2311  require(newOwner != address(0), \"Ownable: new owner is the zero address\") */\n      tag_178\n      jumpi\n      mload(0x40)\n      0x08c379a000000000000000000000000000000000000000000000000000000000\n      dup2\n      mstore\n      0x04\n      add\n      tag_179\n      swap1\n      tag_180\n      jump\t// in\n    tag_179:\n      mload(0x40)\n      dup1\n      swap2\n      sub\n      swap1\n      revert\n    tag_178:\n        /* \"@openzeppelin/contracts-upgradeable/access/OwnableUpgradeable.sol\":2321:2349  _transferOwnership(newOwner) */\n      tag_181\n        /* \"@openzeppelin/contracts-upgradeable/access/OwnableUpgradeable.sol\":2340:2348  newOwner */\n      dup2\n        /* \"@openzeppelin/contracts-upgradeable/access/OwnableUpgradeable.sol\":2321:2339  _transferOwnership */\n      tag_125\n        /* \"@openzeppelin/contracts-upgradeable/access/OwnableUpgradeable.sol\":2321:2349  _transferOwnership(newOwner) */\n      jump\t// in\n    tag_181:\n        /* \"@openzeppelin/contracts-upgradeable/access/OwnableUpgradeable.sol\":2158:2356  function transferOwnership(address newOwner) public virtual onlyOwner {... */\n      pop\n      jump\t// out\n        /* \"contracts/ChampionSale.sol\":498:578  function __initialize() external initializer {\r... */\n    tag_65:\n        /* \"@openzeppelin/contracts-upgradeable/proxy/utils/Initializable.sol\":2369:2382  _initializing */\n      0x00\n      0x01\n      swap1\n      sload\n      swap1\n      0x0100\n      exp\n      swap1\n      div\n      0xff\n      and\n        /* \"@openzeppelin/contracts-upgradeable/proxy/utils/Initializable.sol\":2369:2417  _initializing ? _isConstructor() : !_initialized */\n      tag_183\n      jumpi\n        /* \"@openzeppelin/contracts-upgradeable/proxy/utils/Initializable.sol\":2405:2417  _initialized */\n      0x00\n      dup1\n      sload\n      swap1\n      0x0100\n      exp\n      swap1\n      div\n      0xff\n      and\n        /* \"@openzeppelin/contracts-upgradeable/proxy/utils/Initializable.sol\":2404:2417  !_initialized */\n      iszero\n        /* \"@openzeppelin/contracts-upgradeable/proxy/utils/Initializable.sol\":2369:2417  _initializing ? _isConstructor() : !_initialized */\n      jump(tag_184)\n    tag_183:\n        /* \"@openzeppelin/contracts-upgradeable/proxy/utils/Initializable.sol\":2385:2401  _isConstructor() */\n      tag_185\n        /* \"@openzeppelin/contracts-upgradeable/proxy/utils/Initializable.sol\":2385:2399  _isConstructor */\n      tag_186\n        /* \"@openzeppelin/contracts-upgradeable/proxy/utils/Initializable.sol\":2385:2401  _isConstructor() */\n      jump\t// in\n    tag_185:\n        /* \"@openzeppelin/contracts-upgradeable/proxy/utils/Initializable.sol\":2369:2417  _initializing ? _isConstructor() : !_initialized */\n    tag_184:\n        /* \"@openzeppelin/contracts-upgradeable/proxy/utils/Initializable.sol\":2361:2468  require(_initializing ? _isConstructor() : !_initialized, \"Initializable: contract is already initialized\") */\n      tag_187\n      jumpi\n      mload(0x40)\n      0x08c379a000000000000000000000000000000000000000000000000000000000\n      dup2\n      mstore\n      0x04\n      add\n      tag_188\n      swap1\n      tag_189\n      jump\t// in\n    tag_188:\n      mload(0x40)\n      dup1\n      swap2\n      sub\n      swap1\n      revert\n    tag_187:\n        /* \"@openzeppelin/contracts-upgradeable/proxy/utils/Initializable.sol\":2479:2498  bool isTopLevelCall */\n      0x00\n        /* \"@openzeppelin/contracts-upgradeable/proxy/utils/Initializable.sol\":2502:2515  _initializing */\n      dup1\n      0x01\n      swap1\n      sload\n      swap1\n      0x0100\n      exp\n      swap1\n      div\n      0xff\n      and\n        /* \"@openzeppelin/contracts-upgradeable/proxy/utils/Initializable.sol\":2501:2515  !_initializing */\n      iszero\n        /* \"@openzeppelin/contracts-upgradeable/proxy/utils/Initializable.sol\":2479:2515  bool isTopLevelCall = !_initializing */\n      swap1\n      pop\n        /* \"@openzeppelin/contracts-upgradeable/proxy/utils/Initializable.sol\":2529:2543  isTopLevelCall */\n      dup1\n        /* \"@openzeppelin/contracts-upgradeable/proxy/utils/Initializable.sol\":2525:2623  if (isTopLevelCall) {... */\n      iszero\n      tag_190\n      jumpi\n        /* \"@openzeppelin/contracts-upgradeable/proxy/utils/Initializable.sol\":2575:2579  true */\n      0x01\n        /* \"@openzeppelin/contracts-upgradeable/proxy/utils/Initializable.sol\":2559:2572  _initializing */\n      0x00\n      0x01\n        /* \"@openzeppelin/contracts-upgradeable/proxy/utils/Initializable.sol\":2559:2579  _initializing = true */\n      0x0100\n      exp\n      dup2\n      sload\n      dup2\n      0xff\n      mul\n      not\n      and\n      swap1\n      dup4\n      iszero\n      iszero\n      mul\n      or\n      swap1\n      sstore\n      pop\n        /* \"@openzeppelin/contracts-upgradeable/proxy/utils/Initializable.sol\":2608:2612  true */\n      0x01\n        /* \"@openzeppelin/contracts-upgradeable/proxy/utils/Initializable.sol\":2593:2605  _initialized */\n      0x00\n      dup1\n        /* \"@openzeppelin/contracts-upgradeable/proxy/utils/Initializable.sol\":2593:2612  _initialized = true */\n      0x0100\n      exp\n      dup2\n      sload\n      dup2\n      0xff\n      mul\n      not\n      and\n      swap1\n      dup4\n      iszero\n      iszero\n      mul\n      or\n      swap1\n      sstore\n      pop\n        /* \"@openzeppelin/contracts-upgradeable/proxy/utils/Initializable.sol\":2525:2623  if (isTopLevelCall) {... */\n    tag_190:\n        /* \"contracts/ChampionSale.sol\":554:570  __Ownable_init() */\n      tag_192\n        /* \"contracts/ChampionSale.sol\":554:568  __Ownable_init */\n      tag_193\n        /* \"contracts/ChampionSale.sol\":554:570  __Ownable_init() */\n      jump\t// in\n    tag_192:\n        /* \"@openzeppelin/contracts-upgradeable/proxy/utils/Initializable.sol\":2649:2663  isTopLevelCall */\n      dup1\n        /* \"@openzeppelin/contracts-upgradeable/proxy/utils/Initializable.sol\":2645:2711  if (isTopLevelCall) {... */\n      iszero\n      tag_194\n      jumpi\n        /* \"@openzeppelin/contracts-upgradeable/proxy/utils/Initializable.sol\":2695:2700  false */\n      0x00\n        /* \"@openzeppelin/contracts-upgradeable/proxy/utils/Initializable.sol\":2679:2692  _initializing */\n      dup1\n      0x01\n        /* \"@openzeppelin/contracts-upgradeable/proxy/utils/Initializable.sol\":2679:2700  _initializing = false */\n      0x0100\n      exp\n      dup2\n      sload\n      dup2\n      0xff\n      mul\n      not\n      and\n      swap1\n      dup4\n      iszero\n      iszero\n      mul\n      or\n      swap1\n      sstore\n      pop\n        /* \"@openzeppelin/contracts-upgradeable/proxy/utils/Initializable.sol\":2645:2711  if (isTopLevelCall) {... */\n    tag_194:\n        /* \"@openzeppelin/contracts-upgradeable/proxy/utils/Initializable.sol\":2080:2717  {... */\n      pop\n        /* \"contracts/ChampionSale.sol\":498:578  function __initialize() external initializer {\r... */\n      jump\t// out\n        /* \"@openzeppelin/contracts-upgradeable/utils/ContextUpgradeable.sol\":850:946  function _msgSender() internal view virtual returns (address) {... */\n    tag_68:\n        /* \"@openzeppelin/contracts-upgradeable/utils/ContextUpgradeable.sol\":903:910  address */\n      0x00\n        /* \"@openzeppelin/contracts-upgradeable/utils/ContextUpgradeable.sol\":929:939  msg.sender */\n      caller\n        /* \"@openzeppelin/contracts-upgradeable/utils/ContextUpgradeable.sol\":922:939  return msg.sender */\n      swap1\n      pop\n        /* \"@openzeppelin/contracts-upgradeable/utils/ContextUpgradeable.sol\":850:946  function _msgSender() internal view virtual returns (address) {... */\n      swap1\n      jump\t// out\n        /* \"@openzeppelin/contracts-upgradeable/access/OwnableUpgradeable.sol\":2510:2697  function _transferOwnership(address newOwner) internal virtual {... */\n    tag_125:\n        /* \"@openzeppelin/contracts-upgradeable/access/OwnableUpgradeable.sol\":2583:2599  address oldOwner */\n      0x00\n        /* \"@openzeppelin/contracts-upgradeable/access/OwnableUpgradeable.sol\":2602:2608  _owner */\n      0x33\n      0x00\n      swap1\n      sload\n      swap1\n      0x0100\n      exp\n      swap1\n      div\n      0xffffffffffffffffffffffffffffffffffffffff\n      and\n        /* \"@openzeppelin/contracts-upgradeable/access/OwnableUpgradeable.sol\":2583:2608  address oldOwner = _owner */\n      swap1\n      pop\n        /* \"@openzeppelin/contracts-upgradeable/access/OwnableUpgradeable.sol\":2627:2635  newOwner */\n      dup2\n        /* \"@openzeppelin/contracts-upgradeable/access/OwnableUpgradeable.sol\":2618:2624  _owner */\n      0x33\n      0x00\n        /* \"@openzeppelin/contracts-upgradeable/access/OwnableUpgradeable.sol\":2618:2635  _owner = newOwner */\n      0x0100\n      exp\n      dup2\n      sload\n      dup2\n      0xffffffffffffffffffffffffffffffffffffffff\n      mul\n      not\n      and\n      swap1\n      dup4\n      0xffffffffffffffffffffffffffffffffffffffff\n      and\n      mul\n      or\n      swap1\n      sstore\n      pop\n        /* \"@openzeppelin/contracts-upgradeable/access/OwnableUpgradeable.sol\":2681:2689  newOwner */\n      dup2\n        /* \"@openzeppelin/contracts-upgradeable/access/OwnableUpgradeable.sol\":2650:2690  OwnershipTransferred(oldOwner, newOwner) */\n      0xffffffffffffffffffffffffffffffffffffffff\n      and\n        /* \"@openzeppelin/contracts-upgradeable/access/OwnableUpgradeable.sol\":2671:2679  oldOwner */\n      dup2\n        /* \"@openzeppelin/contracts-upgradeable/access/OwnableUpgradeable.sol\":2650:2690  OwnershipTransferred(oldOwner, newOwner) */\n      0xffffffffffffffffffffffffffffffffffffffff\n      and\n      0x8be0079c531659141344cd1fd0a4f28419497f9722a3daafe3b4186f6b6457e0\n      mload(0x40)\n      mload(0x40)\n      dup1\n      swap2\n      sub\n      swap1\n      log3\n        /* \"@openzeppelin/contracts-upgradeable/access/OwnableUpgradeable.sol\":2573:2697  {... */\n      pop\n        /* \"@openzeppelin/contracts-upgradeable/access/OwnableUpgradeable.sol\":2510:2697  function _transferOwnership(address newOwner) internal virtual {... */\n      pop\n      jump\t// out\n        /* \"@openzeppelin/contracts-upgradeable/proxy/utils/Initializable.sol\":3037:3160  function _isConstructor() private view returns (bool) {... */\n    tag_186:\n        /* \"@openzeppelin/contracts-upgradeable/proxy/utils/Initializable.sol\":3085:3089  bool */\n      0x00\n        /* \"@openzeppelin/contracts-upgradeable/proxy/utils/Initializable.sol\":3109:3153  AddressUpgradeable.isContract(address(this)) */\n      tag_198\n        /* \"@openzeppelin/contracts-upgradeable/proxy/utils/Initializable.sol\":3147:3151  this */\n      address\n        /* \"@openzeppelin/contracts-upgradeable/proxy/utils/Initializable.sol\":3109:3138  AddressUpgradeable.isContract */\n      tag_199\n        /* \"@openzeppelin/contracts-upgradeable/proxy/utils/Initializable.sol\":3109:3153  AddressUpgradeable.isContract(address(this)) */\n      jump\t// in\n    tag_198:\n        /* \"@openzeppelin/contracts-upgradeable/proxy/utils/Initializable.sol\":3108:3153  !AddressUpgradeable.isContract(address(this)) */\n      iszero\n        /* \"@openzeppelin/contracts-upgradeable/proxy/utils/Initializable.sol\":3101:3153  return !AddressUpgradeable.isContract(address(this)) */\n      swap1\n      pop\n        /* \"@openzeppelin/contracts-upgradeable/proxy/utils/Initializable.sol\":3037:3160  function _isConstructor() private view returns (bool) {... */\n      swap1\n      jump\t// out\n        /* \"@openzeppelin/contracts-upgradeable/access/OwnableUpgradeable.sol\":988:1083  function __Ownable_init() internal onlyInitializing {... */\n    tag_193:\n        /* \"@openzeppelin/contracts-upgradeable/proxy/utils/Initializable.sol\":2952:2965  _initializing */\n      0x00\n      0x01\n      swap1\n      sload\n      swap1\n      0x0100\n      exp\n      swap1\n      div\n      0xff\n      and\n        /* \"@openzeppelin/contracts-upgradeable/proxy/utils/Initializable.sol\":2944:3013  require(_initializing, \"Initializable: contract is not initializing\") */\n      tag_201\n      jumpi\n      mload(0x40)\n      0x08c379a000000000000000000000000000000000000000000000000000000000\n      dup2\n      mstore\n      0x04\n      add\n      tag_202\n      swap1\n      tag_203\n      jump\t// in\n    tag_202:\n      mload(0x40)\n      dup1\n      swap2\n      sub\n      swap1\n      revert\n    tag_201:\n        /* \"@openzeppelin/contracts-upgradeable/access/OwnableUpgradeable.sol\":1050:1076  __Ownable_init_unchained() */\n      tag_205\n        /* \"@openzeppelin/contracts-upgradeable/access/OwnableUpgradeable.sol\":1050:1074  __Ownable_init_unchained */\n      tag_206\n        /* \"@openzeppelin/contracts-upgradeable/access/OwnableUpgradeable.sol\":1050:1076  __Ownable_init_unchained() */\n      jump\t// in\n    tag_205:\n        /* \"@openzeppelin/contracts-upgradeable/access/OwnableUpgradeable.sol\":988:1083  function __Ownable_init() internal onlyInitializing {... */\n      jump\t// out\n        /* \"@openzeppelin/contracts-upgradeable/utils/AddressUpgradeable.sol\":1186:1506  function isContract(address account) internal view returns (bool) {... */\n    tag_199:\n        /* \"@openzeppelin/contracts-upgradeable/utils/AddressUpgradeable.sol\":1246:1250  bool */\n      0x00\n        /* \"@openzeppelin/contracts-upgradeable/utils/AddressUpgradeable.sol\":1498:1499  0 */\n      dup1\n        /* \"@openzeppelin/contracts-upgradeable/utils/AddressUpgradeable.sol\":1476:1483  account */\n      dup3\n        /* \"@openzeppelin/contracts-upgradeable/utils/AddressUpgradeable.sol\":1476:1495  account.code.length */\n      0xffffffffffffffffffffffffffffffffffffffff\n      and\n      extcodesize\n        /* \"@openzeppelin/contracts-upgradeable/utils/AddressUpgradeable.sol\":1476:1499  account.code.length > 0 */\n      gt\n        /* \"@openzeppelin/contracts-upgradeable/utils/AddressUpgradeable.sol\":1469:1499  return account.code.length > 0 */\n      swap1\n      pop\n        /* \"@openzeppelin/contracts-upgradeable/utils/AddressUpgradeable.sol\":1186:1506  function isContract(address account) internal view returns (bool) {... */\n      swap2\n      swap1\n      pop\n      jump\t// out\n        /* \"@openzeppelin/contracts-upgradeable/access/OwnableUpgradeable.sol\":1089:1200  function __Ownable_init_unchained() internal onlyInitializing {... */\n    tag_206:\n        /* \"@openzeppelin/contracts-upgradeable/proxy/utils/Initializable.sol\":2952:2965  _initializing */\n      0x00\n      0x01\n      swap1\n      sload\n      swap1\n      0x0100\n      exp\n      swap1\n      div\n      0xff\n      and\n        /* \"@openzeppelin/contracts-upgradeable/proxy/utils/Initializable.sol\":2944:3013  require(_initializing, \"Initializable: contract is not initializing\") */\n      tag_209\n      jumpi\n      mload(0x40)\n      0x08c379a000000000000000000000000000000000000000000000000000000000\n      dup2\n      mstore\n      0x04\n      add\n      tag_210\n      swap1\n      tag_203\n      jump\t// in\n    tag_210:\n      mload(0x40)\n      dup1\n      swap2\n      sub\n      swap1\n      revert\n    tag_209:\n        /* \"@openzeppelin/contracts-upgradeable/access/OwnableUpgradeable.sol\":1161:1193  _transferOwnership(_msgSender()) */\n      tag_212\n        /* \"@openzeppelin/contracts-upgradeable/access/OwnableUpgradeable.sol\":1180:1192  _msgSender() */\n      tag_213\n        /* \"@openzeppelin/contracts-upgradeable/access/OwnableUpgradeable.sol\":1180:1190  _msgSender */\n      tag_68\n        /* \"@openzeppelin/contracts-upgradeable/access/OwnableUpgradeable.sol\":1180:1192  _msgSender() */\n      jump\t// in\n    tag_213:\n        /* \"@openzeppelin/contracts-upgradeable/access/OwnableUpgradeable.sol\":1161:1179  _transferOwnership */\n      tag_125\n        /* \"@openzeppelin/contracts-upgradeable/access/OwnableUpgradeable.sol\":1161:1193  _transferOwnership(_msgSender()) */\n      jump\t// in\n    tag_212:\n        /* \"@openzeppelin/contracts-upgradeable/access/OwnableUpgradeable.sol\":1089:1200  function __Ownable_init_unchained() internal onlyInitializing {... */\n      jump\t// out\n    tag_128:\n      mload(0x40)\n      dup1\n      0x40\n      add\n      0x40\n      mstore\n      dup1\n      0x00\n      dup2\n      mstore\n      0x20\n      add\n      iszero(iszero(0x00))\n      dup2\n      mstore\n      pop\n      swap1\n      jump\t// out\n        /* \"#utility.yul\":7:146   */\n    tag_215:\n        /* \"#utility.yul\":53:58   */\n      0x00\n        /* \"#utility.yul\":91:97   */\n      dup2\n        /* \"#utility.yul\":78:98   */\n      calldataload\n        /* \"#utility.yul\":69:98   */\n      swap1\n      pop\n        /* \"#utility.yul\":107:140   */\n      tag_217\n        /* \"#utility.yul\":134:139   */\n      dup2\n        /* \"#utility.yul\":107:140   */\n      tag_218\n      jump\t// in\n    tag_217:\n        /* \"#utility.yul\":7:146   */\n      swap3\n      swap2\n      pop\n      pop\n      jump\t// out\n        /* \"#utility.yul\":152:291   */\n    tag_219:\n        /* \"#utility.yul\":198:203   */\n      0x00\n        /* \"#utility.yul\":236:242   */\n      dup2\n        /* \"#utility.yul\":223:243   */\n      calldataload\n        /* \"#utility.yul\":214:243   */\n      swap1\n      pop\n        /* \"#utility.yul\":252:285   */\n      tag_221\n        /* \"#utility.yul\":279:284   */\n      dup2\n        /* \"#utility.yul\":252:285   */\n      tag_222\n      jump\t// in\n    tag_221:\n        /* \"#utility.yul\":152:291   */\n      swap3\n      swap2\n      pop\n      pop\n      jump\t// out\n        /* \"#utility.yul\":297:626   */\n    tag_38:\n        /* \"#utility.yul\":356:362   */\n      0x00\n        /* \"#utility.yul\":405:407   */\n      0x20\n        /* \"#utility.yul\":393:402   */\n      dup3\n        /* \"#utility.yul\":384:391   */\n      dup5\n        /* \"#utility.yul\":380:403   */\n      sub\n        /* \"#utility.yul\":376:408   */\n      slt\n        /* \"#utility.yul\":373:492   */\n      iszero\n      tag_224\n      jumpi\n        /* \"#utility.yul\":411:490   */\n      tag_225\n      tag_226\n      jump\t// in\n    tag_225:\n        /* \"#utility.yul\":373:492   */\n    tag_224:\n        /* \"#utility.yul\":531:532   */\n      0x00\n        /* \"#utility.yul\":556:609   */\n      tag_227\n        /* \"#utility.yul\":601:608   */\n      dup5\n        /* \"#utility.yul\":592:598   */\n      dup3\n        /* \"#utility.yul\":581:590   */\n      dup6\n        /* \"#utility.yul\":577:599   */\n      add\n        /* \"#utility.yul\":556:609   */\n      tag_215\n      jump\t// in\n    tag_227:\n        /* \"#utility.yul\":546:609   */\n      swap2\n      pop\n        /* \"#utility.yul\":502:619   */\n      pop\n        /* \"#utility.yul\":297:626   */\n      swap3\n      swap2\n      pop\n      pop\n      jump\t// out\n        /* \"#utility.yul\":632:1106   */\n    tag_25:\n        /* \"#utility.yul\":700:706   */\n      0x00\n        /* \"#utility.yul\":708:714   */\n      dup1\n        /* \"#utility.yul\":757:759   */\n      0x40\n        /* \"#utility.yul\":745:754   */\n      dup4\n        /* \"#utility.yul\":736:743   */\n      dup6\n        /* \"#utility.yul\":732:755   */\n      sub\n        /* \"#utility.yul\":728:760   */\n      slt\n        /* \"#utility.yul\":725:844   */\n      iszero\n      tag_229\n      jumpi\n        /* \"#utility.yul\":763:842   */\n      tag_230\n      tag_226\n      jump\t// in\n    tag_230:\n        /* \"#utility.yul\":725:844   */\n    tag_229:\n        /* \"#utility.yul\":883:884   */\n      0x00\n        /* \"#utility.yul\":908:961   */\n      tag_231\n        /* \"#utility.yul\":953:960   */\n      dup6\n        /* \"#utility.yul\":944:950   */\n      dup3\n        /* \"#utility.yul\":933:942   */\n      dup7\n        /* \"#utility.yul\":929:951   */\n      add\n        /* \"#utility.yul\":908:961   */\n      tag_215\n      jump\t// in\n    tag_231:\n        /* \"#utility.yul\":898:961   */\n      swap3\n      pop\n        /* \"#utility.yul\":854:971   */\n      pop\n        /* \"#utility.yul\":1010:1012   */\n      0x20\n        /* \"#utility.yul\":1036:1089   */\n      tag_232\n        /* \"#utility.yul\":1081:1088   */\n      dup6\n        /* \"#utility.yul\":1072:1078   */\n      dup3\n        /* \"#utility.yul\":1061:1070   */\n      dup7\n        /* \"#utility.yul\":1057:1079   */\n      add\n        /* \"#utility.yul\":1036:1089   */\n      tag_219\n      jump\t// in\n    tag_232:\n        /* \"#utility.yul\":1026:1089   */\n      swap2\n      pop\n        /* \"#utility.yul\":981:1099   */\n      pop\n        /* \"#utility.yul\":632:1106   */\n      swap3\n      pop\n      swap3\n      swap1\n      pop\n      jump\t// out\n        /* \"#utility.yul\":1112:1230   */\n    tag_233:\n        /* \"#utility.yul\":1199:1223   */\n      tag_235\n        /* \"#utility.yul\":1217:1222   */\n      dup2\n        /* \"#utility.yul\":1199:1223   */\n      tag_236\n      jump\t// in\n    tag_235:\n        /* \"#utility.yul\":1194:1197   */\n      dup3\n        /* \"#utility.yul\":1187:1224   */\n      mstore\n        /* \"#utility.yul\":1112:1230   */\n      pop\n      pop\n      jump\t// out\n        /* \"#utility.yul\":1236:1335   */\n    tag_237:\n        /* \"#utility.yul\":1307:1328   */\n      tag_239\n        /* \"#utility.yul\":1322:1327   */\n      dup2\n        /* \"#utility.yul\":1307:1328   */\n      tag_240\n      jump\t// in\n    tag_239:\n        /* \"#utility.yul\":1302:1305   */\n      dup3\n        /* \"#utility.yul\":1295:1329   */\n      mstore\n        /* \"#utility.yul\":1236:1335   */\n      pop\n      pop\n      jump\t// out\n        /* \"#utility.yul\":1341:1707   */\n    tag_241:\n        /* \"#utility.yul\":1483:1486   */\n      0x00\n        /* \"#utility.yul\":1504:1571   */\n      tag_243\n        /* \"#utility.yul\":1568:1570   */\n      0x26\n        /* \"#utility.yul\":1563:1566   */\n      dup4\n        /* \"#utility.yul\":1504:1571   */\n      tag_244\n      jump\t// in\n    tag_243:\n        /* \"#utility.yul\":1497:1571   */\n      swap2\n      pop\n        /* \"#utility.yul\":1580:1673   */\n      tag_245\n        /* \"#utility.yul\":1669:1672   */\n      dup3\n        /* \"#utility.yul\":1580:1673   */\n      tag_246\n      jump\t// in\n    tag_245:\n        /* \"#utility.yul\":1698:1700   */\n      0x40\n        /* \"#utility.yul\":1693:1696   */\n      dup3\n        /* \"#utility.yul\":1689:1701   */\n      add\n        /* \"#utility.yul\":1682:1701   */\n      swap1\n      pop\n        /* \"#utility.yul\":1341:1707   */\n      swap2\n      swap1\n      pop\n      jump\t// out\n        /* \"#utility.yul\":1713:2079   */\n    tag_247:\n        /* \"#utility.yul\":1855:1858   */\n      0x00\n        /* \"#utility.yul\":1876:1943   */\n      tag_249\n        /* \"#utility.yul\":1940:1942   */\n      0x14\n        /* \"#utility.yul\":1935:1938   */\n      dup4\n        /* \"#utility.yul\":1876:1943   */\n      tag_244\n      jump\t// in\n    tag_249:\n        /* \"#utility.yul\":1869:1943   */\n      swap2\n      pop\n        /* \"#utility.yul\":1952:2045   */\n      tag_250\n        /* \"#utility.yul\":2041:2044   */\n      dup3\n        /* \"#utility.yul\":1952:2045   */\n      tag_251\n      jump\t// in\n    tag_250:\n        /* \"#utility.yul\":2070:2072   */\n      0x20\n        /* \"#utility.yul\":2065:2068   */\n      dup3\n        /* \"#utility.yul\":2061:2073   */\n      add\n        /* \"#utility.yul\":2054:2073   */\n      swap1\n      pop\n        /* \"#utility.yul\":1713:2079   */\n      swap2\n      swap1\n      pop\n      jump\t// out\n        /* \"#utility.yul\":2085:2451   */\n    tag_252:\n        /* \"#utility.yul\":2227:2230   */\n      0x00\n        /* \"#utility.yul\":2248:2315   */\n      tag_254\n        /* \"#utility.yul\":2312:2314   */\n      0x2a\n        /* \"#utility.yul\":2307:2310   */\n      dup4\n        /* \"#utility.yul\":2248:2315   */\n      tag_244\n      jump\t// in\n    tag_254:\n        /* \"#utility.yul\":2241:2315   */\n      swap2\n      pop\n        /* \"#utility.yul\":2324:2417   */\n      tag_255\n        /* \"#utility.yul\":2413:2416   */\n      dup3\n        /* \"#utility.yul\":2324:2417   */\n      tag_256\n      jump\t// in\n    tag_255:\n        /* \"#utility.yul\":2442:2444   */\n      0x40\n        /* \"#utility.yul\":2437:2440   */\n      dup3\n        /* \"#utility.yul\":2433:2445   */\n      add\n        /* \"#utility.yul\":2426:2445   */\n      swap1\n      pop\n        /* \"#utility.yul\":2085:2451   */\n      swap2\n      swap1\n      pop\n      jump\t// out\n        /* \"#utility.yul\":2457:2823   */\n    tag_257:\n        /* \"#utility.yul\":2599:2602   */\n      0x00\n        /* \"#utility.yul\":2620:2687   */\n      tag_259\n        /* \"#utility.yul\":2684:2686   */\n      0x1b\n        /* \"#utility.yul\":2679:2682   */\n      dup4\n        /* \"#utility.yul\":2620:2687   */\n      tag_244\n      jump\t// in\n    tag_259:\n        /* \"#utility.yul\":2613:2687   */\n      swap2\n      pop\n        /* \"#utility.yul\":2696:2789   */\n      tag_260\n        /* \"#utility.yul\":2785:2788   */\n      dup3\n        /* \"#utility.yul\":2696:2789   */\n      tag_261\n      jump\t// in\n    tag_260:\n        /* \"#utility.yul\":2814:2816   */\n      0x20\n        /* \"#utility.yul\":2809:2812   */\n      dup3\n        /* \"#utility.yul\":2805:2817   */\n      add\n        /* \"#utility.yul\":2798:2817   */\n      swap1\n      pop\n        /* \"#utility.yul\":2457:2823   */\n      swap2\n      swap1\n      pop\n      jump\t// out\n        /* \"#utility.yul\":2829:3195   */\n    tag_262:\n        /* \"#utility.yul\":2971:2974   */\n      0x00\n        /* \"#utility.yul\":2992:3059   */\n      tag_264\n        /* \"#utility.yul\":3056:3058   */\n      0x2e\n        /* \"#utility.yul\":3051:3054   */\n      dup4\n        /* \"#utility.yul\":2992:3059   */\n      tag_244\n      jump\t// in\n    tag_264:\n        /* \"#utility.yul\":2985:3059   */\n      swap2\n      pop\n        /* \"#utility.yul\":3068:3161   */\n      tag_265\n        /* \"#utility.yul\":3157:3160   */\n      dup3\n        /* \"#utility.yul\":3068:3161   */\n      tag_266\n      jump\t// in\n    tag_265:\n        /* \"#utility.yul\":3186:3188   */\n      0x40\n        /* \"#utility.yul\":3181:3184   */\n      dup3\n        /* \"#utility.yul\":3177:3189   */\n      add\n        /* \"#utility.yul\":3170:3189   */\n      swap1\n      pop\n        /* \"#utility.yul\":2829:3195   */\n      swap2\n      swap1\n      pop\n      jump\t// out\n        /* \"#utility.yul\":3201:3567   */\n    tag_267:\n        /* \"#utility.yul\":3343:3346   */\n      0x00\n        /* \"#utility.yul\":3364:3431   */\n      tag_269\n        /* \"#utility.yul\":3428:3430   */\n      0x27\n        /* \"#utility.yul\":3423:3426   */\n      dup4\n        /* \"#utility.yul\":3364:3431   */\n      tag_244\n      jump\t// in\n    tag_269:\n        /* \"#utility.yul\":3357:3431   */\n      swap2\n      pop\n        /* \"#utility.yul\":3440:3533   */\n      tag_270\n        /* \"#utility.yul\":3529:3532   */\n      dup3\n        /* \"#utility.yul\":3440:3533   */\n      tag_271\n      jump\t// in\n    tag_270:\n        /* \"#utility.yul\":3558:3560   */\n      0x40\n        /* \"#utility.yul\":3553:3556   */\n      dup3\n        /* \"#utility.yul\":3549:3561   */\n      add\n        /* \"#utility.yul\":3542:3561   */\n      swap1\n      pop\n        /* \"#utility.yul\":3201:3567   */\n      swap2\n      swap1\n      pop\n      jump\t// out\n        /* \"#utility.yul\":3573:3939   */\n    tag_272:\n        /* \"#utility.yul\":3715:3718   */\n      0x00\n        /* \"#utility.yul\":3736:3803   */\n      tag_274\n        /* \"#utility.yul\":3800:3802   */\n      0x20\n        /* \"#utility.yul\":3795:3798   */\n      dup4\n        /* \"#utility.yul\":3736:3803   */\n      tag_244\n      jump\t// in\n    tag_274:\n        /* \"#utility.yul\":3729:3803   */\n      swap2\n      pop\n        /* \"#utility.yul\":3812:3905   */\n      tag_275\n        /* \"#utility.yul\":3901:3904   */\n      dup3\n        /* \"#utility.yul\":3812:3905   */\n      tag_276\n      jump\t// in\n    tag_275:\n        /* \"#utility.yul\":3930:3932   */\n      0x20\n        /* \"#utility.yul\":3925:3928   */\n      dup3\n        /* \"#utility.yul\":3921:3933   */\n      add\n        /* \"#utility.yul\":3914:3933   */\n      swap1\n      pop\n        /* \"#utility.yul\":3573:3939   */\n      swap2\n      swap1\n      pop\n      jump\t// out\n        /* \"#utility.yul\":3945:4343   */\n    tag_277:\n        /* \"#utility.yul\":4104:4107   */\n      0x00\n        /* \"#utility.yul\":4125:4208   */\n      tag_279\n        /* \"#utility.yul\":4206:4207   */\n      0x00\n        /* \"#utility.yul\":4201:4204   */\n      dup4\n        /* \"#utility.yul\":4125:4208   */\n      tag_280\n      jump\t// in\n    tag_279:\n        /* \"#utility.yul\":4118:4208   */\n      swap2\n      pop\n        /* \"#utility.yul\":4217:4310   */\n      tag_281\n        /* \"#utility.yul\":4306:4309   */\n      dup3\n        /* \"#utility.yul\":4217:4310   */\n      tag_282\n      jump\t// in\n    tag_281:\n        /* \"#utility.yul\":4335:4336   */\n      0x00\n        /* \"#utility.yul\":4330:4333   */\n      dup3\n        /* \"#utility.yul\":4326:4337   */\n      add\n        /* \"#utility.yul\":4319:4337   */\n      swap1\n      pop\n        /* \"#utility.yul\":3945:4343   */\n      swap2\n      swap1\n      pop\n      jump\t// out\n        /* \"#utility.yul\":4349:4715   */\n    tag_283:\n        /* \"#utility.yul\":4491:4494   */\n      0x00\n        /* \"#utility.yul\":4512:4579   */\n      tag_285\n        /* \"#utility.yul\":4576:4578   */\n      0x1a\n        /* \"#utility.yul\":4571:4574   */\n      dup4\n        /* \"#utility.yul\":4512:4579   */\n      tag_244\n      jump\t// in\n    tag_285:\n        /* \"#utility.yul\":4505:4579   */\n      swap2\n      pop\n        /* \"#utility.yul\":4588:4681   */\n      tag_286\n        /* \"#utility.yul\":4677:4680   */\n      dup3\n        /* \"#utility.yul\":4588:4681   */\n      tag_287\n      jump\t// in\n    tag_286:\n        /* \"#utility.yul\":4706:4708   */\n      0x20\n        /* \"#utility.yul\":4701:4704   */\n      dup3\n        /* \"#utility.yul\":4697:4709   */\n      add\n        /* \"#utility.yul\":4690:4709   */\n      swap1\n      pop\n        /* \"#utility.yul\":4349:4715   */\n      swap2\n      swap1\n      pop\n      jump\t// out\n        /* \"#utility.yul\":4721:5087   */\n    tag_288:\n        /* \"#utility.yul\":4863:4866   */\n      0x00\n        /* \"#utility.yul\":4884:4951   */\n      tag_290\n        /* \"#utility.yul\":4948:4950   */\n      0x2b\n        /* \"#utility.yul\":4943:4946   */\n      dup4\n        /* \"#utility.yul\":4884:4951   */\n      tag_244\n      jump\t// in\n    tag_290:\n        /* \"#utility.yul\":4877:4951   */\n      swap2\n      pop\n        /* \"#utility.yul\":4960:5053   */\n      tag_291\n        /* \"#utility.yul\":5049:5052   */\n      dup3\n        /* \"#utility.yul\":4960:5053   */\n      tag_292\n      jump\t// in\n    tag_291:\n        /* \"#utility.yul\":5078:5080   */\n      0x40\n        /* \"#utility.yul\":5073:5076   */\n      dup3\n        /* \"#utility.yul\":5069:5081   */\n      add\n        /* \"#utility.yul\":5062:5081   */\n      swap1\n      pop\n        /* \"#utility.yul\":4721:5087   */\n      swap2\n      swap1\n      pop\n      jump\t// out\n        /* \"#utility.yul\":5185:5702   */\n    tag_293:\n        /* \"#utility.yul\":5340:5344   */\n      0x40\n        /* \"#utility.yul\":5335:5338   */\n      dup3\n        /* \"#utility.yul\":5331:5345   */\n      add\n        /* \"#utility.yul\":5433:5437   */\n      0x00\n        /* \"#utility.yul\":5426:5431   */\n      dup3\n        /* \"#utility.yul\":5422:5438   */\n      add\n        /* \"#utility.yul\":5416:5439   */\n      mload\n        /* \"#utility.yul\":5452:5515   */\n      tag_295\n        /* \"#utility.yul\":5509:5513   */\n      0x00\n        /* \"#utility.yul\":5504:5507   */\n      dup6\n        /* \"#utility.yul\":5500:5514   */\n      add\n        /* \"#utility.yul\":5486:5498   */\n      dup3\n        /* \"#utility.yul\":5452:5515   */\n      tag_296\n      jump\t// in\n    tag_295:\n        /* \"#utility.yul\":5355:5525   */\n      pop\n        /* \"#utility.yul\":5609:5613   */\n      0x20\n        /* \"#utility.yul\":5602:5607   */\n      dup3\n        /* \"#utility.yul\":5598:5614   */\n      add\n        /* \"#utility.yul\":5592:5615   */\n      mload\n        /* \"#utility.yul\":5628:5685   */\n      tag_297\n        /* \"#utility.yul\":5679:5683   */\n      0x20\n        /* \"#utility.yul\":5674:5677   */\n      dup6\n        /* \"#utility.yul\":5670:5684   */\n      add\n        /* \"#utility.yul\":5656:5668   */\n      dup3\n        /* \"#utility.yul\":5628:5685   */\n      tag_237\n      jump\t// in\n    tag_297:\n        /* \"#utility.yul\":5535:5695   */\n      pop\n        /* \"#utility.yul\":5309:5702   */\n      pop\n        /* \"#utility.yul\":5185:5702   */\n      pop\n      pop\n      jump\t// out\n        /* \"#utility.yul\":5708:5816   */\n    tag_296:\n        /* \"#utility.yul\":5785:5809   */\n      tag_299\n        /* \"#utility.yul\":5803:5808   */\n      dup2\n        /* \"#utility.yul\":5785:5809   */\n      tag_300\n      jump\t// in\n    tag_299:\n        /* \"#utility.yul\":5780:5783   */\n      dup3\n        /* \"#utility.yul\":5773:5810   */\n      mstore\n        /* \"#utility.yul\":5708:5816   */\n      pop\n      pop\n      jump\t// out\n        /* \"#utility.yul\":5822:5940   */\n    tag_301:\n        /* \"#utility.yul\":5909:5933   */\n      tag_303\n        /* \"#utility.yul\":5927:5932   */\n      dup2\n        /* \"#utility.yul\":5909:5933   */\n      tag_300\n      jump\t// in\n    tag_303:\n        /* \"#utility.yul\":5904:5907   */\n      dup3\n        /* \"#utility.yul\":5897:5934   */\n      mstore\n        /* \"#utility.yul\":5822:5940   */\n      pop\n      pop\n      jump\t// out\n        /* \"#utility.yul\":5946:6325   */\n    tag_90:\n        /* \"#utility.yul\":6130:6133   */\n      0x00\n        /* \"#utility.yul\":6152:6299   */\n      tag_305\n        /* \"#utility.yul\":6295:6298   */\n      dup3\n        /* \"#utility.yul\":6152:6299   */\n      tag_277\n      jump\t// in\n    tag_305:\n        /* \"#utility.yul\":6145:6299   */\n      swap2\n      pop\n        /* \"#utility.yul\":6316:6319   */\n      dup2\n        /* \"#utility.yul\":6309:6319   */\n      swap1\n      pop\n        /* \"#utility.yul\":5946:6325   */\n      swap2\n      swap1\n      pop\n      jump\t// out\n        /* \"#utility.yul\":6331:6553   */\n    tag_34:\n        /* \"#utility.yul\":6424:6428   */\n      0x00\n        /* \"#utility.yul\":6462:6464   */\n      0x20\n        /* \"#utility.yul\":6451:6460   */\n      dup3\n        /* \"#utility.yul\":6447:6465   */\n      add\n        /* \"#utility.yul\":6439:6465   */\n      swap1\n      pop\n        /* \"#utility.yul\":6475:6546   */\n      tag_307\n        /* \"#utility.yul\":6543:6544   */\n      0x00\n        /* \"#utility.yul\":6532:6541   */\n      dup4\n        /* \"#utility.yul\":6528:6545   */\n      add\n        /* \"#utility.yul\":6519:6525   */\n      dup5\n        /* \"#utility.yul\":6475:6546   */\n      tag_233\n      jump\t// in\n    tag_307:\n        /* \"#utility.yul\":6331:6553   */\n      swap3\n      swap2\n      pop\n      pop\n      jump\t// out\n        /* \"#utility.yul\":6559:6978   */\n    tag_180:\n        /* \"#utility.yul\":6725:6729   */\n      0x00\n        /* \"#utility.yul\":6763:6765   */\n      0x20\n        /* \"#utility.yul\":6752:6761   */\n      dup3\n        /* \"#utility.yul\":6748:6766   */\n      add\n        /* \"#utility.yul\":6740:6766   */\n      swap1\n      pop\n        /* \"#utility.yul\":6812:6821   */\n      dup2\n        /* \"#utility.yul\":6806:6810   */\n      dup2\n        /* \"#utility.yul\":6802:6822   */\n      sub\n        /* \"#utility.yul\":6798:6799   */\n      0x00\n        /* \"#utility.yul\":6787:6796   */\n      dup4\n        /* \"#utility.yul\":6783:6800   */\n      add\n        /* \"#utility.yul\":6776:6823   */\n      mstore\n        /* \"#utility.yul\":6840:6971   */\n      tag_309\n        /* \"#utility.yul\":6966:6970   */\n      dup2\n        /* \"#utility.yul\":6840:6971   */\n      tag_241\n      jump\t// in\n    tag_309:\n        /* \"#utility.yul\":6832:6971   */\n      swap1\n      pop\n        /* \"#utility.yul\":6559:6978   */\n      swap2\n      swap1\n      pop\n      jump\t// out\n        /* \"#utility.yul\":6984:7403   */\n    tag_96:\n        /* \"#utility.yul\":7150:7154   */\n      0x00\n        /* \"#utility.yul\":7188:7190   */\n      0x20\n        /* \"#utility.yul\":7177:7186   */\n      dup3\n        /* \"#utility.yul\":7173:7191   */\n      add\n        /* \"#utility.yul\":7165:7191   */\n      swap1\n      pop\n        /* \"#utility.yul\":7237:7246   */\n      dup2\n        /* \"#utility.yul\":7231:7235   */\n      dup2\n        /* \"#utility.yul\":7227:7247   */\n      sub\n        /* \"#utility.yul\":7223:7224   */\n      0x00\n        /* \"#utility.yul\":7212:7221   */\n      dup4\n        /* \"#utility.yul\":7208:7225   */\n      add\n        /* \"#utility.yul\":7201:7248   */\n      mstore\n        /* \"#utility.yul\":7265:7396   */\n      tag_311\n        /* \"#utility.yul\":7391:7395   */\n      dup2\n        /* \"#utility.yul\":7265:7396   */\n      tag_247\n      jump\t// in\n    tag_311:\n        /* \"#utility.yul\":7257:7396   */\n      swap1\n      pop\n        /* \"#utility.yul\":6984:7403   */\n      swap2\n      swap1\n      pop\n      jump\t// out\n        /* \"#utility.yul\":7409:7828   */\n    tag_116:\n        /* \"#utility.yul\":7575:7579   */\n      0x00\n        /* \"#utility.yul\":7613:7615   */\n      0x20\n        /* \"#utility.yul\":7602:7611   */\n      dup3\n        /* \"#utility.yul\":7598:7616   */\n      add\n        /* \"#utility.yul\":7590:7616   */\n      swap1\n      pop\n        /* \"#utility.yul\":7662:7671   */\n      dup2\n        /* \"#utility.yul\":7656:7660   */\n      dup2\n        /* \"#utility.yul\":7652:7672   */\n      sub\n        /* \"#utility.yul\":7648:7649   */\n      0x00\n        /* \"#utility.yul\":7637:7646   */\n      dup4\n        /* \"#utility.yul\":7633:7650   */\n      add\n        /* \"#utility.yul\":7626:7673   */\n      mstore\n        /* \"#utility.yul\":7690:7821   */\n      tag_313\n        /* \"#utility.yul\":7816:7820   */\n      dup2\n        /* \"#utility.yul\":7690:7821   */\n      tag_252\n      jump\t// in\n    tag_313:\n        /* \"#utility.yul\":7682:7821   */\n      swap1\n      pop\n        /* \"#utility.yul\":7409:7828   */\n      swap2\n      swap1\n      pop\n      jump\t// out\n        /* \"#utility.yul\":7834:8253   */\n    tag_110:\n        /* \"#utility.yul\":8000:8004   */\n      0x00\n        /* \"#utility.yul\":8038:8040   */\n      0x20\n        /* \"#utility.yul\":8027:8036   */\n      dup3\n        /* \"#utility.yul\":8023:8041   */\n      add\n        /* \"#utility.yul\":8015:8041   */\n      swap1\n      pop\n        /* \"#utility.yul\":8087:8096   */\n      dup2\n        /* \"#utility.yul\":8081:8085   */\n      dup2\n        /* \"#utility.yul\":8077:8097   */\n      sub\n        /* \"#utility.yul\":8073:8074   */\n      0x00\n        /* \"#utility.yul\":8062:8071   */\n      dup4\n        /* \"#utility.yul\":8058:8075   */\n      add\n        /* \"#utility.yul\":8051:8098   */\n      mstore\n        /* \"#utility.yul\":8115:8246   */\n      tag_315\n        /* \"#utility.yul\":8241:8245   */\n      dup2\n        /* \"#utility.yul\":8115:8246   */\n      tag_257\n      jump\t// in\n    tag_315:\n        /* \"#utility.yul\":8107:8246   */\n      swap1\n      pop\n        /* \"#utility.yul\":7834:8253   */\n      swap2\n      swap1\n      pop\n      jump\t// out\n        /* \"#utility.yul\":8259:8678   */\n    tag_189:\n        /* \"#utility.yul\":8425:8429   */\n      0x00\n        /* \"#utility.yul\":8463:8465   */\n      0x20\n        /* \"#utility.yul\":8452:8461   */\n      dup3\n        /* \"#utility.yul\":8448:8466   */\n      add\n        /* \"#utility.yul\":8440:8466   */\n      swap1\n      pop\n        /* \"#utility.yul\":8512:8521   */\n      dup2\n        /* \"#utility.yul\":8506:8510   */\n      dup2\n        /* \"#utility.yul\":8502:8522   */\n      sub\n        /* \"#utility.yul\":8498:8499   */\n      0x00\n        /* \"#utility.yul\":8487:8496   */\n      dup4\n        /* \"#utility.yul\":8483:8500   */\n      add\n        /* \"#utility.yul\":8476:8523   */\n      mstore\n        /* \"#utility.yul\":8540:8671   */\n      tag_317\n        /* \"#utility.yul\":8666:8670   */\n      dup2\n        /* \"#utility.yul\":8540:8671   */\n      tag_262\n      jump\t// in\n    tag_317:\n        /* \"#utility.yul\":8532:8671   */\n      swap1\n      pop\n        /* \"#utility.yul\":8259:8678   */\n      swap2\n      swap1\n      pop\n      jump\t// out\n        /* \"#utility.yul\":8684:9103   */\n    tag_107:\n        /* \"#utility.yul\":8850:8854   */\n      0x00\n        /* \"#utility.yul\":8888:8890   */\n      0x20\n        /* \"#utility.yul\":8877:8886   */\n      dup3\n        /* \"#utility.yul\":8873:8891   */\n      add\n        /* \"#utility.yul\":8865:8891   */\n      swap1\n      pop\n        /* \"#utility.yul\":8937:8946   */\n      dup2\n        /* \"#utility.yul\":8931:8935   */\n      dup2\n        /* \"#utility.yul\":8927:8947   */\n      sub\n        /* \"#utility.yul\":8923:8924   */\n      0x00\n        /* \"#utility.yul\":8912:8921   */\n      dup4\n        /* \"#utility.yul\":8908:8925   */\n      add\n        /* \"#utility.yul\":8901:8948   */\n      mstore\n        /* \"#utility.yul\":8965:9096   */\n      tag_319\n        /* \"#utility.yul\":9091:9095   */\n      dup2\n        /* \"#utility.yul\":8965:9096   */\n      tag_267\n      jump\t// in\n    tag_319:\n        /* \"#utility.yul\":8957:9096   */\n      swap1\n      pop\n        /* \"#utility.yul\":8684:9103   */\n      swap2\n      swap1\n      pop\n      jump\t// out\n        /* \"#utility.yul\":9109:9528   */\n    tag_72:\n        /* \"#utility.yul\":9275:9279   */\n      0x00\n        /* \"#utility.yul\":9313:9315   */\n      0x20\n        /* \"#utility.yul\":9302:9311   */\n      dup3\n        /* \"#utility.yul\":9298:9316   */\n      add\n        /* \"#utility.yul\":9290:9316   */\n      swap1\n      pop\n        /* \"#utility.yul\":9362:9371   */\n      dup2\n        /* \"#utility.yul\":9356:9360   */\n      dup2\n        /* \"#utility.yul\":9352:9372   */\n      sub\n        /* \"#utility.yul\":9348:9349   */\n      0x00\n        /* \"#utility.yul\":9337:9346   */\n      dup4\n        /* \"#utility.yul\":9333:9350   */\n      add\n        /* \"#utility.yul\":9326:9373   */\n      mstore\n        /* \"#utility.yul\":9390:9521   */\n      tag_321\n        /* \"#utility.yul\":9516:9520   */\n      dup2\n        /* \"#utility.yul\":9390:9521   */\n      tag_272\n      jump\t// in\n    tag_321:\n        /* \"#utility.yul\":9382:9521   */\n      swap1\n      pop\n        /* \"#utility.yul\":9109:9528   */\n      swap2\n      swap1\n      pop\n      jump\t// out\n        /* \"#utility.yul\":9534:9953   */\n    tag_155:\n        /* \"#utility.yul\":9700:9704   */\n      0x00\n        /* \"#utility.yul\":9738:9740   */\n      0x20\n        /* \"#utility.yul\":9727:9736   */\n      dup3\n        /* \"#utility.yul\":9723:9741   */\n      add\n        /* \"#utility.yul\":9715:9741   */\n      swap1\n      pop\n        /* \"#utility.yul\":9787:9796   */\n      dup2\n        /* \"#utility.yul\":9781:9785   */\n      dup2\n        /* \"#utility.yul\":9777:9797   */\n      sub\n        /* \"#utility.yul\":9773:9774   */\n      0x00\n        /* \"#utility.yul\":9762:9771   */\n      dup4\n        /* \"#utility.yul\":9758:9775   */\n      add\n        /* \"#utility.yul\":9751:9798   */\n      mstore\n        /* \"#utility.yul\":9815:9946   */\n      tag_323\n        /* \"#utility.yul\":9941:9945   */\n      dup2\n        /* \"#utility.yul\":9815:9946   */\n      tag_283\n      jump\t// in\n    tag_323:\n        /* \"#utility.yul\":9807:9946   */\n      swap1\n      pop\n        /* \"#utility.yul\":9534:9953   */\n      swap2\n      swap1\n      pop\n      jump\t// out\n        /* \"#utility.yul\":9959:10378   */\n    tag_203:\n        /* \"#utility.yul\":10125:10129   */\n      0x00\n        /* \"#utility.yul\":10163:10165   */\n      0x20\n        /* \"#utility.yul\":10152:10161   */\n      dup3\n        /* \"#utility.yul\":10148:10166   */\n      add\n        /* \"#utility.yul\":10140:10166   */\n      swap1\n      pop\n        /* \"#utility.yul\":10212:10221   */\n      dup2\n        /* \"#utility.yul\":10206:10210   */\n      dup2\n        /* \"#utility.yul\":10202:10222   */\n      sub\n        /* \"#utility.yul\":10198:10199   */\n      0x00\n        /* \"#utility.yul\":10187:10196   */\n      dup4\n        /* \"#utility.yul\":10183:10200   */\n      add\n        /* \"#utility.yul\":10176:10223   */\n      mstore\n        /* \"#utility.yul\":10240:10371   */\n      tag_325\n        /* \"#utility.yul\":10366:10370   */\n      dup2\n        /* \"#utility.yul\":10240:10371   */\n      tag_288\n      jump\t// in\n    tag_325:\n        /* \"#utility.yul\":10232:10371   */\n      swap1\n      pop\n        /* \"#utility.yul\":9959:10378   */\n      swap2\n      swap1\n      pop\n      jump\t// out\n        /* \"#utility.yul\":10384:10722   */\n    tag_41:\n        /* \"#utility.yul\":10535:10539   */\n      0x00\n        /* \"#utility.yul\":10573:10575   */\n      0x40\n        /* \"#utility.yul\":10562:10571   */\n      dup3\n        /* \"#utility.yul\":10558:10576   */\n      add\n        /* \"#utility.yul\":10550:10576   */\n      swap1\n      pop\n        /* \"#utility.yul\":10586:10715   */\n      tag_327\n        /* \"#utility.yul\":10712:10713   */\n      0x00\n        /* \"#utility.yul\":10701:10710   */\n      dup4\n        /* \"#utility.yul\":10697:10714   */\n      add\n        /* \"#utility.yul\":10688:10694   */\n      dup5\n        /* \"#utility.yul\":10586:10715   */\n      tag_293\n      jump\t// in\n    tag_327:\n        /* \"#utility.yul\":10384:10722   */\n      swap3\n      swap2\n      pop\n      pop\n      jump\t// out\n        /* \"#utility.yul\":10728:10950   */\n    tag_46:\n        /* \"#utility.yul\":10821:10825   */\n      0x00\n        /* \"#utility.yul\":10859:10861   */\n      0x20\n        /* \"#utility.yul\":10848:10857   */\n      dup3\n        /* \"#utility.yul\":10844:10862   */\n      add\n        /* \"#utility.yul\":10836:10862   */\n      swap1\n      pop\n        /* \"#utility.yul\":10872:10943   */\n      tag_329\n        /* \"#utility.yul\":10940:10941   */\n      0x00\n        /* \"#utility.yul\":10929:10938   */\n      dup4\n        /* \"#utility.yul\":10925:10942   */\n      add\n        /* \"#utility.yul\":10916:10922   */\n      dup5\n        /* \"#utility.yul\":10872:10943   */\n      tag_301\n      jump\t// in\n    tag_329:\n        /* \"#utility.yul\":10728:10950   */\n      swap3\n      swap2\n      pop\n      pop\n      jump\t// out\n        /* \"#utility.yul\":11037:11184   */\n    tag_280:\n        /* \"#utility.yul\":11138:11149   */\n      0x00\n        /* \"#utility.yul\":11175:11178   */\n      dup2\n        /* \"#utility.yul\":11160:11178   */\n      swap1\n      pop\n        /* \"#utility.yul\":11037:11184   */\n      swap3\n      swap2\n      pop\n      pop\n      jump\t// out\n        /* \"#utility.yul\":11190:11359   */\n    tag_244:\n        /* \"#utility.yul\":11274:11285   */\n      0x00\n        /* \"#utility.yul\":11308:11314   */\n      dup3\n        /* \"#utility.yul\":11303:11306   */\n      dup3\n        /* \"#utility.yul\":11296:11315   */\n      mstore\n        /* \"#utility.yul\":11348:11352   */\n      0x20\n        /* \"#utility.yul\":11343:11346   */\n      dup3\n        /* \"#utility.yul\":11339:11353   */\n      add\n        /* \"#utility.yul\":11324:11353   */\n      swap1\n      pop\n        /* \"#utility.yul\":11190:11359   */\n      swap3\n      swap2\n      pop\n      pop\n      jump\t// out\n        /* \"#utility.yul\":11365:11670   */\n    tag_113:\n        /* \"#utility.yul\":11405:11408   */\n      0x00\n        /* \"#utility.yul\":11424:11444   */\n      tag_335\n        /* \"#utility.yul\":11442:11443   */\n      dup3\n        /* \"#utility.yul\":11424:11444   */\n      tag_300\n      jump\t// in\n    tag_335:\n        /* \"#utility.yul\":11419:11444   */\n      swap2\n      pop\n        /* \"#utility.yul\":11458:11478   */\n      tag_336\n        /* \"#utility.yul\":11476:11477   */\n      dup4\n        /* \"#utility.yul\":11458:11478   */\n      tag_300\n      jump\t// in\n    tag_336:\n        /* \"#utility.yul\":11453:11478   */\n      swap3\n      pop\n        /* \"#utility.yul\":11612:11613   */\n      dup3\n        /* \"#utility.yul\":11544:11610   */\n      0xffffffffffffffffffffffffffffffffffffffffffffffffffffffffffffffff\n        /* \"#utility.yul\":11540:11614   */\n      sub\n        /* \"#utility.yul\":11537:11538   */\n      dup3\n        /* \"#utility.yul\":11534:11615   */\n      gt\n        /* \"#utility.yul\":11531:11638   */\n      iszero\n      tag_337\n      jumpi\n        /* \"#utility.yul\":11618:11636   */\n      tag_338\n      tag_339\n      jump\t// in\n    tag_338:\n        /* \"#utility.yul\":11531:11638   */\n    tag_337:\n        /* \"#utility.yul\":11662:11663   */\n      dup3\n        /* \"#utility.yul\":11659:11660   */\n      dup3\n        /* \"#utility.yul\":11655:11664   */\n      add\n        /* \"#utility.yul\":11648:11664   */\n      swap1\n      pop\n        /* \"#utility.yul\":11365:11670   */\n      swap3\n      swap2\n      pop\n      pop\n      jump\t// out\n        /* \"#utility.yul\":11676:11861   */\n    tag_88:\n        /* \"#utility.yul\":11716:11717   */\n      0x00\n        /* \"#utility.yul\":11733:11753   */\n      tag_341\n        /* \"#utility.yul\":11751:11752   */\n      dup3\n        /* \"#utility.yul\":11733:11753   */\n      tag_300\n      jump\t// in\n    tag_341:\n        /* \"#utility.yul\":11728:11753   */\n      swap2\n      pop\n        /* \"#utility.yul\":11767:11787   */\n      tag_342\n        /* \"#utility.yul\":11785:11786   */\n      dup4\n        /* \"#utility.yul\":11767:11787   */\n      tag_300\n      jump\t// in\n    tag_342:\n        /* \"#utility.yul\":11762:11787   */\n      swap3\n      pop\n        /* \"#utility.yul\":11806:11807   */\n      dup3\n        /* \"#utility.yul\":11796:11831   */\n      tag_343\n      jumpi\n        /* \"#utility.yul\":11811:11829   */\n      tag_344\n      tag_345\n      jump\t// in\n    tag_344:\n        /* \"#utility.yul\":11796:11831   */\n    tag_343:\n        /* \"#utility.yul\":11853:11854   */\n      dup3\n        /* \"#utility.yul\":11850:11851   */\n      dup3\n        /* \"#utility.yul\":11846:11855   */\n      div\n        /* \"#utility.yul\":11841:11855   */\n      swap1\n      pop\n        /* \"#utility.yul\":11676:11861   */\n      swap3\n      swap2\n      pop\n      pop\n      jump\t// out\n        /* \"#utility.yul\":11867:12215   */\n    tag_86:\n        /* \"#utility.yul\":11907:11914   */\n      0x00\n        /* \"#utility.yul\":11930:11950   */\n      tag_347\n        /* \"#utility.yul\":11948:11949   */\n      dup3\n        /* \"#utility.yul\":11930:11950   */\n      tag_300\n      jump\t// in\n    tag_347:\n        /* \"#utility.yul\":11925:11950   */\n      swap2\n      pop\n        /* \"#utility.yul\":11964:11984   */\n      tag_348\n        /* \"#utility.yul\":11982:11983   */\n      dup4\n        /* \"#utility.yul\":11964:11984   */\n      tag_300\n      jump\t// in\n    tag_348:\n        /* \"#utility.yul\":11959:11984   */\n      swap3\n      pop\n        /* \"#utility.yul\":12152:12153   */\n      dup2\n        /* \"#utility.yul\":12084:12150   */\n      0xffffffffffffffffffffffffffffffffffffffffffffffffffffffffffffffff\n        /* \"#utility.yul\":12080:12154   */\n      div\n        /* \"#utility.yul\":12077:12078   */\n      dup4\n        /* \"#utility.yul\":12074:12155   */\n      gt\n        /* \"#utility.yul\":12069:12070   */\n      dup3\n        /* \"#utility.yul\":12062:12071   */\n      iszero\n        /* \"#utility.yul\":12055:12072   */\n      iszero\n        /* \"#utility.yul\":12051:12156   */\n      and\n        /* \"#utility.yul\":12048:12179   */\n      iszero\n      tag_349\n      jumpi\n        /* \"#utility.yul\":12159:12177   */\n      tag_350\n      tag_339\n      jump\t// in\n    tag_350:\n        /* \"#utility.yul\":12048:12179   */\n    tag_349:\n        /* \"#utility.yul\":12207:12208   */\n      dup3\n        /* \"#utility.yul\":12204:12205   */\n      dup3\n        /* \"#utility.yul\":12200:12209   */\n      mul\n        /* \"#utility.yul\":12189:12209   */\n      swap1\n      pop\n        /* \"#utility.yul\":11867:12215   */\n      swap3\n      swap2\n      pop\n      pop\n      jump\t// out\n        /* \"#utility.yul\":12221:12317   */\n    tag_236:\n        /* \"#utility.yul\":12258:12265   */\n      0x00\n        /* \"#utility.yul\":12287:12311   */\n      tag_352\n        /* \"#utility.yul\":12305:12310   */\n      dup3\n        /* \"#utility.yul\":12287:12311   */\n      tag_353\n      jump\t// in\n    tag_352:\n        /* \"#utility.yul\":12276:12311   */\n      swap1\n      pop\n        /* \"#utility.yul\":12221:12317   */\n      swap2\n      swap1\n      pop\n      jump\t// out\n        /* \"#utility.yul\":12323:12413   */\n    tag_240:\n        /* \"#utility.yul\":12357:12364   */\n      0x00\n        /* \"#utility.yul\":12400:12405   */\n      dup2\n        /* \"#utility.yul\":12393:12406   */\n      iszero\n        /* \"#utility.yul\":12386:12407   */\n      iszero\n        /* \"#utility.yul\":12375:12407   */\n      swap1\n      pop\n        /* \"#utility.yul\":12323:12413   */\n      swap2\n      swap1\n      pop\n      jump\t// out\n        /* \"#utility.yul\":12419:12545   */\n    tag_353:\n        /* \"#utility.yul\":12456:12463   */\n      0x00\n        /* \"#utility.yul\":12496:12538   */\n      0xffffffffffffffffffffffffffffffffffffffff\n        /* \"#utility.yul\":12489:12494   */\n      dup3\n        /* \"#utility.yul\":12485:12539   */\n      and\n        /* \"#utility.yul\":12474:12539   */\n      swap1\n      pop\n        /* \"#utility.yul\":12419:12545   */\n      swap2\n      swap1\n      pop\n      jump\t// out\n        /* \"#utility.yul\":12551:12628   */\n    tag_300:\n        /* \"#utility.yul\":12588:12595   */\n      0x00\n        /* \"#utility.yul\":12617:12622   */\n      dup2\n        /* \"#utility.yul\":12606:12622   */\n      swap1\n      pop\n        /* \"#utility.yul\":12551:12628   */\n      swap2\n      swap1\n      pop\n      jump\t// out\n        /* \"#utility.yul\":12634:12867   */\n    tag_98:\n        /* \"#utility.yul\":12673:12676   */\n      0x00\n        /* \"#utility.yul\":12696:12720   */\n      tag_358\n        /* \"#utility.yul\":12714:12719   */\n      dup3\n        /* \"#utility.yul\":12696:12720   */\n      tag_300\n      jump\t// in\n    tag_358:\n        /* \"#utility.yul\":12687:12720   */\n      swap2\n      pop\n        /* \"#utility.yul\":12742:12808   */\n      0xffffffffffffffffffffffffffffffffffffffffffffffffffffffffffffffff\n        /* \"#utility.yul\":12735:12740   */\n      dup3\n        /* \"#utility.yul\":12732:12809   */\n      eq\n        /* \"#utility.yul\":12729:12832   */\n      iszero\n      tag_359\n      jumpi\n        /* \"#utility.yul\":12812:12830   */\n      tag_360\n      tag_339\n      jump\t// in\n    tag_360:\n        /* \"#utility.yul\":12729:12832   */\n    tag_359:\n        /* \"#utility.yul\":12859:12860   */\n      0x01\n        /* \"#utility.yul\":12852:12857   */\n      dup3\n        /* \"#utility.yul\":12848:12861   */\n      add\n        /* \"#utility.yul\":12841:12861   */\n      swap1\n      pop\n        /* \"#utility.yul\":12634:12867   */\n      swap2\n      swap1\n      pop\n      jump\t// out\n        /* \"#utility.yul\":12873:13053   */\n    tag_339:\n        /* \"#utility.yul\":12921:12998   */\n      0x4e487b7100000000000000000000000000000000000000000000000000000000\n        /* \"#utility.yul\":12918:12919   */\n      0x00\n        /* \"#utility.yul\":12911:12999   */\n      mstore\n        /* \"#utility.yul\":13018:13022   */\n      0x11\n        /* \"#utility.yul\":13015:13016   */\n      0x04\n        /* \"#utility.yul\":13008:13023   */\n      mstore\n        /* \"#utility.yul\":13042:13046   */\n      0x24\n        /* \"#utility.yul\":13039:13040   */\n      0x00\n        /* \"#utility.yul\":13032:13047   */\n      revert\n        /* \"#utility.yul\":13059:13239   */\n    tag_345:\n        /* \"#utility.yul\":13107:13184   */\n      0x4e487b7100000000000000000000000000000000000000000000000000000000\n        /* \"#utility.yul\":13104:13105   */\n      0x00\n        /* \"#utility.yul\":13097:13185   */\n      mstore\n        /* \"#utility.yul\":13204:13208   */\n      0x12\n        /* \"#utility.yul\":13201:13202   */\n      0x04\n        /* \"#utility.yul\":13194:13209   */\n      mstore\n        /* \"#utility.yul\":13228:13232   */\n      0x24\n        /* \"#utility.yul\":13225:13226   */\n      0x00\n        /* \"#utility.yul\":13218:13233   */\n      revert\n        /* \"#utility.yul\":13245:13425   */\n    tag_79:\n        /* \"#utility.yul\":13293:13370   */\n      0x4e487b7100000000000000000000000000000000000000000000000000000000\n        /* \"#utility.yul\":13290:13291   */\n      0x00\n        /* \"#utility.yul\":13283:13371   */\n      mstore\n        /* \"#utility.yul\":13390:13394   */\n      0x32\n        /* \"#utility.yul\":13387:13388   */\n      0x04\n        /* \"#utility.yul\":13380:13395   */\n      mstore\n        /* \"#utility.yul\":13414:13418   */\n      0x24\n        /* \"#utility.yul\":13411:13412   */\n      0x00\n        /* \"#utility.yul\":13404:13419   */\n      revert\n        /* \"#utility.yul\":13554:13671   */\n    tag_226:\n        /* \"#utility.yul\":13663:13664   */\n      0x00\n        /* \"#utility.yul\":13660:13661   */\n      dup1\n        /* \"#utility.yul\":13653:13665   */\n      revert\n        /* \"#utility.yul\":13677:13902   */\n    tag_246:\n        /* \"#utility.yul\":13817:13851   */\n      0x4f776e61626c653a206e6577206f776e657220697320746865207a65726f2061\n        /* \"#utility.yul\":13813:13814   */\n      0x00\n        /* \"#utility.yul\":13805:13811   */\n      dup3\n        /* \"#utility.yul\":13801:13815   */\n      add\n        /* \"#utility.yul\":13794:13852   */\n      mstore\n        /* \"#utility.yul\":13886:13894   */\n      0x6464726573730000000000000000000000000000000000000000000000000000\n        /* \"#utility.yul\":13881:13883   */\n      0x20\n        /* \"#utility.yul\":13873:13879   */\n      dup3\n        /* \"#utility.yul\":13869:13884   */\n      add\n        /* \"#utility.yul\":13862:13895   */\n      mstore\n        /* \"#utility.yul\":13677:13902   */\n      pop\n      jump\t// out\n        /* \"#utility.yul\":13908:14078   */\n    tag_251:\n        /* \"#utility.yul\":14048:14070   */\n      0x4661696c656420746f2073656e64204574686572000000000000000000000000\n        /* \"#utility.yul\":14044:14045   */\n      0x00\n        /* \"#utility.yul\":14036:14042   */\n      dup3\n        /* \"#utility.yul\":14032:14046   */\n      add\n        /* \"#utility.yul\":14025:14071   */\n      mstore\n        /* \"#utility.yul\":13908:14078   */\n      pop\n      jump\t// out\n        /* \"#utility.yul\":14084:14313   */\n    tag_256:\n        /* \"#utility.yul\":14224:14258   */\n      0x746f74616c50657263656e746167652077696c6c206265206772656174657220\n        /* \"#utility.yul\":14220:14221   */\n      0x00\n        /* \"#utility.yul\":14212:14218   */\n      dup3\n        /* \"#utility.yul\":14208:14222   */\n      add\n        /* \"#utility.yul\":14201:14259   */\n      mstore\n        /* \"#utility.yul\":14293:14305   */\n      0x7468616e20313030303000000000000000000000000000000000000000000000\n        /* \"#utility.yul\":14288:14290   */\n      0x20\n        /* \"#utility.yul\":14280:14286   */\n      dup3\n        /* \"#utility.yul\":14276:14291   */\n      add\n        /* \"#utility.yul\":14269:14306   */\n      mstore\n        /* \"#utility.yul\":14084:14313   */\n      pop\n      jump\t// out\n        /* \"#utility.yul\":14319:14496   */\n    tag_261:\n        /* \"#utility.yul\":14459:14488   */\n      0x436f6c6c61626f7261746f7220616c7265616479206578697374730000000000\n        /* \"#utility.yul\":14455:14456   */\n      0x00\n        /* \"#utility.yul\":14447:14453   */\n      dup3\n        /* \"#utility.yul\":14443:14457   */\n      add\n        /* \"#utility.yul\":14436:14489   */\n      mstore\n        /* \"#utility.yul\":14319:14496   */\n      pop\n      jump\t// out\n        /* \"#utility.yul\":14502:14735   */\n    tag_266:\n        /* \"#utility.yul\":14642:14676   */\n      0x496e697469616c697a61626c653a20636f6e747261637420697320616c726561\n        /* \"#utility.yul\":14638:14639   */\n      0x00\n        /* \"#utility.yul\":14630:14636   */\n      dup3\n        /* \"#utility.yul\":14626:14640   */\n      add\n        /* \"#utility.yul\":14619:14677   */\n      mstore\n        /* \"#utility.yul\":14711:14727   */\n      0x647920696e697469616c697a6564000000000000000000000000000000000000\n        /* \"#utility.yul\":14706:14708   */\n      0x20\n        /* \"#utility.yul\":14698:14704   */\n      dup3\n        /* \"#utility.yul\":14694:14709   */\n      add\n        /* \"#utility.yul\":14687:14728   */\n      mstore\n        /* \"#utility.yul\":14502:14735   */\n      pop\n      jump\t// out\n        /* \"#utility.yul\":14741:14967   */\n    tag_271:\n        /* \"#utility.yul\":14881:14915   */\n      0x436f6c6c61626f7261746f722063616e6e6f7420626520616e20656d70747920\n        /* \"#utility.yul\":14877:14878   */\n      0x00\n        /* \"#utility.yul\":14869:14875   */\n      dup3\n        /* \"#utility.yul\":14865:14879   */\n      add\n        /* \"#utility.yul\":14858:14916   */\n      mstore\n        /* \"#utility.yul\":14950:14959   */\n      0x6164647265737300000000000000000000000000000000000000000000000000\n        /* \"#utility.yul\":14945:14947   */\n      0x20\n        /* \"#utility.yul\":14937:14943   */\n      dup3\n        /* \"#utility.yul\":14933:14948   */\n      add\n        /* \"#utility.yul\":14926:14960   */\n      mstore\n        /* \"#utility.yul\":14741:14967   */\n      pop\n      jump\t// out\n        /* \"#utility.yul\":14973:15155   */\n    tag_276:\n        /* \"#utility.yul\":15113:15147   */\n      0x4f776e61626c653a2063616c6c6572206973206e6f7420746865206f776e6572\n        /* \"#utility.yul\":15109:15110   */\n      0x00\n        /* \"#utility.yul\":15101:15107   */\n      dup3\n        /* \"#utility.yul\":15097:15111   */\n      add\n        /* \"#utility.yul\":15090:15148   */\n      mstore\n        /* \"#utility.yul\":14973:15155   */\n      pop\n      jump\t// out\n        /* \"#utility.yul\":15161:15275   */\n    tag_282:\n      pop\n      jump\t// out\n        /* \"#utility.yul\":15281:15457   */\n    tag_287:\n        /* \"#utility.yul\":15421:15449   */\n      0x436f6c6c61626f7261746f72206973206e6f7420657869737473000000000000\n        /* \"#utility.yul\":15417:15418   */\n      0x00\n        /* \"#utility.yul\":15409:15415   */\n      dup3\n        /* \"#utility.yul\":15405:15419   */\n      add\n        /* \"#utility.yul\":15398:15450   */\n      mstore\n        /* \"#utility.yul\":15281:15457   */\n      pop\n      jump\t// out\n        /* \"#utility.yul\":15463:15693   */\n    tag_292:\n        /* \"#utility.yul\":15603:15637   */\n      0x496e697469616c697a61626c653a20636f6e7472616374206973206e6f742069\n        /* \"#utility.yul\":15599:15600   */\n      0x00\n        /* \"#utility.yul\":15591:15597   */\n      dup3\n        /* \"#utility.yul\":15587:15601   */\n      add\n        /* \"#utility.yul\":15580:15638   */\n      mstore\n        /* \"#utility.yul\":15672:15685   */\n      0x6e697469616c697a696e67000000000000000000000000000000000000000000\n        /* \"#utility.yul\":15667:15669   */\n      0x20\n        /* \"#utility.yul\":15659:15665   */\n      dup3\n        /* \"#utility.yul\":15655:15670   */\n      add\n        /* \"#utility.yul\":15648:15686   */\n      mstore\n        /* \"#utility.yul\":15463:15693   */\n      pop\n      jump\t// out\n        /* \"#utility.yul\":15699:15821   */\n    tag_218:\n        /* \"#utility.yul\":15772:15796   */\n      tag_378\n        /* \"#utility.yul\":15790:15795   */\n      dup2\n        /* \"#utility.yul\":15772:15796   */\n      tag_236\n      jump\t// in\n    tag_378:\n        /* \"#utility.yul\":15765:15770   */\n      dup2\n        /* \"#utility.yul\":15762:15797   */\n      eq\n        /* \"#utility.yul\":15752:15815   */\n      tag_379\n      jumpi\n        /* \"#utility.yul\":15811:15812   */\n      0x00\n        /* \"#utility.yul\":15808:15809   */\n      dup1\n        /* \"#utility.yul\":15801:15813   */\n      revert\n        /* \"#utility.yul\":15752:15815   */\n    tag_379:\n        /* \"#utility.yul\":15699:15821   */\n      pop\n      jump\t// out\n        /* \"#utility.yul\":15827:15949   */\n    tag_222:\n        /* \"#utility.yul\":15900:15924   */\n      tag_381\n        /* \"#utility.yul\":15918:15923   */\n      dup2\n        /* \"#utility.yul\":15900:15924   */\n      tag_300\n      jump\t// in\n    tag_381:\n        /* \"#utility.yul\":15893:15898   */\n      dup2\n        /* \"#utility.yul\":15890:15925   */\n      eq\n        /* \"#utility.yul\":15880:15943   */\n      tag_382\n      jumpi\n        /* \"#utility.yul\":15939:15940   */\n      0x00\n        /* \"#utility.yul\":15936:15937   */\n      dup1\n        /* \"#utility.yul\":15929:15941   */\n      revert\n        /* \"#utility.yul\":15880:15943   */\n    tag_382:\n        /* \"#utility.yul\":15827:15949   */\n      pop\n      jump\t// out\n\n    auxdata: 0xa2646970667358221220c0d57686f8eca4f2efded8618c3c851a2fbe1dd27ed413f167af84844828702d64736f6c63430008070033\n}\n",
				"bytecode": {
					"linkReferences": {},
					"object": "608060405234801561001057600080fd5b50611af3806100206000396000f3fe6080604052600436106100a05760003560e01c8063d44a0e6111610064578063d44a0e6114610168578063dd9a583714610193578063e975e3ab146101bc578063ece123e4146101e7578063f2fde38b14610210578063f80ce32b14610239576100a7565b80633ccfd60b146100a957806354a33f0e146100c0578063715018a6146100e95780638da5cb5b14610100578063b116bbf51461012b576100a7565b366100a757005b005b3480156100b557600080fd5b506100be610250565b005b3480156100cc57600080fd5b506100e760048036038101906100e291906112ae565b6104bf565b005b3480156100f557600080fd5b506100fe61077d565b005b34801561010c57600080fd5b50610115610805565b60405161012291906114cc565b60405180910390f35b34801561013757600080fd5b50610152600480360381019061014d9190611281565b61082f565b60405161015f9190611607565b60405180910390f35b34801561017457600080fd5b5061017d610929565b60405161018a9190611622565b60405180910390f35b34801561019f57600080fd5b506101ba60048036038101906101b591906112ae565b610a2a565b005b3480156101c857600080fd5b506101d1610c3c565b6040516101de9190611607565b60405180910390f35b3480156101f357600080fd5b5061020e60048036038101906102099190611281565b610cbf565b005b34801561021c57600080fd5b5061023760048036038101906102329190611281565b610e9b565b005b34801561024557600080fd5b5061024e610f93565b005b61025861107f565b73ffffffffffffffffffffffffffffffffffffffff16610276610805565b73ffffffffffffffffffffffffffffffffffffffff16146102cc576040517f08c379a00000000000000000000000000000000000000000000000000000000081526004016102c3906115a7565b60405180910390fd5b600047905060005b6065805490508110156104bb57600060666000606584815481106102fb576102fa611829565b5b9060005260206000200160009054906101000a900473ffffffffffffffffffffffffffffffffffffffff1673ffffffffffffffffffffffffffffffffffffffff1673ffffffffffffffffffffffffffffffffffffffff168152602001908152602001600020604051806040016040529081600082015481526020016001820160009054906101000a900460ff16151515158152505090508060200151156104a757600080606584815481106103b3576103b2611829565b5b9060005260206000200160009054906101000a900473ffffffffffffffffffffffffffffffffffffffff1673ffffffffffffffffffffffffffffffffffffffff1661271084600001518761040791906116e0565b61041191906116af565b60405161041d906114b7565b60006040518083038185875af1925050503d806000811461045a576040519150601f19603f3d011682016040523d82523d6000602084013e61045f565b606091505b5091509150816104a4576040517f08c379a000000000000000000000000000000000000000000000000000000000815260040161049b90611507565b60405180910390fd5b50505b5080806104b390611782565b9150506102d4565b5050565b6104c761107f565b73ffffffffffffffffffffffffffffffffffffffff166104e5610805565b73ffffffffffffffffffffffffffffffffffffffff161461053b576040517f08c379a0000000000000000000000000000000000000000000000000000000008152600401610532906115a7565b60405180910390fd5b600073ffffffffffffffffffffffffffffffffffffffff168273ffffffffffffffffffffffffffffffffffffffff1614156105ab576040517f08c379a00000000000000000000000000000000000000000000000000000000081526004016105a290611587565b60405180910390fd5b606660008373ffffffffffffffffffffffffffffffffffffffff1673ffffffffffffffffffffffffffffffffffffffff16815260200190815260200160002060010160009054906101000a900460ff161561063b576040517f08c379a000000000000000000000000000000000000000000000000000000000815260040161063290611547565b60405180910390fd5b61271081610647610929565b6106519190611659565b1115610692576040517f08c379a000000000000000000000000000000000000000000000000000000000815260040161068990611527565b60405180910390fd5b604051806040016040528082815260200160011515815250606660008473ffffffffffffffffffffffffffffffffffffffff1673ffffffffffffffffffffffffffffffffffffffff1681526020019081526020016000206000820151816000015560208201518160010160006101000a81548160ff0219169083151502179055509050506065829080600181540180825580915050600190039060005260206000200160009091909190916101000a81548173ffffffffffffffffffffffffffffffffffffffff021916908373ffffffffffffffffffffffffffffffffffffffff1602179055505050565b61078561107f565b73ffffffffffffffffffffffffffffffffffffffff166107a3610805565b73ffffffffffffffffffffffffffffffffffffffff16146107f9576040517f08c379a00000000000000000000000000000000000000000000000000000000081526004016107f0906115a7565b60405180910390fd5b6108036000611087565b565b6000603360009054906101000a900473ffffffffffffffffffffffffffffffffffffffff16905090565b61083761123b565b61083f61107f565b73ffffffffffffffffffffffffffffffffffffffff1661085d610805565b73ffffffffffffffffffffffffffffffffffffffff16146108b3576040517f08c379a00000000000000000000000000000000000000000000000000000000081526004016108aa906115a7565b60405180910390fd5b606660008373ffffffffffffffffffffffffffffffffffffffff1673ffffffffffffffffffffffffffffffffffffffff168152602001908152602001600020604051806040016040529081600082015481526020016001820160009054906101000a900460ff1615151515815250509050919050565b6000806000905060005b606580549050811015610a22576000606660006065848154811061095a57610959611829565b5b9060005260206000200160009054906101000a900473ffffffffffffffffffffffffffffffffffffffff1673ffffffffffffffffffffffffffffffffffffffff1673ffffffffffffffffffffffffffffffffffffffff168152602001908152602001600020604051806040016040529081600082015481526020016001820160009054906101000a900460ff1615151515815250509050806020015115610a0e57806000015183610a0b9190611659565b92505b508080610a1a90611782565b915050610933565b508091505090565b610a3261107f565b73ffffffffffffffffffffffffffffffffffffffff16610a50610805565b73ffffffffffffffffffffffffffffffffffffffff1614610aa6576040517f08c379a0000000000000000000000000000000000000000000000000000000008152600401610a9d906115a7565b60405180910390fd5b600073ffffffffffffffffffffffffffffffffffffffff168273ffffffffffffffffffffffffffffffffffffffff161415610b16576040517f08c379a0000000000000000000000000000000000000000000000000000000008152600401610b0d90611587565b60405180910390fd5b606660008373ffffffffffffffffffffffffffffffffffffffff1673ffffffffffffffffffffffffffffffffffffffff16815260200190815260200160002060010160009054906101000a900460ff16610ba5576040517f08c379a0000000000000000000000000000000000000000000000000000000008152600401610b9c906115c7565b60405180910390fd5b80606660008473ffffffffffffffffffffffffffffffffffffffff1673ffffffffffffffffffffffffffffffffffffffff16815260200190815260200160002060000181905550612710610bf7610929565b1115610c38576040517f08c379a0000000000000000000000000000000000000000000000000000000008152600401610c2f90611527565b60405180910390fd5b5050565b610c4461123b565b60666000610c5061107f565b73ffffffffffffffffffffffffffffffffffffffff1673ffffffffffffffffffffffffffffffffffffffff168152602001908152602001600020604051806040016040529081600082015481526020016001820160009054906101000a900460ff161515151581525050905090565b610cc761107f565b73ffffffffffffffffffffffffffffffffffffffff16610ce5610805565b73ffffffffffffffffffffffffffffffffffffffff1614610d3b576040517f08c379a0000000000000000000000000000000000000000000000000000000008152600401610d32906115a7565b60405180910390fd5b600073ffffffffffffffffffffffffffffffffffffffff168173ffffffffffffffffffffffffffffffffffffffff161415610dab576040517f08c379a0000000000000000000000000000000000000000000000000000000008152600401610da290611587565b60405180910390fd5b606660008273ffffffffffffffffffffffffffffffffffffffff1673ffffffffffffffffffffffffffffffffffffffff16815260200190815260200160002060010160009054906101000a900460ff16610e3a576040517f08c379a0000000000000000000000000000000000000000000000000000000008152600401610e31906115c7565b60405180910390fd5b606660008273ffffffffffffffffffffffffffffffffffffffff1673ffffffffffffffffffffffffffffffffffffffff1681526020019081526020016000206000808201600090556001820160006101000a81549060ff0219169055505050565b610ea361107f565b73ffffffffffffffffffffffffffffffffffffffff16610ec1610805565b73ffffffffffffffffffffffffffffffffffffffff1614610f17576040517f08c379a0000000000000000000000000000000000000000000000000000000008152600401610f0e906115a7565b60405180910390fd5b600073ffffffffffffffffffffffffffffffffffffffff168173ffffffffffffffffffffffffffffffffffffffff161415610f87576040517f08c379a0000000000000000000000000000000000000000000000000000000008152600401610f7e906114e7565b60405180910390fd5b610f9081611087565b50565b600060019054906101000a900460ff16610fbb5760008054906101000a900460ff1615610fc4565b610fc361114d565b5b611003576040517f08c379a0000000000000000000000000000000000000000000000000000000008152600401610ffa90611567565b60405180910390fd5b60008060019054906101000a900460ff161590508015611053576001600060016101000a81548160ff02191690831515021790555060016000806101000a81548160ff0219169083151502179055505b61105b61115e565b801561107c5760008060016101000a81548160ff0219169083151502179055505b50565b600033905090565b6000603360009054906101000a900473ffffffffffffffffffffffffffffffffffffffff16905081603360006101000a81548173ffffffffffffffffffffffffffffffffffffffff021916908373ffffffffffffffffffffffffffffffffffffffff1602179055508173ffffffffffffffffffffffffffffffffffffffff168173ffffffffffffffffffffffffffffffffffffffff167f8be0079c531659141344cd1fd0a4f28419497f9722a3daafe3b4186f6b6457e060405160405180910390a35050565b6000611158306111b7565b15905090565b600060019054906101000a900460ff166111ad576040517f08c379a00000000000000000000000000000000000000000000000000000000081526004016111a4906115e7565b60405180910390fd5b6111b56111da565b565b6000808273ffffffffffffffffffffffffffffffffffffffff163b119050919050565b600060019054906101000a900460ff16611229576040517f08c379a0000000000000000000000000000000000000000000000000000000008152600401611220906115e7565b60405180910390fd5b61123961123461107f565b611087565b565b6040518060400160405280600081526020016000151581525090565b60008135905061126681611a8f565b92915050565b60008135905061127b81611aa6565b92915050565b60006020828403121561129757611296611858565b5b60006112a584828501611257565b91505092915050565b600080604083850312156112c5576112c4611858565b5b60006112d385828601611257565b92505060206112e48582860161126c565b9150509250929050565b6112f78161173a565b82525050565b6113068161174c565b82525050565b6000611319602683611648565b91506113248261185d565b604082019050919050565b600061133c601483611648565b9150611347826118ac565b602082019050919050565b600061135f602a83611648565b915061136a826118d5565b604082019050919050565b6000611382601b83611648565b915061138d82611924565b602082019050919050565b60006113a5602e83611648565b91506113b08261194d565b604082019050919050565b60006113c8602783611648565b91506113d38261199c565b604082019050919050565b60006113eb602083611648565b91506113f6826119eb565b602082019050919050565b600061140e60008361163d565b915061141982611a14565b600082019050919050565b6000611431601a83611648565b915061143c82611a17565b602082019050919050565b6000611454602b83611648565b915061145f82611a40565b604082019050919050565b6040820160008201516114806000850182611499565b50602082015161149360208501826112fd565b50505050565b6114a281611778565b82525050565b6114b181611778565b82525050565b60006114c282611401565b9150819050919050565b60006020820190506114e160008301846112ee565b92915050565b600060208201905081810360008301526115008161130c565b9050919050565b600060208201905081810360008301526115208161132f565b9050919050565b6000602082019050818103600083015261154081611352565b9050919050565b6000602082019050818103600083015261156081611375565b9050919050565b6000602082019050818103600083015261158081611398565b9050919050565b600060208201905081810360008301526115a0816113bb565b9050919050565b600060208201905081810360008301526115c0816113de565b9050919050565b600060208201905081810360008301526115e081611424565b9050919050565b6000602082019050818103600083015261160081611447565b9050919050565b600060408201905061161c600083018461146a565b92915050565b600060208201905061163760008301846114a8565b92915050565b600081905092915050565b600082825260208201905092915050565b600061166482611778565b915061166f83611778565b9250827fffffffffffffffffffffffffffffffffffffffffffffffffffffffffffffffff038211156116a4576116a36117cb565b5b828201905092915050565b60006116ba82611778565b91506116c583611778565b9250826116d5576116d46117fa565b5b828204905092915050565b60006116eb82611778565b91506116f683611778565b9250817fffffffffffffffffffffffffffffffffffffffffffffffffffffffffffffffff048311821515161561172f5761172e6117cb565b5b828202905092915050565b600061174582611758565b9050919050565b60008115159050919050565b600073ffffffffffffffffffffffffffffffffffffffff82169050919050565b6000819050919050565b600061178d82611778565b91507fffffffffffffffffffffffffffffffffffffffffffffffffffffffffffffffff8214156117c0576117bf6117cb565b5b600182019050919050565b7f4e487b7100000000000000000000000000000000000000000000000000000000600052601160045260246000fd5b7f4e487b7100000000000000000000000000000000000000000000000000000000600052601260045260246000fd5b7f4e487b7100000000000000000000000000000000000000000000000000000000600052603260045260246000fd5b600080fd5b7f4f776e61626c653a206e6577206f776e657220697320746865207a65726f206160008201527f6464726573730000000000000000000000000000000000000000000000000000602082015250565b7f4661696c656420746f2073656e64204574686572000000000000000000000000600082015250565b7f746f74616c50657263656e746167652077696c6c20626520677265617465722060008201527f7468616e20313030303000000000000000000000000000000000000000000000602082015250565b7f436f6c6c61626f7261746f7220616c7265616479206578697374730000000000600082015250565b7f496e697469616c697a61626c653a20636f6e747261637420697320616c72656160008201527f647920696e697469616c697a6564000000000000000000000000000000000000602082015250565b7f436f6c6c61626f7261746f722063616e6e6f7420626520616e20656d7074792060008201527f6164647265737300000000000000000000000000000000000000000000000000602082015250565b7f4f776e61626c653a2063616c6c6572206973206e6f7420746865206f776e6572600082015250565b50565b7f436f6c6c61626f7261746f72206973206e6f7420657869737473000000000000600082015250565b7f496e697469616c697a61626c653a20636f6e7472616374206973206e6f74206960008201527f6e697469616c697a696e67000000000000000000000000000000000000000000602082015250565b611a988161173a565b8114611aa357600080fd5b50565b611aaf81611778565b8114611aba57600080fd5b5056fea2646970667358221220c0d57686f8eca4f2efded8618c3c851a2fbe1dd27ed413f167af84844828702d64736f6c63430008070033",
					"opcodes": "PUSH1 0x80 PUSH1 0x40 MSTORE CALLVALUE DUP1 ISZERO PUSH2 0x10 JUMPI PUSH1 0x0 DUP1 REVERT JUMPDEST POP PUSH2 0x1AF3 DUP1 PUSH2 0x20 PUSH1 0x0 CODECOPY PUSH1 0x0 RETURN INVALID PUSH1 0x80 PUSH1 0x40 MSTORE PUSH1 0x4 CALLDATASIZE LT PUSH2 0xA0 JUMPI PUSH1 0x0 CALLDATALOAD PUSH1 0xE0 SHR DUP1 PUSH4 0xD44A0E61 GT PUSH2 0x64 JUMPI DUP1 PUSH4 0xD44A0E61 EQ PUSH2 0x168 JUMPI DUP1 PUSH4 0xDD9A5837 EQ PUSH2 0x193 JUMPI DUP1 PUSH4 0xE975E3AB EQ PUSH2 0x1BC JUMPI DUP1 PUSH4 0xECE123E4 EQ PUSH2 0x1E7 JUMPI DUP1 PUSH4 0xF2FDE38B EQ PUSH2 0x210 JUMPI DUP1 PUSH4 0xF80CE32B EQ PUSH2 0x239 JUMPI PUSH2 0xA7 JUMP JUMPDEST DUP1 PUSH4 0x3CCFD60B EQ PUSH2 0xA9 JUMPI DUP1 PUSH4 0x54A33F0E EQ PUSH2 0xC0 JUMPI DUP1 PUSH4 0x715018A6 EQ PUSH2 0xE9 JUMPI DUP1 PUSH4 0x8DA5CB5B EQ PUSH2 0x100 JUMPI DUP1 PUSH4 0xB116BBF5 EQ PUSH2 0x12B JUMPI PUSH2 0xA7 JUMP JUMPDEST CALLDATASIZE PUSH2 0xA7 JUMPI STOP JUMPDEST STOP JUMPDEST CALLVALUE DUP1 ISZERO PUSH2 0xB5 JUMPI PUSH1 0x0 DUP1 REVERT JUMPDEST POP PUSH2 0xBE PUSH2 0x250 JUMP JUMPDEST STOP JUMPDEST CALLVALUE DUP1 ISZERO PUSH2 0xCC JUMPI PUSH1 0x0 DUP1 REVERT JUMPDEST POP PUSH2 0xE7 PUSH1 0x4 DUP1 CALLDATASIZE SUB DUP2 ADD SWAP1 PUSH2 0xE2 SWAP2 SWAP1 PUSH2 0x12AE JUMP JUMPDEST PUSH2 0x4BF JUMP JUMPDEST STOP JUMPDEST CALLVALUE DUP1 ISZERO PUSH2 0xF5 JUMPI PUSH1 0x0 DUP1 REVERT JUMPDEST POP PUSH2 0xFE PUSH2 0x77D JUMP JUMPDEST STOP JUMPDEST CALLVALUE DUP1 ISZERO PUSH2 0x10C JUMPI PUSH1 0x0 DUP1 REVERT JUMPDEST POP PUSH2 0x115 PUSH2 0x805 JUMP JUMPDEST PUSH1 0x40 MLOAD PUSH2 0x122 SWAP2 SWAP1 PUSH2 0x14CC JUMP JUMPDEST PUSH1 0x40 MLOAD DUP1 SWAP2 SUB SWAP1 RETURN JUMPDEST CALLVALUE DUP1 ISZERO PUSH2 0x137 JUMPI PUSH1 0x0 DUP1 REVERT JUMPDEST POP PUSH2 0x152 PUSH1 0x4 DUP1 CALLDATASIZE SUB DUP2 ADD SWAP1 PUSH2 0x14D SWAP2 SWAP1 PUSH2 0x1281 JUMP JUMPDEST PUSH2 0x82F JUMP JUMPDEST PUSH1 0x40 MLOAD PUSH2 0x15F SWAP2 SWAP1 PUSH2 0x1607 JUMP JUMPDEST PUSH1 0x40 MLOAD DUP1 SWAP2 SUB SWAP1 RETURN JUMPDEST CALLVALUE DUP1 ISZERO PUSH2 0x174 JUMPI PUSH1 0x0 DUP1 REVERT JUMPDEST POP PUSH2 0x17D PUSH2 0x929 JUMP JUMPDEST PUSH1 0x40 MLOAD PUSH2 0x18A SWAP2 SWAP1 PUSH2 0x1622 JUMP JUMPDEST PUSH1 0x40 MLOAD DUP1 SWAP2 SUB SWAP1 RETURN JUMPDEST CALLVALUE DUP1 ISZERO PUSH2 0x19F JUMPI PUSH1 0x0 DUP1 REVERT JUMPDEST POP PUSH2 0x1BA PUSH1 0x4 DUP1 CALLDATASIZE SUB DUP2 ADD SWAP1 PUSH2 0x1B5 SWAP2 SWAP1 PUSH2 0x12AE JUMP JUMPDEST PUSH2 0xA2A JUMP JUMPDEST STOP JUMPDEST CALLVALUE DUP1 ISZERO PUSH2 0x1C8 JUMPI PUSH1 0x0 DUP1 REVERT JUMPDEST POP PUSH2 0x1D1 PUSH2 0xC3C JUMP JUMPDEST PUSH1 0x40 MLOAD PUSH2 0x1DE SWAP2 SWAP1 PUSH2 0x1607 JUMP JUMPDEST PUSH1 0x40 MLOAD DUP1 SWAP2 SUB SWAP1 RETURN JUMPDEST CALLVALUE DUP1 ISZERO PUSH2 0x1F3 JUMPI PUSH1 0x0 DUP1 REVERT JUMPDEST POP PUSH2 0x20E PUSH1 0x4 DUP1 CALLDATASIZE SUB DUP2 ADD SWAP1 PUSH2 0x209 SWAP2 SWAP1 PUSH2 0x1281 JUMP JUMPDEST PUSH2 0xCBF JUMP JUMPDEST STOP JUMPDEST CALLVALUE DUP1 ISZERO PUSH2 0x21C JUMPI PUSH1 0x0 DUP1 REVERT JUMPDEST POP PUSH2 0x237 PUSH1 0x4 DUP1 CALLDATASIZE SUB DUP2 ADD SWAP1 PUSH2 0x232 SWAP2 SWAP1 PUSH2 0x1281 JUMP JUMPDEST PUSH2 0xE9B JUMP JUMPDEST STOP JUMPDEST CALLVALUE DUP1 ISZERO PUSH2 0x245 JUMPI PUSH1 0x0 DUP1 REVERT JUMPDEST POP PUSH2 0x24E PUSH2 0xF93 JUMP JUMPDEST STOP JUMPDEST PUSH2 0x258 PUSH2 0x107F JUMP JUMPDEST PUSH20 0xFFFFFFFFFFFFFFFFFFFFFFFFFFFFFFFFFFFFFFFF AND PUSH2 0x276 PUSH2 0x805 JUMP JUMPDEST PUSH20 0xFFFFFFFFFFFFFFFFFFFFFFFFFFFFFFFFFFFFFFFF AND EQ PUSH2 0x2CC JUMPI PUSH1 0x40 MLOAD PUSH32 0x8C379A000000000000000000000000000000000000000000000000000000000 DUP2 MSTORE PUSH1 0x4 ADD PUSH2 0x2C3 SWAP1 PUSH2 0x15A7 JUMP JUMPDEST PUSH1 0x40 MLOAD DUP1 SWAP2 SUB SWAP1 REVERT JUMPDEST PUSH1 0x0 SELFBALANCE SWAP1 POP PUSH1 0x0 JUMPDEST PUSH1 0x65 DUP1 SLOAD SWAP1 POP DUP2 LT ISZERO PUSH2 0x4BB JUMPI PUSH1 0x0 PUSH1 0x66 PUSH1 0x0 PUSH1 0x65 DUP5 DUP2 SLOAD DUP2 LT PUSH2 0x2FB JUMPI PUSH2 0x2FA PUSH2 0x1829 JUMP JUMPDEST JUMPDEST SWAP1 PUSH1 0x0 MSTORE PUSH1 0x20 PUSH1 0x0 KECCAK256 ADD PUSH1 0x0 SWAP1 SLOAD SWAP1 PUSH2 0x100 EXP SWAP1 DIV PUSH20 0xFFFFFFFFFFFFFFFFFFFFFFFFFFFFFFFFFFFFFFFF AND PUSH20 0xFFFFFFFFFFFFFFFFFFFFFFFFFFFFFFFFFFFFFFFF AND PUSH20 0xFFFFFFFFFFFFFFFFFFFFFFFFFFFFFFFFFFFFFFFF AND DUP2 MSTORE PUSH1 0x20 ADD SWAP1 DUP2 MSTORE PUSH1 0x20 ADD PUSH1 0x0 KECCAK256 PUSH1 0x40 MLOAD DUP1 PUSH1 0x40 ADD PUSH1 0x40 MSTORE SWAP1 DUP2 PUSH1 0x0 DUP3 ADD SLOAD DUP2 MSTORE PUSH1 0x20 ADD PUSH1 0x1 DUP3 ADD PUSH1 0x0 SWAP1 SLOAD SWAP1 PUSH2 0x100 EXP SWAP1 DIV PUSH1 0xFF AND ISZERO ISZERO ISZERO ISZERO DUP2 MSTORE POP POP SWAP1 POP DUP1 PUSH1 0x20 ADD MLOAD ISZERO PUSH2 0x4A7 JUMPI PUSH1 0x0 DUP1 PUSH1 0x65 DUP5 DUP2 SLOAD DUP2 LT PUSH2 0x3B3 JUMPI PUSH2 0x3B2 PUSH2 0x1829 JUMP JUMPDEST JUMPDEST SWAP1 PUSH1 0x0 MSTORE PUSH1 0x20 PUSH1 0x0 KECCAK256 ADD PUSH1 0x0 SWAP1 SLOAD SWAP1 PUSH2 0x100 EXP SWAP1 DIV PUSH20 0xFFFFFFFFFFFFFFFFFFFFFFFFFFFFFFFFFFFFFFFF AND PUSH20 0xFFFFFFFFFFFFFFFFFFFFFFFFFFFFFFFFFFFFFFFF AND PUSH2 0x2710 DUP5 PUSH1 0x0 ADD MLOAD DUP8 PUSH2 0x407 SWAP2 SWAP1 PUSH2 0x16E0 JUMP JUMPDEST PUSH2 0x411 SWAP2 SWAP1 PUSH2 0x16AF JUMP JUMPDEST PUSH1 0x40 MLOAD PUSH2 0x41D SWAP1 PUSH2 0x14B7 JUMP JUMPDEST PUSH1 0x0 PUSH1 0x40 MLOAD DUP1 DUP4 SUB DUP2 DUP6 DUP8 GAS CALL SWAP3 POP POP POP RETURNDATASIZE DUP1 PUSH1 0x0 DUP2 EQ PUSH2 0x45A JUMPI PUSH1 0x40 MLOAD SWAP2 POP PUSH1 0x1F NOT PUSH1 0x3F RETURNDATASIZE ADD AND DUP3 ADD PUSH1 0x40 MSTORE RETURNDATASIZE DUP3 MSTORE RETURNDATASIZE PUSH1 0x0 PUSH1 0x20 DUP5 ADD RETURNDATACOPY PUSH2 0x45F JUMP JUMPDEST PUSH1 0x60 SWAP2 POP JUMPDEST POP SWAP2 POP SWAP2 POP DUP2 PUSH2 0x4A4 JUMPI PUSH1 0x40 MLOAD PUSH32 0x8C379A000000000000000000000000000000000000000000000000000000000 DUP2 MSTORE PUSH1 0x4 ADD PUSH2 0x49B SWAP1 PUSH2 0x1507 JUMP JUMPDEST PUSH1 0x40 MLOAD DUP1 SWAP2 SUB SWAP1 REVERT JUMPDEST POP POP JUMPDEST POP DUP1 DUP1 PUSH2 0x4B3 SWAP1 PUSH2 0x1782 JUMP JUMPDEST SWAP2 POP POP PUSH2 0x2D4 JUMP JUMPDEST POP POP JUMP JUMPDEST PUSH2 0x4C7 PUSH2 0x107F JUMP JUMPDEST PUSH20 0xFFFFFFFFFFFFFFFFFFFFFFFFFFFFFFFFFFFFFFFF AND PUSH2 0x4E5 PUSH2 0x805 JUMP JUMPDEST PUSH20 0xFFFFFFFFFFFFFFFFFFFFFFFFFFFFFFFFFFFFFFFF AND EQ PUSH2 0x53B JUMPI PUSH1 0x40 MLOAD PUSH32 0x8C379A000000000000000000000000000000000000000000000000000000000 DUP2 MSTORE PUSH1 0x4 ADD PUSH2 0x532 SWAP1 PUSH2 0x15A7 JUMP JUMPDEST PUSH1 0x40 MLOAD DUP1 SWAP2 SUB SWAP1 REVERT JUMPDEST PUSH1 0x0 PUSH20 0xFFFFFFFFFFFFFFFFFFFFFFFFFFFFFFFFFFFFFFFF AND DUP3 PUSH20 0xFFFFFFFFFFFFFFFFFFFFFFFFFFFFFFFFFFFFFFFF AND EQ ISZERO PUSH2 0x5AB JUMPI PUSH1 0x40 MLOAD PUSH32 0x8C379A000000000000000000000000000000000000000000000000000000000 DUP2 MSTORE PUSH1 0x4 ADD PUSH2 0x5A2 SWAP1 PUSH2 0x1587 JUMP JUMPDEST PUSH1 0x40 MLOAD DUP1 SWAP2 SUB SWAP1 REVERT JUMPDEST PUSH1 0x66 PUSH1 0x0 DUP4 PUSH20 0xFFFFFFFFFFFFFFFFFFFFFFFFFFFFFFFFFFFFFFFF AND PUSH20 0xFFFFFFFFFFFFFFFFFFFFFFFFFFFFFFFFFFFFFFFF AND DUP2 MSTORE PUSH1 0x20 ADD SWAP1 DUP2 MSTORE PUSH1 0x20 ADD PUSH1 0x0 KECCAK256 PUSH1 0x1 ADD PUSH1 0x0 SWAP1 SLOAD SWAP1 PUSH2 0x100 EXP SWAP1 DIV PUSH1 0xFF AND ISZERO PUSH2 0x63B JUMPI PUSH1 0x40 MLOAD PUSH32 0x8C379A000000000000000000000000000000000000000000000000000000000 DUP2 MSTORE PUSH1 0x4 ADD PUSH2 0x632 SWAP1 PUSH2 0x1547 JUMP JUMPDEST PUSH1 0x40 MLOAD DUP1 SWAP2 SUB SWAP1 REVERT JUMPDEST PUSH2 0x2710 DUP2 PUSH2 0x647 PUSH2 0x929 JUMP JUMPDEST PUSH2 0x651 SWAP2 SWAP1 PUSH2 0x1659 JUMP JUMPDEST GT ISZERO PUSH2 0x692 JUMPI PUSH1 0x40 MLOAD PUSH32 0x8C379A000000000000000000000000000000000000000000000000000000000 DUP2 MSTORE PUSH1 0x4 ADD PUSH2 0x689 SWAP1 PUSH2 0x1527 JUMP JUMPDEST PUSH1 0x40 MLOAD DUP1 SWAP2 SUB SWAP1 REVERT JUMPDEST PUSH1 0x40 MLOAD DUP1 PUSH1 0x40 ADD PUSH1 0x40 MSTORE DUP1 DUP3 DUP2 MSTORE PUSH1 0x20 ADD PUSH1 0x1 ISZERO ISZERO DUP2 MSTORE POP PUSH1 0x66 PUSH1 0x0 DUP5 PUSH20 0xFFFFFFFFFFFFFFFFFFFFFFFFFFFFFFFFFFFFFFFF AND PUSH20 0xFFFFFFFFFFFFFFFFFFFFFFFFFFFFFFFFFFFFFFFF AND DUP2 MSTORE PUSH1 0x20 ADD SWAP1 DUP2 MSTORE PUSH1 0x20 ADD PUSH1 0x0 KECCAK256 PUSH1 0x0 DUP3 ADD MLOAD DUP2 PUSH1 0x0 ADD SSTORE PUSH1 0x20 DUP3 ADD MLOAD DUP2 PUSH1 0x1 ADD PUSH1 0x0 PUSH2 0x100 EXP DUP2 SLOAD DUP2 PUSH1 0xFF MUL NOT AND SWAP1 DUP4 ISZERO ISZERO MUL OR SWAP1 SSTORE POP SWAP1 POP POP PUSH1 0x65 DUP3 SWAP1 DUP1 PUSH1 0x1 DUP2 SLOAD ADD DUP1 DUP3 SSTORE DUP1 SWAP2 POP POP PUSH1 0x1 SWAP1 SUB SWAP1 PUSH1 0x0 MSTORE PUSH1 0x20 PUSH1 0x0 KECCAK256 ADD PUSH1 0x0 SWAP1 SWAP2 SWAP1 SWAP2 SWAP1 SWAP2 PUSH2 0x100 EXP DUP2 SLOAD DUP2 PUSH20 0xFFFFFFFFFFFFFFFFFFFFFFFFFFFFFFFFFFFFFFFF MUL NOT AND SWAP1 DUP4 PUSH20 0xFFFFFFFFFFFFFFFFFFFFFFFFFFFFFFFFFFFFFFFF AND MUL OR SWAP1 SSTORE POP POP POP JUMP JUMPDEST PUSH2 0x785 PUSH2 0x107F JUMP JUMPDEST PUSH20 0xFFFFFFFFFFFFFFFFFFFFFFFFFFFFFFFFFFFFFFFF AND PUSH2 0x7A3 PUSH2 0x805 JUMP JUMPDEST PUSH20 0xFFFFFFFFFFFFFFFFFFFFFFFFFFFFFFFFFFFFFFFF AND EQ PUSH2 0x7F9 JUMPI PUSH1 0x40 MLOAD PUSH32 0x8C379A000000000000000000000000000000000000000000000000000000000 DUP2 MSTORE PUSH1 0x4 ADD PUSH2 0x7F0 SWAP1 PUSH2 0x15A7 JUMP JUMPDEST PUSH1 0x40 MLOAD DUP1 SWAP2 SUB SWAP1 REVERT JUMPDEST PUSH2 0x803 PUSH1 0x0 PUSH2 0x1087 JUMP JUMPDEST JUMP JUMPDEST PUSH1 0x0 PUSH1 0x33 PUSH1 0x0 SWAP1 SLOAD SWAP1 PUSH2 0x100 EXP SWAP1 DIV PUSH20 0xFFFFFFFFFFFFFFFFFFFFFFFFFFFFFFFFFFFFFFFF AND SWAP1 POP SWAP1 JUMP JUMPDEST PUSH2 0x837 PUSH2 0x123B JUMP JUMPDEST PUSH2 0x83F PUSH2 0x107F JUMP JUMPDEST PUSH20 0xFFFFFFFFFFFFFFFFFFFFFFFFFFFFFFFFFFFFFFFF AND PUSH2 0x85D PUSH2 0x805 JUMP JUMPDEST PUSH20 0xFFFFFFFFFFFFFFFFFFFFFFFFFFFFFFFFFFFFFFFF AND EQ PUSH2 0x8B3 JUMPI PUSH1 0x40 MLOAD PUSH32 0x8C379A000000000000000000000000000000000000000000000000000000000 DUP2 MSTORE PUSH1 0x4 ADD PUSH2 0x8AA SWAP1 PUSH2 0x15A7 JUMP JUMPDEST PUSH1 0x40 MLOAD DUP1 SWAP2 SUB SWAP1 REVERT JUMPDEST PUSH1 0x66 PUSH1 0x0 DUP4 PUSH20 0xFFFFFFFFFFFFFFFFFFFFFFFFFFFFFFFFFFFFFFFF AND PUSH20 0xFFFFFFFFFFFFFFFFFFFFFFFFFFFFFFFFFFFFFFFF AND DUP2 MSTORE PUSH1 0x20 ADD SWAP1 DUP2 MSTORE PUSH1 0x20 ADD PUSH1 0x0 KECCAK256 PUSH1 0x40 MLOAD DUP1 PUSH1 0x40 ADD PUSH1 0x40 MSTORE SWAP1 DUP2 PUSH1 0x0 DUP3 ADD SLOAD DUP2 MSTORE PUSH1 0x20 ADD PUSH1 0x1 DUP3 ADD PUSH1 0x0 SWAP1 SLOAD SWAP1 PUSH2 0x100 EXP SWAP1 DIV PUSH1 0xFF AND ISZERO ISZERO ISZERO ISZERO DUP2 MSTORE POP POP SWAP1 POP SWAP2 SWAP1 POP JUMP JUMPDEST PUSH1 0x0 DUP1 PUSH1 0x0 SWAP1 POP PUSH1 0x0 JUMPDEST PUSH1 0x65 DUP1 SLOAD SWAP1 POP DUP2 LT ISZERO PUSH2 0xA22 JUMPI PUSH1 0x0 PUSH1 0x66 PUSH1 0x0 PUSH1 0x65 DUP5 DUP2 SLOAD DUP2 LT PUSH2 0x95A JUMPI PUSH2 0x959 PUSH2 0x1829 JUMP JUMPDEST JUMPDEST SWAP1 PUSH1 0x0 MSTORE PUSH1 0x20 PUSH1 0x0 KECCAK256 ADD PUSH1 0x0 SWAP1 SLOAD SWAP1 PUSH2 0x100 EXP SWAP1 DIV PUSH20 0xFFFFFFFFFFFFFFFFFFFFFFFFFFFFFFFFFFFFFFFF AND PUSH20 0xFFFFFFFFFFFFFFFFFFFFFFFFFFFFFFFFFFFFFFFF AND PUSH20 0xFFFFFFFFFFFFFFFFFFFFFFFFFFFFFFFFFFFFFFFF AND DUP2 MSTORE PUSH1 0x20 ADD SWAP1 DUP2 MSTORE PUSH1 0x20 ADD PUSH1 0x0 KECCAK256 PUSH1 0x40 MLOAD DUP1 PUSH1 0x40 ADD PUSH1 0x40 MSTORE SWAP1 DUP2 PUSH1 0x0 DUP3 ADD SLOAD DUP2 MSTORE PUSH1 0x20 ADD PUSH1 0x1 DUP3 ADD PUSH1 0x0 SWAP1 SLOAD SWAP1 PUSH2 0x100 EXP SWAP1 DIV PUSH1 0xFF AND ISZERO ISZERO ISZERO ISZERO DUP2 MSTORE POP POP SWAP1 POP DUP1 PUSH1 0x20 ADD MLOAD ISZERO PUSH2 0xA0E JUMPI DUP1 PUSH1 0x0 ADD MLOAD DUP4 PUSH2 0xA0B SWAP2 SWAP1 PUSH2 0x1659 JUMP JUMPDEST SWAP3 POP JUMPDEST POP DUP1 DUP1 PUSH2 0xA1A SWAP1 PUSH2 0x1782 JUMP JUMPDEST SWAP2 POP POP PUSH2 0x933 JUMP JUMPDEST POP DUP1 SWAP2 POP POP SWAP1 JUMP JUMPDEST PUSH2 0xA32 PUSH2 0x107F JUMP JUMPDEST PUSH20 0xFFFFFFFFFFFFFFFFFFFFFFFFFFFFFFFFFFFFFFFF AND PUSH2 0xA50 PUSH2 0x805 JUMP JUMPDEST PUSH20 0xFFFFFFFFFFFFFFFFFFFFFFFFFFFFFFFFFFFFFFFF AND EQ PUSH2 0xAA6 JUMPI PUSH1 0x40 MLOAD PUSH32 0x8C379A000000000000000000000000000000000000000000000000000000000 DUP2 MSTORE PUSH1 0x4 ADD PUSH2 0xA9D SWAP1 PUSH2 0x15A7 JUMP JUMPDEST PUSH1 0x40 MLOAD DUP1 SWAP2 SUB SWAP1 REVERT JUMPDEST PUSH1 0x0 PUSH20 0xFFFFFFFFFFFFFFFFFFFFFFFFFFFFFFFFFFFFFFFF AND DUP3 PUSH20 0xFFFFFFFFFFFFFFFFFFFFFFFFFFFFFFFFFFFFFFFF AND EQ ISZERO PUSH2 0xB16 JUMPI PUSH1 0x40 MLOAD PUSH32 0x8C379A000000000000000000000000000000000000000000000000000000000 DUP2 MSTORE PUSH1 0x4 ADD PUSH2 0xB0D SWAP1 PUSH2 0x1587 JUMP JUMPDEST PUSH1 0x40 MLOAD DUP1 SWAP2 SUB SWAP1 REVERT JUMPDEST PUSH1 0x66 PUSH1 0x0 DUP4 PUSH20 0xFFFFFFFFFFFFFFFFFFFFFFFFFFFFFFFFFFFFFFFF AND PUSH20 0xFFFFFFFFFFFFFFFFFFFFFFFFFFFFFFFFFFFFFFFF AND DUP2 MSTORE PUSH1 0x20 ADD SWAP1 DUP2 MSTORE PUSH1 0x20 ADD PUSH1 0x0 KECCAK256 PUSH1 0x1 ADD PUSH1 0x0 SWAP1 SLOAD SWAP1 PUSH2 0x100 EXP SWAP1 DIV PUSH1 0xFF AND PUSH2 0xBA5 JUMPI PUSH1 0x40 MLOAD PUSH32 0x8C379A000000000000000000000000000000000000000000000000000000000 DUP2 MSTORE PUSH1 0x4 ADD PUSH2 0xB9C SWAP1 PUSH2 0x15C7 JUMP JUMPDEST PUSH1 0x40 MLOAD DUP1 SWAP2 SUB SWAP1 REVERT JUMPDEST DUP1 PUSH1 0x66 PUSH1 0x0 DUP5 PUSH20 0xFFFFFFFFFFFFFFFFFFFFFFFFFFFFFFFFFFFFFFFF AND PUSH20 0xFFFFFFFFFFFFFFFFFFFFFFFFFFFFFFFFFFFFFFFF AND DUP2 MSTORE PUSH1 0x20 ADD SWAP1 DUP2 MSTORE PUSH1 0x20 ADD PUSH1 0x0 KECCAK256 PUSH1 0x0 ADD DUP2 SWAP1 SSTORE POP PUSH2 0x2710 PUSH2 0xBF7 PUSH2 0x929 JUMP JUMPDEST GT ISZERO PUSH2 0xC38 JUMPI PUSH1 0x40 MLOAD PUSH32 0x8C379A000000000000000000000000000000000000000000000000000000000 DUP2 MSTORE PUSH1 0x4 ADD PUSH2 0xC2F SWAP1 PUSH2 0x1527 JUMP JUMPDEST PUSH1 0x40 MLOAD DUP1 SWAP2 SUB SWAP1 REVERT JUMPDEST POP POP JUMP JUMPDEST PUSH2 0xC44 PUSH2 0x123B JUMP JUMPDEST PUSH1 0x66 PUSH1 0x0 PUSH2 0xC50 PUSH2 0x107F JUMP JUMPDEST PUSH20 0xFFFFFFFFFFFFFFFFFFFFFFFFFFFFFFFFFFFFFFFF AND PUSH20 0xFFFFFFFFFFFFFFFFFFFFFFFFFFFFFFFFFFFFFFFF AND DUP2 MSTORE PUSH1 0x20 ADD SWAP1 DUP2 MSTORE PUSH1 0x20 ADD PUSH1 0x0 KECCAK256 PUSH1 0x40 MLOAD DUP1 PUSH1 0x40 ADD PUSH1 0x40 MSTORE SWAP1 DUP2 PUSH1 0x0 DUP3 ADD SLOAD DUP2 MSTORE PUSH1 0x20 ADD PUSH1 0x1 DUP3 ADD PUSH1 0x0 SWAP1 SLOAD SWAP1 PUSH2 0x100 EXP SWAP1 DIV PUSH1 0xFF AND ISZERO ISZERO ISZERO ISZERO DUP2 MSTORE POP POP SWAP1 POP SWAP1 JUMP JUMPDEST PUSH2 0xCC7 PUSH2 0x107F JUMP JUMPDEST PUSH20 0xFFFFFFFFFFFFFFFFFFFFFFFFFFFFFFFFFFFFFFFF AND PUSH2 0xCE5 PUSH2 0x805 JUMP JUMPDEST PUSH20 0xFFFFFFFFFFFFFFFFFFFFFFFFFFFFFFFFFFFFFFFF AND EQ PUSH2 0xD3B JUMPI PUSH1 0x40 MLOAD PUSH32 0x8C379A000000000000000000000000000000000000000000000000000000000 DUP2 MSTORE PUSH1 0x4 ADD PUSH2 0xD32 SWAP1 PUSH2 0x15A7 JUMP JUMPDEST PUSH1 0x40 MLOAD DUP1 SWAP2 SUB SWAP1 REVERT JUMPDEST PUSH1 0x0 PUSH20 0xFFFFFFFFFFFFFFFFFFFFFFFFFFFFFFFFFFFFFFFF AND DUP2 PUSH20 0xFFFFFFFFFFFFFFFFFFFFFFFFFFFFFFFFFFFFFFFF AND EQ ISZERO PUSH2 0xDAB JUMPI PUSH1 0x40 MLOAD PUSH32 0x8C379A000000000000000000000000000000000000000000000000000000000 DUP2 MSTORE PUSH1 0x4 ADD PUSH2 0xDA2 SWAP1 PUSH2 0x1587 JUMP JUMPDEST PUSH1 0x40 MLOAD DUP1 SWAP2 SUB SWAP1 REVERT JUMPDEST PUSH1 0x66 PUSH1 0x0 DUP3 PUSH20 0xFFFFFFFFFFFFFFFFFFFFFFFFFFFFFFFFFFFFFFFF AND PUSH20 0xFFFFFFFFFFFFFFFFFFFFFFFFFFFFFFFFFFFFFFFF AND DUP2 MSTORE PUSH1 0x20 ADD SWAP1 DUP2 MSTORE PUSH1 0x20 ADD PUSH1 0x0 KECCAK256 PUSH1 0x1 ADD PUSH1 0x0 SWAP1 SLOAD SWAP1 PUSH2 0x100 EXP SWAP1 DIV PUSH1 0xFF AND PUSH2 0xE3A JUMPI PUSH1 0x40 MLOAD PUSH32 0x8C379A000000000000000000000000000000000000000000000000000000000 DUP2 MSTORE PUSH1 0x4 ADD PUSH2 0xE31 SWAP1 PUSH2 0x15C7 JUMP JUMPDEST PUSH1 0x40 MLOAD DUP1 SWAP2 SUB SWAP1 REVERT JUMPDEST PUSH1 0x66 PUSH1 0x0 DUP3 PUSH20 0xFFFFFFFFFFFFFFFFFFFFFFFFFFFFFFFFFFFFFFFF AND PUSH20 0xFFFFFFFFFFFFFFFFFFFFFFFFFFFFFFFFFFFFFFFF AND DUP2 MSTORE PUSH1 0x20 ADD SWAP1 DUP2 MSTORE PUSH1 0x20 ADD PUSH1 0x0 KECCAK256 PUSH1 0x0 DUP1 DUP3 ADD PUSH1 0x0 SWAP1 SSTORE PUSH1 0x1 DUP3 ADD PUSH1 0x0 PUSH2 0x100 EXP DUP2 SLOAD SWAP1 PUSH1 0xFF MUL NOT AND SWAP1 SSTORE POP POP POP JUMP JUMPDEST PUSH2 0xEA3 PUSH2 0x107F JUMP JUMPDEST PUSH20 0xFFFFFFFFFFFFFFFFFFFFFFFFFFFFFFFFFFFFFFFF AND PUSH2 0xEC1 PUSH2 0x805 JUMP JUMPDEST PUSH20 0xFFFFFFFFFFFFFFFFFFFFFFFFFFFFFFFFFFFFFFFF AND EQ PUSH2 0xF17 JUMPI PUSH1 0x40 MLOAD PUSH32 0x8C379A000000000000000000000000000000000000000000000000000000000 DUP2 MSTORE PUSH1 0x4 ADD PUSH2 0xF0E SWAP1 PUSH2 0x15A7 JUMP JUMPDEST PUSH1 0x40 MLOAD DUP1 SWAP2 SUB SWAP1 REVERT JUMPDEST PUSH1 0x0 PUSH20 0xFFFFFFFFFFFFFFFFFFFFFFFFFFFFFFFFFFFFFFFF AND DUP2 PUSH20 0xFFFFFFFFFFFFFFFFFFFFFFFFFFFFFFFFFFFFFFFF AND EQ ISZERO PUSH2 0xF87 JUMPI PUSH1 0x40 MLOAD PUSH32 0x8C379A000000000000000000000000000000000000000000000000000000000 DUP2 MSTORE PUSH1 0x4 ADD PUSH2 0xF7E SWAP1 PUSH2 0x14E7 JUMP JUMPDEST PUSH1 0x40 MLOAD DUP1 SWAP2 SUB SWAP1 REVERT JUMPDEST PUSH2 0xF90 DUP2 PUSH2 0x1087 JUMP JUMPDEST POP JUMP JUMPDEST PUSH1 0x0 PUSH1 0x1 SWAP1 SLOAD SWAP1 PUSH2 0x100 EXP SWAP1 DIV PUSH1 0xFF AND PUSH2 0xFBB JUMPI PUSH1 0x0 DUP1 SLOAD SWAP1 PUSH2 0x100 EXP SWAP1 DIV PUSH1 0xFF AND ISZERO PUSH2 0xFC4 JUMP JUMPDEST PUSH2 0xFC3 PUSH2 0x114D JUMP JUMPDEST JUMPDEST PUSH2 0x1003 JUMPI PUSH1 0x40 MLOAD PUSH32 0x8C379A000000000000000000000000000000000000000000000000000000000 DUP2 MSTORE PUSH1 0x4 ADD PUSH2 0xFFA SWAP1 PUSH2 0x1567 JUMP JUMPDEST PUSH1 0x40 MLOAD DUP1 SWAP2 SUB SWAP1 REVERT JUMPDEST PUSH1 0x0 DUP1 PUSH1 0x1 SWAP1 SLOAD SWAP1 PUSH2 0x100 EXP SWAP1 DIV PUSH1 0xFF AND ISZERO SWAP1 POP DUP1 ISZERO PUSH2 0x1053 JUMPI PUSH1 0x1 PUSH1 0x0 PUSH1 0x1 PUSH2 0x100 EXP DUP2 SLOAD DUP2 PUSH1 0xFF MUL NOT AND SWAP1 DUP4 ISZERO ISZERO MUL OR SWAP1 SSTORE POP PUSH1 0x1 PUSH1 0x0 DUP1 PUSH2 0x100 EXP DUP2 SLOAD DUP2 PUSH1 0xFF MUL NOT AND SWAP1 DUP4 ISZERO ISZERO MUL OR SWAP1 SSTORE POP JUMPDEST PUSH2 0x105B PUSH2 0x115E JUMP JUMPDEST DUP1 ISZERO PUSH2 0x107C JUMPI PUSH1 0x0 DUP1 PUSH1 0x1 PUSH2 0x100 EXP DUP2 SLOAD DUP2 PUSH1 0xFF MUL NOT AND SWAP1 DUP4 ISZERO ISZERO MUL OR SWAP1 SSTORE POP JUMPDEST POP JUMP JUMPDEST PUSH1 0x0 CALLER SWAP1 POP SWAP1 JUMP JUMPDEST PUSH1 0x0 PUSH1 0x33 PUSH1 0x0 SWAP1 SLOAD SWAP1 PUSH2 0x100 EXP SWAP1 DIV PUSH20 0xFFFFFFFFFFFFFFFFFFFFFFFFFFFFFFFFFFFFFFFF AND SWAP1 POP DUP2 PUSH1 0x33 PUSH1 0x0 PUSH2 0x100 EXP DUP2 SLOAD DUP2 PUSH20 0xFFFFFFFFFFFFFFFFFFFFFFFFFFFFFFFFFFFFFFFF MUL NOT AND SWAP1 DUP4 PUSH20 0xFFFFFFFFFFFFFFFFFFFFFFFFFFFFFFFFFFFFFFFF AND MUL OR SWAP1 SSTORE POP DUP2 PUSH20 0xFFFFFFFFFFFFFFFFFFFFFFFFFFFFFFFFFFFFFFFF AND DUP2 PUSH20 0xFFFFFFFFFFFFFFFFFFFFFFFFFFFFFFFFFFFFFFFF AND PUSH32 0x8BE0079C531659141344CD1FD0A4F28419497F9722A3DAAFE3B4186F6B6457E0 PUSH1 0x40 MLOAD PUSH1 0x40 MLOAD DUP1 SWAP2 SUB SWAP1 LOG3 POP POP JUMP JUMPDEST PUSH1 0x0 PUSH2 0x1158 ADDRESS PUSH2 0x11B7 JUMP JUMPDEST ISZERO SWAP1 POP SWAP1 JUMP JUMPDEST PUSH1 0x0 PUSH1 0x1 SWAP1 SLOAD SWAP1 PUSH2 0x100 EXP SWAP1 DIV PUSH1 0xFF AND PUSH2 0x11AD JUMPI PUSH1 0x40 MLOAD PUSH32 0x8C379A000000000000000000000000000000000000000000000000000000000 DUP2 MSTORE PUSH1 0x4 ADD PUSH2 0x11A4 SWAP1 PUSH2 0x15E7 JUMP JUMPDEST PUSH1 0x40 MLOAD DUP1 SWAP2 SUB SWAP1 REVERT JUMPDEST PUSH2 0x11B5 PUSH2 0x11DA JUMP JUMPDEST JUMP JUMPDEST PUSH1 0x0 DUP1 DUP3 PUSH20 0xFFFFFFFFFFFFFFFFFFFFFFFFFFFFFFFFFFFFFFFF AND EXTCODESIZE GT SWAP1 POP SWAP2 SWAP1 POP JUMP JUMPDEST PUSH1 0x0 PUSH1 0x1 SWAP1 SLOAD SWAP1 PUSH2 0x100 EXP SWAP1 DIV PUSH1 0xFF AND PUSH2 0x1229 JUMPI PUSH1 0x40 MLOAD PUSH32 0x8C379A000000000000000000000000000000000000000000000000000000000 DUP2 MSTORE PUSH1 0x4 ADD PUSH2 0x1220 SWAP1 PUSH2 0x15E7 JUMP JUMPDEST PUSH1 0x40 MLOAD DUP1 SWAP2 SUB SWAP1 REVERT JUMPDEST PUSH2 0x1239 PUSH2 0x1234 PUSH2 0x107F JUMP JUMPDEST PUSH2 0x1087 JUMP JUMPDEST JUMP JUMPDEST PUSH1 0x40 MLOAD DUP1 PUSH1 0x40 ADD PUSH1 0x40 MSTORE DUP1 PUSH1 0x0 DUP2 MSTORE PUSH1 0x20 ADD PUSH1 0x0 ISZERO ISZERO DUP2 MSTORE POP SWAP1 JUMP JUMPDEST PUSH1 0x0 DUP2 CALLDATALOAD SWAP1 POP PUSH2 0x1266 DUP2 PUSH2 0x1A8F JUMP JUMPDEST SWAP3 SWAP2 POP POP JUMP JUMPDEST PUSH1 0x0 DUP2 CALLDATALOAD SWAP1 POP PUSH2 0x127B DUP2 PUSH2 0x1AA6 JUMP JUMPDEST SWAP3 SWAP2 POP POP JUMP JUMPDEST PUSH1 0x0 PUSH1 0x20 DUP3 DUP5 SUB SLT ISZERO PUSH2 0x1297 JUMPI PUSH2 0x1296 PUSH2 0x1858 JUMP JUMPDEST JUMPDEST PUSH1 0x0 PUSH2 0x12A5 DUP5 DUP3 DUP6 ADD PUSH2 0x1257 JUMP JUMPDEST SWAP2 POP POP SWAP3 SWAP2 POP POP JUMP JUMPDEST PUSH1 0x0 DUP1 PUSH1 0x40 DUP4 DUP6 SUB SLT ISZERO PUSH2 0x12C5 JUMPI PUSH2 0x12C4 PUSH2 0x1858 JUMP JUMPDEST JUMPDEST PUSH1 0x0 PUSH2 0x12D3 DUP6 DUP3 DUP7 ADD PUSH2 0x1257 JUMP JUMPDEST SWAP3 POP POP PUSH1 0x20 PUSH2 0x12E4 DUP6 DUP3 DUP7 ADD PUSH2 0x126C JUMP JUMPDEST SWAP2 POP POP SWAP3 POP SWAP3 SWAP1 POP JUMP JUMPDEST PUSH2 0x12F7 DUP2 PUSH2 0x173A JUMP JUMPDEST DUP3 MSTORE POP POP JUMP JUMPDEST PUSH2 0x1306 DUP2 PUSH2 0x174C JUMP JUMPDEST DUP3 MSTORE POP POP JUMP JUMPDEST PUSH1 0x0 PUSH2 0x1319 PUSH1 0x26 DUP4 PUSH2 0x1648 JUMP JUMPDEST SWAP2 POP PUSH2 0x1324 DUP3 PUSH2 0x185D JUMP JUMPDEST PUSH1 0x40 DUP3 ADD SWAP1 POP SWAP2 SWAP1 POP JUMP JUMPDEST PUSH1 0x0 PUSH2 0x133C PUSH1 0x14 DUP4 PUSH2 0x1648 JUMP JUMPDEST SWAP2 POP PUSH2 0x1347 DUP3 PUSH2 0x18AC JUMP JUMPDEST PUSH1 0x20 DUP3 ADD SWAP1 POP SWAP2 SWAP1 POP JUMP JUMPDEST PUSH1 0x0 PUSH2 0x135F PUSH1 0x2A DUP4 PUSH2 0x1648 JUMP JUMPDEST SWAP2 POP PUSH2 0x136A DUP3 PUSH2 0x18D5 JUMP JUMPDEST PUSH1 0x40 DUP3 ADD SWAP1 POP SWAP2 SWAP1 POP JUMP JUMPDEST PUSH1 0x0 PUSH2 0x1382 PUSH1 0x1B DUP4 PUSH2 0x1648 JUMP JUMPDEST SWAP2 POP PUSH2 0x138D DUP3 PUSH2 0x1924 JUMP JUMPDEST PUSH1 0x20 DUP3 ADD SWAP1 POP SWAP2 SWAP1 POP JUMP JUMPDEST PUSH1 0x0 PUSH2 0x13A5 PUSH1 0x2E DUP4 PUSH2 0x1648 JUMP JUMPDEST SWAP2 POP PUSH2 0x13B0 DUP3 PUSH2 0x194D JUMP JUMPDEST PUSH1 0x40 DUP3 ADD SWAP1 POP SWAP2 SWAP1 POP JUMP JUMPDEST PUSH1 0x0 PUSH2 0x13C8 PUSH1 0x27 DUP4 PUSH2 0x1648 JUMP JUMPDEST SWAP2 POP PUSH2 0x13D3 DUP3 PUSH2 0x199C JUMP JUMPDEST PUSH1 0x40 DUP3 ADD SWAP1 POP SWAP2 SWAP1 POP JUMP JUMPDEST PUSH1 0x0 PUSH2 0x13EB PUSH1 0x20 DUP4 PUSH2 0x1648 JUMP JUMPDEST SWAP2 POP PUSH2 0x13F6 DUP3 PUSH2 0x19EB JUMP JUMPDEST PUSH1 0x20 DUP3 ADD SWAP1 POP SWAP2 SWAP1 POP JUMP JUMPDEST PUSH1 0x0 PUSH2 0x140E PUSH1 0x0 DUP4 PUSH2 0x163D JUMP JUMPDEST SWAP2 POP PUSH2 0x1419 DUP3 PUSH2 0x1A14 JUMP JUMPDEST PUSH1 0x0 DUP3 ADD SWAP1 POP SWAP2 SWAP1 POP JUMP JUMPDEST PUSH1 0x0 PUSH2 0x1431 PUSH1 0x1A DUP4 PUSH2 0x1648 JUMP JUMPDEST SWAP2 POP PUSH2 0x143C DUP3 PUSH2 0x1A17 JUMP JUMPDEST PUSH1 0x20 DUP3 ADD SWAP1 POP SWAP2 SWAP1 POP JUMP JUMPDEST PUSH1 0x0 PUSH2 0x1454 PUSH1 0x2B DUP4 PUSH2 0x1648 JUMP JUMPDEST SWAP2 POP PUSH2 0x145F DUP3 PUSH2 0x1A40 JUMP JUMPDEST PUSH1 0x40 DUP3 ADD SWAP1 POP SWAP2 SWAP1 POP JUMP JUMPDEST PUSH1 0x40 DUP3 ADD PUSH1 0x0 DUP3 ADD MLOAD PUSH2 0x1480 PUSH1 0x0 DUP6 ADD DUP3 PUSH2 0x1499 JUMP JUMPDEST POP PUSH1 0x20 DUP3 ADD MLOAD PUSH2 0x1493 PUSH1 0x20 DUP6 ADD DUP3 PUSH2 0x12FD JUMP JUMPDEST POP POP POP POP JUMP JUMPDEST PUSH2 0x14A2 DUP2 PUSH2 0x1778 JUMP JUMPDEST DUP3 MSTORE POP POP JUMP JUMPDEST PUSH2 0x14B1 DUP2 PUSH2 0x1778 JUMP JUMPDEST DUP3 MSTORE POP POP JUMP JUMPDEST PUSH1 0x0 PUSH2 0x14C2 DUP3 PUSH2 0x1401 JUMP JUMPDEST SWAP2 POP DUP2 SWAP1 POP SWAP2 SWAP1 POP JUMP JUMPDEST PUSH1 0x0 PUSH1 0x20 DUP3 ADD SWAP1 POP PUSH2 0x14E1 PUSH1 0x0 DUP4 ADD DUP5 PUSH2 0x12EE JUMP JUMPDEST SWAP3 SWAP2 POP POP JUMP JUMPDEST PUSH1 0x0 PUSH1 0x20 DUP3 ADD SWAP1 POP DUP2 DUP2 SUB PUSH1 0x0 DUP4 ADD MSTORE PUSH2 0x1500 DUP2 PUSH2 0x130C JUMP JUMPDEST SWAP1 POP SWAP2 SWAP1 POP JUMP JUMPDEST PUSH1 0x0 PUSH1 0x20 DUP3 ADD SWAP1 POP DUP2 DUP2 SUB PUSH1 0x0 DUP4 ADD MSTORE PUSH2 0x1520 DUP2 PUSH2 0x132F JUMP JUMPDEST SWAP1 POP SWAP2 SWAP1 POP JUMP JUMPDEST PUSH1 0x0 PUSH1 0x20 DUP3 ADD SWAP1 POP DUP2 DUP2 SUB PUSH1 0x0 DUP4 ADD MSTORE PUSH2 0x1540 DUP2 PUSH2 0x1352 JUMP JUMPDEST SWAP1 POP SWAP2 SWAP1 POP JUMP JUMPDEST PUSH1 0x0 PUSH1 0x20 DUP3 ADD SWAP1 POP DUP2 DUP2 SUB PUSH1 0x0 DUP4 ADD MSTORE PUSH2 0x1560 DUP2 PUSH2 0x1375 JUMP JUMPDEST SWAP1 POP SWAP2 SWAP1 POP JUMP JUMPDEST PUSH1 0x0 PUSH1 0x20 DUP3 ADD SWAP1 POP DUP2 DUP2 SUB PUSH1 0x0 DUP4 ADD MSTORE PUSH2 0x1580 DUP2 PUSH2 0x1398 JUMP JUMPDEST SWAP1 POP SWAP2 SWAP1 POP JUMP JUMPDEST PUSH1 0x0 PUSH1 0x20 DUP3 ADD SWAP1 POP DUP2 DUP2 SUB PUSH1 0x0 DUP4 ADD MSTORE PUSH2 0x15A0 DUP2 PUSH2 0x13BB JUMP JUMPDEST SWAP1 POP SWAP2 SWAP1 POP JUMP JUMPDEST PUSH1 0x0 PUSH1 0x20 DUP3 ADD SWAP1 POP DUP2 DUP2 SUB PUSH1 0x0 DUP4 ADD MSTORE PUSH2 0x15C0 DUP2 PUSH2 0x13DE JUMP JUMPDEST SWAP1 POP SWAP2 SWAP1 POP JUMP JUMPDEST PUSH1 0x0 PUSH1 0x20 DUP3 ADD SWAP1 POP DUP2 DUP2 SUB PUSH1 0x0 DUP4 ADD MSTORE PUSH2 0x15E0 DUP2 PUSH2 0x1424 JUMP JUMPDEST SWAP1 POP SWAP2 SWAP1 POP JUMP JUMPDEST PUSH1 0x0 PUSH1 0x20 DUP3 ADD SWAP1 POP DUP2 DUP2 SUB PUSH1 0x0 DUP4 ADD MSTORE PUSH2 0x1600 DUP2 PUSH2 0x1447 JUMP JUMPDEST SWAP1 POP SWAP2 SWAP1 POP JUMP JUMPDEST PUSH1 0x0 PUSH1 0x40 DUP3 ADD SWAP1 POP PUSH2 0x161C PUSH1 0x0 DUP4 ADD DUP5 PUSH2 0x146A JUMP JUMPDEST SWAP3 SWAP2 POP POP JUMP JUMPDEST PUSH1 0x0 PUSH1 0x20 DUP3 ADD SWAP1 POP PUSH2 0x1637 PUSH1 0x0 DUP4 ADD DUP5 PUSH2 0x14A8 JUMP JUMPDEST SWAP3 SWAP2 POP POP JUMP JUMPDEST PUSH1 0x0 DUP2 SWAP1 POP SWAP3 SWAP2 POP POP JUMP JUMPDEST PUSH1 0x0 DUP3 DUP3 MSTORE PUSH1 0x20 DUP3 ADD SWAP1 POP SWAP3 SWAP2 POP POP JUMP JUMPDEST PUSH1 0x0 PUSH2 0x1664 DUP3 PUSH2 0x1778 JUMP JUMPDEST SWAP2 POP PUSH2 0x166F DUP4 PUSH2 0x1778 JUMP JUMPDEST SWAP3 POP DUP3 PUSH32 0xFFFFFFFFFFFFFFFFFFFFFFFFFFFFFFFFFFFFFFFFFFFFFFFFFFFFFFFFFFFFFFFF SUB DUP3 GT ISZERO PUSH2 0x16A4 JUMPI PUSH2 0x16A3 PUSH2 0x17CB JUMP JUMPDEST JUMPDEST DUP3 DUP3 ADD SWAP1 POP SWAP3 SWAP2 POP POP JUMP JUMPDEST PUSH1 0x0 PUSH2 0x16BA DUP3 PUSH2 0x1778 JUMP JUMPDEST SWAP2 POP PUSH2 0x16C5 DUP4 PUSH2 0x1778 JUMP JUMPDEST SWAP3 POP DUP3 PUSH2 0x16D5 JUMPI PUSH2 0x16D4 PUSH2 0x17FA JUMP JUMPDEST JUMPDEST DUP3 DUP3 DIV SWAP1 POP SWAP3 SWAP2 POP POP JUMP JUMPDEST PUSH1 0x0 PUSH2 0x16EB DUP3 PUSH2 0x1778 JUMP JUMPDEST SWAP2 POP PUSH2 0x16F6 DUP4 PUSH2 0x1778 JUMP JUMPDEST SWAP3 POP DUP2 PUSH32 0xFFFFFFFFFFFFFFFFFFFFFFFFFFFFFFFFFFFFFFFFFFFFFFFFFFFFFFFFFFFFFFFF DIV DUP4 GT DUP3 ISZERO ISZERO AND ISZERO PUSH2 0x172F JUMPI PUSH2 0x172E PUSH2 0x17CB JUMP JUMPDEST JUMPDEST DUP3 DUP3 MUL SWAP1 POP SWAP3 SWAP2 POP POP JUMP JUMPDEST PUSH1 0x0 PUSH2 0x1745 DUP3 PUSH2 0x1758 JUMP JUMPDEST SWAP1 POP SWAP2 SWAP1 POP JUMP JUMPDEST PUSH1 0x0 DUP2 ISZERO ISZERO SWAP1 POP SWAP2 SWAP1 POP JUMP JUMPDEST PUSH1 0x0 PUSH20 0xFFFFFFFFFFFFFFFFFFFFFFFFFFFFFFFFFFFFFFFF DUP3 AND SWAP1 POP SWAP2 SWAP1 POP JUMP JUMPDEST PUSH1 0x0 DUP2 SWAP1 POP SWAP2 SWAP1 POP JUMP JUMPDEST PUSH1 0x0 PUSH2 0x178D DUP3 PUSH2 0x1778 JUMP JUMPDEST SWAP2 POP PUSH32 0xFFFFFFFFFFFFFFFFFFFFFFFFFFFFFFFFFFFFFFFFFFFFFFFFFFFFFFFFFFFFFFFF DUP3 EQ ISZERO PUSH2 0x17C0 JUMPI PUSH2 0x17BF PUSH2 0x17CB JUMP JUMPDEST JUMPDEST PUSH1 0x1 DUP3 ADD SWAP1 POP SWAP2 SWAP1 POP JUMP JUMPDEST PUSH32 0x4E487B7100000000000000000000000000000000000000000000000000000000 PUSH1 0x0 MSTORE PUSH1 0x11 PUSH1 0x4 MSTORE PUSH1 0x24 PUSH1 0x0 REVERT JUMPDEST PUSH32 0x4E487B7100000000000000000000000000000000000000000000000000000000 PUSH1 0x0 MSTORE PUSH1 0x12 PUSH1 0x4 MSTORE PUSH1 0x24 PUSH1 0x0 REVERT JUMPDEST PUSH32 0x4E487B7100000000000000000000000000000000000000000000000000000000 PUSH1 0x0 MSTORE PUSH1 0x32 PUSH1 0x4 MSTORE PUSH1 0x24 PUSH1 0x0 REVERT JUMPDEST PUSH1 0x0 DUP1 REVERT JUMPDEST PUSH32 0x4F776E61626C653A206E6577206F776E657220697320746865207A65726F2061 PUSH1 0x0 DUP3 ADD MSTORE PUSH32 0x6464726573730000000000000000000000000000000000000000000000000000 PUSH1 0x20 DUP3 ADD MSTORE POP JUMP JUMPDEST PUSH32 0x4661696C656420746F2073656E64204574686572000000000000000000000000 PUSH1 0x0 DUP3 ADD MSTORE POP JUMP JUMPDEST PUSH32 0x746F74616C50657263656E746167652077696C6C206265206772656174657220 PUSH1 0x0 DUP3 ADD MSTORE PUSH32 0x7468616E20313030303000000000000000000000000000000000000000000000 PUSH1 0x20 DUP3 ADD MSTORE POP JUMP JUMPDEST PUSH32 0x436F6C6C61626F7261746F7220616C7265616479206578697374730000000000 PUSH1 0x0 DUP3 ADD MSTORE POP JUMP JUMPDEST PUSH32 0x496E697469616C697A61626C653A20636F6E747261637420697320616C726561 PUSH1 0x0 DUP3 ADD MSTORE PUSH32 0x647920696E697469616C697A6564000000000000000000000000000000000000 PUSH1 0x20 DUP3 ADD MSTORE POP JUMP JUMPDEST PUSH32 0x436F6C6C61626F7261746F722063616E6E6F7420626520616E20656D70747920 PUSH1 0x0 DUP3 ADD MSTORE PUSH32 0x6164647265737300000000000000000000000000000000000000000000000000 PUSH1 0x20 DUP3 ADD MSTORE POP JUMP JUMPDEST PUSH32 0x4F776E61626C653A2063616C6C6572206973206E6F7420746865206F776E6572 PUSH1 0x0 DUP3 ADD MSTORE POP JUMP JUMPDEST POP JUMP JUMPDEST PUSH32 0x436F6C6C61626F7261746F72206973206E6F7420657869737473000000000000 PUSH1 0x0 DUP3 ADD MSTORE POP JUMP JUMPDEST PUSH32 0x496E697469616C697A61626C653A20636F6E7472616374206973206E6F742069 PUSH1 0x0 DUP3 ADD MSTORE PUSH32 0x6E697469616C697A696E67000000000000000000000000000000000000000000 PUSH1 0x20 DUP3 ADD MSTORE POP JUMP JUMPDEST PUSH2 0x1A98 DUP2 PUSH2 0x173A JUMP JUMPDEST DUP2 EQ PUSH2 0x1AA3 JUMPI PUSH1 0x0 DUP1 REVERT JUMPDEST POP JUMP JUMPDEST PUSH2 0x1AAF DUP2 PUSH2 0x1778 JUMP JUMPDEST DUP2 EQ PUSH2 0x1ABA JUMPI PUSH1 0x0 DUP1 REVERT JUMPDEST POP JUMP INVALID LOG2 PUSH5 0x6970667358 0x22 SLT KECCAK256 0xC0 0xD5 PUSH23 0x86F8ECA4F2EFDED8618C3C851A2FBE1DD27ED413F167AF DUP5 DUP5 BASEFEE 0x28 PUSH17 0x2D64736F6C634300080700330000000000 "
				},
				"gasEstimates": {
					"creation": {
						"codeDepositCost": "1379800",
						"executionCost": "1438",
						"totalCost": "1381238"
					},
					"external": {
						"": "196",
						"__initialize()": "112788",
						"addCollaborator(address,uint256)": "infinite",
						"delCollaborator(address)": "34411",
						"getCollaborator()": "5092",
						"getCollaborator(address)": "7657",
						"owner()": "2589",
						"renounceOwnership()": "30419",
						"setCollaborator(address,uint256)": "infinite",
						"totalPercentage()": "infinite",
						"transferOwnership(address)": "30811",
						"withdraw()": "infinite"
					}
				},
				"methodIdentifiers": {
					"__initialize()": "f80ce32b",
					"addCollaborator(address,uint256)": "54a33f0e",
					"delCollaborator(address)": "ece123e4",
					"getCollaborator()": "e975e3ab",
					"getCollaborator(address)": "b116bbf5",
					"owner()": "8da5cb5b",
					"renounceOwnership()": "715018a6",
					"setCollaborator(address,uint256)": "dd9a5837",
					"totalPercentage()": "d44a0e61",
					"transferOwnership(address)": "f2fde38b",
					"withdraw()": "3ccfd60b"
				}
			},
			"storageLayout": {
				"storage": [
					{
						"astId": 130,
						"contract": "contracts/ChampionSale.sol:ChampionCollaborator",
						"label": "_initialized",
						"offset": 0,
						"slot": "0",
						"type": "t_bool"
					},
					{
						"astId": 133,
						"contract": "contracts/ChampionSale.sol:ChampionCollaborator",
						"label": "_initializing",
						"offset": 1,
						"slot": "0",
						"type": "t_bool"
					},
					{
						"astId": 481,
						"contract": "contracts/ChampionSale.sol:ChampionCollaborator",
						"label": "__gap",
						"offset": 0,
						"slot": "1",
						"type": "t_array(t_uint256)50_storage"
					},
					{
						"astId": 10,
						"contract": "contracts/ChampionSale.sol:ChampionCollaborator",
						"label": "_owner",
						"offset": 0,
						"slot": "51",
						"type": "t_address"
					},
					{
						"astId": 122,
						"contract": "contracts/ChampionSale.sol:ChampionCollaborator",
						"label": "__gap",
						"offset": 0,
						"slot": "52",
						"type": "t_array(t_uint256)49_storage"
					},
					{
						"astId": 496,
						"contract": "contracts/ChampionSale.sol:ChampionCollaborator",
						"label": "allCollaborators",
						"offset": 0,
						"slot": "101",
						"type": "t_array(t_address)dyn_storage"
					},
					{
						"astId": 501,
						"contract": "contracts/ChampionSale.sol:ChampionCollaborator",
						"label": "CollaboratorMap",
						"offset": 0,
						"slot": "102",
						"type": "t_mapping(t_address,t_struct(Collaborator)493_storage)"
					}
				],
				"types": {
					"t_address": {
						"encoding": "inplace",
						"label": "address",
						"numberOfBytes": "20"
					},
					"t_array(t_address)dyn_storage": {
						"base": "t_address",
						"encoding": "dynamic_array",
						"label": "address[]",
						"numberOfBytes": "32"
					},
					"t_array(t_uint256)49_storage": {
						"base": "t_uint256",
						"encoding": "inplace",
						"label": "uint256[49]",
						"numberOfBytes": "1568"
					},
					"t_array(t_uint256)50_storage": {
						"base": "t_uint256",
						"encoding": "inplace",
						"label": "uint256[50]",
						"numberOfBytes": "1600"
					},
					"t_bool": {
						"encoding": "inplace",
						"label": "bool",
						"numberOfBytes": "1"
					},
					"t_mapping(t_address,t_struct(Collaborator)493_storage)": {
						"encoding": "mapping",
						"key": "t_address",
						"label": "mapping(address => struct ChampionCollaborator.Collaborator)",
						"numberOfBytes": "32",
						"value": "t_struct(Collaborator)493_storage"
					},
					"t_struct(Collaborator)493_storage": {
						"encoding": "inplace",
						"label": "struct ChampionCollaborator.Collaborator",
						"members": [
							{
								"astId": 490,
								"contract": "contracts/ChampionSale.sol:ChampionCollaborator",
								"label": "percentage",
								"offset": 0,
								"slot": "0",
								"type": "t_uint256"
							},
							{
								"astId": 492,
								"contract": "contracts/ChampionSale.sol:ChampionCollaborator",
								"label": "active",
								"offset": 0,
								"slot": "1",
								"type": "t_bool"
							}
						],
						"numberOfBytes": "64"
					},
					"t_uint256": {
						"encoding": "inplace",
						"label": "uint256",
						"numberOfBytes": "32"
					}
				}
			},
			"userdoc": {
				"kind": "user",
				"methods": {},
				"version": 1
			}
		}
	}
}